{
  "_format": "hh-sol-artifact-1",
  "contractName": "MillionDollarTokenPage",
  "sourceName": "contracts/MillionDollarTokenPage.sol",
  "abi": [
    {
      "inputs": [
        {
          "internalType": "uint16",
          "name": "initialTotalMintLimit",
          "type": "uint16"
        },
        {
          "internalType": "uint16",
          "name": "initialSingleMintLimit",
          "type": "uint16"
        },
        {
          "internalType": "uint16",
          "name": "initialOwnershipMintLimit",
          "type": "uint16"
        },
        {
          "internalType": "uint256",
          "name": "initialMintPrice",
          "type": "uint256"
        },
        {
          "internalType": "string",
          "name": "initialMetadataBaseURI",
          "type": "string"
        },
        {
          "internalType": "string",
          "name": "initialDefaultContentBaseURI",
          "type": "string"
        }
      ],
      "stateMutability": "nonpayable",
      "type": "constructor"
    },
    {
      "anonymous": false,
      "inputs": [
        {
          "indexed": true,
          "internalType": "address",
          "name": "owner",
          "type": "address"
        },
        {
          "indexed": true,
          "internalType": "address",
          "name": "approved",
          "type": "address"
        },
        {
          "indexed": true,
          "internalType": "uint256",
          "name": "tokenId",
          "type": "uint256"
        }
      ],
      "name": "Approval",
      "type": "event"
    },
    {
      "anonymous": false,
      "inputs": [
        {
          "indexed": true,
          "internalType": "address",
          "name": "owner",
          "type": "address"
        },
        {
          "indexed": true,
          "internalType": "address",
          "name": "operator",
          "type": "address"
        },
        {
          "indexed": false,
          "internalType": "bool",
          "name": "approved",
          "type": "bool"
        }
      ],
      "name": "ApprovalForAll",
      "type": "event"
    },
    {
      "anonymous": false,
      "inputs": [
        {
          "indexed": true,
          "internalType": "address",
          "name": "previousOwner",
          "type": "address"
        },
        {
          "indexed": true,
          "internalType": "address",
          "name": "newOwner",
          "type": "address"
        }
      ],
      "name": "OwnershipTransferred",
      "type": "event"
    },
    {
      "anonymous": false,
      "inputs": [
        {
          "indexed": true,
          "internalType": "uint256",
          "name": "tokenId",
          "type": "uint256"
        }
      ],
      "name": "TokenContentURIChanged",
      "type": "event"
    },
    {
      "anonymous": false,
      "inputs": [
        {
          "indexed": true,
          "internalType": "address",
          "name": "from",
          "type": "address"
        },
        {
          "indexed": true,
          "internalType": "address",
          "name": "to",
          "type": "address"
        },
        {
          "indexed": true,
          "internalType": "uint256",
          "name": "tokenId",
          "type": "uint256"
        }
      ],
      "name": "Transfer",
      "type": "event"
    },
    {
      "inputs": [],
      "name": "COLUMN_COUNT",
      "outputs": [
        {
          "internalType": "uint16",
          "name": "",
          "type": "uint16"
        }
      ],
      "stateMutability": "view",
      "type": "function"
    },
    {
      "inputs": [],
      "name": "ROW_COUNT",
      "outputs": [
        {
          "internalType": "uint16",
          "name": "",
          "type": "uint16"
        }
      ],
      "stateMutability": "view",
      "type": "function"
    },
    {
      "inputs": [],
      "name": "SUPPLY_LIMIT",
      "outputs": [
        {
          "internalType": "uint16",
          "name": "",
          "type": "uint16"
        }
      ],
      "stateMutability": "view",
      "type": "function"
    },
    {
      "inputs": [],
      "name": "_defaultContentBaseURI",
      "outputs": [
        {
          "internalType": "string",
          "name": "",
          "type": "string"
        }
      ],
      "stateMutability": "view",
      "type": "function"
    },
    {
      "inputs": [],
      "name": "_metadataBaseURI",
      "outputs": [
        {
          "internalType": "string",
          "name": "",
          "type": "string"
        }
      ],
      "stateMutability": "view",
      "type": "function"
    },
    {
      "inputs": [
        {
          "internalType": "address",
          "name": "to",
          "type": "address"
        },
        {
          "internalType": "uint256",
          "name": "tokenId",
          "type": "uint256"
        }
      ],
      "name": "approve",
      "outputs": [],
      "stateMutability": "nonpayable",
      "type": "function"
    },
    {
      "inputs": [
        {
          "internalType": "address",
          "name": "owner",
          "type": "address"
        }
      ],
      "name": "balanceOf",
      "outputs": [
        {
          "internalType": "uint256",
          "name": "",
          "type": "uint256"
        }
      ],
      "stateMutability": "view",
      "type": "function"
    },
    {
      "inputs": [
        {
          "internalType": "uint256",
          "name": "tokenId",
          "type": "uint256"
        }
      ],
      "name": "getApproved",
      "outputs": [
        {
          "internalType": "address",
          "name": "",
          "type": "address"
        }
      ],
      "stateMutability": "view",
      "type": "function"
    },
    {
      "inputs": [
        {
          "internalType": "address",
          "name": "owner",
          "type": "address"
        },
        {
          "internalType": "address",
          "name": "operator",
          "type": "address"
        }
      ],
      "name": "isApprovedForAll",
      "outputs": [
        {
          "internalType": "bool",
          "name": "",
          "type": "bool"
        }
      ],
      "stateMutability": "view",
      "type": "function"
    },
    {
      "inputs": [
        {
          "internalType": "uint256",
          "name": "tokenId",
          "type": "uint256"
        }
      ],
      "name": "mint",
      "outputs": [],
      "stateMutability": "payable",
      "type": "function"
    },
    {
      "inputs": [
        {
          "internalType": "uint256",
          "name": "tokenId",
          "type": "uint256"
        }
      ],
      "name": "mintAdmin",
      "outputs": [],
      "stateMutability": "nonpayable",
      "type": "function"
    },
    {
      "inputs": [],
      "name": "mintPrice",
      "outputs": [
        {
          "internalType": "uint256",
          "name": "",
          "type": "uint256"
        }
      ],
      "stateMutability": "view",
      "type": "function"
    },
    {
      "inputs": [
        {
          "internalType": "uint256",
          "name": "tokenId",
          "type": "uint256"
        },
        {
          "internalType": "uint8",
          "name": "width",
          "type": "uint8"
        },
        {
          "internalType": "uint8",
          "name": "height",
          "type": "uint8"
        }
      ],
      "name": "mintTokenGroup",
      "outputs": [],
      "stateMutability": "payable",
      "type": "function"
    },
    {
      "inputs": [
        {
          "internalType": "uint256",
          "name": "tokenId",
          "type": "uint256"
        },
        {
          "internalType": "uint8",
          "name": "width",
          "type": "uint8"
        },
        {
          "internalType": "uint8",
          "name": "height",
          "type": "uint8"
        }
      ],
      "name": "mintTokenGroupAdmin",
      "outputs": [],
      "stateMutability": "payable",
      "type": "function"
    },
    {
      "inputs": [],
      "name": "mintedCount",
      "outputs": [
        {
          "internalType": "uint256",
          "name": "",
          "type": "uint256"
        }
      ],
      "stateMutability": "view",
      "type": "function"
    },
    {
      "inputs": [],
      "name": "name",
      "outputs": [
        {
          "internalType": "string",
          "name": "",
          "type": "string"
        }
      ],
      "stateMutability": "view",
      "type": "function"
    },
    {
      "inputs": [],
      "name": "owner",
      "outputs": [
        {
          "internalType": "address",
          "name": "",
          "type": "address"
        }
      ],
      "stateMutability": "view",
      "type": "function"
    },
    {
      "inputs": [
        {
          "internalType": "uint256",
          "name": "tokenId",
          "type": "uint256"
        }
      ],
      "name": "ownerOf",
      "outputs": [
        {
          "internalType": "address",
          "name": "",
          "type": "address"
        }
      ],
      "stateMutability": "view",
      "type": "function"
    },
    {
      "inputs": [],
      "name": "ownershipMintLimit",
      "outputs": [
        {
          "internalType": "uint16",
          "name": "",
          "type": "uint16"
        }
      ],
      "stateMutability": "view",
      "type": "function"
    },
    {
      "inputs": [],
      "name": "renounceOwnership",
      "outputs": [],
      "stateMutability": "nonpayable",
      "type": "function"
    },
    {
      "inputs": [
        {
          "internalType": "address",
          "name": "from",
          "type": "address"
        },
        {
          "internalType": "address",
          "name": "to",
          "type": "address"
        },
        {
          "internalType": "uint256",
          "name": "tokenId",
          "type": "uint256"
        }
      ],
      "name": "safeTransferFrom",
      "outputs": [],
      "stateMutability": "nonpayable",
      "type": "function"
    },
    {
      "inputs": [
        {
          "internalType": "address",
          "name": "from",
          "type": "address"
        },
        {
          "internalType": "address",
          "name": "to",
          "type": "address"
        },
        {
          "internalType": "uint256",
          "name": "tokenId",
          "type": "uint256"
        },
        {
          "internalType": "bytes",
          "name": "_data",
          "type": "bytes"
        }
      ],
      "name": "safeTransferFrom",
      "outputs": [],
      "stateMutability": "nonpayable",
      "type": "function"
    },
    {
      "inputs": [
        {
          "internalType": "address",
          "name": "operator",
          "type": "address"
        },
        {
          "internalType": "bool",
          "name": "approved",
          "type": "bool"
        }
      ],
      "name": "setApprovalForAll",
      "outputs": [],
      "stateMutability": "nonpayable",
      "type": "function"
    },
    {
      "inputs": [
        {
          "internalType": "string",
          "name": "newDefaultContentBaseURI",
          "type": "string"
        }
      ],
      "name": "setDefaultContentBaseURI",
      "outputs": [],
      "stateMutability": "nonpayable",
      "type": "function"
    },
    {
      "inputs": [
        {
          "internalType": "string",
          "name": "newMetadataBaseURI",
          "type": "string"
        }
      ],
      "name": "setMetadataBaseURI",
      "outputs": [],
      "stateMutability": "nonpayable",
      "type": "function"
    },
    {
      "inputs": [
        {
          "internalType": "uint256",
          "name": "newMintPrice",
          "type": "uint256"
        }
      ],
      "name": "setMintPrice",
      "outputs": [],
      "stateMutability": "nonpayable",
      "type": "function"
    },
    {
      "inputs": [
        {
          "internalType": "uint16",
          "name": "newOwnershipMintLimit",
          "type": "uint16"
        }
      ],
      "name": "setOwnershipMintLimit",
      "outputs": [],
      "stateMutability": "nonpayable",
      "type": "function"
    },
    {
      "inputs": [
        {
          "internalType": "uint16",
          "name": "newSingleMintLimit",
          "type": "uint16"
        }
      ],
      "name": "setSingleMintLimit",
      "outputs": [],
      "stateMutability": "nonpayable",
      "type": "function"
    },
    {
      "inputs": [
        {
          "internalType": "uint256",
          "name": "tokenId",
          "type": "uint256"
        },
        {
          "internalType": "string",
          "name": "contentURI",
          "type": "string"
        }
      ],
      "name": "setTokenContentURI",
      "outputs": [],
      "stateMutability": "nonpayable",
      "type": "function"
    },
    {
      "inputs": [
        {
          "internalType": "uint256",
          "name": "tokenId",
          "type": "uint256"
        },
        {
          "internalType": "uint8",
          "name": "width",
          "type": "uint8"
        },
        {
          "internalType": "uint8",
          "name": "height",
          "type": "uint8"
        },
        {
          "internalType": "string[]",
          "name": "contentURIs",
          "type": "string[]"
        }
      ],
      "name": "setTokenGroupContentURIs",
      "outputs": [],
      "stateMutability": "nonpayable",
      "type": "function"
    },
    {
      "inputs": [
        {
          "internalType": "uint16",
          "name": "newTotalMintLimit",
          "type": "uint16"
        }
      ],
      "name": "setTotalMintLimit",
      "outputs": [],
      "stateMutability": "nonpayable",
      "type": "function"
    },
    {
      "inputs": [],
      "name": "singleMintLimit",
      "outputs": [
        {
          "internalType": "uint16",
          "name": "",
          "type": "uint16"
        }
      ],
      "stateMutability": "view",
      "type": "function"
    },
    {
      "inputs": [
        {
          "internalType": "bytes4",
          "name": "interfaceId",
          "type": "bytes4"
        }
      ],
      "name": "supportsInterface",
      "outputs": [
        {
          "internalType": "bool",
          "name": "",
          "type": "bool"
        }
      ],
      "stateMutability": "view",
      "type": "function"
    },
    {
      "inputs": [],
      "name": "symbol",
      "outputs": [
        {
          "internalType": "string",
          "name": "",
          "type": "string"
        }
      ],
      "stateMutability": "view",
      "type": "function"
    },
    {
      "inputs": [
        {
          "internalType": "uint256",
          "name": "index",
          "type": "uint256"
        }
      ],
      "name": "tokenByIndex",
      "outputs": [
        {
          "internalType": "uint256",
          "name": "",
          "type": "uint256"
        }
      ],
      "stateMutability": "pure",
      "type": "function"
    },
    {
      "inputs": [
        {
          "internalType": "uint256",
          "name": "tokenId",
          "type": "uint256"
        }
      ],
      "name": "tokenContentURI",
      "outputs": [
        {
          "internalType": "string",
          "name": "",
          "type": "string"
        }
      ],
      "stateMutability": "view",
      "type": "function"
    },
    {
      "inputs": [
        {
          "internalType": "address",
          "name": "owner",
          "type": "address"
        },
        {
          "internalType": "uint256",
          "name": "index",
          "type": "uint256"
        }
      ],
      "name": "tokenOfOwnerByIndex",
      "outputs": [
        {
          "internalType": "uint256",
          "name": "tokenId",
          "type": "uint256"
        }
      ],
      "stateMutability": "view",
      "type": "function"
    },
    {
      "inputs": [
        {
          "internalType": "uint256",
          "name": "tokenId",
          "type": "uint256"
        }
      ],
      "name": "tokenURI",
      "outputs": [
        {
          "internalType": "string",
          "name": "",
          "type": "string"
        }
      ],
      "stateMutability": "view",
      "type": "function"
    },
    {
      "inputs": [],
      "name": "totalMintLimit",
      "outputs": [
        {
          "internalType": "uint16",
          "name": "",
          "type": "uint16"
        }
      ],
      "stateMutability": "view",
      "type": "function"
    },
    {
      "inputs": [],
      "name": "totalSupply",
      "outputs": [
        {
          "internalType": "uint256",
          "name": "",
          "type": "uint256"
        }
      ],
      "stateMutability": "pure",
      "type": "function"
    },
    {
      "inputs": [
        {
          "internalType": "address",
          "name": "from",
          "type": "address"
        },
        {
          "internalType": "address",
          "name": "to",
          "type": "address"
        },
        {
          "internalType": "uint256",
          "name": "tokenId",
          "type": "uint256"
        }
      ],
      "name": "transferFrom",
      "outputs": [],
      "stateMutability": "nonpayable",
      "type": "function"
    },
    {
      "inputs": [
        {
          "internalType": "address",
          "name": "newOwner",
          "type": "address"
        }
      ],
      "name": "transferOwnership",
      "outputs": [],
      "stateMutability": "nonpayable",
      "type": "function"
    },
    {
      "inputs": [],
      "name": "withdraw",
      "outputs": [],
      "stateMutability": "nonpayable",
      "type": "function"
    }
  ],
  "bytecode": "0x60806040523480156200001157600080fd5b50604051620055ee380380620055ee8339818101604052810190620000379190620003b1565b6040518060400160405280601681526020017f4d696c6c696f6e446f6c6c6172546f6b656e50616765000000000000000000008152506040518060400160405280600381526020017fe28aa100000000000000000000000000000000000000000000000000000000008152508160009080519060200190620000bb92919062000261565b508060019080519060200190620000d492919062000261565b505050620000f7620000eb6200019360201b60201c565b6200019b60201b60201c565b81600d90805190602001906200010f92919062000261565b5080600e90805190602001906200012892919062000261565b5085600b60006101000a81548161ffff021916908361ffff16021790555084600b60026101000a81548161ffff021916908361ffff16021790555083600b60046101000a81548161ffff021916908361ffff16021790555082600c8190555050505050505062000635565b600033905090565b6000600660009054906101000a900473ffffffffffffffffffffffffffffffffffffffff16905081600660006101000a81548173ffffffffffffffffffffffffffffffffffffffff021916908373ffffffffffffffffffffffffffffffffffffffff1602179055508173ffffffffffffffffffffffffffffffffffffffff168173ffffffffffffffffffffffffffffffffffffffff167f8be0079c531659141344cd1fd0a4f28419497f9722a3daafe3b4186f6b6457e060405160405180910390a35050565b8280546200026f9062000526565b90600052602060002090601f016020900481019282620002935760008555620002df565b82601f10620002ae57805160ff1916838001178555620002df565b82800160010185558215620002df579182015b82811115620002de578251825591602001919060010190620002c1565b5b509050620002ee9190620002f2565b5090565b5b808211156200030d576000816000905550600101620002f3565b5090565b6000620003286200032284620004a2565b62000479565b9050828152602081018484840111156200034157600080fd5b6200034e848285620004f0565b509392505050565b600082601f8301126200036857600080fd5b81516200037a84826020860162000311565b91505092915050565b600081519050620003948162000601565b92915050565b600081519050620003ab816200061b565b92915050565b60008060008060008060c08789031215620003cb57600080fd5b6000620003db89828a0162000383565b9650506020620003ee89828a0162000383565b95505060406200040189828a0162000383565b94505060606200041489828a016200039a565b935050608087015167ffffffffffffffff8111156200043257600080fd5b6200044089828a0162000356565b92505060a087015167ffffffffffffffff8111156200045e57600080fd5b6200046c89828a0162000356565b9150509295509295509295565b60006200048562000498565b90506200049382826200055c565b919050565b6000604051905090565b600067ffffffffffffffff821115620004c057620004bf620005c1565b5b620004cb82620005f0565b9050602081019050919050565b600061ffff82169050919050565b6000819050919050565b60005b8381101562000510578082015181840152602081019050620004f3565b8381111562000520576000848401525b50505050565b600060028204905060018216806200053f57607f821691505b6020821081141562000556576200055562000592565b5b50919050565b6200056782620005f0565b810181811067ffffffffffffffff82111715620005895762000588620005c1565b5b80604052505050565b7f4e487b7100000000000000000000000000000000000000000000000000000000600052602260045260246000fd5b7f4e487b7100000000000000000000000000000000000000000000000000000000600052604160045260246000fd5b6000601f19601f8301169050919050565b6200060c81620004d8565b81146200061857600080fd5b50565b6200062681620004e6565b81146200063257600080fd5b50565b614fa980620006456000396000f3fe60806040526004361061025c5760003560e01c806370a0823111610144578063b88d4fde116100b6578063e8d44caf1161007a578063e8d44caf146108bf578063e985e9c5146108e8578063eb3391a914610925578063f2fde38b1461094e578063f4a0a52814610977578063fb94bd8a146109a05761025c565b8063b88d4fde146107d8578063c742856614610801578063c87b56dd1461082c578063cf721b1514610869578063e04a8eaf146108945761025c565b806395d89b411161010857806395d89b41146106f8578063a0712d6814610723578063a1ae82e51461073f578063a2194baf14610768578063a22cb46514610784578063a5dee002146107ad5761025c565b806370a0823114610625578063715018a61461066257806376dd1f86146106795780638d50645a146106a45780638da5cb5b146106cd5761025c565b80632f745c59116101dd5780634ddd7fec116101a15780634ddd7fec146105035780634f6ccce71461052e5780635935e01a1461056b5780636352211e14610594578063677ab70b146105d15780636817c76c146105fa5761025c565b80632f745c59146104305780633906f5601461046d5780633ccfd60b1461049857806342842e0e146104af5780634a0218d6146104d85761025c565b80630c0a9d26116102245780630c0a9d261461035857806318160ddd146103955780631f5e7978146103c057806323b872dd146103dc57806328b8692a146104055761025c565b80630170163a1461026157806301ffc9a71461028a57806306fdde03146102c7578063081812fc146102f2578063095ea7b31461032f575b600080fd5b34801561026d57600080fd5b5061028860048036038101906102839190613869565b6109c9565b005b34801561029657600080fd5b506102b160048036038101906102ac91906137d6565b610a65565b6040516102be9190613eff565b60405180910390f35b3480156102d357600080fd5b506102dc610b47565b6040516102e99190613f1a565b60405180910390f35b3480156102fe57600080fd5b5061031960048036038101906103149190613892565b610bd9565b6040516103269190613e98565b60405180910390f35b34801561033b57600080fd5b506103566004803603810190610351919061379a565b610c5e565b005b34801561036457600080fd5b5061037f600480360381019061037a9190613892565b610d76565b60405161038c9190613f1a565b60405180910390f35b3480156103a157600080fd5b506103aa610e65565b6040516103b79190614297565b60405180910390f35b6103da60048036038101906103d5919061390f565b610e7d565b005b3480156103e857600080fd5b5061040360048036038101906103fe9190613694565b611022565b005b34801561041157600080fd5b5061041a611082565b6040516104279190613f1a565b60405180910390f35b34801561043c57600080fd5b506104576004803603810190610452919061379a565b611110565b6040516104649190614297565b60405180910390f35b34801561047957600080fd5b5061048261116b565b60405161048f919061427c565b60405180910390f35b3480156104a457600080fd5b506104ad61117b565b005b3480156104bb57600080fd5b506104d660048036038101906104d19190613694565b611246565b005b3480156104e457600080fd5b506104ed611266565b6040516104fa919061427c565b60405180910390f35b34801561050f57600080fd5b5061051861126b565b6040516105259190613f1a565b60405180910390f35b34801561053a57600080fd5b5061055560048036038101906105509190613892565b6112f9565b6040516105629190614297565b60405180910390f35b34801561057757600080fd5b50610592600480360381019061058d919061395e565b61136d565b005b3480156105a057600080fd5b506105bb60048036038101906105b69190613892565b61163e565b6040516105c89190613e98565b60405180910390f35b3480156105dd57600080fd5b506105f860048036038101906105f39190613892565b6116f0565b005b34801561060657600080fd5b5061060f611778565b60405161061c9190614297565b60405180910390f35b34801561063157600080fd5b5061064c6004803603810190610647919061362f565b61177e565b6040516106599190614297565b60405180910390f35b34801561066e57600080fd5b50610677611836565b005b34801561068557600080fd5b5061068e6118be565b60405161069b919061427c565b60405180910390f35b3480156106b057600080fd5b506106cb60048036038101906106c691906138bb565b6118d2565b005b3480156106d957600080fd5b506106e261195f565b6040516106ef9190613e98565b60405180910390f35b34801561070457600080fd5b5061070d611989565b60405161071a9190613f1a565b60405180910390f35b61073d60048036038101906107389190613892565b611a1b565b005b34801561074b57600080fd5b5061076660048036038101906107619190613869565b611b41565b005b610782600480360381019061077d919061390f565b611bdd565b005b34801561079057600080fd5b506107ab60048036038101906107a6919061375e565b611bed565b005b3480156107b957600080fd5b506107c2611d6e565b6040516107cf919061427c565b60405180910390f35b3480156107e457600080fd5b506107ff60048036038101906107fa91906136e3565b611d82565b005b34801561080d57600080fd5b50610816611de4565b604051610823919061427c565b60405180910390f35b34801561083857600080fd5b50610853600480360381019061084e9190613892565b611df8565b6040516108609190613f1a565b60405180910390f35b34801561087557600080fd5b5061087e611e32565b60405161088b9190614297565b60405180910390f35b3480156108a057600080fd5b506108a9611e3f565b6040516108b6919061427c565b60405180910390f35b3480156108cb57600080fd5b506108e660048036038101906108e19190613869565b611e44565b005b3480156108f457600080fd5b5061090f600480360381019061090a9190613658565b611ee0565b60405161091c9190613eff565b60405180910390f35b34801561093157600080fd5b5061094c60048036038101906109479190613828565b611f74565b005b34801561095a57600080fd5b506109756004803603810190610970919061362f565b61200a565b005b34801561098357600080fd5b5061099e60048036038101906109999190613892565b612102565b005b3480156109ac57600080fd5b506109c760048036038101906109c29190613828565b612188565b005b6109d161221e565b73ffffffffffffffffffffffffffffffffffffffff166109ef61195f565b73ffffffffffffffffffffffffffffffffffffffff1614610a45576040517f08c379a0000000000000000000000000000000000000000000000000000000008152600401610a3c9061417c565b60405180910390fd5b80600b60046101000a81548161ffff021916908361ffff16021790555050565b60007f80ac58cd000000000000000000000000000000000000000000000000000000007bffffffffffffffffffffffffffffffffffffffffffffffffffffffff1916827bffffffffffffffffffffffffffffffffffffffffffffffffffffffff19161480610b3057507f5b5e139f000000000000000000000000000000000000000000000000000000007bffffffffffffffffffffffffffffffffffffffffffffffffffffffff1916827bffffffffffffffffffffffffffffffffffffffffffffffffffffffff1916145b80610b405750610b3f82612226565b5b9050919050565b606060008054610b569061463c565b80601f0160208091040260200160405190810160405280929190818152602001828054610b829061463c565b8015610bcf5780601f10610ba457610100808354040283529160200191610bcf565b820191906000526020600020905b815481529060010190602001808311610bb257829003601f168201915b5050505050905090565b6000610be482612290565b610c23576040517f08c379a0000000000000000000000000000000000000000000000000000000008152600401610c1a9061413c565b60405180910390fd5b6004600083815260200190815260200160002060009054906101000a900473ffffffffffffffffffffffffffffffffffffffff169050919050565b6000610c698261163e565b90508073ffffffffffffffffffffffffffffffffffffffff168373ffffffffffffffffffffffffffffffffffffffff161415610cda576040517f08c379a0000000000000000000000000000000000000000000000000000000008152600401610cd1906141dc565b60405180910390fd5b8073ffffffffffffffffffffffffffffffffffffffff16610cf961221e565b73ffffffffffffffffffffffffffffffffffffffff161480610d285750610d2781610d2261221e565b611ee0565b5b610d67576040517f08c379a0000000000000000000000000000000000000000000000000000000008152600401610d5e9061405c565b60405180910390fd5b610d7183836122fc565b505050565b60606000600760008481526020019081526020016000208054610d989061463c565b80601f0160208091040260200160405190810160405280929190818152602001828054610dc49061463c565b8015610e115780601f10610de657610100808354040283529160200191610e11565b820191906000526020600020905b815481529060010190602001808311610df457829003601f168201915b50505050509050600081511115610e2b5780915050610e60565b610e336123b5565b610e3c84612447565b604051602001610e4d929190613e69565b6040516020818303038152906040529150505b919050565b6000606480610e749190614466565b61ffff16905090565b60008183610e8b91906144fc565b60ff169050610ea581600c546125f490919063ffffffff16565b341015610ee7576040517f08c379a0000000000000000000000000000000000000000000000000000000008152600401610ede9061421c565b60405180910390fd5b600b60009054906101000a900461ffff1661ffff1681610f05611e32565b610f0f91906143a8565b1115610f50576040517f08c379a0000000000000000000000000000000000000000000000000000000008152600401610f479061411c565b60405180910390fd5b600b60049054906101000a900461ffff1661ffff1681610f6f3361177e565b610f7991906143a8565b1115610fba576040517f08c379a0000000000000000000000000000000000000000000000000000000008152600401610fb190613f3c565b60405180910390fd5b600b60029054906101000a900461ffff1661ffff16811115611011576040517f08c379a0000000000000000000000000000000000000000000000000000000008152600401611008906141bc565b60405180910390fd5b61101c84848461260a565b50505050565b61103361102d61221e565b82612726565b611072576040517f08c379a00000000000000000000000000000000000000000000000000000000081526004016110699061423c565b60405180910390fd5b61107d838383612804565b505050565b600d805461108f9061463c565b80601f01602080910402602001604051908101604052809291908181526020018280546110bb9061463c565b80156111085780601f106110dd57610100808354040283529160200191611108565b820191906000526020600020905b8154815290600101906020018083116110eb57829003601f168201915b505050505081565b6000600860008473ffffffffffffffffffffffffffffffffffffffff1673ffffffffffffffffffffffffffffffffffffffff168152602001908152602001600020600083815260200190815260200160002054905092915050565b6064806111789190614466565b81565b61118361221e565b73ffffffffffffffffffffffffffffffffffffffff166111a161195f565b73ffffffffffffffffffffffffffffffffffffffff16146111f7576040517f08c379a00000000000000000000000000000000000000000000000000000000081526004016111ee9061417c565b60405180910390fd5b60004790503373ffffffffffffffffffffffffffffffffffffffff166108fc829081150290604051600060405180830381858888f19350505050158015611242573d6000803e3d6000fd5b5050565b61126183838360405180602001604052806000815250611d82565b505050565b606481565b600e80546112789061463c565b80601f01602080910402602001604051908101604052809291908181526020018280546112a49061463c565b80156112f15780601f106112c6576101008083540402835291602001916112f1565b820191906000526020600020905b8154815290600101906020018083116112d457829003601f168201915b505050505081565b600080821015801561131a57506064806113139190614466565b61ffff1682105b611359576040517f08c379a00000000000000000000000000000000000000000000000000000000081526004016113509061425c565b60405180910390fd5b60018261136691906143a8565b9050919050565b83838360005b8160ff168160ff1610156114685760005b8360ff168160ff1610156114545760008160ff168360ff1660646113a89190614466565b61ffff16876113b791906143a8565b6113c191906143a8565b90506113cb61221e565b73ffffffffffffffffffffffffffffffffffffffff166113ea8261163e565b73ffffffffffffffffffffffffffffffffffffffff1614611440576040517f08c379a000000000000000000000000000000000000000000000000000000000815260040161143790613fdc565b60405180910390fd5b50808061144c906146e8565b915050611384565b508080611460906146e8565b915050611373565b5086868660008260ff16116114b2576040517f08c379a00000000000000000000000000000000000000000000000000000000081526004016114a9906141fc565b60405180910390fd5b60008160ff16116114f8576040517f08c379a00000000000000000000000000000000000000000000000000000000081526004016114ef906140bc565b60405180910390fd5b8651888a61150691906144fc565b60ff1614611549576040517f08c379a0000000000000000000000000000000000000000000000000000000008152600401611540906140dc565b60405180910390fd5b60005b8860ff168160ff1610156116315760005b8a60ff168160ff16101561161d57600081838d61157a91906144fc565b61158491906143fe565b60ff16905060008260ff168460ff16606461159f9190614466565b61ffff168f6115ae91906143a8565b6115b891906143a8565b9050611608818c8461ffff16815181106115fb577f4e487b7100000000000000000000000000000000000000000000000000000000600052603260045260246000fd5b6020026020010151612a60565b50508080611615906146e8565b91505061155d565b508080611629906146e8565b91505061154c565b5050505050505050505050565b6000806002600084815260200190815260200160002060009054906101000a900473ffffffffffffffffffffffffffffffffffffffff169050600073ffffffffffffffffffffffffffffffffffffffff168173ffffffffffffffffffffffffffffffffffffffff1614156116e7576040517f08c379a00000000000000000000000000000000000000000000000000000000081526004016116de9061409c565b60405180910390fd5b80915050919050565b6116f861221e565b73ffffffffffffffffffffffffffffffffffffffff1661171661195f565b73ffffffffffffffffffffffffffffffffffffffff161461176c576040517f08c379a00000000000000000000000000000000000000000000000000000000081526004016117639061417c565b60405180910390fd5b61177581612ab9565b50565b600c5481565b60008073ffffffffffffffffffffffffffffffffffffffff168273ffffffffffffffffffffffffffffffffffffffff1614156117ef576040517f08c379a00000000000000000000000000000000000000000000000000000000081526004016117e69061407c565b60405180910390fd5b600360008373ffffffffffffffffffffffffffffffffffffffff1673ffffffffffffffffffffffffffffffffffffffff168152602001908152602001600020549050919050565b61183e61221e565b73ffffffffffffffffffffffffffffffffffffffff1661185c61195f565b73ffffffffffffffffffffffffffffffffffffffff16146118b2576040517f08c379a00000000000000000000000000000000000000000000000000000000081526004016118a99061417c565b60405180910390fd5b6118bc6000612b25565b565b600b60009054906101000a900461ffff1681565b816118db61221e565b73ffffffffffffffffffffffffffffffffffffffff166118fa8261163e565b73ffffffffffffffffffffffffffffffffffffffff1614611950576040517f08c379a00000000000000000000000000000000000000000000000000000000081526004016119479061415c565b60405180910390fd5b61195a8383612a60565b505050565b6000600660009054906101000a900473ffffffffffffffffffffffffffffffffffffffff16905090565b6060600180546119989061463c565b80601f01602080910402602001604051908101604052809291908181526020018280546119c49061463c565b8015611a115780601f106119e657610100808354040283529160200191611a11565b820191906000526020600020905b8154815290600101906020018083116119f457829003601f168201915b5050505050905090565b600c54341015611a60576040517f08c379a0000000000000000000000000000000000000000000000000000000008152600401611a579061421c565b60405180910390fd5b600b60009054906101000a900461ffff1661ffff166001611a7f611e32565b611a8991906143a8565b1115611aca576040517f08c379a0000000000000000000000000000000000000000000000000000000008152600401611ac19061411c565b60405180910390fd5b600b60049054906101000a900461ffff1661ffff166001611aea3361177e565b611af491906143a8565b1115611b35576040517f08c379a0000000000000000000000000000000000000000000000000000000008152600401611b2c90613f3c565b60405180910390fd5b611b3e81612ab9565b50565b611b4961221e565b73ffffffffffffffffffffffffffffffffffffffff16611b6761195f565b73ffffffffffffffffffffffffffffffffffffffff1614611bbd576040517f08c379a0000000000000000000000000000000000000000000000000000000008152600401611bb49061417c565b60405180910390fd5b80600b60006101000a81548161ffff021916908361ffff16021790555050565b611be883838361260a565b505050565b611bf561221e565b73ffffffffffffffffffffffffffffffffffffffff168273ffffffffffffffffffffffffffffffffffffffff161415611c63576040517f08c379a0000000000000000000000000000000000000000000000000000000008152600401611c5a9061401c565b60405180910390fd5b8060056000611c7061221e565b73ffffffffffffffffffffffffffffffffffffffff1673ffffffffffffffffffffffffffffffffffffffff16815260200190815260200160002060008473ffffffffffffffffffffffffffffffffffffffff1673ffffffffffffffffffffffffffffffffffffffff16815260200190815260200160002060006101000a81548160ff0219169083151502179055508173ffffffffffffffffffffffffffffffffffffffff16611d1d61221e565b73ffffffffffffffffffffffffffffffffffffffff167f17307eab39ab6107e8899845ad3d59bd9653f200f220920489ca2b5937696c3183604051611d629190613eff565b60405180910390a35050565b600b60049054906101000a900461ffff1681565b611d93611d8d61221e565b83612726565b611dd2576040517f08c379a0000000000000000000000000000000000000000000000000000000008152600401611dc99061423c565b60405180910390fd5b611dde84848484612beb565b50505050565b600b60029054906101000a900461ffff1681565b6060611e02612c47565b611e0b83612447565b604051602001611e1c929190613e69565b6040516020818303038152906040529050919050565b6000600a80549050905090565b606481565b611e4c61221e565b73ffffffffffffffffffffffffffffffffffffffff16611e6a61195f565b73ffffffffffffffffffffffffffffffffffffffff1614611ec0576040517f08c379a0000000000000000000000000000000000000000000000000000000008152600401611eb79061417c565b60405180910390fd5b80600b60026101000a81548161ffff021916908361ffff16021790555050565b6000600560008473ffffffffffffffffffffffffffffffffffffffff1673ffffffffffffffffffffffffffffffffffffffff16815260200190815260200160002060008373ffffffffffffffffffffffffffffffffffffffff1673ffffffffffffffffffffffffffffffffffffffff16815260200190815260200160002060009054906101000a900460ff16905092915050565b611f7c61221e565b73ffffffffffffffffffffffffffffffffffffffff16611f9a61195f565b73ffffffffffffffffffffffffffffffffffffffff1614611ff0576040517f08c379a0000000000000000000000000000000000000000000000000000000008152600401611fe79061417c565b60405180910390fd5b80600e9080519060200190612006929190613379565b5050565b61201261221e565b73ffffffffffffffffffffffffffffffffffffffff1661203061195f565b73ffffffffffffffffffffffffffffffffffffffff1614612086576040517f08c379a000000000000000000000000000000000000000000000000000000000815260040161207d9061417c565b60405180910390fd5b600073ffffffffffffffffffffffffffffffffffffffff168173ffffffffffffffffffffffffffffffffffffffff1614156120f6576040517f08c379a00000000000000000000000000000000000000000000000000000000081526004016120ed90613f9c565b60405180910390fd5b6120ff81612b25565b50565b61210a61221e565b73ffffffffffffffffffffffffffffffffffffffff1661212861195f565b73ffffffffffffffffffffffffffffffffffffffff161461217e576040517f08c379a00000000000000000000000000000000000000000000000000000000081526004016121759061417c565b60405180910390fd5b80600c8190555050565b61219061221e565b73ffffffffffffffffffffffffffffffffffffffff166121ae61195f565b73ffffffffffffffffffffffffffffffffffffffff1614612204576040517f08c379a00000000000000000000000000000000000000000000000000000000081526004016121fb9061417c565b60405180910390fd5b80600d908051906020019061221a929190613379565b5050565b600033905090565b60007f01ffc9a7000000000000000000000000000000000000000000000000000000007bffffffffffffffffffffffffffffffffffffffffffffffffffffffff1916827bffffffffffffffffffffffffffffffffffffffffffffffffffffffff1916149050919050565b60008073ffffffffffffffffffffffffffffffffffffffff166002600084815260200190815260200160002060009054906101000a900473ffffffffffffffffffffffffffffffffffffffff1673ffffffffffffffffffffffffffffffffffffffff1614159050919050565b816004600083815260200190815260200160002060006101000a81548173ffffffffffffffffffffffffffffffffffffffff021916908373ffffffffffffffffffffffffffffffffffffffff160217905550808273ffffffffffffffffffffffffffffffffffffffff1661236f8361163e565b73ffffffffffffffffffffffffffffffffffffffff167f8c5be1e5ebec7d5bd14f71427d1e84f3dd0314c0f7b2291e5b200ac8c7c3b92560405160405180910390a45050565b6060600e80546123c49061463c565b80601f01602080910402602001604051908101604052809291908181526020018280546123f09061463c565b801561243d5780601f106124125761010080835404028352916020019161243d565b820191906000526020600020905b81548152906001019060200180831161242057829003601f168201915b5050505050905090565b6060600082141561248f576040518060400160405280600181526020017f300000000000000000000000000000000000000000000000000000000000000081525090506125ef565b600082905060005b600082146124c15780806124aa9061469f565b915050600a826124ba9190614435565b9150612497565b60008167ffffffffffffffff811115612503577f4e487b7100000000000000000000000000000000000000000000000000000000600052604160045260246000fd5b6040519080825280601f01601f1916602001820160405280156125355781602001600182028036833780820191505090505b5090505b600085146125e85760018261254e9190614537565b9150600a8561255d9190614712565b603061256991906143a8565b60f81b8183815181106125a5577f4e487b7100000000000000000000000000000000000000000000000000000000600052603260045260246000fd5b60200101907effffffffffffffffffffffffffffffffffffffffffffffffffffffffffffff1916908160001a905350600a856125e19190614435565b9450612539565b8093505050505b919050565b6000818361260291906144a2565b905092915050565b82828260008260ff1611612653576040517f08c379a000000000000000000000000000000000000000000000000000000000815260040161264a906141fc565b60405180910390fd5b60008160ff1611612699576040517f08c379a0000000000000000000000000000000000000000000000000000000008152600401612690906140bc565b60405180910390fd5b60005b8460ff168160ff16101561271d5760005b8660ff168160ff1610156127095760008160ff168360ff1660646126d19190614466565b61ffff168a6126e091906143a8565b6126ea91906143a8565b90506126f581612ab9565b508080612701906146e8565b9150506126ad565b508080612715906146e8565b91505061269c565b50505050505050565b600061273182612290565b612770576040517f08c379a00000000000000000000000000000000000000000000000000000000081526004016127679061403c565b60405180910390fd5b600061277b8361163e565b90508073ffffffffffffffffffffffffffffffffffffffff168473ffffffffffffffffffffffffffffffffffffffff1614806127ea57508373ffffffffffffffffffffffffffffffffffffffff166127d284610bd9565b73ffffffffffffffffffffffffffffffffffffffff16145b806127fb57506127fa8185611ee0565b5b91505092915050565b8273ffffffffffffffffffffffffffffffffffffffff166128248261163e565b73ffffffffffffffffffffffffffffffffffffffff161461287a576040517f08c379a00000000000000000000000000000000000000000000000000000000081526004016128719061419c565b60405180910390fd5b600073ffffffffffffffffffffffffffffffffffffffff168273ffffffffffffffffffffffffffffffffffffffff1614156128ea576040517f08c379a00000000000000000000000000000000000000000000000000000000081526004016128e190613ffc565b60405180910390fd5b6128f5838383612cd9565b6129006000826122fc565b6001600360008573ffffffffffffffffffffffffffffffffffffffff1673ffffffffffffffffffffffffffffffffffffffff16815260200190815260200160002060008282546129509190614537565b925050819055506001600360008473ffffffffffffffffffffffffffffffffffffffff1673ffffffffffffffffffffffffffffffffffffffff16815260200190815260200160002060008282546129a791906143a8565b92505081905550816002600083815260200190815260200160002060006101000a81548173ffffffffffffffffffffffffffffffffffffffff021916908373ffffffffffffffffffffffffffffffffffffffff160217905550808273ffffffffffffffffffffffffffffffffffffffff168473ffffffffffffffffffffffffffffffffffffffff167fddf252ad1be2c89b69c2b068fc378daa952ba7f163c4a11628f55a4df523b3ef60405160405180910390a4505050565b80600760008481526020019081526020016000209080519060200190612a87929190613379565b50817fd26ab77304eac64a04df2018c66716ad9c938c7b11429b56a46c017768172d1b60405160405180910390a25050565b600081118015612ad95750606480612ad19190614466565b61ffff168111155b612b18576040517f08c379a0000000000000000000000000000000000000000000000000000000008152600401612b0f90613f5c565b60405180910390fd5b612b223382612f83565b50565b6000600660009054906101000a900473ffffffffffffffffffffffffffffffffffffffff16905081600660006101000a81548173ffffffffffffffffffffffffffffffffffffffff021916908373ffffffffffffffffffffffffffffffffffffffff1602179055508173ffffffffffffffffffffffffffffffffffffffff168173ffffffffffffffffffffffffffffffffffffffff167f8be0079c531659141344cd1fd0a4f28419497f9722a3daafe3b4186f6b6457e060405160405180910390a35050565b612bf6848484612804565b612c0284848484612fa1565b612c41576040517f08c379a0000000000000000000000000000000000000000000000000000000008152600401612c3890613f7c565b60405180910390fd5b50505050565b6060600d8054612c569061463c565b80601f0160208091040260200160405190810160405280929190818152602001828054612c829061463c565b8015612ccf5780601f10612ca457610100808354040283529160200191612ccf565b820191906000526020600020905b815481529060010190602001808311612cb257829003601f168201915b5050505050905090565b612ce4838383613138565b8273ffffffffffffffffffffffffffffffffffffffff168273ffffffffffffffffffffffffffffffffffffffff1614612f7e57600073ffffffffffffffffffffffffffffffffffffffff168373ffffffffffffffffffffffffffffffffffffffff161415612d7a57600a819080600181540180825580915050600190039060005260206000200160009091909190915055612ecd565b60006001612d878561177e565b612d919190614537565b9050600060096000848152602001908152602001600020549050818114612e76576000600860008773ffffffffffffffffffffffffffffffffffffffff1673ffffffffffffffffffffffffffffffffffffffff168152602001908152602001600020600084815260200190815260200160002054905080600860008873ffffffffffffffffffffffffffffffffffffffff1673ffffffffffffffffffffffffffffffffffffffff168152602001908152602001600020600084815260200190815260200160002081905550816009600083815260200190815260200160002081905550505b600860008673ffffffffffffffffffffffffffffffffffffffff1673ffffffffffffffffffffffffffffffffffffffff16815260200190815260200160002060008381526020019081526020016000206000905550505b600073ffffffffffffffffffffffffffffffffffffffff168273ffffffffffffffffffffffffffffffffffffffff1614612f7d576000612f0c8361177e565b905081600860008573ffffffffffffffffffffffffffffffffffffffff1673ffffffffffffffffffffffffffffffffffffffff168152602001908152602001600020600083815260200190815260200160002081905550806009600084815260200190815260200160002081905550505b5b505050565b612f9d82826040518060200160405280600081525061313d565b5050565b6000612fc28473ffffffffffffffffffffffffffffffffffffffff16613198565b1561312b578373ffffffffffffffffffffffffffffffffffffffff1663150b7a02612feb61221e565b8786866040518563ffffffff1660e01b815260040161300d9493929190613eb3565b602060405180830381600087803b15801561302757600080fd5b505af192505050801561305857506040513d601f19601f8201168201806040525081019061305591906137ff565b60015b6130db573d8060008114613088576040519150601f19603f3d011682016040523d82523d6000602084013e61308d565b606091505b506000815114156130d3576040517f08c379a00000000000000000000000000000000000000000000000000000000081526004016130ca90613f7c565b60405180910390fd5b805181602001fd5b63150b7a0260e01b7bffffffffffffffffffffffffffffffffffffffffffffffffffffffff1916817bffffffffffffffffffffffffffffffffffffffffffffffffffffffff191614915050613130565b600190505b949350505050565b505050565b61314783836131ab565b6131546000848484612fa1565b613193576040517f08c379a000000000000000000000000000000000000000000000000000000000815260040161318a90613f7c565b60405180910390fd5b505050565b600080823b905060008111915050919050565b600073ffffffffffffffffffffffffffffffffffffffff168273ffffffffffffffffffffffffffffffffffffffff16141561321b576040517f08c379a0000000000000000000000000000000000000000000000000000000008152600401613212906140fc565b60405180910390fd5b61322481612290565b15613264576040517f08c379a000000000000000000000000000000000000000000000000000000000815260040161325b90613fbc565b60405180910390fd5b61327060008383612cd9565b6001600360008473ffffffffffffffffffffffffffffffffffffffff1673ffffffffffffffffffffffffffffffffffffffff16815260200190815260200160002060008282546132c091906143a8565b92505081905550816002600083815260200190815260200160002060006101000a81548173ffffffffffffffffffffffffffffffffffffffff021916908373ffffffffffffffffffffffffffffffffffffffff160217905550808273ffffffffffffffffffffffffffffffffffffffff16600073ffffffffffffffffffffffffffffffffffffffff167fddf252ad1be2c89b69c2b068fc378daa952ba7f163c4a11628f55a4df523b3ef60405160405180910390a45050565b8280546133859061463c565b90600052602060002090601f0160209004810192826133a757600085556133ee565b82601f106133c057805160ff19168380011785556133ee565b828001600101855582156133ee579182015b828111156133ed5782518255916020019190600101906133d2565b5b5090506133fb91906133ff565b5090565b5b80821115613418576000816000905550600101613400565b5090565b600061342f61342a846142d7565b6142b2565b9050808382526020820190508285602086028201111561344e57600080fd5b60005b8581101561349857813567ffffffffffffffff81111561347057600080fd5b80860161347d89826135c6565b85526020850194506020840193505050600181019050613451565b5050509392505050565b60006134b56134b084614303565b6142b2565b9050828152602081018484840111156134cd57600080fd5b6134d88482856145fa565b509392505050565b60006134f36134ee84614334565b6142b2565b90508281526020810184848401111561350b57600080fd5b6135168482856145fa565b509392505050565b60008135905061352d81614ee9565b92915050565b600082601f83011261354457600080fd5b813561355484826020860161341c565b91505092915050565b60008135905061356c81614f00565b92915050565b60008135905061358181614f17565b92915050565b60008151905061359681614f17565b92915050565b600082601f8301126135ad57600080fd5b81356135bd8482602086016134a2565b91505092915050565b600082601f8301126135d757600080fd5b81356135e78482602086016134e0565b91505092915050565b6000813590506135ff81614f2e565b92915050565b60008135905061361481614f45565b92915050565b60008135905061362981614f5c565b92915050565b60006020828403121561364157600080fd5b600061364f8482850161351e565b91505092915050565b6000806040838503121561366b57600080fd5b60006136798582860161351e565b925050602061368a8582860161351e565b9150509250929050565b6000806000606084860312156136a957600080fd5b60006136b78682870161351e565b93505060206136c88682870161351e565b92505060406136d986828701613605565b9150509250925092565b600080600080608085870312156136f957600080fd5b60006137078782880161351e565b94505060206137188782880161351e565b935050604061372987828801613605565b925050606085013567ffffffffffffffff81111561374657600080fd5b6137528782880161359c565b91505092959194509250565b6000806040838503121561377157600080fd5b600061377f8582860161351e565b92505060206137908582860161355d565b9150509250929050565b600080604083850312156137ad57600080fd5b60006137bb8582860161351e565b92505060206137cc85828601613605565b9150509250929050565b6000602082840312156137e857600080fd5b60006137f684828501613572565b91505092915050565b60006020828403121561381157600080fd5b600061381f84828501613587565b91505092915050565b60006020828403121561383a57600080fd5b600082013567ffffffffffffffff81111561385457600080fd5b613860848285016135c6565b91505092915050565b60006020828403121561387b57600080fd5b6000613889848285016135f0565b91505092915050565b6000602082840312156138a457600080fd5b60006138b284828501613605565b91505092915050565b600080604083850312156138ce57600080fd5b60006138dc85828601613605565b925050602083013567ffffffffffffffff8111156138f957600080fd5b613905858286016135c6565b9150509250929050565b60008060006060848603121561392457600080fd5b600061393286828701613605565b93505060206139438682870161361a565b92505060406139548682870161361a565b9150509250925092565b6000806000806080858703121561397457600080fd5b600061398287828801613605565b94505060206139938782880161361a565b93505060406139a48782880161361a565b925050606085013567ffffffffffffffff8111156139c157600080fd5b6139cd87828801613533565b91505092959194509250565b6139e28161456b565b82525050565b6139f18161457d565b82525050565b6000613a0282614365565b613a0c818561437b565b9350613a1c818560208601614609565b613a25816147ff565b840191505092915050565b6000613a3b82614370565b613a45818561438c565b9350613a55818560208601614609565b613a5e816147ff565b840191505092915050565b6000613a7482614370565b613a7e818561439d565b9350613a8e818560208601614609565b80840191505092915050565b6000613aa760258361438c565b9150613ab282614810565b604082019050919050565b6000613aca60158361438c565b9150613ad58261485f565b602082019050919050565b6000613aed60328361438c565b9150613af882614888565b604082019050919050565b6000613b1060268361438c565b9150613b1b826148d7565b604082019050919050565b6000613b33601c8361438c565b9150613b3e82614926565b602082019050919050565b6000613b5660398361438c565b9150613b618261494f565b604082019050919050565b6000613b7960248361438c565b9150613b848261499e565b604082019050919050565b6000613b9c60198361438c565b9150613ba7826149ed565b602082019050919050565b6000613bbf602c8361438c565b9150613bca82614a16565b604082019050919050565b6000613be260388361438c565b9150613bed82614a65565b604082019050919050565b6000613c05602a8361438c565b9150613c1082614ab4565b604082019050919050565b6000613c2860298361438c565b9150613c3382614b03565b604082019050919050565b6000613c4b60188361438c565b9150613c5682614b52565b602082019050919050565b6000613c6e603e8361438c565b9150613c7982614b7b565b604082019050919050565b6000613c9160208361438c565b9150613c9c82614bca565b602082019050919050565b6000613cb460238361438c565b9150613cbf82614bf3565b604082019050919050565b6000613cd7602c8361438c565b9150613ce282614c42565b604082019050919050565b6000613cfa60058361439d565b9150613d0582614c91565b600582019050919050565b6000613d1d60228361438c565b9150613d2882614cba565b604082019050919050565b6000613d4060208361438c565b9150613d4b82614d09565b602082019050919050565b6000613d6360298361438c565b9150613d6e82614d32565b604082019050919050565b6000613d8660338361438c565b9150613d9182614d81565b604082019050919050565b6000613da960218361438c565b9150613db482614dd0565b604082019050919050565b6000613dcc60178361438c565b9150613dd782614e1f565b602082019050919050565b6000613def601a8361438c565b9150613dfa82614e48565b602082019050919050565b6000613e1260318361438c565b9150613e1d82614e71565b604082019050919050565b6000613e3560138361438c565b9150613e4082614ec0565b602082019050919050565b613e54816145b5565b82525050565b613e63816145e3565b82525050565b6000613e758285613a69565b9150613e818284613a69565b9150613e8c82613ced565b91508190509392505050565b6000602082019050613ead60008301846139d9565b92915050565b6000608082019050613ec860008301876139d9565b613ed560208301866139d9565b613ee26040830185613e5a565b8181036060830152613ef481846139f7565b905095945050505050565b6000602082019050613f1460008301846139e8565b92915050565b60006020820190508181036000830152613f348184613a30565b905092915050565b60006020820190508181036000830152613f5581613a9a565b9050919050565b60006020820190508181036000830152613f7581613abd565b9050919050565b60006020820190508181036000830152613f9581613ae0565b9050919050565b60006020820190508181036000830152613fb581613b03565b9050919050565b60006020820190508181036000830152613fd581613b26565b9050919050565b60006020820190508181036000830152613ff581613b49565b9050919050565b6000602082019050818103600083015261401581613b6c565b9050919050565b6000602082019050818103600083015261403581613b8f565b9050919050565b6000602082019050818103600083015261405581613bb2565b9050919050565b6000602082019050818103600083015261407581613bd5565b9050919050565b6000602082019050818103600083015261409581613bf8565b9050919050565b600060208201905081810360008301526140b581613c1b565b9050919050565b600060208201905081810360008301526140d581613c3e565b9050919050565b600060208201905081810360008301526140f581613c61565b9050919050565b6000602082019050818103600083015261411581613c84565b9050919050565b6000602082019050818103600083015261413581613ca7565b9050919050565b6000602082019050818103600083015261415581613cca565b9050919050565b6000602082019050818103600083015261417581613d10565b9050919050565b6000602082019050818103600083015261419581613d33565b9050919050565b600060208201905081810360008301526141b581613d56565b9050919050565b600060208201905081810360008301526141d581613d79565b9050919050565b600060208201905081810360008301526141f581613d9c565b9050919050565b6000602082019050818103600083015261421581613dbf565b9050919050565b6000602082019050818103600083015261423581613de2565b9050919050565b6000602082019050818103600083015261425581613e05565b9050919050565b6000602082019050818103600083015261427581613e28565b9050919050565b60006020820190506142916000830184613e4b565b92915050565b60006020820190506142ac6000830184613e5a565b92915050565b60006142bc6142cd565b90506142c8828261466e565b919050565b6000604051905090565b600067ffffffffffffffff8211156142f2576142f16147d0565b5b602082029050602081019050919050565b600067ffffffffffffffff82111561431e5761431d6147d0565b5b614327826147ff565b9050602081019050919050565b600067ffffffffffffffff82111561434f5761434e6147d0565b5b614358826147ff565b9050602081019050919050565b600081519050919050565b600081519050919050565b600082825260208201905092915050565b600082825260208201905092915050565b600081905092915050565b60006143b3826145e3565b91506143be836145e3565b9250827fffffffffffffffffffffffffffffffffffffffffffffffffffffffffffffffff038211156143f3576143f2614743565b5b828201905092915050565b6000614409826145ed565b9150614414836145ed565b92508260ff0382111561442a57614429614743565b5b828201905092915050565b6000614440826145e3565b915061444b836145e3565b92508261445b5761445a614772565b5b828204905092915050565b6000614471826145b5565b915061447c836145b5565b92508161ffff048311821515161561449757614496614743565b5b828202905092915050565b60006144ad826145e3565b91506144b8836145e3565b9250817fffffffffffffffffffffffffffffffffffffffffffffffffffffffffffffffff04831182151516156144f1576144f0614743565b5b828202905092915050565b6000614507826145ed565b9150614512836145ed565b92508160ff048311821515161561452c5761452b614743565b5b828202905092915050565b6000614542826145e3565b915061454d836145e3565b9250828210156145605761455f614743565b5b828203905092915050565b6000614576826145c3565b9050919050565b60008115159050919050565b60007fffffffff0000000000000000000000000000000000000000000000000000000082169050919050565b600061ffff82169050919050565b600073ffffffffffffffffffffffffffffffffffffffff82169050919050565b6000819050919050565b600060ff82169050919050565b82818337600083830152505050565b60005b8381101561462757808201518184015260208101905061460c565b83811115614636576000848401525b50505050565b6000600282049050600182168061465457607f821691505b60208210811415614668576146676147a1565b5b50919050565b614677826147ff565b810181811067ffffffffffffffff82111715614696576146956147d0565b5b80604052505050565b60006146aa826145e3565b91507fffffffffffffffffffffffffffffffffffffffffffffffffffffffffffffffff8214156146dd576146dc614743565b5b600182019050919050565b60006146f3826145ed565b915060ff82141561470757614706614743565b5b600182019050919050565b600061471d826145e3565b9150614728836145e3565b92508261473857614737614772565b5b828206905092915050565b7f4e487b7100000000000000000000000000000000000000000000000000000000600052601160045260246000fd5b7f4e487b7100000000000000000000000000000000000000000000000000000000600052601260045260246000fd5b7f4e487b7100000000000000000000000000000000000000000000000000000000600052602260045260246000fd5b7f4e487b7100000000000000000000000000000000000000000000000000000000600052604160045260246000fd5b6000601f19601f8301169050919050565b7f4d4454503a20726561636865642063757272656e74206f776e6572736869702060008201527f6c696d6974000000000000000000000000000000000000000000000000000000602082015250565b7f4d4454503a20696e76616c696420746f6b656e49640000000000000000000000600082015250565b7f4552433732313a207472616e7366657220746f206e6f6e20455243373231526560008201527f63656976657220696d706c656d656e7465720000000000000000000000000000602082015250565b7f4f776e61626c653a206e6577206f776e657220697320746865207a65726f206160008201527f6464726573730000000000000000000000000000000000000000000000000000602082015250565b7f4552433732313a20746f6b656e20616c7265616479206d696e74656400000000600082015250565b7f4d4454503a2063616c6c6572206973206e6f742074686520746f6b656e4f776e60008201527f6572206f6620616c6c20746f6b656e7320696e2067726f757000000000000000602082015250565b7f4552433732313a207472616e7366657220746f20746865207a65726f2061646460008201527f7265737300000000000000000000000000000000000000000000000000000000602082015250565b7f4552433732313a20617070726f766520746f2063616c6c657200000000000000600082015250565b7f4552433732313a206f70657261746f7220717565727920666f72206e6f6e657860008201527f697374656e7420746f6b656e0000000000000000000000000000000000000000602082015250565b7f4552433732313a20617070726f76652063616c6c6572206973206e6f74206f7760008201527f6e6572206e6f7220617070726f76656420666f7220616c6c0000000000000000602082015250565b7f4552433732313a2062616c616e636520717565727920666f7220746865207a6560008201527f726f206164647265737300000000000000000000000000000000000000000000602082015250565b7f4552433732313a206f776e657220717565727920666f72206e6f6e657869737460008201527f656e7420746f6b656e0000000000000000000000000000000000000000000000602082015250565b7f4d4454503a20686569676874206d757374206265203e20300000000000000000600082015250565b7f4d4454503a206c656e677468206f6620636f6e74656e7455524973206d75737460008201527f206265207468652073616d65206173207769647468202a206865696768740000602082015250565b7f4552433732313a206d696e7420746f20746865207a65726f2061646472657373600082015250565b7f4d4454503a20726561636865642063757272656e74206d696e74696e67206c6960008201527f6d69740000000000000000000000000000000000000000000000000000000000602082015250565b7f4552433732313a20617070726f76656420717565727920666f72206e6f6e657860008201527f697374656e7420746f6b656e0000000000000000000000000000000000000000602082015250565b7f2e6a736f6e000000000000000000000000000000000000000000000000000000600082015250565b7f4d4454503a2063616c6c6572206973206e6f742074686520746f6b656e4f776e60008201527f6572000000000000000000000000000000000000000000000000000000000000602082015250565b7f4f776e61626c653a2063616c6c6572206973206e6f7420746865206f776e6572600082015250565b7f4552433732313a207472616e73666572206f6620746f6b656e2074686174206960008201527f73206e6f74206f776e0000000000000000000000000000000000000000000000602082015250565b7f4d4454503a2072657175657374656420746f6b656e20636f756e74206973206f60008201527f7665722073696e676c654d696e744c696d697400000000000000000000000000602082015250565b7f4552433732313a20617070726f76616c20746f2063757272656e74206f776e6560008201527f7200000000000000000000000000000000000000000000000000000000000000602082015250565b7f4d4454503a207769647468206d757374206265203e2030000000000000000000600082015250565b7f4d4454503a20496e73756666696369656e74207061796d656e74000000000000600082015250565b7f4552433732313a207472616e736665722063616c6c6572206973206e6f74206f60008201527f776e6572206e6f7220617070726f766564000000000000000000000000000000602082015250565b7f4d4454503a20696e76616c696420696e64657800000000000000000000000000600082015250565b614ef28161456b565b8114614efd57600080fd5b50565b614f098161457d565b8114614f1457600080fd5b50565b614f2081614589565b8114614f2b57600080fd5b50565b614f37816145b5565b8114614f4257600080fd5b50565b614f4e816145e3565b8114614f5957600080fd5b50565b614f65816145ed565b8114614f7057600080fd5b5056fea2646970667358221220053e5d5cf39ea89a95d622362de2960c97839a6125b940b81de524f078aecab064736f6c63430008040033",
  "linkReferences": {},
  "deployedLinkReferences": {}
}