{
  "_format": "hh-sol-artifact-1",
  "contractName": "MillionDollarTokenPageV2",
  "sourceName": "contracts/MillionDollarTokenPage-v2.sol",
  "abi": [
    {
      "inputs": [
        {
          "internalType": "uint16",
          "name": "_totalMintLimit",
          "type": "uint16"
        },
        {
          "internalType": "uint16",
          "name": "_singleMintLimit",
          "type": "uint16"
        },
        {
          "internalType": "uint16",
          "name": "_ownershipMintLimit",
          "type": "uint16"
        },
        {
          "internalType": "uint256",
          "name": "_mintPrice",
          "type": "uint256"
        },
        {
          "internalType": "string",
          "name": "_metadataBaseURI",
          "type": "string"
        },
        {
          "internalType": "string",
          "name": "_defaultContentBaseURI",
          "type": "string"
        },
        {
          "internalType": "string",
          "name": "_collectionURI",
          "type": "string"
        },
        {
          "internalType": "uint16",
          "name": "_royaltyBasisPoints",
          "type": "uint16"
        },
        {
          "internalType": "address",
          "name": "_original",
          "type": "address"
        }
      ],
      "stateMutability": "nonpayable",
      "type": "constructor"
    },
    {
      "anonymous": false,
      "inputs": [
        {
          "indexed": true,
          "internalType": "address",
          "name": "owner",
          "type": "address"
        },
        {
          "indexed": true,
          "internalType": "address",
          "name": "approved",
          "type": "address"
        },
        {
          "indexed": true,
          "internalType": "uint256",
          "name": "tokenId",
          "type": "uint256"
        }
      ],
      "name": "Approval",
      "type": "event"
    },
    {
      "anonymous": false,
      "inputs": [
        {
          "indexed": true,
          "internalType": "address",
          "name": "owner",
          "type": "address"
        },
        {
          "indexed": true,
          "internalType": "address",
          "name": "operator",
          "type": "address"
        },
        {
          "indexed": false,
          "internalType": "bool",
          "name": "approved",
          "type": "bool"
        }
      ],
      "name": "ApprovalForAll",
      "type": "event"
    },
    {
      "anonymous": false,
      "inputs": [
        {
          "indexed": true,
          "internalType": "address",
          "name": "previousOwner",
          "type": "address"
        },
        {
          "indexed": true,
          "internalType": "address",
          "name": "newOwner",
          "type": "address"
        }
      ],
      "name": "OwnershipTransferred",
      "type": "event"
    },
    {
      "anonymous": false,
      "inputs": [
        {
          "indexed": false,
          "internalType": "address",
          "name": "account",
          "type": "address"
        }
      ],
      "name": "Paused",
      "type": "event"
    },
    {
      "anonymous": false,
      "inputs": [
        {
          "indexed": true,
          "internalType": "uint256",
          "name": "tokenId",
          "type": "uint256"
        }
      ],
      "name": "TokenContentURIChanged",
      "type": "event"
    },
    {
      "anonymous": false,
      "inputs": [
        {
          "indexed": true,
          "internalType": "uint256",
          "name": "tokenId",
          "type": "uint256"
        }
      ],
      "name": "TokenMigrated",
      "type": "event"
    },
    {
      "anonymous": false,
      "inputs": [
        {
          "indexed": true,
          "internalType": "address",
          "name": "from",
          "type": "address"
        },
        {
          "indexed": true,
          "internalType": "address",
          "name": "to",
          "type": "address"
        },
        {
          "indexed": true,
          "internalType": "uint256",
          "name": "tokenId",
          "type": "uint256"
        }
      ],
      "name": "Transfer",
      "type": "event"
    },
    {
      "anonymous": false,
      "inputs": [
        {
          "indexed": false,
          "internalType": "address",
          "name": "account",
          "type": "address"
        }
      ],
      "name": "Unpaused",
      "type": "event"
    },
    {
      "inputs": [],
      "name": "COLUMN_COUNT",
      "outputs": [
        {
          "internalType": "uint16",
          "name": "",
          "type": "uint16"
        }
      ],
      "stateMutability": "view",
      "type": "function"
    },
    {
      "inputs": [],
      "name": "ROW_COUNT",
      "outputs": [
        {
          "internalType": "uint16",
          "name": "",
          "type": "uint16"
        }
      ],
      "stateMutability": "view",
      "type": "function"
    },
    {
      "inputs": [],
      "name": "SUPPLY_LIMIT",
      "outputs": [
        {
          "internalType": "uint16",
          "name": "",
          "type": "uint16"
        }
      ],
      "stateMutability": "view",
      "type": "function"
    },
    {
      "inputs": [
        {
          "internalType": "uint256[]",
          "name": "_tokenIdsToMigrate",
          "type": "uint256[]"
        }
      ],
      "name": "addTokensToMigrate",
      "outputs": [],
      "stateMutability": "nonpayable",
      "type": "function"
    },
    {
      "inputs": [
        {
          "internalType": "address",
          "name": "to",
          "type": "address"
        },
        {
          "internalType": "uint256",
          "name": "tokenId",
          "type": "uint256"
        }
      ],
      "name": "approve",
      "outputs": [],
      "stateMutability": "nonpayable",
      "type": "function"
    },
    {
      "inputs": [
        {
          "internalType": "address",
          "name": "owner",
          "type": "address"
        }
      ],
      "name": "balanceOf",
      "outputs": [
        {
          "internalType": "uint256",
          "name": "",
          "type": "uint256"
        }
      ],
      "stateMutability": "view",
      "type": "function"
    },
    {
      "inputs": [],
      "name": "canAddTokenIdsToMigrate",
      "outputs": [
        {
          "internalType": "bool",
          "name": "",
          "type": "bool"
        }
      ],
      "stateMutability": "view",
      "type": "function"
    },
    {
      "inputs": [],
      "name": "collectionURI",
      "outputs": [
        {
          "internalType": "string",
          "name": "",
          "type": "string"
        }
      ],
      "stateMutability": "view",
      "type": "function"
    },
    {
      "inputs": [],
      "name": "completeMigration",
      "outputs": [],
      "stateMutability": "nonpayable",
      "type": "function"
    },
    {
      "inputs": [],
      "name": "contractURI",
      "outputs": [
        {
          "internalType": "string",
          "name": "",
          "type": "string"
        }
      ],
      "stateMutability": "view",
      "type": "function"
    },
    {
      "inputs": [],
      "name": "defaultContentBaseURI",
      "outputs": [
        {
          "internalType": "string",
          "name": "",
          "type": "string"
        }
      ],
      "stateMutability": "view",
      "type": "function"
    },
    {
      "inputs": [
        {
          "internalType": "uint256",
          "name": "tokenId",
          "type": "uint256"
        }
      ],
      "name": "getApproved",
      "outputs": [
        {
          "internalType": "address",
          "name": "",
          "type": "address"
        }
      ],
      "stateMutability": "view",
      "type": "function"
    },
    {
      "inputs": [
        {
          "internalType": "address",
          "name": "owner",
          "type": "address"
        },
        {
          "internalType": "address",
          "name": "operator",
          "type": "address"
        }
      ],
      "name": "isApprovedForAll",
      "outputs": [
        {
          "internalType": "bool",
          "name": "",
          "type": "bool"
        }
      ],
      "stateMutability": "view",
      "type": "function"
    },
    {
      "inputs": [],
      "name": "isCenterSaleActive",
      "outputs": [
        {
          "internalType": "bool",
          "name": "",
          "type": "bool"
        }
      ],
      "stateMutability": "view",
      "type": "function"
    },
    {
      "inputs": [],
      "name": "isSaleActive",
      "outputs": [
        {
          "internalType": "bool",
          "name": "",
          "type": "bool"
        }
      ],
      "stateMutability": "view",
      "type": "function"
    },
    {
      "inputs": [
        {
          "internalType": "uint256",
          "name": "tokenId",
          "type": "uint256"
        }
      ],
      "name": "isTokenSetForMigration",
      "outputs": [
        {
          "internalType": "bool",
          "name": "",
          "type": "bool"
        }
      ],
      "stateMutability": "view",
      "type": "function"
    },
    {
      "inputs": [],
      "name": "metadataBaseURI",
      "outputs": [
        {
          "internalType": "string",
          "name": "",
          "type": "string"
        }
      ],
      "stateMutability": "view",
      "type": "function"
    },
    {
      "inputs": [],
      "name": "mintPrice",
      "outputs": [
        {
          "internalType": "uint256",
          "name": "",
          "type": "uint256"
        }
      ],
      "stateMutability": "view",
      "type": "function"
    },
    {
      "inputs": [
        {
          "internalType": "uint256",
          "name": "tokenId",
          "type": "uint256"
        }
      ],
      "name": "mintToken",
      "outputs": [],
      "stateMutability": "payable",
      "type": "function"
    },
    {
      "inputs": [
        {
          "internalType": "uint256",
          "name": "tokenId",
          "type": "uint256"
        },
        {
          "internalType": "uint8",
          "name": "width",
          "type": "uint8"
        },
        {
          "internalType": "uint8",
          "name": "height",
          "type": "uint8"
        }
      ],
      "name": "mintTokenGroup",
      "outputs": [],
      "stateMutability": "payable",
      "type": "function"
    },
    {
      "inputs": [
        {
          "internalType": "address",
          "name": "receiver",
          "type": "address"
        },
        {
          "internalType": "uint256",
          "name": "tokenId",
          "type": "uint256"
        },
        {
          "internalType": "uint8",
          "name": "width",
          "type": "uint8"
        },
        {
          "internalType": "uint8",
          "name": "height",
          "type": "uint8"
        }
      ],
      "name": "mintTokenGroupTo",
      "outputs": [],
      "stateMutability": "payable",
      "type": "function"
    },
    {
      "inputs": [
        {
          "internalType": "address",
          "name": "receiver",
          "type": "address"
        },
        {
          "internalType": "uint256",
          "name": "tokenId",
          "type": "uint256"
        }
      ],
      "name": "mintTokenTo",
      "outputs": [],
      "stateMutability": "payable",
      "type": "function"
    },
    {
      "inputs": [],
      "name": "mintedCount",
      "outputs": [
        {
          "internalType": "uint256",
          "name": "",
          "type": "uint256"
        }
      ],
      "stateMutability": "view",
      "type": "function"
    },
    {
      "inputs": [],
      "name": "name",
      "outputs": [
        {
          "internalType": "string",
          "name": "",
          "type": "string"
        }
      ],
      "stateMutability": "view",
      "type": "function"
    },
    {
      "inputs": [
        {
          "internalType": "address",
          "name": "",
          "type": "address"
        },
        {
          "internalType": "address",
          "name": "from",
          "type": "address"
        },
        {
          "internalType": "uint256",
          "name": "tokenId",
          "type": "uint256"
        },
        {
          "internalType": "bytes",
          "name": "",
          "type": "bytes"
        }
      ],
      "name": "onERC721Received",
      "outputs": [
        {
          "internalType": "bytes4",
          "name": "",
          "type": "bytes4"
        }
      ],
      "stateMutability": "nonpayable",
      "type": "function"
    },
    {
      "inputs": [],
      "name": "original",
      "outputs": [
        {
          "internalType": "contract MillionDollarTokenPageV1",
          "name": "",
          "type": "address"
        }
      ],
      "stateMutability": "view",
      "type": "function"
    },
    {
      "inputs": [],
      "name": "owner",
      "outputs": [
        {
          "internalType": "address",
          "name": "",
          "type": "address"
        }
      ],
      "stateMutability": "view",
      "type": "function"
    },
    {
      "inputs": [
        {
          "internalType": "uint256",
          "name": "tokenId",
          "type": "uint256"
        }
      ],
      "name": "ownerOf",
      "outputs": [
        {
          "internalType": "address",
          "name": "",
          "type": "address"
        }
      ],
      "stateMutability": "view",
      "type": "function"
    },
    {
      "inputs": [],
      "name": "ownershipMintLimit",
      "outputs": [
        {
          "internalType": "uint16",
          "name": "",
          "type": "uint16"
        }
      ],
      "stateMutability": "view",
      "type": "function"
    },
    {
      "inputs": [],
      "name": "pause",
      "outputs": [],
      "stateMutability": "nonpayable",
      "type": "function"
    },
    {
      "inputs": [],
      "name": "paused",
      "outputs": [
        {
          "internalType": "bool",
          "name": "",
          "type": "bool"
        }
      ],
      "stateMutability": "view",
      "type": "function"
    },
    {
      "inputs": [
        {
          "internalType": "uint256",
          "name": "tokenId",
          "type": "uint256"
        }
      ],
      "name": "proxiedOwnerOf",
      "outputs": [
        {
          "internalType": "address",
          "name": "",
          "type": "address"
        }
      ],
      "stateMutability": "view",
      "type": "function"
    },
    {
      "inputs": [],
      "name": "renounceOwnership",
      "outputs": [],
      "stateMutability": "nonpayable",
      "type": "function"
    },
    {
      "inputs": [],
      "name": "royaltyBasisPoints",
      "outputs": [
        {
          "internalType": "uint16",
          "name": "",
          "type": "uint16"
        }
      ],
      "stateMutability": "view",
      "type": "function"
    },
    {
      "inputs": [
        {
          "internalType": "uint256",
          "name": "",
          "type": "uint256"
        },
        {
          "internalType": "uint256",
          "name": "salePrice",
          "type": "uint256"
        }
      ],
      "name": "royaltyInfo",
      "outputs": [
        {
          "internalType": "address",
          "name": "",
          "type": "address"
        },
        {
          "internalType": "uint256",
          "name": "",
          "type": "uint256"
        }
      ],
      "stateMutability": "view",
      "type": "function"
    },
    {
      "inputs": [
        {
          "internalType": "address",
          "name": "from",
          "type": "address"
        },
        {
          "internalType": "address",
          "name": "to",
          "type": "address"
        },
        {
          "internalType": "uint256",
          "name": "tokenId",
          "type": "uint256"
        }
      ],
      "name": "safeTransferFrom",
      "outputs": [],
      "stateMutability": "nonpayable",
      "type": "function"
    },
    {
      "inputs": [
        {
          "internalType": "address",
          "name": "from",
          "type": "address"
        },
        {
          "internalType": "address",
          "name": "to",
          "type": "address"
        },
        {
          "internalType": "uint256",
          "name": "tokenId",
          "type": "uint256"
        },
        {
          "internalType": "bytes",
          "name": "_data",
          "type": "bytes"
        }
      ],
      "name": "safeTransferFrom",
      "outputs": [],
      "stateMutability": "nonpayable",
      "type": "function"
    },
    {
      "inputs": [
        {
          "internalType": "address",
          "name": "sender",
          "type": "address"
        },
        {
          "internalType": "address",
          "name": "receiver",
          "type": "address"
        },
        {
          "internalType": "uint256",
          "name": "tokenId",
          "type": "uint256"
        },
        {
          "internalType": "uint8",
          "name": "width",
          "type": "uint8"
        },
        {
          "internalType": "uint8",
          "name": "height",
          "type": "uint8"
        }
      ],
      "name": "safeTransferGroupFrom",
      "outputs": [],
      "stateMutability": "nonpayable",
      "type": "function"
    },
    {
      "inputs": [
        {
          "internalType": "address",
          "name": "operator",
          "type": "address"
        },
        {
          "internalType": "bool",
          "name": "approved",
          "type": "bool"
        }
      ],
      "name": "setApprovalForAll",
      "outputs": [],
      "stateMutability": "nonpayable",
      "type": "function"
    },
    {
      "inputs": [
        {
          "internalType": "string",
          "name": "newCollectionURI",
          "type": "string"
        }
      ],
      "name": "setCollectionURI",
      "outputs": [],
      "stateMutability": "nonpayable",
      "type": "function"
    },
    {
      "inputs": [
        {
          "internalType": "string",
          "name": "newDefaultContentBaseURI",
          "type": "string"
        }
      ],
      "name": "setDefaultContentBaseURI",
      "outputs": [],
      "stateMutability": "nonpayable",
      "type": "function"
    },
    {
      "inputs": [
        {
          "internalType": "bool",
          "name": "newIsCenterSaleActive",
          "type": "bool"
        }
      ],
      "name": "setIsCenterSaleActive",
      "outputs": [],
      "stateMutability": "nonpayable",
      "type": "function"
    },
    {
      "inputs": [
        {
          "internalType": "bool",
          "name": "newisSaleActive",
          "type": "bool"
        }
      ],
      "name": "setIsSaleActive",
      "outputs": [],
      "stateMutability": "nonpayable",
      "type": "function"
    },
    {
      "inputs": [
        {
          "internalType": "string",
          "name": "newMetadataBaseURI",
          "type": "string"
        }
      ],
      "name": "setMetadataBaseURI",
      "outputs": [],
      "stateMutability": "nonpayable",
      "type": "function"
    },
    {
      "inputs": [
        {
          "internalType": "uint256",
          "name": "newMintPrice",
          "type": "uint256"
        }
      ],
      "name": "setMintPrice",
      "outputs": [],
      "stateMutability": "nonpayable",
      "type": "function"
    },
    {
      "inputs": [
        {
          "internalType": "uint16",
          "name": "newOwnershipMintLimit",
          "type": "uint16"
        }
      ],
      "name": "setOwnershipMintLimit",
      "outputs": [],
      "stateMutability": "nonpayable",
      "type": "function"
    },
    {
      "inputs": [
        {
          "internalType": "uint16",
          "name": "newRoyaltyBasisPoints",
          "type": "uint16"
        }
      ],
      "name": "setRoyaltyBasisPoints",
      "outputs": [],
      "stateMutability": "nonpayable",
      "type": "function"
    },
    {
      "inputs": [
        {
          "internalType": "uint16",
          "name": "newSingleMintLimit",
          "type": "uint16"
        }
      ],
      "name": "setSingleMintLimit",
      "outputs": [],
      "stateMutability": "nonpayable",
      "type": "function"
    },
    {
      "inputs": [
        {
          "internalType": "uint256",
          "name": "tokenId",
          "type": "uint256"
        },
        {
          "internalType": "string",
          "name": "contentURI",
          "type": "string"
        }
      ],
      "name": "setTokenContentURI",
      "outputs": [],
      "stateMutability": "nonpayable",
      "type": "function"
    },
    {
      "inputs": [
        {
          "internalType": "uint256",
          "name": "tokenId",
          "type": "uint256"
        },
        {
          "internalType": "uint8",
          "name": "width",
          "type": "uint8"
        },
        {
          "internalType": "uint8",
          "name": "height",
          "type": "uint8"
        },
        {
          "internalType": "string[]",
          "name": "contentURIs",
          "type": "string[]"
        }
      ],
      "name": "setTokenGroupContentURIs",
      "outputs": [],
      "stateMutability": "nonpayable",
      "type": "function"
    },
    {
      "inputs": [
        {
          "internalType": "uint16",
          "name": "newTotalMintLimit",
          "type": "uint16"
        }
      ],
      "name": "setTotalMintLimit",
      "outputs": [],
      "stateMutability": "nonpayable",
      "type": "function"
    },
    {
      "inputs": [],
      "name": "singleMintLimit",
      "outputs": [
        {
          "internalType": "uint16",
          "name": "",
          "type": "uint16"
        }
      ],
      "stateMutability": "view",
      "type": "function"
    },
    {
      "inputs": [
        {
          "internalType": "bytes4",
          "name": "interfaceId",
          "type": "bytes4"
        }
      ],
      "name": "supportsInterface",
      "outputs": [
        {
          "internalType": "bool",
          "name": "",
          "type": "bool"
        }
      ],
      "stateMutability": "view",
      "type": "function"
    },
    {
      "inputs": [],
      "name": "symbol",
      "outputs": [
        {
          "internalType": "string",
          "name": "",
          "type": "string"
        }
      ],
      "stateMutability": "view",
      "type": "function"
    },
    {
      "inputs": [
        {
          "internalType": "uint256",
          "name": "index",
          "type": "uint256"
        }
      ],
      "name": "tokenByIndex",
      "outputs": [
        {
          "internalType": "uint256",
          "name": "",
          "type": "uint256"
        }
      ],
      "stateMutability": "pure",
      "type": "function"
    },
    {
      "inputs": [
        {
          "internalType": "uint256",
          "name": "tokenId",
          "type": "uint256"
        }
      ],
      "name": "tokenContentURI",
      "outputs": [
        {
          "internalType": "string",
          "name": "",
          "type": "string"
        }
      ],
      "stateMutability": "view",
      "type": "function"
    },
    {
      "inputs": [
        {
          "internalType": "address",
          "name": "owner",
          "type": "address"
        },
        {
          "internalType": "uint256",
          "name": "index",
          "type": "uint256"
        }
      ],
      "name": "tokenOfOwnerByIndex",
      "outputs": [
        {
          "internalType": "uint256",
          "name": "",
          "type": "uint256"
        }
      ],
      "stateMutability": "view",
      "type": "function"
    },
    {
      "inputs": [
        {
          "internalType": "uint256",
          "name": "tokenId",
          "type": "uint256"
        }
      ],
      "name": "tokenURI",
      "outputs": [
        {
          "internalType": "string",
          "name": "",
          "type": "string"
        }
      ],
      "stateMutability": "view",
      "type": "function"
    },
    {
      "inputs": [],
      "name": "totalMintLimit",
      "outputs": [
        {
          "internalType": "uint16",
          "name": "",
          "type": "uint16"
        }
      ],
      "stateMutability": "view",
      "type": "function"
    },
    {
      "inputs": [],
      "name": "totalSupply",
      "outputs": [
        {
          "internalType": "uint256",
          "name": "",
          "type": "uint256"
        }
      ],
      "stateMutability": "pure",
      "type": "function"
    },
    {
      "inputs": [
        {
          "internalType": "address",
          "name": "from",
          "type": "address"
        },
        {
          "internalType": "address",
          "name": "to",
          "type": "address"
        },
        {
          "internalType": "uint256",
          "name": "tokenId",
          "type": "uint256"
        }
      ],
      "name": "transferFrom",
      "outputs": [],
      "stateMutability": "nonpayable",
      "type": "function"
    },
    {
      "inputs": [
        {
          "internalType": "address",
          "name": "sender",
          "type": "address"
        },
        {
          "internalType": "address",
          "name": "receiver",
          "type": "address"
        },
        {
          "internalType": "uint256",
          "name": "tokenId",
          "type": "uint256"
        },
        {
          "internalType": "uint8",
          "name": "width",
          "type": "uint8"
        },
        {
          "internalType": "uint8",
          "name": "height",
          "type": "uint8"
        }
      ],
      "name": "transferGroupFrom",
      "outputs": [],
      "stateMutability": "nonpayable",
      "type": "function"
    },
    {
      "inputs": [
        {
          "internalType": "address",
          "name": "newOwner",
          "type": "address"
        }
      ],
      "name": "transferOwnership",
      "outputs": [],
      "stateMutability": "nonpayable",
      "type": "function"
    },
    {
      "inputs": [],
      "name": "unpause",
      "outputs": [],
      "stateMutability": "nonpayable",
      "type": "function"
    },
    {
      "inputs": [],
      "name": "withdraw",
      "outputs": [],
      "stateMutability": "nonpayable",
      "type": "function"
    }
  ],
  "bytecode": "0x60806040523480156200001157600080fd5b5060405162004db938038062004db9833981016040819052620000349162000393565b604080518082018252601681527f4d696c6c696f6e446f6c6c6172546f6b656e5061676500000000000000000000602080830191825283518085019094526003845262e28aa160e81b908401528151919291620000949160009162000206565b508051620000aa90600190602084019062000206565b50506006805460ff1916905550620000c233620001ac565b600b805461ffff19169055600f805460ff60a01b191690558451620000ef90600c90602088019062000206565b5083516200010590600d90602087019062000206565b5082516200011b90600e90602086019062000206565b5060098054600a9790975565ffffffff0000199096166201000061ffff9a8b160261ffff60201b191617640100000000988a16989098029790971767ffff00000000ffff191666010000000000009689169690960261ffff19169590951794909616939093179091555050600f80546001600160a01b0319166001600160a01b0390921691909117905550620004e0565b600680546001600160a01b03838116610100818102610100600160a81b031985161790945560405193909204169182907f8be0079c531659141344cd1fd0a4f28419497f9722a3daafe3b4186f6b6457e090600090a35050565b82805462000214906200048d565b90600052602060002090601f01602090048101928262000238576000855562000283565b82601f106200025357805160ff191683800117855562000283565b8280016001018555821562000283579182015b828111156200028357825182559160200191906001019062000266565b506200029192915062000295565b5090565b5b8082111562000291576000815560010162000296565b80516001600160a01b0381168114620002c457600080fd5b919050565b600082601f830112620002db57600080fd5b81516001600160401b0380821115620002f857620002f8620004ca565b604051601f8301601f19908116603f01168101908282118183101715620003235762000323620004ca565b816040528381526020925086838588010111156200034057600080fd5b600091505b8382101562000364578582018301518183018401529082019062000345565b83821115620003765760008385830101525b9695505050505050565b805161ffff81168114620002c457600080fd5b60008060008060008060008060006101208a8c031215620003b357600080fd5b620003be8a62000380565b9850620003ce60208b0162000380565b9750620003de60408b0162000380565b60608b015160808c015191985096506001600160401b03808211156200040357600080fd5b620004118d838e01620002c9565b965060a08c01519150808211156200042857600080fd5b620004368d838e01620002c9565b955060c08c01519150808211156200044d57600080fd5b506200045c8c828d01620002c9565b9350506200046d60e08b0162000380565b91506200047e6101008b01620002ac565b90509295985092959850929598565b600181811c90821680620004a257607f821691505b60208210811415620004c457634e487b7160e01b600052602260045260246000fd5b50919050565b634e487b7160e01b600052604160045260246000fd5b6148c980620004f06000396000f3fe6080604052600436106103de5760003560e01c80636352211e1161020d578063a82106ee11610128578063e04a8eaf116100bb578063eb3391a91161008a578063f4a0a5281161006f578063f4a0a52814610b56578063f994589a14610b76578063fb94bd8a14610b9757600080fd5b8063eb3391a914610b16578063f2fde38b14610b3657600080fd5b8063e04a8eaf14610757578063e8a3d48514610a98578063e8d44caf14610aad578063e985e9c514610acd57600080fd5b8063c7428566116100f7578063c742856614610a20578063c87b56dd14610a43578063cf721b1514610a63578063d2d65ff514610a7857600080fd5b8063a82106ee146109ae578063b46a8165146109ce578063b88d4fde146109ed578063c634d03214610a0d57600080fd5b80638d50645a116101a0578063a1ae82e51161016f578063a1ae82e514610934578063a22cb46514610954578063a5097ebf14610974578063a5dee0021461098957600080fd5b80638d50645a146108c75780638da5cb5b146108e757806395d89b411461090a5780639f3d1a2a1461091f57600080fd5b806370a08231116101dc57806370a082311461085c578063715018a61461087c57806376dd1f86146108915780638456cb59146108b257600080fd5b80636352211e146107f3578063669a1f6914610813578063676c7e5e146108265780636817c76c1461084657600080fd5b80633906f560116102fd57806346c715fa1161029057806351cc5d661161025f57806351cc5d661461078c578063564566a8146107a15780635935e01a146107bb5780635c975abb146107db57600080fd5b806346c715fa146107225780634886f62c146107425780634a0218d6146107575780634f6ccce71461076c57600080fd5b80633f4ba83a116102cc5780633f4ba83a146106bf57806342260b5d146106d457806342842e0e146106ef57806345e832df1461070f57600080fd5b80633906f560146106425780633bd4803c1461066a5780633be9a9e11461068a5780633ccfd60b146106aa57600080fd5b80631f5e7978116103755780632a1b707a116103445780632a1b707a146105a35780632a55205a146105c35780632c0a6055146106025780632f745c591461062257600080fd5b80631f5e7978146105305780632222cda01461054357806323b872dd146105635780632639f4601461058357600080fd5b8063095ea7b3116103b1578063095ea7b3146104945780630c0a9d26146104b4578063150b7a02146104d457806318160ddd1461050d57600080fd5b80630170163a146103e357806301ffc9a71461040557806306fdde031461043a578063081812fc1461045c575b600080fd5b3480156103ef57600080fd5b506104036103fe3660046142b5565b610bb7565b005b34801561041157600080fd5b506104256104203660046141c2565b610c32565b60405190151581526020015b60405180910390f35b34801561044657600080fd5b5061044f610cf9565b60405161043191906145d8565b34801561046857600080fd5b5061047c6104773660046142d9565b610d8b565b6040516001600160a01b039091168152602001610431565b3480156104a057600080fd5b506104036104af3660046140b7565b610e13565b3480156104c057600080fd5b5061044f6104cf3660046142d9565b610f45565b3480156104e057600080fd5b506104f46104ef366004613f2d565b611168565b6040516001600160e01b03199091168152602001610431565b34801561051957600080fd5b50610522611464565b604051908152602001610431565b61040361053e36600461435b565b61147a565b34801561054f57600080fd5b5061040361055e366004614020565b6114f4565b34801561056f57600080fd5b5061040361057e366004613eec565b61157f565b34801561058f57600080fd5b5061040361059e3660046141fc565b611606565b3480156105af57600080fd5b506104256105be3660046142d9565b611660565b3480156105cf57600080fd5b506105e36105de366004614339565b6116ab565b604080516001600160a01b039093168352602083019190915201610431565b34801561060e57600080fd5b5061047c61061d3660046142d9565b6116dd565b34801561062e57600080fd5b5061052261063d3660046140b7565b611772565b34801561064e57600080fd5b50610657611843565b60405161ffff9091168152602001610431565b34801561067657600080fd5b50610403610685366004614020565b611851565b34801561069657600080fd5b506104036106a5366004614132565b6118d4565b3480156106b657600080fd5b50610403611bf9565b3480156106cb57600080fd5b50610403611d06565b3480156106e057600080fd5b506009546106579061ffff1681565b3480156106fb57600080fd5b5061040361070a366004613eec565b611d5e565b61040361071d3660046140e3565b611d79565b34801561072e57600080fd5b50600f5461047c906001600160a01b031681565b34801561074e57600080fd5b50610403611df9565b34801561076357600080fd5b50610657606481565b34801561077857600080fd5b506105226107873660046142d9565b611e77565b34801561079857600080fd5b5061044f611ee1565b3480156107ad57600080fd5b50600b546104259060ff1681565b3480156107c757600080fd5b506104036107d6366004614397565b611f6f565b3480156107e757600080fd5b5060065460ff16610425565b3480156107ff57600080fd5b5061047c61080e3660046142d9565b612267565b6104036108213660046140b7565b612313565b34801561083257600080fd5b506104036108413660046142b5565b612372565b34801561085257600080fd5b50610522600a5481565b34801561086857600080fd5b50610522610877366004613e79565b612453565b34801561088857600080fd5b506104036124ed565b34801561089d57600080fd5b506009546106579062010000900461ffff1681565b3480156108be57600080fd5b50610403612545565b3480156108d357600080fd5b506104036108e23660046142f2565b61259b565b3480156108f357600080fd5b5060065461010090046001600160a01b031661047c565b34801561091657600080fd5b5061044f612606565b34801561092b57600080fd5b5061044f612615565b34801561094057600080fd5b5061040361094f3660046142b5565b612622565b34801561096057600080fd5b5061040361096f366004614082565b612690565b34801561098057600080fd5b5061044f61269b565b34801561099557600080fd5b50600954610657906601000000000000900461ffff1681565b3480156109ba57600080fd5b506104036109c93660046141a7565b6126a8565b3480156109da57600080fd5b50600b5461042590610100900460ff1681565b3480156109f957600080fd5b50610403610a08366004613fa0565b612710565b610403610a1b3660046142d9565b612798565b348015610a2c57600080fd5b5060095461065790640100000000900461ffff1681565b348015610a4f57600080fd5b5061044f610a5e3660046142d9565b6127fa565b348015610a6f57600080fd5b50610522612892565b348015610a8457600080fd5b50610403610a933660046141a7565b6128a9565b348015610aa457600080fd5b5061044f61290a565b348015610ab957600080fd5b50610403610ac83660046142b5565b612919565b348015610ad957600080fd5b50610425610ae8366004613eb3565b6001600160a01b03918216600090815260056020908152604080832093909416825291909152205460ff1690565b348015610b2257600080fd5b50610403610b313660046141fc565b61298b565b348015610b4257600080fd5b50610403610b51366004613e79565b6129e5565b348015610b6257600080fd5b50610403610b713660046142d9565b612ab8565b348015610b8257600080fd5b50600f5461042590600160a01b900460ff1681565b348015610ba357600080fd5b50610403610bb23660046141fc565b612b0b565b6006546001600160a01b03610100909104163314610c0a5760405162461bcd60e51b8152602060048201819052602482015260008051602061487483398151915260448201526064015b60405180910390fd5b6009805461ffff90921666010000000000000267ffff00000000000019909216919091179055565b60006001600160e01b03198216630a85bd0160e11b1480610c7c57506001600160e01b031982167f780e9d6300000000000000000000000000000000000000000000000000000000145b80610cb057506001600160e01b031982167f2a55205a00000000000000000000000000000000000000000000000000000000145b80610ce457506001600160e01b031982167fe8a3d48500000000000000000000000000000000000000000000000000000000145b80610cf35750610cf382612b65565b92915050565b606060008054610d089061474a565b80601f0160208091040260200160405190810160405280929190818152602001828054610d349061474a565b8015610d815780601f10610d5657610100808354040283529160200191610d81565b820191906000526020600020905b815481529060010190602001808311610d6457829003601f168201915b5050505050905090565b6000610d9682612c00565b610df75760405162461bcd60e51b815260206004820152602c60248201527f4552433732313a20617070726f76656420717565727920666f72206e6f6e657860448201526b34b9ba32b73a103a37b5b2b760a11b6064820152608401610c01565b506000908152600460205260409020546001600160a01b031690565b6000610e1e82612267565b9050806001600160a01b0316836001600160a01b03161415610ea85760405162461bcd60e51b815260206004820152602160248201527f4552433732313a20617070726f76616c20746f2063757272656e74206f776e6560448201527f72000000000000000000000000000000000000000000000000000000000000006064820152608401610c01565b336001600160a01b0382161480610ec45750610ec48133610ae8565b610f365760405162461bcd60e51b815260206004820152603860248201527f4552433732313a20617070726f76652063616c6c6572206973206e6f74206f7760448201527f6e6572206e6f7220617070726f76656420666f7220616c6c00000000000000006064820152608401610c01565b610f408383612c36565b505050565b606081600081118015610f665750610f5e606480614695565b61ffff168111155b610faa5760405162461bcd60e51b8152602060048201526015602482015274135115140e881a5b9d985b1a59081d1bdad95b9259605a1b6044820152606401610c01565b610fb383611660565b1561105857600f546040517f0c0a9d26000000000000000000000000000000000000000000000000000000008152600481018590526001600160a01b0390911690630c0a9d269060240160006040518083038186803b15801561101557600080fd5b505afa158015611029573d6000803e3d6000fd5b505050506040513d6000823e601f3d908101601f19168201604052611051919081019061423e565b9150611162565b600083815260086020526040812080546110719061474a565b80601f016020809104026020016040519081016040528092919081815260200182805461109d9061474a565b80156110ea5780601f106110bf576101008083540402835291602001916110ea565b820191906000526020600020905b8154815290600101906020018083116110cd57829003601f168201915b50505050509050600081511115611102579150611162565b6000848152600260205260409020546001600160a01b0316801561113257611129856127fa565b93505050611162565b600d61113d86612cb1565b60405160200161114e9291906144d2565b604051602081830303815290604052935050505b50919050565b600f546000906001600160a01b0316336001600160a01b0316146111f45760405162461bcd60e51b815260206004820152602f60248201527f4d4454503a2063616e6e6f742061636365707420746f6b656e2066726f6d207560448201527f6e6b6e6f776e20636f6e747261637400000000000000000000000000000000006064820152608401610c01565b600f546040516331a9108f60e11b81526004810186905230916001600160a01b031690636352211e9060240160206040518083038186803b15801561123857600080fd5b505afa15801561124c573d6000803e3d6000fd5b505050506040513d601f19601f820116820180604052508101906112709190613e96565b6001600160a01b0316146112ec5760405162461bcd60e51b815260206004820152602a60248201527f4d4454503a20746f6b656e206e6f7420796574206f776e65642062792074686960448201527f7320636f6e7472616374000000000000000000000000000000000000000000006064820152608401610c01565b600f546001600160a01b031661130185612267565b6001600160a01b03161461137d5760405162461bcd60e51b815260206004820152602f60248201527f4d4454503a2063616e6e6f742061636365707420746f6b656e206e6f7420736560448201527f7420666f72206d6967726174696f6e00000000000000000000000000000000006064820152608401610c01565b600f54611394906001600160a01b03168686612deb565b6113d26113a3610100866147dc565b60116113b161010088614681565b602881106113c1576113c161481c565b015490600160ff919091161b191690565b60116113e061010087614681565b602881106113f0576113f061481c565b01819055506001601060008282546114089190614707565b925050819055506001600760008282546114229190614644565b909155505060405184907fcb81cc0672f8611568f0de539e3a44de3e2f070f6726e417c97b906bf0c8d16190600090a250630a85bd0160e11b95945050505050565b6000611471606480614695565b61ffff16905090565b8060ff168260ff16600a5461148f91906146bf565b61149991906146bf565b3410156114e85760405162461bcd60e51b815260206004820152601a60248201527f4d4454503a20696e73756666696369656e74207061796d656e740000000000006044820152606401610c01565b610f4033848484612fd0565b60005b8160ff168160ff1610156115775760005b8360ff168160ff1610156115645760008160ff168360ff16606461152c9190614695565b61153a9061ffff1688614644565b6115449190614644565b9050611551888883611d5e565b508061155c816147bc565b915050611508565b508061156f816147bc565b9150506114f7565b505050505050565b6115893382612fec565b6115fb5760405162461bcd60e51b815260206004820152603160248201527f4552433732313a207472616e736665722063616c6c6572206973206e6f74206f60448201527f776e6572206e6f7220617070726f7665640000000000000000000000000000006064820152608401610c01565b610f40838383612deb565b6006546001600160a01b036101009091041633146116545760405162461bcd60e51b815260206004820181905260248201526000805160206148748339815191526044820152606401610c01565b610f40600e8383613c9f565b600080601054118015610cf35750610cf361167d610100846147dc565b601161168b61010086614681565b6028811061169b5761169b61481c565b01549060ff161c60019081161490565b60095460009081903090612710906116c79061ffff16866146bf565b6116d19190614681565b915091505b9250929050565b60006116e882611660565b1561176957600f546040516331a9108f60e11b8152600481018490526001600160a01b0390911690636352211e9060240160206040518083038186803b15801561173157600080fd5b505afa158015611745573d6000803e3d6000fd5b505050506040513d601f19601f82011682018060405250810190610cf39190613e96565b610cf382612267565b600061177d83612453565b82106117cb5760405162461bcd60e51b815260206004820152601f60248201527f4d4454503a206f776e657220696e646578206f7574206f6620626f756e6473006044820152606401610c01565b600060015b6117db606480614695565b61ffff168111611838576000818152600260205260409020546001600160a01b03868116911614156118265783821415611818579150610cf39050565b81611822816147a1565b9250505b80611830816147a1565b9150506117d0565b506000949350505050565b61184e606480614695565b81565b60005b8160ff168160ff1610156115775760005b8360ff168160ff1610156118c15760008160ff168360ff1660646118899190614695565b6118979061ffff1688614644565b6118a19190614644565b90506118ae88888361157f565b50806118b9816147bc565b915050611865565b50806118cc816147bc565b915050611854565b6006546001600160a01b036101009091041633146119225760405162461bcd60e51b815260206004820181905260248201526000805160206148748339815191526044820152606401610c01565b600f54600160a01b900460ff16156119a25760405162461bcd60e51b815260206004820152602560248201527f4d4454503a206d6967726174696f6e2068617320616c7265616479206861707060448201527f656e6564210000000000000000000000000000000000000000000000000000006064820152608401610c01565b60005b61ffff8116821115611bab57600083838361ffff168181106119c9576119c961481c565b9050602002013590506000811180156119f057506119e8606480614695565b61ffff168111155b611a345760405162461bcd60e51b8152602060048201526015602482015274135115140e881a5b9d985b1a59081d1bdad95b9259605a1b6044820152606401610c01565b6000818152600260205260409020546001600160a01b031615611abf5760405162461bcd60e51b815260206004820152602360248201527f4d4454503a2063616e6e6f74206d69677261746520616e206f776e656420746f60448201527f6b656e00000000000000000000000000000000000000000000000000000000006064820152608401610c01565b611ac881611660565b15611b3b5760405162461bcd60e51b815260206004820152602560248201527f4d4454503a20746f6b656e20616c72656164792073657420666f72206d69677260448201527f6174696f6e0000000000000000000000000000000000000000000000000000006064820152608401610c01565b611b78611b4a610100836147dc565b6011611b5861010085614681565b60288110611b6857611b6861481c565b015490600160ff919091161b1790565b6011611b8661010084614681565b60288110611b9657611b9661481c565b01555080611ba38161477f565b9150506119a5565b50600f546001600160a01b031660009081526003602052604081208054839290611bd6908490614644565b909155505060108054829190600090611bf0908490614644565b90915550505050565b6006546001600160a01b03610100909104163314611c475760405162461bcd60e51b815260206004820181905260248201526000805160206148748339815191526044820152606401610c01565b476000611c626006546001600160a01b036101009091041690565b6001600160a01b03168260405160006040518083038185875af1925050503d8060008114611cac576040519150601f19603f3d011682016040523d82523d6000602084013e611cb1565b606091505b5050905080611d025760405162461bcd60e51b815260206004820152601060248201527f5472616e73666572206661696c65642e000000000000000000000000000000006044820152606401610c01565b5050565b6006546001600160a01b03610100909104163314611d545760405162461bcd60e51b815260206004820181905260248201526000805160206148748339815191526044820152606401610c01565b611d5c6130d2565b565b610f4083838360405180602001604052806000815250612710565b8060ff168260ff16600a54611d8e91906146bf565b611d9891906146bf565b341015611de75760405162461bcd60e51b815260206004820152601a60248201527f4d4454503a20696e73756666696369656e74207061796d656e740000000000006044820152606401610c01565b611df384848484612fd0565b50505050565b6006546001600160a01b03610100909104163314611e475760405162461bcd60e51b815260206004820181905260248201526000805160206148748339815191526044820152606401610c01565b600f80547fffffffffffffffffffffff00ffffffffffffffffffffffffffffffffffffffff16600160a01b179055565b6000611e84606480614695565b61ffff168210611ed65760405162461bcd60e51b815260206004820152601360248201527f4d4454503a20696e76616c696420696e646578000000000000000000000000006044820152606401610c01565b610cf3826001614644565b600d8054611eee9061474a565b80601f0160208091040260200160405190810160405280929190818152602001828054611f1a9061474a565b8015611f675780601f10611f3c57610100808354040283529160200191611f67565b820191906000526020600020905b815481529060010190602001808311611f4a57829003601f168201915b505050505081565b83838360005b8160ff168160ff1610156120705760005b8360ff168160ff16101561205d5760008160ff168360ff166064611faa9190614695565b611fb89061ffff1688614644565b611fc29190614644565b905033611fce82612267565b6001600160a01b03161461204a5760405162461bcd60e51b815260206004820152603960248201527f4d4454503a2063616c6c6572206973206e6f742074686520746f6b656e4f776e60448201527f6572206f6620616c6c20746f6b656e7320696e2067726f7570000000000000006064820152608401610c01565b5080612055816147bc565b915050611f86565b5080612068816147bc565b915050611f75565b5086868660008260ff16116120c75760405162461bcd60e51b815260206004820152601760248201527f4d4454503a207769647468206d757374206265203e20300000000000000000006044820152606401610c01565b60008160ff161161211a5760405162461bcd60e51b815260206004820152601860248201527f4d4454503a20686569676874206d757374206265203e203000000000000000006044820152606401610c01565b8651612126898b6146de565b60ff161461219c5760405162461bcd60e51b815260206004820152602560248201527f4d4454503a206c656e677468206f6620636f6e74656e745552497320696e636f60448201527f72726563740000000000000000000000000000000000000000000000000000006064820152608401610c01565b60005b8860ff168160ff16101561225a5760005b8a60ff168160ff161015612247576000816121cb848e6146de565b6121d5919061465c565b60ff16905060008260ff168460ff1660646121f09190614695565b61ffff168f6121ff9190614644565b6122099190614644565b9050612232818c8461ffff16815181106122255761222561481c565b602002602001015161316e565b5050808061223f906147bc565b9150506121b0565b5080612252816147bc565b91505061219f565b5050505050505050505050565b600061227282611660565b15612288575050600f546001600160a01b031690565b6000828152600260205260409020546001600160a01b031680610cf35760405162461bcd60e51b815260206004820152602960248201527f4552433732313a206f776e657220717565727920666f72206e6f6e657869737460448201527f656e7420746f6b656e00000000000000000000000000000000000000000000006064820152608401610c01565b600a543410156123655760405162461bcd60e51b815260206004820152601a60248201527f4d4454503a20696e73756666696369656e74207061796d656e740000000000006044820152606401610c01565b611d028282600180612fd0565b6006546001600160a01b036101009091041633146123c05760405162461bcd60e51b815260206004820181905260248201526000805160206148748339815191526044820152606401610c01565b6113888161ffff161061243b5760405162461bcd60e51b815260206004820152602d60248201527f4d4454503a20726f79616c74794261736973506f696e7473206d75737420626560448201527f203c2035303030202835302529000000000000000000000000000000000000006064820152608401610c01565b6009805461ffff191661ffff92909216919091179055565b60006001600160a01b0382166124d15760405162461bcd60e51b815260206004820152602a60248201527f4552433732313a2062616c616e636520717565727920666f7220746865207a6560448201527f726f2061646472657373000000000000000000000000000000000000000000006064820152608401610c01565b506001600160a01b031660009081526003602052604090205490565b6006546001600160a01b0361010090910416331461253b5760405162461bcd60e51b815260206004820181905260248201526000805160206148748339815191526044820152606401610c01565b611d5c6000613203565b6006546001600160a01b036101009091041633146125935760405162461bcd60e51b815260206004820181905260248201526000805160206148748339815191526044820152606401610c01565b611d5c613274565b81336125a682612267565b6001600160a01b0316146125fc5760405162461bcd60e51b815260206004820152601f60248201527f4d4454503a2063616c6c6572206973206e6f7420746f6b656e206f776e6572006044820152606401610c01565b610f40838361316e565b606060018054610d089061474a565b600c8054611eee9061474a565b6006546001600160a01b036101009091041633146126705760405162461bcd60e51b815260206004820181905260248201526000805160206148748339815191526044820152606401610c01565b6009805461ffff909216620100000263ffff000019909216919091179055565b611d023383836132ef565b600e8054611eee9061474a565b6006546001600160a01b036101009091041633146126f65760405162461bcd60e51b815260206004820181905260248201526000805160206148748339815191526044820152606401610c01565b600b80549115156101000261ff0019909216919091179055565b61271a3383612fec565b61278c5760405162461bcd60e51b815260206004820152603160248201527f4552433732313a207472616e736665722063616c6c6572206973206e6f74206f60448201527f776e6572206e6f7220617070726f7665640000000000000000000000000000006064820152608401610c01565b611df3848484846133be565b600a543410156127ea5760405162461bcd60e51b815260206004820152601a60248201527f4d4454503a20696e73756666696369656e74207061796d656e740000000000006044820152606401610c01565b6127f73382600180612fd0565b50565b60608160008111801561281b5750612813606480614695565b61ffff168111155b61285f5760405162461bcd60e51b8152602060048201526015602482015274135115140e881a5b9d985b1a59081d1bdad95b9259605a1b6044820152606401610c01565b600c61286a84612cb1565b60405160200161287b9291906144d2565b604051602081830303815290604052915050919050565b60006010546007546128a49190614644565b905090565b6006546001600160a01b036101009091041633146128f75760405162461bcd60e51b815260206004820181905260248201526000805160206148748339815191526044820152606401610c01565b600b805460ff1916911515919091179055565b6060600e8054610d089061474a565b6006546001600160a01b036101009091041633146129675760405162461bcd60e51b815260206004820181905260248201526000805160206148748339815191526044820152606401610c01565b6009805461ffff9092166401000000000265ffff0000000019909216919091179055565b6006546001600160a01b036101009091041633146129d95760405162461bcd60e51b815260206004820181905260248201526000805160206148748339815191526044820152606401610c01565b610f40600d8383613c9f565b6006546001600160a01b03610100909104163314612a335760405162461bcd60e51b815260206004820181905260248201526000805160206148748339815191526044820152606401610c01565b6001600160a01b038116612aaf5760405162461bcd60e51b815260206004820152602660248201527f4f776e61626c653a206e6577206f776e657220697320746865207a65726f206160448201527f64647265737300000000000000000000000000000000000000000000000000006064820152608401610c01565b6127f781613203565b6006546001600160a01b03610100909104163314612b065760405162461bcd60e51b815260206004820181905260248201526000805160206148748339815191526044820152606401610c01565b600a55565b6006546001600160a01b03610100909104163314612b595760405162461bcd60e51b815260206004820181905260248201526000805160206148748339815191526044820152606401610c01565b610f40600c8383613c9f565b60006001600160e01b031982167f80ac58cd000000000000000000000000000000000000000000000000000000001480612bc857506001600160e01b031982167f5b5e139f00000000000000000000000000000000000000000000000000000000145b80610cf357507f01ffc9a7000000000000000000000000000000000000000000000000000000006001600160e01b0319831614610cf3565b6000612c0b82611660565b15612c1857506001919050565b506000908152600260205260409020546001600160a01b0316151590565b6000818152600460205260409020805473ffffffffffffffffffffffffffffffffffffffff19166001600160a01b0384169081179091558190612c7882612267565b6001600160a01b03167f8c5be1e5ebec7d5bd14f71427d1e84f3dd0314c0f7b2291e5b200ac8c7c3b92560405160405180910390a45050565b606081612cf157505060408051808201909152600181527f3000000000000000000000000000000000000000000000000000000000000000602082015290565b8160005b8115612d1b5780612d05816147a1565b9150612d149050600a83614681565b9150612cf5565b60008167ffffffffffffffff811115612d3657612d36614832565b6040519080825280601f01601f191660200182016040528015612d60576020820181803683370190505b5090505b8415612de357612d75600183614707565b9150612d82600a866147dc565b612d8d906030614644565b60f81b818381518110612da257612da261481c565b60200101907effffffffffffffffffffffffffffffffffffffffffffffffffffffffffffff1916908160001a905350612ddc600a86614681565b9450612d64565b949350505050565b826001600160a01b0316612dfe82612267565b6001600160a01b031614612e7a5760405162461bcd60e51b815260206004820152602960248201527f4552433732313a207472616e73666572206f6620746f6b656e2074686174206960448201527f73206e6f74206f776e00000000000000000000000000000000000000000000006064820152608401610c01565b6001600160a01b038216612ef55760405162461bcd60e51b8152602060048201526024808201527f4552433732313a207472616e7366657220746f20746865207a65726f2061646460448201527f72657373000000000000000000000000000000000000000000000000000000006064820152608401610c01565b612f0083838361343c565b612f0b600082612c36565b6001600160a01b0383166000908152600360205260408120805460019290612f34908490614707565b90915550506001600160a01b0382166000908152600360205260408120805460019290612f62908490614644565b9091555050600081815260026020526040808220805473ffffffffffffffffffffffffffffffffffffffff19166001600160a01b0386811691821790925591518493918716917fddf252ad1be2c89b69c2b068fc378daa952ba7f163c4a11628f55a4df523b3ef91a4505050565b611df3848484846040518060200160405280600081525061344a565b6000612ff782612c00565b6130585760405162461bcd60e51b815260206004820152602c60248201527f4552433732313a206f70657261746f7220717565727920666f72206e6f6e657860448201526b34b9ba32b73a103a37b5b2b760a11b6064820152608401610c01565b600061306383612267565b9050806001600160a01b0316846001600160a01b0316148061309e5750836001600160a01b031661309384610d8b565b6001600160a01b0316145b80612de357506001600160a01b0380821660009081526005602090815260408083209388168352929052205460ff16612de3565b60065460ff166131245760405162461bcd60e51b815260206004820152601460248201527f5061757361626c653a206e6f74207061757365640000000000000000000000006044820152606401610c01565b6006805460ff191690557f5db9ee0a495bf2e6ff9c91a7834c1ba4fdd244a5e8aa4e537bd38aeae4b073aa335b6040516001600160a01b03909116815260200160405180910390a1565b60065460ff16156131b45760405162461bcd60e51b815260206004820152601060248201526f14185d5cd8589b194e881c185d5cd95960821b6044820152606401610c01565b600082815260086020908152604090912082516131d392840190613d23565b5060405182907fd26ab77304eac64a04df2018c66716ad9c938c7b11429b56a46c017768172d1b90600090a25050565b600680546001600160a01b038381166101008181027fffffffffffffffffffffff0000000000000000000000000000000000000000ff85161790945560405193909204169182907f8be0079c531659141344cd1fd0a4f28419497f9722a3daafe3b4186f6b6457e090600090a35050565b60065460ff16156132ba5760405162461bcd60e51b815260206004820152601060248201526f14185d5cd8589b194e881c185d5cd95960821b6044820152606401610c01565b6006805460ff191660011790557f62e78cea01bee320cd4e420270b5ea74000d11b0c9f74754ebdbfc544b05a2586131513390565b816001600160a01b0316836001600160a01b031614156133515760405162461bcd60e51b815260206004820152601960248201527f4552433732313a20617070726f766520746f2063616c6c6572000000000000006044820152606401610c01565b6001600160a01b03838116600081815260056020908152604080832094871680845294825291829020805460ff191686151590811790915591519182527f17307eab39ab6107e8899845ad3d59bd9653f200f220920489ca2b5937696c31910160405180910390a3505050565b6133c9848484612deb565b6133d584848484613a5f565b611df35760405162461bcd60e51b815260206004820152603260248201527f4552433732313a207472616e7366657220746f206e6f6e20455243373231526560448201527131b2b4bb32b91034b6b83632b6b2b73a32b960711b6064820152608401610c01565b610f40838383600180613bb7565b83838360008260ff16116134a05760405162461bcd60e51b815260206004820152601760248201527f4d4454503a207769647468206d757374206265203e20300000000000000000006044820152606401610c01565b60008160ff16116134f35760405162461bcd60e51b815260206004820152601860248201527f4d4454503a20686569676874206d757374206265203e203000000000000000006044820152606401610c01565b600b5460ff166135455760405162461bcd60e51b815260206004820152601560248201527f4d4454503a2073616c65206e6f742061637469766500000000000000000000006044820152606401610c01565b6001600160a01b03881661359b5760405162461bcd60e51b815260206004820152601560248201527f4d4454503a20696e76616c6964206164647265737300000000000000000000006044820152606401610c01565b600087116135e35760405162461bcd60e51b8152602060048201526015602482015274135115140e881a5b9d985b1a59081d1bdad95b9259605a1b6044820152606401610c01565b6135ee606480614695565b61ffff168660ff168660ff1660646136069190614695565b6136149061ffff168a614644565b61361e9190614644565b106136635760405162461bcd60e51b8152602060048201526015602482015274135115140e881a5b9d985b1a59081d1bdad95b9259605a1b6044820152606401610c01565b600061366f86886146de565b60ff169050600081116136c45760405162461bcd60e51b815260206004820152601b60248201527f4d4454503a20696e73756666696369656e74207175616e7469747900000000006044820152606401610c01565b600954640100000000900461ffff168111156137225760405162461bcd60e51b815260206004820152601a60248201527f4d4454503a206f7665722073696e676c654d696e744c696d69740000000000006044820152606401610c01565b60095462010000900461ffff1681613738612892565b6137429190614644565b11156137905760405162461bcd60e51b815260206004820152601960248201527f4d4454503a206f76657220746f74616c4d696e744c696d6974000000000000006044820152606401610c01565b6009546601000000000000900461ffff16816137ab8b612453565b6137b59190614644565b11156138035760405162461bcd60e51b815260206004820152601d60248201527f4d4454503a206f766572206f776e6572736869704d696e744c696d69740000006044820152606401610c01565b61381160008a8a8a8a613bb7565b60005b8660ff168160ff161015613a265760005b8860ff168160ff161015613a135760008160ff168360ff1660646138499190614695565b6138579061ffff168d614644565b6138619190614644565b905061386c81612c00565b156138b95760405162461bcd60e51b815260206004820152601a60248201527f4d4454503a20746f6b656e20616c7265616479206d696e7465640000000000006044820152606401610c01565b600b54610100900460ff16806138d557506138d381613c4f565b155b6139215760405162461bcd60e51b815260206004820152601f60248201527f4d4454503a206d696e74696e672063656e746572206e6f7420616374697665006044820152606401610c01565b6000818152600260205260408120805473ffffffffffffffffffffffffffffffffffffffff19166001600160a01b038f16179055613961908d838b613a5f565b6139c85760405162461bcd60e51b815260206004820152603260248201527f4552433732313a207472616e7366657220746f206e6f6e20455243373231526560448201527131b2b4bb32b91034b6b83632b6b2b73a32b960711b6064820152608401610c01565b60405181906001600160a01b038e16906000907fddf252ad1be2c89b69c2b068fc378daa952ba7f163c4a11628f55a4df523b3ef908290a45080613a0b816147bc565b915050613825565b5080613a1e816147bc565b915050613814565b506001600160a01b03891660009081526003602052604081208054839290613a4f908490614644565b9091555050505050505050505050565b60006001600160a01b0384163b15613bac57604051630a85bd0160e11b81526001600160a01b0385169063150b7a0290613aa390339089908890889060040161459c565b602060405180830381600087803b158015613abd57600080fd5b505af1925050508015613aed575060408051601f3d908101601f19168201909252613aea918101906141df565b60015b613b92573d808015613b1b576040519150601f19603f3d011682016040523d82523d6000602084013e613b20565b606091505b508051613b8a5760405162461bcd60e51b815260206004820152603260248201527f4552433732313a207472616e7366657220746f206e6f6e20455243373231526560448201527131b2b4bb32b91034b6b83632b6b2b73a32b960711b6064820152608401610c01565b805181602001fd5b6001600160e01b031916630a85bd0160e11b149050612de3565b506001949350505050565b60065460ff1615613bfd5760405162461bcd60e51b815260206004820152601060248201526f14185d5cd8589b194e881c185d5cd95960821b6044820152606401610c01565b836001600160a01b0316856001600160a01b031614613c48576001600160a01b038516613c4857613c2e81836146de565b60ff1660076000828254613c429190614644565b90915550505b5050505050565b600080613c5d6064846147dc565b90506000613c6c606485614681565b905060268210158015613c805750603e8211155b8015613c8d575060288110155b8015612de35750603b10159392505050565b828054613cab9061474a565b90600052602060002090601f016020900481019282613ccd5760008555613d13565b82601f10613ce65782800160ff19823516178555613d13565b82800160010185558215613d13579182015b82811115613d13578235825591602001919060010190613cf8565b50613d1f929150613d97565b5090565b828054613d2f9061474a565b90600052602060002090601f016020900481019282613d515760008555613d13565b82601f10613d6a57805160ff1916838001178555613d13565b82800160010185558215613d13579182015b82811115613d13578251825591602001919060010190613d7c565b5b80821115613d1f5760008155600101613d98565b6000613dbf613dba8461461c565b6145eb565b9050828152838383011115613dd357600080fd5b828260208301376000602084830101529392505050565b80358015158114613dfa57600080fd5b919050565b60008083601f840112613e1157600080fd5b50813567ffffffffffffffff811115613e2957600080fd5b6020830191508360208285010111156116d657600080fd5b600082601f830112613e5257600080fd5b613e6183833560208501613dac565b9392505050565b803560ff81168114613dfa57600080fd5b600060208284031215613e8b57600080fd5b8135613e6181614848565b600060208284031215613ea857600080fd5b8151613e6181614848565b60008060408385031215613ec657600080fd5b8235613ed181614848565b91506020830135613ee181614848565b809150509250929050565b600080600060608486031215613f0157600080fd5b8335613f0c81614848565b92506020840135613f1c81614848565b929592945050506040919091013590565b600080600080600060808688031215613f4557600080fd5b8535613f5081614848565b94506020860135613f6081614848565b935060408601359250606086013567ffffffffffffffff811115613f8357600080fd5b613f8f88828901613dff565b969995985093965092949392505050565b60008060008060808587031215613fb657600080fd5b8435613fc181614848565b93506020850135613fd181614848565b925060408501359150606085013567ffffffffffffffff811115613ff457600080fd5b8501601f8101871361400557600080fd5b61401487823560208401613dac565b91505092959194509250565b600080600080600060a0868803121561403857600080fd5b853561404381614848565b9450602086013561405381614848565b93506040860135925061406860608701613e68565b915061407660808701613e68565b90509295509295909350565b6000806040838503121561409557600080fd5b82356140a081614848565b91506140ae60208401613dea565b90509250929050565b600080604083850312156140ca57600080fd5b82356140d581614848565b946020939093013593505050565b600080600080608085870312156140f957600080fd5b843561410481614848565b93506020850135925061411960408601613e68565b915061412760608601613e68565b905092959194509250565b6000806020838503121561414557600080fd5b823567ffffffffffffffff8082111561415d57600080fd5b818501915085601f83011261417157600080fd5b81358181111561418057600080fd5b8660208260051b850101111561419557600080fd5b60209290920196919550909350505050565b6000602082840312156141b957600080fd5b613e6182613dea565b6000602082840312156141d457600080fd5b8135613e618161485d565b6000602082840312156141f157600080fd5b8151613e618161485d565b6000806020838503121561420f57600080fd5b823567ffffffffffffffff81111561422657600080fd5b61423285828601613dff565b90969095509350505050565b60006020828403121561425057600080fd5b815167ffffffffffffffff81111561426757600080fd5b8201601f8101841361427857600080fd5b8051614286613dba8261461c565b81815285602083850101111561429b57600080fd5b6142ac82602083016020860161471e565b95945050505050565b6000602082840312156142c757600080fd5b813561ffff81168114613e6157600080fd5b6000602082840312156142eb57600080fd5b5035919050565b6000806040838503121561430557600080fd5b82359150602083013567ffffffffffffffff81111561432357600080fd5b61432f85828601613e41565b9150509250929050565b6000806040838503121561434c57600080fd5b50508035926020909101359150565b60008060006060848603121561437057600080fd5b8335925061438060208501613e68565b915061438e60408501613e68565b90509250925092565b600080600080608085870312156143ad57600080fd5b8435935060206143be818701613e68565b93506143cc60408701613e68565b9250606086013567ffffffffffffffff808211156143e957600080fd5b818801915088601f8301126143fd57600080fd5b81358181111561440f5761440f614832565b8060051b61441e8582016145eb565b8281528581019085870183870188018e101561443957600080fd5b600093505b848410156144785780358681111561445557600080fd5b6144638f8a838b0101613e41565b8452506001939093019291870191870161443e565b50999c989b5096995050505050505050565b600081518084526144a281602086016020860161471e565b601f01601f19169290920160200192915050565b600081516144c881856020860161471e565b9290920192915050565b600080845481600182811c9150808316806144ee57607f831692505b602080841082141561450e57634e487b7160e01b86526022600452602486fd5b818015614522576001811461453357614560565b60ff19861689528489019650614560565b60008b81526020902060005b868110156145585781548b82015290850190830161453f565b505084890196505b5050505050506142ac61457382866144b6565b7f2e6a736f6e000000000000000000000000000000000000000000000000000000815260050190565b60006001600160a01b038087168352808616602084015250836040830152608060608301526145ce608083018461448a565b9695505050505050565b602081526000613e61602083018461448a565b604051601f8201601f1916810167ffffffffffffffff8111828210171561461457614614614832565b604052919050565b600067ffffffffffffffff82111561463657614636614832565b50601f01601f191660200190565b60008219821115614657576146576147f0565b500190565b600060ff821660ff84168060ff03821115614679576146796147f0565b019392505050565b60008261469057614690614806565b500490565b600061ffff808316818516818304811182151516156146b6576146b66147f0565b02949350505050565b60008160001904831182151516156146d9576146d96147f0565b500290565b600060ff821660ff84168160ff04811182151516156146ff576146ff6147f0565b029392505050565b600082821015614719576147196147f0565b500390565b60005b83811015614739578181015183820152602001614721565b83811115611df35750506000910152565b600181811c9082168061475e57607f821691505b6020821081141561116257634e487b7160e01b600052602260045260246000fd5b600061ffff80831681811415614797576147976147f0565b6001019392505050565b60006000198214156147b5576147b56147f0565b5060010190565b600060ff821660ff8114156147d3576147d36147f0565b60010192915050565b6000826147eb576147eb614806565b500690565b634e487b7160e01b600052601160045260246000fd5b634e487b7160e01b600052601260045260246000fd5b634e487b7160e01b600052603260045260246000fd5b634e487b7160e01b600052604160045260246000fd5b6001600160a01b03811681146127f757600080fd5b6001600160e01b0319811681146127f757600080fdfe4f776e61626c653a2063616c6c6572206973206e6f7420746865206f776e6572a2646970667358221220a0e61e42473b8a6d7ac2cf42ce004270e74efbbe82617ac0dba0741b285f806564736f6c63430008070033",
  "linkReferences": {},
  "deployedLinkReferences": {}
}