{
  "_format": "hh-sol-artifact-1",
  "contractName": "MillionDollarTokenPage",
  "sourceName": "contracts/MillionDollarTokenPage.sol",
  "abi": [
    {
      "inputs": [],
      "stateMutability": "nonpayable",
      "type": "constructor"
    },
    {
      "anonymous": false,
      "inputs": [
        {
          "indexed": true,
          "internalType": "address",
          "name": "owner",
          "type": "address"
        },
        {
          "indexed": true,
          "internalType": "address",
          "name": "approved",
          "type": "address"
        },
        {
          "indexed": true,
          "internalType": "uint256",
          "name": "tokenId",
          "type": "uint256"
        }
      ],
      "name": "Approval",
      "type": "event"
    },
    {
      "anonymous": false,
      "inputs": [
        {
          "indexed": true,
          "internalType": "address",
          "name": "owner",
          "type": "address"
        },
        {
          "indexed": true,
          "internalType": "address",
          "name": "operator",
          "type": "address"
        },
        {
          "indexed": false,
          "internalType": "bool",
          "name": "approved",
          "type": "bool"
        }
      ],
      "name": "ApprovalForAll",
      "type": "event"
    },
    {
      "anonymous": false,
      "inputs": [
        {
          "indexed": true,
          "internalType": "uint256",
          "name": "tokenId",
          "type": "uint256"
        }
      ],
      "name": "TokenContentURIChanged",
      "type": "event"
    },
    {
      "anonymous": false,
      "inputs": [
        {
          "indexed": true,
          "internalType": "address",
          "name": "from",
          "type": "address"
        },
        {
          "indexed": true,
          "internalType": "address",
          "name": "to",
          "type": "address"
        },
        {
          "indexed": true,
          "internalType": "uint256",
          "name": "tokenId",
          "type": "uint256"
        }
      ],
      "name": "Transfer",
      "type": "event"
    },
    {
      "inputs": [
        {
          "internalType": "address",
          "name": "",
          "type": "address"
        }
      ],
      "name": "_admins",
      "outputs": [
        {
          "internalType": "bool",
          "name": "",
          "type": "bool"
        }
      ],
      "stateMutability": "view",
      "type": "function"
    },
    {
      "inputs": [
        {
          "internalType": "address",
          "name": "to",
          "type": "address"
        },
        {
          "internalType": "uint256",
          "name": "tokenId",
          "type": "uint256"
        }
      ],
      "name": "approve",
      "outputs": [],
      "stateMutability": "nonpayable",
      "type": "function"
    },
    {
      "inputs": [
        {
          "internalType": "address",
          "name": "owner",
          "type": "address"
        }
      ],
      "name": "balanceOf",
      "outputs": [
        {
          "internalType": "uint256",
          "name": "",
          "type": "uint256"
        }
      ],
      "stateMutability": "view",
      "type": "function"
    },
    {
      "inputs": [
        {
          "internalType": "uint256",
          "name": "tokenId",
          "type": "uint256"
        }
      ],
      "name": "getApproved",
      "outputs": [
        {
          "internalType": "address",
          "name": "",
          "type": "address"
        }
      ],
      "stateMutability": "view",
      "type": "function"
    },
    {
      "inputs": [
        {
          "internalType": "address",
          "name": "owner",
          "type": "address"
        },
        {
          "internalType": "address",
          "name": "operator",
          "type": "address"
        }
      ],
      "name": "isApprovedForAll",
      "outputs": [
        {
          "internalType": "bool",
          "name": "",
          "type": "bool"
        }
      ],
      "stateMutability": "view",
      "type": "function"
    },
    {
      "inputs": [
        {
          "internalType": "address",
          "name": "recipient",
          "type": "address"
        },
        {
          "internalType": "uint256",
          "name": "tokenId",
          "type": "uint256"
        }
      ],
      "name": "mint",
      "outputs": [
        {
          "internalType": "uint256",
          "name": "",
          "type": "uint256"
        }
      ],
      "stateMutability": "nonpayable",
      "type": "function"
    },
    {
      "inputs": [],
      "name": "name",
      "outputs": [
        {
          "internalType": "string",
          "name": "",
          "type": "string"
        }
      ],
      "stateMutability": "view",
      "type": "function"
    },
    {
      "inputs": [
        {
          "internalType": "uint256",
          "name": "tokenId",
          "type": "uint256"
        }
      ],
      "name": "ownerOf",
      "outputs": [
        {
          "internalType": "address",
          "name": "",
          "type": "address"
        }
      ],
      "stateMutability": "view",
      "type": "function"
    },
    {
      "inputs": [
        {
          "internalType": "address",
          "name": "from",
          "type": "address"
        },
        {
          "internalType": "address",
          "name": "to",
          "type": "address"
        },
        {
          "internalType": "uint256",
          "name": "tokenId",
          "type": "uint256"
        }
      ],
      "name": "safeTransferFrom",
      "outputs": [],
      "stateMutability": "nonpayable",
      "type": "function"
    },
    {
      "inputs": [
        {
          "internalType": "address",
          "name": "from",
          "type": "address"
        },
        {
          "internalType": "address",
          "name": "to",
          "type": "address"
        },
        {
          "internalType": "uint256",
          "name": "tokenId",
          "type": "uint256"
        },
        {
          "internalType": "bytes",
          "name": "_data",
          "type": "bytes"
        }
      ],
      "name": "safeTransferFrom",
      "outputs": [],
      "stateMutability": "nonpayable",
      "type": "function"
    },
    {
      "inputs": [
        {
          "internalType": "address",
          "name": "admin",
          "type": "address"
        },
        {
          "internalType": "bool",
          "name": "state",
          "type": "bool"
        }
      ],
      "name": "setAdmin",
      "outputs": [],
      "stateMutability": "nonpayable",
      "type": "function"
    },
    {
      "inputs": [
        {
          "internalType": "address",
          "name": "operator",
          "type": "address"
        },
        {
          "internalType": "bool",
          "name": "approved",
          "type": "bool"
        }
      ],
      "name": "setApprovalForAll",
      "outputs": [],
      "stateMutability": "nonpayable",
      "type": "function"
    },
    {
      "inputs": [
        {
          "internalType": "uint256",
          "name": "tokenId",
          "type": "uint256"
        },
        {
          "internalType": "string",
          "name": "metadataURI",
          "type": "string"
        }
      ],
      "name": "setTokenContentURI",
      "outputs": [],
      "stateMutability": "nonpayable",
      "type": "function"
    },
    {
      "inputs": [
        {
          "internalType": "bytes4",
          "name": "interfaceId",
          "type": "bytes4"
        }
      ],
      "name": "supportsInterface",
      "outputs": [
        {
          "internalType": "bool",
          "name": "",
          "type": "bool"
        }
      ],
      "stateMutability": "view",
      "type": "function"
    },
    {
      "inputs": [],
      "name": "symbol",
      "outputs": [
        {
          "internalType": "string",
          "name": "",
          "type": "string"
        }
      ],
      "stateMutability": "view",
      "type": "function"
    },
    {
      "inputs": [
        {
          "internalType": "uint256",
          "name": "index",
          "type": "uint256"
        }
      ],
      "name": "tokenByIndex",
      "outputs": [
        {
          "internalType": "uint256",
          "name": "",
          "type": "uint256"
        }
      ],
      "stateMutability": "pure",
      "type": "function"
    },
    {
      "inputs": [
        {
          "internalType": "uint256",
          "name": "tokenId",
          "type": "uint256"
        }
      ],
      "name": "tokenContentURI",
      "outputs": [
        {
          "internalType": "string",
          "name": "",
          "type": "string"
        }
      ],
      "stateMutability": "view",
      "type": "function"
    },
    {
      "inputs": [
        {
          "internalType": "address",
          "name": "owner",
          "type": "address"
        },
        {
          "internalType": "uint256",
          "name": "index",
          "type": "uint256"
        }
      ],
      "name": "tokenOfOwnerByIndex",
      "outputs": [
        {
          "internalType": "uint256",
          "name": "tokenId",
          "type": "uint256"
        }
      ],
      "stateMutability": "view",
      "type": "function"
    },
    {
      "inputs": [
        {
          "internalType": "uint256",
          "name": "tokenId",
          "type": "uint256"
        }
      ],
      "name": "tokenURI",
      "outputs": [
        {
          "internalType": "string",
          "name": "",
          "type": "string"
        }
      ],
      "stateMutability": "pure",
      "type": "function"
    },
    {
      "inputs": [],
      "name": "totalSupply",
      "outputs": [
        {
          "internalType": "uint256",
          "name": "",
          "type": "uint256"
        }
      ],
      "stateMutability": "pure",
      "type": "function"
    },
    {
      "inputs": [
        {
          "internalType": "address",
          "name": "from",
          "type": "address"
        },
        {
          "internalType": "address",
          "name": "to",
          "type": "address"
        },
        {
          "internalType": "uint256",
          "name": "tokenId",
          "type": "uint256"
        }
      ],
      "name": "transferFrom",
      "outputs": [],
      "stateMutability": "nonpayable",
      "type": "function"
    }
  ],
  "bytecode": "0x60806040523480156200001157600080fd5b506040518060400160405280601681526020017f4d696c6c696f6e446f6c6c6172546f6b656e50616765000000000000000000008152506040518060400160405280600381526020017fe28aa1000000000000000000000000000000000000000000000000000000000081525081600090805190602001906200009692919062000127565b508060019080519060200190620000af92919062000127565b505050600160066000620000c86200011f60201b60201c565b73ffffffffffffffffffffffffffffffffffffffff1673ffffffffffffffffffffffffffffffffffffffff16815260200190815260200160002060006101000a81548160ff0219169083151502179055506200023c565b600033905090565b8280546200013590620001d7565b90600052602060002090601f016020900481019282620001595760008555620001a5565b82601f106200017457805160ff1916838001178555620001a5565b82800160010185558215620001a5579182015b82811115620001a457825182559160200191906001019062000187565b5b509050620001b49190620001b8565b5090565b5b80821115620001d3576000816000905550600101620001b9565b5090565b60006002820490506001821680620001f057607f821691505b602082108114156200020757620002066200020d565b5b50919050565b7f4e487b7100000000000000000000000000000000000000000000000000000000600052602260045260246000fd5b613240806200024c6000396000f3fe608060405234801561001057600080fd5b50600436106101375760003560e01c806342842e0e116100b85780638d50645a1161007c5780638d50645a1461039857806395d89b41146103b4578063a22cb465146103d2578063b88d4fde146103ee578063c87b56dd1461040a578063e985e9c51461043a57610137565b806342842e0e146102d05780634b0bddd2146102ec5780634f6ccce7146103085780636352211e1461033857806370a082311461036857610137565b80630d5e2053116100ff5780630d5e20531461020657806318160ddd1461023657806323b872dd146102545780632f745c591461027057806340c10f19146102a057610137565b806301ffc9a71461013c57806306fdde031461016c578063081812fc1461018a578063095ea7b3146101ba5780630c0a9d26146101d6575b600080fd5b6101566004803603810190610151919061222a565b61046a565b60405161016391906126a7565b60405180910390f35b61017461054c565b60405161018191906126c2565b60405180910390f35b6101a4600480360381019061019f919061227c565b6105de565b6040516101b19190612640565b60405180910390f35b6101d460048036038101906101cf91906121ee565b610663565b005b6101f060048036038101906101eb919061227c565b61077b565b6040516101fd91906126c2565b60405180910390f35b610220600480360381019061021b9190612083565b61086a565b60405161022d91906126a7565b60405180910390f35b61023e61088a565b60405161024b9190612904565b60405180910390f35b61026e600480360381019061026991906120e8565b610894565b005b61028a600480360381019061028591906121ee565b6108f4565b6040516102979190612904565b60405180910390f35b6102ba60048036038101906102b591906121ee565b61094f565b6040516102c79190612904565b60405180910390f35b6102ea60048036038101906102e591906120e8565b610a41565b005b610306600480360381019061030191906121b2565b610a61565b005b610322600480360381019061031d919061227c565b610b48565b60405161032f9190612904565b60405180910390f35b610352600480360381019061034d919061227c565b610bae565b60405161035f9190612640565b60405180910390f35b610382600480360381019061037d9190612083565b610c60565b60405161038f9190612904565b60405180910390f35b6103b260048036038101906103ad91906122a5565b610d18565b005b6103bc610df0565b6040516103c991906126c2565b60405180910390f35b6103ec60048036038101906103e791906121b2565b610e82565b005b61040860048036038101906104039190612137565b611003565b005b610424600480360381019061041f919061227c565b611065565b60405161043191906126c2565b60405180910390f35b610454600480360381019061044f91906120ac565b6110a5565b60405161046191906126a7565b60405180910390f35b60007f80ac58cd000000000000000000000000000000000000000000000000000000007bffffffffffffffffffffffffffffffffffffffffffffffffffffffff1916827bffffffffffffffffffffffffffffffffffffffffffffffffffffffff1916148061053557507f5b5e139f000000000000000000000000000000000000000000000000000000007bffffffffffffffffffffffffffffffffffffffffffffffffffffffff1916827bffffffffffffffffffffffffffffffffffffffffffffffffffffffff1916145b80610545575061054482611139565b5b9050919050565b60606000805461055b90612b5a565b80601f016020809104026020016040519081016040528092919081815260200182805461058790612b5a565b80156105d45780601f106105a9576101008083540402835291602001916105d4565b820191906000526020600020905b8154815290600101906020018083116105b757829003601f168201915b5050505050905090565b60006105e9826111a3565b610628576040517f08c379a000000000000000000000000000000000000000000000000000000000815260040161061f90612824565b60405180910390fd5b6004600083815260200190815260200160002060009054906101000a900473ffffffffffffffffffffffffffffffffffffffff169050919050565b600061066e82610bae565b90508073ffffffffffffffffffffffffffffffffffffffff168373ffffffffffffffffffffffffffffffffffffffff1614156106df576040517f08c379a00000000000000000000000000000000000000000000000000000000081526004016106d690612884565b60405180910390fd5b8073ffffffffffffffffffffffffffffffffffffffff166106fe61120f565b73ffffffffffffffffffffffffffffffffffffffff16148061072d575061072c8161072761120f565b6110a5565b5b61076c576040517f08c379a0000000000000000000000000000000000000000000000000000000008152600401610763906127a4565b60405180910390fd5b6107768383611217565b505050565b6060600060076000848152602001908152602001600020805461079d90612b5a565b80601f01602080910402602001604051908101604052809291908181526020018280546107c990612b5a565b80156108165780601f106107eb57610100808354040283529160200191610816565b820191906000526020600020905b8154815290600101906020018083116107f957829003601f168201915b505050505090506000815111156108305780915050610865565b6108386112d0565b610841846112f0565b60405160200161085292919061261c565b6040516020818303038152906040529150505b919050565b60066020528060005260406000206000915054906101000a900460ff1681565b6000612710905090565b6108a561089f61120f565b8261149d565b6108e4576040517f08c379a00000000000000000000000000000000000000000000000000000000081526004016108db906128c4565b60405180910390fd5b6108ef83838361157b565b505050565b6000600860008473ffffffffffffffffffffffffffffffffffffffff1673ffffffffffffffffffffffffffffffffffffffff168152602001908152602001600020600083815260200190815260200160002054905092915050565b6000600660003373ffffffffffffffffffffffffffffffffffffffff1673ffffffffffffffffffffffffffffffffffffffff16815260200190815260200160002060009054906101000a900460ff166109dd576040517f08c379a00000000000000000000000000000000000000000000000000000000081526004016109d4906128a4565b60405180910390fd5b6000821180156109ef57506127108211155b610a2e576040517f08c379a0000000000000000000000000000000000000000000000000000000008152600401610a25906126e4565b60405180910390fd5b610a3883836117d7565b81905092915050565b610a5c83838360405180602001604052806000815250611003565b505050565b600660003373ffffffffffffffffffffffffffffffffffffffff1673ffffffffffffffffffffffffffffffffffffffff16815260200190815260200160002060009054906101000a900460ff16610aed576040517f08c379a0000000000000000000000000000000000000000000000000000000008152600401610ae4906128a4565b60405180910390fd5b80600660008473ffffffffffffffffffffffffffffffffffffffff1673ffffffffffffffffffffffffffffffffffffffff16815260200190815260200160002060006101000a81548160ff0219169083151502179055505050565b6000808210158015610b5b575061271082105b610b9a576040517f08c379a0000000000000000000000000000000000000000000000000000000008152600401610b91906128e4565b60405180910390fd5b600182610ba791906129e9565b9050919050565b6000806002600084815260200190815260200160002060009054906101000a900473ffffffffffffffffffffffffffffffffffffffff169050600073ffffffffffffffffffffffffffffffffffffffff168173ffffffffffffffffffffffffffffffffffffffff161415610c57576040517f08c379a0000000000000000000000000000000000000000000000000000000008152600401610c4e906127e4565b60405180910390fd5b80915050919050565b60008073ffffffffffffffffffffffffffffffffffffffff168273ffffffffffffffffffffffffffffffffffffffff161415610cd1576040517f08c379a0000000000000000000000000000000000000000000000000000000008152600401610cc8906127c4565b60405180910390fd5b600360008373ffffffffffffffffffffffffffffffffffffffff1673ffffffffffffffffffffffffffffffffffffffff168152602001908152602001600020549050919050565b81610d2161120f565b73ffffffffffffffffffffffffffffffffffffffff16610d4082610bae565b73ffffffffffffffffffffffffffffffffffffffff1614610d96576040517f08c379a0000000000000000000000000000000000000000000000000000000008152600401610d8d90612844565b60405180910390fd5b81600760008581526020019081526020016000209080519060200190610dbd929190611ea7565b50827fd26ab77304eac64a04df2018c66716ad9c938c7b11429b56a46c017768172d1b60405160405180910390a2505050565b606060018054610dff90612b5a565b80601f0160208091040260200160405190810160405280929190818152602001828054610e2b90612b5a565b8015610e785780601f10610e4d57610100808354040283529160200191610e78565b820191906000526020600020905b815481529060010190602001808311610e5b57829003601f168201915b5050505050905090565b610e8a61120f565b73ffffffffffffffffffffffffffffffffffffffff168273ffffffffffffffffffffffffffffffffffffffff161415610ef8576040517f08c379a0000000000000000000000000000000000000000000000000000000008152600401610eef90612764565b60405180910390fd5b8060056000610f0561120f565b73ffffffffffffffffffffffffffffffffffffffff1673ffffffffffffffffffffffffffffffffffffffff16815260200190815260200160002060008473ffffffffffffffffffffffffffffffffffffffff1673ffffffffffffffffffffffffffffffffffffffff16815260200190815260200160002060006101000a81548160ff0219169083151502179055508173ffffffffffffffffffffffffffffffffffffffff16610fb261120f565b73ffffffffffffffffffffffffffffffffffffffff167f17307eab39ab6107e8899845ad3d59bd9653f200f220920489ca2b5937696c3183604051610ff791906126a7565b60405180910390a35050565b61101461100e61120f565b8361149d565b611053576040517f08c379a000000000000000000000000000000000000000000000000000000000815260040161104a906128c4565b60405180910390fd5b61105f848484846117f5565b50505050565b60606000611071611851565b90508061107d846112f0565b60405160200161108e92919061261c565b604051602081830303815290604052915050919050565b6000600560008473ffffffffffffffffffffffffffffffffffffffff1673ffffffffffffffffffffffffffffffffffffffff16815260200190815260200160002060008373ffffffffffffffffffffffffffffffffffffffff1673ffffffffffffffffffffffffffffffffffffffff16815260200190815260200160002060009054906101000a900460ff16905092915050565b60007f01ffc9a7000000000000000000000000000000000000000000000000000000007bffffffffffffffffffffffffffffffffffffffffffffffffffffffff1916827bffffffffffffffffffffffffffffffffffffffffffffffffffffffff1916149050919050565b60008073ffffffffffffffffffffffffffffffffffffffff166002600084815260200190815260200160002060009054906101000a900473ffffffffffffffffffffffffffffffffffffffff1673ffffffffffffffffffffffffffffffffffffffff1614159050919050565b600033905090565b816004600083815260200190815260200160002060006101000a81548173ffffffffffffffffffffffffffffffffffffffff021916908373ffffffffffffffffffffffffffffffffffffffff160217905550808273ffffffffffffffffffffffffffffffffffffffff1661128a83610bae565b73ffffffffffffffffffffffffffffffffffffffff167f8c5be1e5ebec7d5bd14f71427d1e84f3dd0314c0f7b2291e5b200ac8c7c3b92560405160405180910390a45050565b60606040518060600160405280602b81526020016131e0602b9139905090565b60606000821415611338576040518060400160405280600181526020017f30000000000000000000000000000000000000000000000000000000000000008152509050611498565b600082905060005b6000821461136a57808061135390612bbd565b915050600a826113639190612a3f565b9150611340565b60008167ffffffffffffffff8111156113ac577f4e487b7100000000000000000000000000000000000000000000000000000000600052604160045260246000fd5b6040519080825280601f01601f1916602001820160405280156113de5781602001600182028036833780820191505090505b5090505b60008514611491576001826113f79190612a70565b9150600a856114069190612c06565b603061141291906129e9565b60f81b81838151811061144e577f4e487b7100000000000000000000000000000000000000000000000000000000600052603260045260246000fd5b60200101907effffffffffffffffffffffffffffffffffffffffffffffffffffffffffffff1916908160001a905350600a8561148a9190612a3f565b94506113e2565b8093505050505b919050565b60006114a8826111a3565b6114e7576040517f08c379a00000000000000000000000000000000000000000000000000000000081526004016114de90612784565b60405180910390fd5b60006114f283610bae565b90508073ffffffffffffffffffffffffffffffffffffffff168473ffffffffffffffffffffffffffffffffffffffff16148061156157508373ffffffffffffffffffffffffffffffffffffffff16611549846105de565b73ffffffffffffffffffffffffffffffffffffffff16145b80611572575061157181856110a5565b5b91505092915050565b8273ffffffffffffffffffffffffffffffffffffffff1661159b82610bae565b73ffffffffffffffffffffffffffffffffffffffff16146115f1576040517f08c379a00000000000000000000000000000000000000000000000000000000081526004016115e890612864565b60405180910390fd5b600073ffffffffffffffffffffffffffffffffffffffff168273ffffffffffffffffffffffffffffffffffffffff161415611661576040517f08c379a000000000000000000000000000000000000000000000000000000000815260040161165890612744565b60405180910390fd5b61166c838383611871565b611677600082611217565b6001600360008573ffffffffffffffffffffffffffffffffffffffff1673ffffffffffffffffffffffffffffffffffffffff16815260200190815260200160002060008282546116c79190612a70565b925050819055506001600360008473ffffffffffffffffffffffffffffffffffffffff1673ffffffffffffffffffffffffffffffffffffffff168152602001908152602001600020600082825461171e91906129e9565b92505081905550816002600083815260200190815260200160002060006101000a81548173ffffffffffffffffffffffffffffffffffffffff021916908373ffffffffffffffffffffffffffffffffffffffff160217905550808273ffffffffffffffffffffffffffffffffffffffff168473ffffffffffffffffffffffffffffffffffffffff167fddf252ad1be2c89b69c2b068fc378daa952ba7f163c4a11628f55a4df523b3ef60405160405180910390a4505050565b6117f1828260405180602001604052806000815250611acf565b5050565b61180084848461157b565b61180c84848484611b2a565b61184b576040517f08c379a000000000000000000000000000000000000000000000000000000000815260040161184290612704565b60405180910390fd5b50505050565b60606040518060600160405280602481526020016131bc60249139905090565b61187c838383611cc1565b600073ffffffffffffffffffffffffffffffffffffffff168373ffffffffffffffffffffffffffffffffffffffff1614611a1a57600060016118bd85610c60565b6118c79190612a70565b90506000600960008481526020019081526020016000205490508181146119ac576000600860008773ffffffffffffffffffffffffffffffffffffffff1673ffffffffffffffffffffffffffffffffffffffff168152602001908152602001600020600084815260200190815260200160002054905080600860008873ffffffffffffffffffffffffffffffffffffffff1673ffffffffffffffffffffffffffffffffffffffff168152602001908152602001600020600084815260200190815260200160002081905550816009600083815260200190815260200160002081905550505b6009600084815260200190815260200160002060009055600860008673ffffffffffffffffffffffffffffffffffffffff1673ffffffffffffffffffffffffffffffffffffffff16815260200190815260200160002060008381526020019081526020016000206000905550505b600073ffffffffffffffffffffffffffffffffffffffff168273ffffffffffffffffffffffffffffffffffffffff1614611aca576000611a5983610c60565b905081600860008573ffffffffffffffffffffffffffffffffffffffff1673ffffffffffffffffffffffffffffffffffffffff168152602001908152602001600020600083815260200190815260200160002081905550806009600084815260200190815260200160002081905550505b505050565b611ad98383611cc6565b611ae66000848484611b2a565b611b25576040517f08c379a0000000000000000000000000000000000000000000000000000000008152600401611b1c90612704565b60405180910390fd5b505050565b6000611b4b8473ffffffffffffffffffffffffffffffffffffffff16611e94565b15611cb4578373ffffffffffffffffffffffffffffffffffffffff1663150b7a02611b7461120f565b8786866040518563ffffffff1660e01b8152600401611b96949392919061265b565b602060405180830381600087803b158015611bb057600080fd5b505af1925050508015611be157506040513d601f19601f82011682018060405250810190611bde9190612253565b60015b611c64573d8060008114611c11576040519150601f19603f3d011682016040523d82523d6000602084013e611c16565b606091505b50600081511415611c5c576040517f08c379a0000000000000000000000000000000000000000000000000000000008152600401611c5390612704565b60405180910390fd5b805181602001fd5b63150b7a0260e01b7bffffffffffffffffffffffffffffffffffffffffffffffffffffffff1916817bffffffffffffffffffffffffffffffffffffffffffffffffffffffff191614915050611cb9565b600190505b949350505050565b505050565b600073ffffffffffffffffffffffffffffffffffffffff168273ffffffffffffffffffffffffffffffffffffffff161415611d36576040517f08c379a0000000000000000000000000000000000000000000000000000000008152600401611d2d90612804565b60405180910390fd5b611d3f816111a3565b15611d7f576040517f08c379a0000000000000000000000000000000000000000000000000000000008152600401611d7690612724565b60405180910390fd5b611d8b60008383611871565b6001600360008473ffffffffffffffffffffffffffffffffffffffff1673ffffffffffffffffffffffffffffffffffffffff1681526020019081526020016000206000828254611ddb91906129e9565b92505081905550816002600083815260200190815260200160002060006101000a81548173ffffffffffffffffffffffffffffffffffffffff021916908373ffffffffffffffffffffffffffffffffffffffff160217905550808273ffffffffffffffffffffffffffffffffffffffff16600073ffffffffffffffffffffffffffffffffffffffff167fddf252ad1be2c89b69c2b068fc378daa952ba7f163c4a11628f55a4df523b3ef60405160405180910390a45050565b600080823b905060008111915050919050565b828054611eb390612b5a565b90600052602060002090601f016020900481019282611ed55760008555611f1c565b82601f10611eee57805160ff1916838001178555611f1c565b82800160010185558215611f1c579182015b82811115611f1b578251825591602001919060010190611f00565b5b509050611f299190611f2d565b5090565b5b80821115611f46576000816000905550600101611f2e565b5090565b6000611f5d611f5884612944565b61291f565b905082815260208101848484011115611f7557600080fd5b611f80848285612b18565b509392505050565b6000611f9b611f9684612975565b61291f565b905082815260208101848484011115611fb357600080fd5b611fbe848285612b18565b509392505050565b600081359050611fd58161315f565b92915050565b600081359050611fea81613176565b92915050565b600081359050611fff8161318d565b92915050565b6000815190506120148161318d565b92915050565b600082601f83011261202b57600080fd5b813561203b848260208601611f4a565b91505092915050565b600082601f83011261205557600080fd5b8135612065848260208601611f88565b91505092915050565b60008135905061207d816131a4565b92915050565b60006020828403121561209557600080fd5b60006120a384828501611fc6565b91505092915050565b600080604083850312156120bf57600080fd5b60006120cd85828601611fc6565b92505060206120de85828601611fc6565b9150509250929050565b6000806000606084860312156120fd57600080fd5b600061210b86828701611fc6565b935050602061211c86828701611fc6565b925050604061212d8682870161206e565b9150509250925092565b6000806000806080858703121561214d57600080fd5b600061215b87828801611fc6565b945050602061216c87828801611fc6565b935050604061217d8782880161206e565b925050606085013567ffffffffffffffff81111561219a57600080fd5b6121a68782880161201a565b91505092959194509250565b600080604083850312156121c557600080fd5b60006121d385828601611fc6565b92505060206121e485828601611fdb565b9150509250929050565b6000806040838503121561220157600080fd5b600061220f85828601611fc6565b92505060206122208582860161206e565b9150509250929050565b60006020828403121561223c57600080fd5b600061224a84828501611ff0565b91505092915050565b60006020828403121561226557600080fd5b600061227384828501612005565b91505092915050565b60006020828403121561228e57600080fd5b600061229c8482850161206e565b91505092915050565b600080604083850312156122b857600080fd5b60006122c68582860161206e565b925050602083013567ffffffffffffffff8111156122e357600080fd5b6122ef85828601612044565b9150509250929050565b61230281612aa4565b82525050565b61231181612ab6565b82525050565b6000612322826129a6565b61232c81856129bc565b935061233c818560208601612b27565b61234581612cf3565b840191505092915050565b600061235b826129b1565b61236581856129cd565b9350612375818560208601612b27565b61237e81612cf3565b840191505092915050565b6000612394826129b1565b61239e81856129de565b93506123ae818560208601612b27565b80840191505092915050565b60006123c76015836129cd565b91506123d282612d04565b602082019050919050565b60006123ea6032836129cd565b91506123f582612d2d565b604082019050919050565b600061240d601c836129cd565b915061241882612d7c565b602082019050919050565b60006124306024836129cd565b915061243b82612da5565b604082019050919050565b60006124536019836129cd565b915061245e82612df4565b602082019050919050565b6000612476602c836129cd565b915061248182612e1d565b604082019050919050565b60006124996038836129cd565b91506124a482612e6c565b604082019050919050565b60006124bc602a836129cd565b91506124c782612ebb565b604082019050919050565b60006124df6029836129cd565b91506124ea82612f0a565b604082019050919050565b60006125026020836129cd565b915061250d82612f59565b602082019050919050565b6000612525602c836129cd565b915061253082612f82565b604082019050919050565b60006125486022836129cd565b915061255382612fd1565b604082019050919050565b600061256b6029836129cd565b915061257682613020565b604082019050919050565b600061258e6021836129cd565b91506125998261306f565b604082019050919050565b60006125b1601d836129cd565b91506125bc826130be565b602082019050919050565b60006125d46031836129cd565b91506125df826130e7565b604082019050919050565b60006125f76013836129cd565b915061260282613136565b602082019050919050565b61261681612b0e565b82525050565b60006126288285612389565b91506126348284612389565b91508190509392505050565b600060208201905061265560008301846122f9565b92915050565b600060808201905061267060008301876122f9565b61267d60208301866122f9565b61268a604083018561260d565b818103606083015261269c8184612317565b905095945050505050565b60006020820190506126bc6000830184612308565b92915050565b600060208201905081810360008301526126dc8184612350565b905092915050565b600060208201905081810360008301526126fd816123ba565b9050919050565b6000602082019050818103600083015261271d816123dd565b9050919050565b6000602082019050818103600083015261273d81612400565b9050919050565b6000602082019050818103600083015261275d81612423565b9050919050565b6000602082019050818103600083015261277d81612446565b9050919050565b6000602082019050818103600083015261279d81612469565b9050919050565b600060208201905081810360008301526127bd8161248c565b9050919050565b600060208201905081810360008301526127dd816124af565b9050919050565b600060208201905081810360008301526127fd816124d2565b9050919050565b6000602082019050818103600083015261281d816124f5565b9050919050565b6000602082019050818103600083015261283d81612518565b9050919050565b6000602082019050818103600083015261285d8161253b565b9050919050565b6000602082019050818103600083015261287d8161255e565b9050919050565b6000602082019050818103600083015261289d81612581565b9050919050565b600060208201905081810360008301526128bd816125a4565b9050919050565b600060208201905081810360008301526128dd816125c7565b9050919050565b600060208201905081810360008301526128fd816125ea565b9050919050565b6000602082019050612919600083018461260d565b92915050565b600061292961293a565b90506129358282612b8c565b919050565b6000604051905090565b600067ffffffffffffffff82111561295f5761295e612cc4565b5b61296882612cf3565b9050602081019050919050565b600067ffffffffffffffff8211156129905761298f612cc4565b5b61299982612cf3565b9050602081019050919050565b600081519050919050565b600081519050919050565b600082825260208201905092915050565b600082825260208201905092915050565b600081905092915050565b60006129f482612b0e565b91506129ff83612b0e565b9250827fffffffffffffffffffffffffffffffffffffffffffffffffffffffffffffffff03821115612a3457612a33612c37565b5b828201905092915050565b6000612a4a82612b0e565b9150612a5583612b0e565b925082612a6557612a64612c66565b5b828204905092915050565b6000612a7b82612b0e565b9150612a8683612b0e565b925082821015612a9957612a98612c37565b5b828203905092915050565b6000612aaf82612aee565b9050919050565b60008115159050919050565b60007fffffffff0000000000000000000000000000000000000000000000000000000082169050919050565b600073ffffffffffffffffffffffffffffffffffffffff82169050919050565b6000819050919050565b82818337600083830152505050565b60005b83811015612b45578082015181840152602081019050612b2a565b83811115612b54576000848401525b50505050565b60006002820490506001821680612b7257607f821691505b60208210811415612b8657612b85612c95565b5b50919050565b612b9582612cf3565b810181811067ffffffffffffffff82111715612bb457612bb3612cc4565b5b80604052505050565b6000612bc882612b0e565b91507fffffffffffffffffffffffffffffffffffffffffffffffffffffffffffffffff821415612bfb57612bfa612c37565b5b600182019050919050565b6000612c1182612b0e565b9150612c1c83612b0e565b925082612c2c57612c2b612c66565b5b828206905092915050565b7f4e487b7100000000000000000000000000000000000000000000000000000000600052601160045260246000fd5b7f4e487b7100000000000000000000000000000000000000000000000000000000600052601260045260246000fd5b7f4e487b7100000000000000000000000000000000000000000000000000000000600052602260045260246000fd5b7f4e487b7100000000000000000000000000000000000000000000000000000000600052604160045260246000fd5b6000601f19601f8301169050919050565b7f4d4454503a20696e76616c696420746f6b656e49640000000000000000000000600082015250565b7f4552433732313a207472616e7366657220746f206e6f6e20455243373231526560008201527f63656976657220696d706c656d656e7465720000000000000000000000000000602082015250565b7f4552433732313a20746f6b656e20616c7265616479206d696e74656400000000600082015250565b7f4552433732313a207472616e7366657220746f20746865207a65726f2061646460008201527f7265737300000000000000000000000000000000000000000000000000000000602082015250565b7f4552433732313a20617070726f766520746f2063616c6c657200000000000000600082015250565b7f4552433732313a206f70657261746f7220717565727920666f72206e6f6e657860008201527f697374656e7420746f6b656e0000000000000000000000000000000000000000602082015250565b7f4552433732313a20617070726f76652063616c6c6572206973206e6f74206f7760008201527f6e6572206e6f7220617070726f76656420666f7220616c6c0000000000000000602082015250565b7f4552433732313a2062616c616e636520717565727920666f7220746865207a6560008201527f726f206164647265737300000000000000000000000000000000000000000000602082015250565b7f4552433732313a206f776e657220717565727920666f72206e6f6e657869737460008201527f656e7420746f6b656e0000000000000000000000000000000000000000000000602082015250565b7f4552433732313a206d696e7420746f20746865207a65726f2061646472657373600082015250565b7f4552433732313a20617070726f76656420717565727920666f72206e6f6e657860008201527f697374656e7420746f6b656e0000000000000000000000000000000000000000602082015250565b7f4d4454503a2063616c6c6572206973206e6f742074686520746f6b656e4f776e60008201527f6572000000000000000000000000000000000000000000000000000000000000602082015250565b7f4552433732313a207472616e73666572206f6620746f6b656e2074686174206960008201527f73206e6f74206f776e0000000000000000000000000000000000000000000000602082015250565b7f4552433732313a20617070726f76616c20746f2063757272656e74206f776e6560008201527f7200000000000000000000000000000000000000000000000000000000000000602082015250565b7f41646d696e3a2063616c6c6572206973206e6f7420616e2061646d696e000000600082015250565b7f4552433732313a207472616e736665722063616c6c6572206973206e6f74206f60008201527f776e6572206e6f7220617070726f766564000000000000000000000000000000602082015250565b7f4d4454503a20696e76616c696420696e64657800000000000000000000000000600082015250565b61316881612aa4565b811461317357600080fd5b50565b61317f81612ab6565b811461318a57600080fd5b50565b61319681612ac2565b81146131a157600080fd5b50565b6131ad81612b0e565b81146131b857600080fd5b5056fe68747470733a2f2f6170692e6d6474702e636f2f746f6b656e2d6d65746164617461732f68747470733a2f2f6170692e6d6474702e636f2f746f6b656e2d64656661756c742d636f6e74656e74732fa26469706673582212201e63e814e37cd44c658f106abfe8dd274f7a3d12e86c4347d0036d1d24c08a9c64736f6c63430008040033",
  "linkReferences": {},
  "deployedLinkReferences": {}
}