{
  "_format": "hh-sol-artifact-1",
  "contractName": "MillionDollarTokenPageV2",
  "sourceName": "contracts/MillionDollarTokenPage-v2.sol",
  "abi": [
    {
      "inputs": [
        {
          "internalType": "uint16",
          "name": "_totalMintLimit",
          "type": "uint16"
        },
        {
          "internalType": "uint16",
          "name": "_singleMintLimit",
          "type": "uint16"
        },
        {
          "internalType": "uint16",
          "name": "_ownershipMintLimit",
          "type": "uint16"
        },
        {
          "internalType": "uint256",
          "name": "_mintPrice",
          "type": "uint256"
        },
        {
          "internalType": "string",
          "name": "_metadataBaseURI",
          "type": "string"
        },
        {
          "internalType": "string",
          "name": "_defaultContentBaseURI",
          "type": "string"
        },
        {
          "internalType": "string",
          "name": "_collectionURI",
          "type": "string"
        },
        {
          "internalType": "uint16",
          "name": "_royaltyBasisPoints",
          "type": "uint16"
        },
        {
          "internalType": "address",
          "name": "_original",
          "type": "address"
        }
      ],
      "stateMutability": "nonpayable",
      "type": "constructor"
    },
    {
      "anonymous": false,
      "inputs": [
        {
          "indexed": true,
          "internalType": "address",
          "name": "owner",
          "type": "address"
        },
        {
          "indexed": true,
          "internalType": "address",
          "name": "approved",
          "type": "address"
        },
        {
          "indexed": true,
          "internalType": "uint256",
          "name": "tokenId",
          "type": "uint256"
        }
      ],
      "name": "Approval",
      "type": "event"
    },
    {
      "anonymous": false,
      "inputs": [
        {
          "indexed": true,
          "internalType": "address",
          "name": "owner",
          "type": "address"
        },
        {
          "indexed": true,
          "internalType": "address",
          "name": "operator",
          "type": "address"
        },
        {
          "indexed": false,
          "internalType": "bool",
          "name": "approved",
          "type": "bool"
        }
      ],
      "name": "ApprovalForAll",
      "type": "event"
    },
    {
      "anonymous": false,
      "inputs": [
        {
          "indexed": true,
          "internalType": "address",
          "name": "previousOwner",
          "type": "address"
        },
        {
          "indexed": true,
          "internalType": "address",
          "name": "newOwner",
          "type": "address"
        }
      ],
      "name": "OwnershipTransferred",
      "type": "event"
    },
    {
      "anonymous": false,
      "inputs": [
        {
          "indexed": false,
          "internalType": "address",
          "name": "account",
          "type": "address"
        }
      ],
      "name": "Paused",
      "type": "event"
    },
    {
      "anonymous": false,
      "inputs": [
        {
          "indexed": true,
          "internalType": "uint256",
          "name": "tokenId",
          "type": "uint256"
        }
      ],
      "name": "TokenContentURIChanged",
      "type": "event"
    },
    {
      "anonymous": false,
      "inputs": [
        {
          "indexed": true,
          "internalType": "uint256",
          "name": "tokenId",
          "type": "uint256"
        }
      ],
      "name": "TokenMigrated",
      "type": "event"
    },
    {
      "anonymous": false,
      "inputs": [
        {
          "indexed": true,
          "internalType": "address",
          "name": "from",
          "type": "address"
        },
        {
          "indexed": true,
          "internalType": "address",
          "name": "to",
          "type": "address"
        },
        {
          "indexed": true,
          "internalType": "uint256",
          "name": "tokenId",
          "type": "uint256"
        }
      ],
      "name": "Transfer",
      "type": "event"
    },
    {
      "anonymous": false,
      "inputs": [
        {
          "indexed": false,
          "internalType": "address",
          "name": "account",
          "type": "address"
        }
      ],
      "name": "Unpaused",
      "type": "event"
    },
    {
      "inputs": [],
      "name": "COLUMN_COUNT",
      "outputs": [
        {
          "internalType": "uint16",
          "name": "",
          "type": "uint16"
        }
      ],
      "stateMutability": "view",
      "type": "function"
    },
    {
      "inputs": [],
      "name": "ROW_COUNT",
      "outputs": [
        {
          "internalType": "uint16",
          "name": "",
          "type": "uint16"
        }
      ],
      "stateMutability": "view",
      "type": "function"
    },
    {
      "inputs": [],
      "name": "SUPPLY_LIMIT",
      "outputs": [
        {
          "internalType": "uint16",
          "name": "",
          "type": "uint16"
        }
      ],
      "stateMutability": "view",
      "type": "function"
    },
    {
      "inputs": [
        {
          "internalType": "uint256[]",
          "name": "_tokenIdsToMigrate",
          "type": "uint256[]"
        }
      ],
      "name": "addTokensToMigrate",
      "outputs": [],
      "stateMutability": "nonpayable",
      "type": "function"
    },
    {
      "inputs": [
        {
          "internalType": "address",
          "name": "to",
          "type": "address"
        },
        {
          "internalType": "uint256",
          "name": "tokenId",
          "type": "uint256"
        }
      ],
      "name": "approve",
      "outputs": [],
      "stateMutability": "nonpayable",
      "type": "function"
    },
    {
      "inputs": [
        {
          "internalType": "address",
          "name": "owner",
          "type": "address"
        }
      ],
      "name": "balanceOf",
      "outputs": [
        {
          "internalType": "uint256",
          "name": "",
          "type": "uint256"
        }
      ],
      "stateMutability": "view",
      "type": "function"
    },
    {
      "inputs": [],
      "name": "canAddTokenIdsToMigrate",
      "outputs": [
        {
          "internalType": "bool",
          "name": "",
          "type": "bool"
        }
      ],
      "stateMutability": "view",
      "type": "function"
    },
    {
      "inputs": [],
      "name": "collectionURI",
      "outputs": [
        {
          "internalType": "string",
          "name": "",
          "type": "string"
        }
      ],
      "stateMutability": "view",
      "type": "function"
    },
    {
      "inputs": [],
      "name": "completeMigration",
      "outputs": [],
      "stateMutability": "nonpayable",
      "type": "function"
    },
    {
      "inputs": [],
      "name": "contractURI",
      "outputs": [
        {
          "internalType": "string",
          "name": "",
          "type": "string"
        }
      ],
      "stateMutability": "view",
      "type": "function"
    },
    {
      "inputs": [],
      "name": "defaultContentBaseURI",
      "outputs": [
        {
          "internalType": "string",
          "name": "",
          "type": "string"
        }
      ],
      "stateMutability": "view",
      "type": "function"
    },
    {
      "inputs": [
        {
          "internalType": "uint256",
          "name": "tokenId",
          "type": "uint256"
        }
      ],
      "name": "getApproved",
      "outputs": [
        {
          "internalType": "address",
          "name": "",
          "type": "address"
        }
      ],
      "stateMutability": "view",
      "type": "function"
    },
    {
      "inputs": [
        {
          "internalType": "address",
          "name": "owner",
          "type": "address"
        },
        {
          "internalType": "address",
          "name": "operator",
          "type": "address"
        }
      ],
      "name": "isApprovedForAll",
      "outputs": [
        {
          "internalType": "bool",
          "name": "",
          "type": "bool"
        }
      ],
      "stateMutability": "view",
      "type": "function"
    },
    {
      "inputs": [],
      "name": "isCenterSaleActive",
      "outputs": [
        {
          "internalType": "bool",
          "name": "",
          "type": "bool"
        }
      ],
      "stateMutability": "view",
      "type": "function"
    },
    {
      "inputs": [],
      "name": "isMetadataFinalized",
      "outputs": [
        {
          "internalType": "bool",
          "name": "",
          "type": "bool"
        }
      ],
      "stateMutability": "view",
      "type": "function"
    },
    {
      "inputs": [],
      "name": "isSaleActive",
      "outputs": [
        {
          "internalType": "bool",
          "name": "",
          "type": "bool"
        }
      ],
      "stateMutability": "view",
      "type": "function"
    },
    {
      "inputs": [
        {
          "internalType": "uint256",
          "name": "tokenId",
          "type": "uint256"
        }
      ],
      "name": "isTokenMigrated",
      "outputs": [
        {
          "internalType": "bool",
          "name": "",
          "type": "bool"
        }
      ],
      "stateMutability": "view",
      "type": "function"
    },
    {
      "inputs": [
        {
          "internalType": "uint256",
          "name": "tokenId",
          "type": "uint256"
        }
      ],
      "name": "isTokenSetForMigration",
      "outputs": [
        {
          "internalType": "bool",
          "name": "",
          "type": "bool"
        }
      ],
      "stateMutability": "view",
      "type": "function"
    },
    {
      "inputs": [],
      "name": "metadataBaseURI",
      "outputs": [
        {
          "internalType": "string",
          "name": "",
          "type": "string"
        }
      ],
      "stateMutability": "view",
      "type": "function"
    },
    {
      "inputs": [],
      "name": "mintPrice",
      "outputs": [
        {
          "internalType": "uint256",
          "name": "",
          "type": "uint256"
        }
      ],
      "stateMutability": "view",
      "type": "function"
    },
    {
      "inputs": [
        {
          "internalType": "uint256",
          "name": "tokenId",
          "type": "uint256"
        }
      ],
      "name": "mintToken",
      "outputs": [],
      "stateMutability": "payable",
      "type": "function"
    },
    {
      "inputs": [
        {
          "internalType": "uint256",
          "name": "tokenId",
          "type": "uint256"
        },
        {
          "internalType": "uint8",
          "name": "width",
          "type": "uint8"
        },
        {
          "internalType": "uint8",
          "name": "height",
          "type": "uint8"
        }
      ],
      "name": "mintTokenGroup",
      "outputs": [],
      "stateMutability": "payable",
      "type": "function"
    },
    {
      "inputs": [
        {
          "internalType": "address",
          "name": "receiver",
          "type": "address"
        },
        {
          "internalType": "uint256",
          "name": "tokenId",
          "type": "uint256"
        },
        {
          "internalType": "uint8",
          "name": "width",
          "type": "uint8"
        },
        {
          "internalType": "uint8",
          "name": "height",
          "type": "uint8"
        }
      ],
      "name": "mintTokenGroupTo",
      "outputs": [],
      "stateMutability": "payable",
      "type": "function"
    },
    {
      "inputs": [
        {
          "internalType": "address",
          "name": "receiver",
          "type": "address"
        },
        {
          "internalType": "uint256",
          "name": "tokenId",
          "type": "uint256"
        }
      ],
      "name": "mintTokenTo",
      "outputs": [],
      "stateMutability": "payable",
      "type": "function"
    },
    {
      "inputs": [],
      "name": "mintedCount",
      "outputs": [
        {
          "internalType": "uint256",
          "name": "",
          "type": "uint256"
        }
      ],
      "stateMutability": "view",
      "type": "function"
    },
    {
      "inputs": [],
      "name": "name",
      "outputs": [
        {
          "internalType": "string",
          "name": "",
          "type": "string"
        }
      ],
      "stateMutability": "view",
      "type": "function"
    },
    {
      "inputs": [
        {
          "internalType": "address",
          "name": "",
          "type": "address"
        },
        {
          "internalType": "address",
          "name": "from",
          "type": "address"
        },
        {
          "internalType": "uint256",
          "name": "tokenId",
          "type": "uint256"
        },
        {
          "internalType": "bytes",
          "name": "",
          "type": "bytes"
        }
      ],
      "name": "onERC721Received",
      "outputs": [
        {
          "internalType": "bytes4",
          "name": "",
          "type": "bytes4"
        }
      ],
      "stateMutability": "nonpayable",
      "type": "function"
    },
    {
      "inputs": [],
      "name": "original",
      "outputs": [
        {
          "internalType": "contract MillionDollarTokenPageV1",
          "name": "",
          "type": "address"
        }
      ],
      "stateMutability": "view",
      "type": "function"
    },
    {
      "inputs": [],
      "name": "owner",
      "outputs": [
        {
          "internalType": "address",
          "name": "",
          "type": "address"
        }
      ],
      "stateMutability": "view",
      "type": "function"
    },
    {
      "inputs": [
        {
          "internalType": "address",
          "name": "receiver",
          "type": "address"
        },
        {
          "internalType": "uint256",
          "name": "tokenId",
          "type": "uint256"
        },
        {
          "internalType": "uint8",
          "name": "width",
          "type": "uint8"
        },
        {
          "internalType": "uint8",
          "name": "height",
          "type": "uint8"
        }
      ],
      "name": "ownerMintTokenGroupTo",
      "outputs": [],
      "stateMutability": "nonpayable",
      "type": "function"
    },
    {
      "inputs": [
        {
          "internalType": "uint256",
          "name": "tokenId",
          "type": "uint256"
        }
      ],
      "name": "ownerOf",
      "outputs": [
        {
          "internalType": "address",
          "name": "",
          "type": "address"
        }
      ],
      "stateMutability": "view",
      "type": "function"
    },
    {
      "inputs": [],
      "name": "ownershipMintLimit",
      "outputs": [
        {
          "internalType": "uint16",
          "name": "",
          "type": "uint16"
        }
      ],
      "stateMutability": "view",
      "type": "function"
    },
    {
      "inputs": [],
      "name": "pause",
      "outputs": [],
      "stateMutability": "nonpayable",
      "type": "function"
    },
    {
      "inputs": [],
      "name": "paused",
      "outputs": [
        {
          "internalType": "bool",
          "name": "",
          "type": "bool"
        }
      ],
      "stateMutability": "view",
      "type": "function"
    },
    {
      "inputs": [
        {
          "internalType": "uint256",
          "name": "tokenId",
          "type": "uint256"
        }
      ],
      "name": "proxiedOwnerOf",
      "outputs": [
        {
          "internalType": "address",
          "name": "",
          "type": "address"
        }
      ],
      "stateMutability": "view",
      "type": "function"
    },
    {
      "inputs": [],
      "name": "renounceOwnership",
      "outputs": [],
      "stateMutability": "nonpayable",
      "type": "function"
    },
    {
      "inputs": [],
      "name": "royaltyBasisPoints",
      "outputs": [
        {
          "internalType": "uint16",
          "name": "",
          "type": "uint16"
        }
      ],
      "stateMutability": "view",
      "type": "function"
    },
    {
      "inputs": [
        {
          "internalType": "uint256",
          "name": "",
          "type": "uint256"
        },
        {
          "internalType": "uint256",
          "name": "salePrice",
          "type": "uint256"
        }
      ],
      "name": "royaltyInfo",
      "outputs": [
        {
          "internalType": "address",
          "name": "",
          "type": "address"
        },
        {
          "internalType": "uint256",
          "name": "",
          "type": "uint256"
        }
      ],
      "stateMutability": "view",
      "type": "function"
    },
    {
      "inputs": [
        {
          "internalType": "address",
          "name": "from",
          "type": "address"
        },
        {
          "internalType": "address",
          "name": "to",
          "type": "address"
        },
        {
          "internalType": "uint256",
          "name": "tokenId",
          "type": "uint256"
        }
      ],
      "name": "safeTransferFrom",
      "outputs": [],
      "stateMutability": "nonpayable",
      "type": "function"
    },
    {
      "inputs": [
        {
          "internalType": "address",
          "name": "from",
          "type": "address"
        },
        {
          "internalType": "address",
          "name": "to",
          "type": "address"
        },
        {
          "internalType": "uint256",
          "name": "tokenId",
          "type": "uint256"
        },
        {
          "internalType": "bytes",
          "name": "_data",
          "type": "bytes"
        }
      ],
      "name": "safeTransferFrom",
      "outputs": [],
      "stateMutability": "nonpayable",
      "type": "function"
    },
    {
      "inputs": [
        {
          "internalType": "address",
          "name": "sender",
          "type": "address"
        },
        {
          "internalType": "address",
          "name": "receiver",
          "type": "address"
        },
        {
          "internalType": "uint256",
          "name": "tokenId",
          "type": "uint256"
        },
        {
          "internalType": "uint8",
          "name": "width",
          "type": "uint8"
        },
        {
          "internalType": "uint8",
          "name": "height",
          "type": "uint8"
        }
      ],
      "name": "safeTransferGroupFrom",
      "outputs": [],
      "stateMutability": "nonpayable",
      "type": "function"
    },
    {
      "inputs": [
        {
          "internalType": "address",
          "name": "operator",
          "type": "address"
        },
        {
          "internalType": "bool",
          "name": "approved",
          "type": "bool"
        }
      ],
      "name": "setApprovalForAll",
      "outputs": [],
      "stateMutability": "nonpayable",
      "type": "function"
    },
    {
      "inputs": [
        {
          "internalType": "string",
          "name": "newCollectionURI",
          "type": "string"
        }
      ],
      "name": "setCollectionURI",
      "outputs": [],
      "stateMutability": "nonpayable",
      "type": "function"
    },
    {
      "inputs": [
        {
          "internalType": "string",
          "name": "newDefaultContentBaseURI",
          "type": "string"
        }
      ],
      "name": "setDefaultContentBaseURI",
      "outputs": [],
      "stateMutability": "nonpayable",
      "type": "function"
    },
    {
      "inputs": [
        {
          "internalType": "bool",
          "name": "newIsCenterSaleActive",
          "type": "bool"
        }
      ],
      "name": "setIsCenterSaleActive",
      "outputs": [],
      "stateMutability": "nonpayable",
      "type": "function"
    },
    {
      "inputs": [
        {
          "internalType": "bool",
          "name": "newIsSaleActive",
          "type": "bool"
        }
      ],
      "name": "setIsSaleActive",
      "outputs": [],
      "stateMutability": "nonpayable",
      "type": "function"
    },
    {
      "inputs": [
        {
          "internalType": "string",
          "name": "newMetadataBaseURI",
          "type": "string"
        }
      ],
      "name": "setMetadataBaseURI",
      "outputs": [],
      "stateMutability": "nonpayable",
      "type": "function"
    },
    {
      "inputs": [],
      "name": "setMetadataFinalized",
      "outputs": [],
      "stateMutability": "nonpayable",
      "type": "function"
    },
    {
      "inputs": [
        {
          "internalType": "uint256",
          "name": "newMintPrice",
          "type": "uint256"
        }
      ],
      "name": "setMintPrice",
      "outputs": [],
      "stateMutability": "nonpayable",
      "type": "function"
    },
    {
      "inputs": [
        {
          "internalType": "uint16",
          "name": "newOwnershipMintLimit",
          "type": "uint16"
        }
      ],
      "name": "setOwnershipMintLimit",
      "outputs": [],
      "stateMutability": "nonpayable",
      "type": "function"
    },
    {
      "inputs": [
        {
          "internalType": "uint16",
          "name": "newRoyaltyBasisPoints",
          "type": "uint16"
        }
      ],
      "name": "setRoyaltyBasisPoints",
      "outputs": [],
      "stateMutability": "nonpayable",
      "type": "function"
    },
    {
      "inputs": [
        {
          "internalType": "uint16",
          "name": "newSingleMintLimit",
          "type": "uint16"
        }
      ],
      "name": "setSingleMintLimit",
      "outputs": [],
      "stateMutability": "nonpayable",
      "type": "function"
    },
    {
      "inputs": [
        {
          "internalType": "uint256",
          "name": "tokenId",
          "type": "uint256"
        },
        {
          "internalType": "string",
          "name": "contentURI",
          "type": "string"
        }
      ],
      "name": "setTokenContentURI",
      "outputs": [],
      "stateMutability": "nonpayable",
      "type": "function"
    },
    {
      "inputs": [
        {
          "internalType": "uint256",
          "name": "tokenId",
          "type": "uint256"
        },
        {
          "internalType": "uint8",
          "name": "width",
          "type": "uint8"
        },
        {
          "internalType": "uint8",
          "name": "height",
          "type": "uint8"
        },
        {
          "internalType": "string[]",
          "name": "contentURIs",
          "type": "string[]"
        }
      ],
      "name": "setTokenGroupContentURIs",
      "outputs": [],
      "stateMutability": "nonpayable",
      "type": "function"
    },
    {
      "inputs": [
        {
          "internalType": "uint16",
          "name": "newTotalMintLimit",
          "type": "uint16"
        }
      ],
      "name": "setTotalMintLimit",
      "outputs": [],
      "stateMutability": "nonpayable",
      "type": "function"
    },
    {
      "inputs": [],
      "name": "singleMintLimit",
      "outputs": [
        {
          "internalType": "uint16",
          "name": "",
          "type": "uint16"
        }
      ],
      "stateMutability": "view",
      "type": "function"
    },
    {
      "inputs": [
        {
          "internalType": "bytes4",
          "name": "interfaceId",
          "type": "bytes4"
        }
      ],
      "name": "supportsInterface",
      "outputs": [
        {
          "internalType": "bool",
          "name": "",
          "type": "bool"
        }
      ],
      "stateMutability": "view",
      "type": "function"
    },
    {
      "inputs": [],
      "name": "symbol",
      "outputs": [
        {
          "internalType": "string",
          "name": "",
          "type": "string"
        }
      ],
      "stateMutability": "view",
      "type": "function"
    },
    {
      "inputs": [
        {
          "internalType": "uint256",
          "name": "index",
          "type": "uint256"
        }
      ],
      "name": "tokenByIndex",
      "outputs": [
        {
          "internalType": "uint256",
          "name": "",
          "type": "uint256"
        }
      ],
      "stateMutability": "pure",
      "type": "function"
    },
    {
      "inputs": [
        {
          "internalType": "uint256",
          "name": "tokenId",
          "type": "uint256"
        }
      ],
      "name": "tokenContentURI",
      "outputs": [
        {
          "internalType": "string",
          "name": "",
          "type": "string"
        }
      ],
      "stateMutability": "view",
      "type": "function"
    },
    {
      "inputs": [
        {
          "internalType": "address",
          "name": "owner",
          "type": "address"
        },
        {
          "internalType": "uint256",
          "name": "index",
          "type": "uint256"
        }
      ],
      "name": "tokenOfOwnerByIndex",
      "outputs": [
        {
          "internalType": "uint256",
          "name": "",
          "type": "uint256"
        }
      ],
      "stateMutability": "view",
      "type": "function"
    },
    {
      "inputs": [
        {
          "internalType": "uint256",
          "name": "tokenId",
          "type": "uint256"
        }
      ],
      "name": "tokenURI",
      "outputs": [
        {
          "internalType": "string",
          "name": "",
          "type": "string"
        }
      ],
      "stateMutability": "view",
      "type": "function"
    },
    {
      "inputs": [],
      "name": "totalMintLimit",
      "outputs": [
        {
          "internalType": "uint16",
          "name": "",
          "type": "uint16"
        }
      ],
      "stateMutability": "view",
      "type": "function"
    },
    {
      "inputs": [],
      "name": "totalSupply",
      "outputs": [
        {
          "internalType": "uint256",
          "name": "",
          "type": "uint256"
        }
      ],
      "stateMutability": "pure",
      "type": "function"
    },
    {
      "inputs": [
        {
          "internalType": "address",
          "name": "from",
          "type": "address"
        },
        {
          "internalType": "address",
          "name": "to",
          "type": "address"
        },
        {
          "internalType": "uint256",
          "name": "tokenId",
          "type": "uint256"
        }
      ],
      "name": "transferFrom",
      "outputs": [],
      "stateMutability": "nonpayable",
      "type": "function"
    },
    {
      "inputs": [
        {
          "internalType": "address",
          "name": "sender",
          "type": "address"
        },
        {
          "internalType": "address",
          "name": "receiver",
          "type": "address"
        },
        {
          "internalType": "uint256",
          "name": "tokenId",
          "type": "uint256"
        },
        {
          "internalType": "uint8",
          "name": "width",
          "type": "uint8"
        },
        {
          "internalType": "uint8",
          "name": "height",
          "type": "uint8"
        }
      ],
      "name": "transferGroupFrom",
      "outputs": [],
      "stateMutability": "nonpayable",
      "type": "function"
    },
    {
      "inputs": [
        {
          "internalType": "address",
          "name": "newOwner",
          "type": "address"
        }
      ],
      "name": "transferOwnership",
      "outputs": [],
      "stateMutability": "nonpayable",
      "type": "function"
    },
    {
      "inputs": [],
      "name": "unpause",
      "outputs": [],
      "stateMutability": "nonpayable",
      "type": "function"
    },
    {
      "inputs": [],
      "name": "withdraw",
      "outputs": [],
      "stateMutability": "nonpayable",
      "type": "function"
    }
  ],
  "bytecode": "0x60806040523480156200001157600080fd5b5060405162004f2138038062004f218339810160408190526200003491620003a1565b604080518082018252601681527f4d696c6c696f6e446f6c6c6172546f6b656e5061676500000000000000000000602080830191825283518085019094526003845262e28aa160e81b908401528151919291620000949160009162000214565b508051620000aa90600190602084019062000214565b50506006805460ff1916905550620000c233620001ba565b600b805461ffff19169055600f805460ff60a81b1916600160a81b1790558451620000f590600d90602088019062000214565b5083516200010b90600e90602087019062000214565b5082516200012190600c90602086019062000214565b5060098054600a9790975565ffffffff0000199096166201000061ffff9a8b160261ffff60201b191617640100000000988a16989098029790971767ffff00000000ffff191666010000000000009689169690960261ffff19169590951794909616939093179091555050600f8054610100600160a81b0319166101006001600160a01b039093169290920291909117905550620004ee565b600680546001600160a01b03838116610100818102610100600160a81b031985161790945560405193909204169182907f8be0079c531659141344cd1fd0a4f28419497f9722a3daafe3b4186f6b6457e090600090a35050565b82805462000222906200049b565b90600052602060002090601f01602090048101928262000246576000855562000291565b82601f106200026157805160ff191683800117855562000291565b8280016001018555821562000291579182015b828111156200029157825182559160200191906001019062000274565b506200029f929150620002a3565b5090565b5b808211156200029f5760008155600101620002a4565b80516001600160a01b0381168114620002d257600080fd5b919050565b600082601f830112620002e957600080fd5b81516001600160401b0380821115620003065762000306620004d8565b604051601f8301601f19908116603f01168101908282118183101715620003315762000331620004d8565b816040528381526020925086838588010111156200034e57600080fd5b600091505b8382101562000372578582018301518183018401529082019062000353565b83821115620003845760008385830101525b9695505050505050565b805161ffff81168114620002d257600080fd5b60008060008060008060008060006101208a8c031215620003c157600080fd5b620003cc8a6200038e565b9850620003dc60208b016200038e565b9750620003ec60408b016200038e565b60608b015160808c015191985096506001600160401b03808211156200041157600080fd5b6200041f8d838e01620002d7565b965060a08c01519150808211156200043657600080fd5b620004448d838e01620002d7565b955060c08c01519150808211156200045b57600080fd5b506200046a8c828d01620002d7565b9350506200047b60e08b016200038e565b91506200048c6101008b01620002ba565b90509295985092959850929598565b600181811c90821680620004b057607f821691505b60208210811415620004d257634e487b7160e01b600052602260045260246000fd5b50919050565b634e487b7160e01b600052604160045260246000fd5b614a2380620004fe6000396000f3fe60806040526004361061044a5760003560e01c8063669a1f6911610243578063b46a816511610143578063e04a8eaf116100bb578063eb3391a91161008a578063f4a0a5281161006f578063f4a0a52814610c36578063f994589a14610c56578063fb94bd8a14610c7757600080fd5b8063eb3391a914610bf6578063f2fde38b14610c1657600080fd5b8063e04a8eaf146107e8578063e8a3d48514610b78578063e8d44caf14610b8d578063e985e9c514610bad57600080fd5b8063c634d03211610112578063c87b56dd116100f7578063c87b56dd14610b23578063cf721b1514610b43578063d2d65ff514610b5857600080fd5b8063c634d03214610aed578063c742856614610b0057600080fd5b8063b46a816514610a74578063b88d4fde14610a93578063be52a67514610ab3578063c01f2f7614610ad357600080fd5b80638da5cb5b116101d6578063a1ae82e5116101a5578063a5097ebf1161018a578063a5097ebf14610a1a578063a5dee00214610a2f578063a82106ee14610a5457600080fd5b8063a1ae82e5146109da578063a22cb465146109fa57600080fd5b80638da5cb5b1461097857806390a34ac31461099b57806395d89b41146109b05780639f3d1a2a146109c557600080fd5b8063715018a611610212578063715018a61461090d57806376dd1f86146109225780638456cb59146109435780638d50645a1461095857600080fd5b8063669a1f69146108a4578063676c7e5e146108b75780636817c76c146108d757806370a08231146108ed57600080fd5b80633906f5601161034e57806346c715fa116102e157806351cc5d66116102b05780635935e01a116102955780635935e01a1461084c5780635c975abb1461086c5780636352211e1461088457600080fd5b806351cc5d661461081d578063564566a81461083257600080fd5b806346c715fa146107ae5780634886f62c146107d35780634a0218d6146107e85780634f6ccce7146107fd57600080fd5b80633f4ba83a1161031d5780633f4ba83a1461074b57806342260b5d1461076057806342842e0e1461077b57806345e832df1461079b57600080fd5b80633906f560146106ce5780633bd4803c146106f65780633be9a9e1146107165780633ccfd60b1461073657600080fd5b80631f5e7978116103e15780632935279f116103b05780632a55205a116103955780632a55205a1461064f5780632c0a60551461068e5780632f745c59146106ae57600080fd5b80632935279f1461060f5780632a1b707a1461062f57600080fd5b80631f5e79781461059c5780632222cda0146105af57806323b872dd146105cf5780632639f460146105ef57600080fd5b8063095ea7b31161041d578063095ea7b3146105005780630c0a9d2614610520578063150b7a021461054057806318160ddd1461057957600080fd5b80630170163a1461044f57806301ffc9a71461047157806306fdde03146104a6578063081812fc146104c8575b600080fd5b34801561045b57600080fd5b5061046f61046a3660046143ec565b610c97565b005b34801561047d57600080fd5b5061049161048c3660046142f9565b610d12565b60405190151581526020015b60405180910390f35b3480156104b257600080fd5b506104bb610dd9565b60405161049d919061470f565b3480156104d457600080fd5b506104e86104e3366004614410565b610e6b565b6040516001600160a01b03909116815260200161049d565b34801561050c57600080fd5b5061046f61051b3660046141ee565b610ef3565b34801561052c57600080fd5b506104bb61053b366004614410565b611025565b34801561054c57600080fd5b5061056061055b366004614064565b61124c565b6040516001600160e01b0319909116815260200161049d565b34801561058557600080fd5b5061058e6115b9565b60405190815260200161049d565b61046f6105aa366004614492565b6115cf565b3480156105bb57600080fd5b5061046f6105ca366004614157565b611649565b3480156105db57600080fd5b5061046f6105ea366004614023565b6116d4565b3480156105fb57600080fd5b5061046f61060a366004614333565b61175b565b34801561061b57600080fd5b5061049161062a366004614410565b6117b5565b34801561063b57600080fd5b5061049161064a366004614410565b6117f4565b34801561065b57600080fd5b5061066f61066a366004614470565b611835565b604080516001600160a01b03909316835260208301919091520161049d565b34801561069a57600080fd5b506104e86106a9366004614410565b611867565b3480156106ba57600080fd5b5061058e6106c93660046141ee565b611900565b3480156106da57600080fd5b506106e3611a35565b60405161ffff909116815260200161049d565b34801561070257600080fd5b5061046f610711366004614157565b611a43565b34801561072257600080fd5b5061046f610731366004614269565b611ac6565b34801561074257600080fd5b5061046f611dcf565b34801561075757600080fd5b5061046f611e60565b34801561076c57600080fd5b506009546106e39061ffff1681565b34801561078757600080fd5b5061046f610796366004614023565b611eb8565b61046f6107a936600461421a565b611ed3565b3480156107ba57600080fd5b50600f546104e89061010090046001600160a01b031681565b3480156107df57600080fd5b5061046f611f53565b3480156107f457600080fd5b506106e3606481565b34801561080957600080fd5b5061058e610818366004614410565b611fcb565b34801561082957600080fd5b506104bb612035565b34801561083e57600080fd5b50600b546104919060ff1681565b34801561085857600080fd5b5061046f6108673660046144ce565b6120c3565b34801561087857600080fd5b5060065460ff16610491565b34801561089057600080fd5b506104e861089f366004614410565b612209565b61046f6108b23660046141ee565b6122ba565b3480156108c357600080fd5b5061046f6108d23660046143ec565b612319565b3480156108e357600080fd5b5061058e600a5481565b3480156108f957600080fd5b5061058e610908366004613fb0565b6123fa565b34801561091957600080fd5b5061046f612494565b34801561092e57600080fd5b506009546106e39062010000900461ffff1681565b34801561094f57600080fd5b5061046f6124ec565b34801561096457600080fd5b5061046f610973366004614429565b612542565b34801561098457600080fd5b5060065461010090046001600160a01b03166104e8565b3480156109a757600080fd5b5061046f61254c565b3480156109bc57600080fd5b506104bb6125fc565b3480156109d157600080fd5b506104bb61260b565b3480156109e657600080fd5b5061046f6109f53660046143ec565b612618565b348015610a0657600080fd5b5061046f610a153660046141b9565b612686565b348015610a2657600080fd5b506104bb612691565b348015610a3b57600080fd5b506009546106e3906601000000000000900461ffff1681565b348015610a6057600080fd5b5061046f610a6f3660046142de565b61269e565b348015610a8057600080fd5b50600b5461049190610100900460ff1681565b348015610a9f57600080fd5b5061046f610aae3660046140d7565b612706565b348015610abf57600080fd5b5061046f610ace36600461421a565b61278e565b348015610adf57600080fd5b50600f546104919060ff1681565b61046f610afb366004614410565b6127fa565b348015610b0c57600080fd5b506009546106e390640100000000900461ffff1681565b348015610b2f57600080fd5b506104bb610b3e366004614410565b61285c565b348015610b4f57600080fd5b5061058e6128f4565b348015610b6457600080fd5b5061046f610b733660046142de565b61290b565b348015610b8457600080fd5b506104bb61296c565b348015610b9957600080fd5b5061046f610ba83660046143ec565b61297b565b348015610bb957600080fd5b50610491610bc8366004613fea565b6001600160a01b03918216600090815260056020908152604080832093909416825291909152205460ff1690565b348015610c0257600080fd5b5061046f610c11366004614333565b6129ed565b348015610c2257600080fd5b5061046f610c31366004613fb0565b612a47565b348015610c4257600080fd5b5061046f610c51366004614410565b612b1a565b348015610c6257600080fd5b50600f5461049190600160a81b900460ff1681565b348015610c8357600080fd5b5061046f610c92366004614333565b612b6d565b6006546001600160a01b03610100909104163314610cea5760405162461bcd60e51b815260206004820181905260248201526000805160206149ce83398151915260448201526064015b60405180910390fd5b6009805461ffff90921666010000000000000267ffff00000000000019909216919091179055565b60006001600160e01b03198216630a85bd0160e11b1480610d5c57506001600160e01b031982167f780e9d6300000000000000000000000000000000000000000000000000000000145b80610d9057506001600160e01b031982167f2a55205a00000000000000000000000000000000000000000000000000000000145b80610dc457506001600160e01b031982167fe8a3d48500000000000000000000000000000000000000000000000000000000145b80610dd35750610dd382612c1a565b92915050565b606060008054610de8906148a4565b80601f0160208091040260200160405190810160405280929190818152602001828054610e14906148a4565b8015610e615780601f10610e3657610100808354040283529160200191610e61565b820191906000526020600020905b815481529060010190602001808311610e4457829003601f168201915b5050505050905090565b6000610e7682612cb5565b610ed75760405162461bcd60e51b815260206004820152602c60248201527f4552433732313a20617070726f76656420717565727920666f72206e6f6e657860448201526b34b9ba32b73a103a37b5b2b760a11b6064820152608401610ce1565b506000908152600460205260409020546001600160a01b031690565b6000610efe82612209565b9050806001600160a01b0316836001600160a01b03161415610f885760405162461bcd60e51b815260206004820152602160248201527f4552433732313a20617070726f76616c20746f2063757272656e74206f776e6560448201527f72000000000000000000000000000000000000000000000000000000000000006064820152608401610ce1565b336001600160a01b0382161480610fa45750610fa48133610bc8565b6110165760405162461bcd60e51b815260206004820152603860248201527f4552433732313a20617070726f76652063616c6c6572206973206e6f74206f7760448201527f6e6572206e6f7220617070726f76656420666f7220616c6c00000000000000006064820152608401610ce1565b6110208383612ceb565b505050565b606081600081118015611046575061103e6064806147cc565b61ffff168111155b61108a5760405162461bcd60e51b8152602060048201526015602482015274135115140e881a5b9d985b1a59081d1bdad95b9259605a1b6044820152606401610ce1565b611093836117f4565b1561113c57600f546040517f0c0a9d26000000000000000000000000000000000000000000000000000000008152600481018590526101009091046001600160a01b031690630c0a9d269060240160006040518083038186803b1580156110f957600080fd5b505afa15801561110d573d6000803e3d6000fd5b505050506040513d6000823e601f3d908101601f191682016040526111359190810190614375565b9150611246565b60008381526008602052604081208054611155906148a4565b80601f0160208091040260200160405190810160405280929190818152602001828054611181906148a4565b80156111ce5780601f106111a3576101008083540402835291602001916111ce565b820191906000526020600020905b8154815290600101906020018083116111b157829003601f168201915b505050505090506000815111156111e6579150611246565b6000848152600260205260409020546001600160a01b031680156112165761120d8561285c565b93505050611246565b600e61122186612d66565b604051602001611232929190614609565b604051602081830303815290604052935050505b50919050565b600f5460009061010090046001600160a01b0316336001600160a01b0316146112dd5760405162461bcd60e51b815260206004820152602f60248201527f4d4454503a2063616e6e6f742061636365707420746f6b656e2066726f6d207560448201527f6e6b6e6f776e20636f6e747261637400000000000000000000000000000000006064820152608401610ce1565b600f546040516331a9108f60e11b815260048101869052309161010090046001600160a01b031690636352211e9060240160206040518083038186803b15801561132657600080fd5b505afa15801561133a573d6000803e3d6000fd5b505050506040513d601f19601f8201168201806040525081019061135e9190613fcd565b6001600160a01b0316146113da5760405162461bcd60e51b815260206004820152602a60248201527f4d4454503a20746f6b656e206e6f7420796574206f776e65642062792074686960448201527f7320636f6e7472616374000000000000000000000000000000000000000000006064820152608401610ce1565b600f5461010090046001600160a01b03166113f485612209565b6001600160a01b0316146114705760405162461bcd60e51b815260206004820152602f60248201527f4d4454503a2063616e6e6f742061636365707420746f6b656e206e6f7420736560448201527f7420666f72206d6967726174696f6e00000000000000000000000000000000006064820152608401610ce1565b600f5461148c9061010090046001600160a01b03168686612ea0565b6114ca61149b61010086614936565b60116114a9610100886147b8565b602881106114b9576114b9614976565b015490600160ff919091161b191690565b60116114d8610100876147b8565b602881106114e8576114e8614976565b01556115276114f961010086614936565b6039611507610100886147b8565b6028811061151757611517614976565b015490600160ff919091161b1790565b6039611535610100876147b8565b6028811061154557611545614976565b018190555060016010600082825461155d919061483e565b92505081905550600160076000828254611577919061477b565b909155505060405184907fcb81cc0672f8611568f0de539e3a44de3e2f070f6726e417c97b906bf0c8d16190600090a250630a85bd0160e11b95945050505050565b60006115c66064806147cc565b61ffff16905090565b8060ff168260ff16600a546115e491906147f6565b6115ee91906147f6565b34101561163d5760405162461bcd60e51b815260206004820152601a60248201527f4d4454503a20696e73756666696369656e74207061796d656e740000000000006044820152606401610ce1565b61102033848484613085565b60005b8160ff168160ff1610156116cc5760005b8360ff168160ff1610156116b95760008160ff168360ff16606461168191906147cc565b61168f9061ffff168861477b565b611699919061477b565b90506116a6888883611eb8565b50806116b181614916565b91505061165d565b50806116c481614916565b91505061164c565b505050505050565b6116de33826130a3565b6117505760405162461bcd60e51b815260206004820152603160248201527f4552433732313a207472616e736665722063616c6c6572206973206e6f74206f60448201527f776e6572206e6f7220617070726f7665640000000000000000000000000000006064820152608401610ce1565b611020838383612ea0565b6006546001600160a01b036101009091041633146117a95760405162461bcd60e51b815260206004820181905260248201526000805160206149ce8339815191526044820152606401610ce1565b611020600c8383613dd6565b6000610dd36117c661010084614936565b60396117d4610100866147b8565b602881106117e4576117e4614976565b01549060ff161c60019081161490565b60006010546000148061180b575061180b826117b5565b1561181857506000919050565b610dd361182761010084614936565b60116117d4610100866147b8565b60095460009081903090612710906118519061ffff16866147f6565b61185b91906147b8565b915091505b9250929050565b6000611872826117f4565b156118f757600f546040516331a9108f60e11b8152600481018490526101009091046001600160a01b031690636352211e9060240160206040518083038186803b1580156118bf57600080fd5b505afa1580156118d3573d6000803e3d6000fd5b505050506040513d601f19601f82011682018060405250810190610dd39190613fcd565b610dd382612209565b600061190b836123fa565b82106119595760405162461bcd60e51b815260206004820152601f60248201527f4d4454503a206f776e657220696e646578206f7574206f6620626f756e6473006044820152606401610ce1565b600060015b6119696064806147cc565b61ffff1681116119c6576000818152600260205260409020546001600160a01b03868116911614156119b457838214156119a6579150610dd39050565b816119b0816148fb565b9250505b806119be816148fb565b91505061195e565b5060405162461bcd60e51b815260206004820152602b60248201527f4d4454503a20756e61626c6520746f2067657420746f6b656e206f66206f776e60448201527f657220627920696e6465780000000000000000000000000000000000000000006064820152608401610ce1565b611a406064806147cc565b81565b60005b8160ff168160ff1610156116cc5760005b8360ff168160ff161015611ab35760008160ff168360ff166064611a7b91906147cc565b611a899061ffff168861477b565b611a93919061477b565b9050611aa08888836116d4565b5080611aab81614916565b915050611a57565b5080611abe81614916565b915050611a46565b6006546001600160a01b03610100909104163314611b145760405162461bcd60e51b815260206004820181905260248201526000805160206149ce8339815191526044820152606401610ce1565b600f54600160a81b900460ff16611b935760405162461bcd60e51b815260206004820152602560248201527f4d4454503a206d6967726174696f6e2068617320616c7265616479206861707060448201527f656e6564210000000000000000000000000000000000000000000000000000006064820152608401610ce1565b60005b61ffff8116821115611d7c57600083838361ffff16818110611bba57611bba614976565b905060200201359050600081118015611be15750611bd96064806147cc565b61ffff168111155b611c255760405162461bcd60e51b8152602060048201526015602482015274135115140e881a5b9d985b1a59081d1bdad95b9259605a1b6044820152606401610ce1565b6000818152600260205260409020546001600160a01b031615611cb05760405162461bcd60e51b815260206004820152602360248201527f4d4454503a2063616e6e6f74206d69677261746520616e206f776e656420746f60448201527f6b656e00000000000000000000000000000000000000000000000000000000006064820152608401610ce1565b611cb9816117f4565b15611d2c5760405162461bcd60e51b815260206004820152602560248201527f4d4454503a20746f6b656e20616c72656164792073657420666f72206d69677260448201527f6174696f6e0000000000000000000000000000000000000000000000000000006064820152608401610ce1565b611d49611d3b61010083614936565b6011611507610100856147b8565b6011611d57610100846147b8565b60288110611d6757611d67614976565b01555080611d74816148d9565b915050611b96565b50600f5461010090046001600160a01b031660009081526003602052604081208054839290611dac90849061477b565b909155505060108054829190600090611dc690849061477b565b90915550505050565b6006546001600160a01b03610100909104163314611e1d5760405162461bcd60e51b815260206004820181905260248201526000805160206149ce8339815191526044820152606401610ce1565b600654604051479161010090046001600160a01b0316906108fc8315029083906000818181858888f19350505050158015611e5c573d6000803e3d6000fd5b5050565b6006546001600160a01b03610100909104163314611eae5760405162461bcd60e51b815260206004820181905260248201526000805160206149ce8339815191526044820152606401610ce1565b611eb6613189565b565b61102083838360405180602001604052806000815250612706565b8060ff168260ff16600a54611ee891906147f6565b611ef291906147f6565b341015611f415760405162461bcd60e51b815260206004820152601a60248201527f4d4454503a20696e73756666696369656e74207061796d656e740000000000006044820152606401610ce1565b611f4d84848484613085565b50505050565b6006546001600160a01b03610100909104163314611fa15760405162461bcd60e51b815260206004820181905260248201526000805160206149ce8339815191526044820152606401610ce1565b600f80547fffffffffffffffffffff00ffffffffffffffffffffffffffffffffffffffffff169055565b6000611fd86064806147cc565b61ffff16821061202a5760405162461bcd60e51b815260206004820152601360248201527f4d4454503a20696e76616c696420696e646578000000000000000000000000006044820152606401610ce1565b610dd382600161477b565b600e8054612042906148a4565b80601f016020809104026020016040519081016040528092919081815260200182805461206e906148a4565b80156120bb5780601f10612090576101008083540402835291602001916120bb565b820191906000526020600020905b81548152906001019060200180831161209e57829003601f168201915b505050505081565b80516120cf8385614815565b60ff16146121455760405162461bcd60e51b815260206004820152602560248201527f4d4454503a206c656e677468206f6620636f6e74656e745552497320696e636f60448201527f72726563740000000000000000000000000000000000000000000000000000006064820152608401610ce1565b60005b8260ff168160ff1610156122025760005b8460ff168160ff1610156121ef576000816121748488614815565b61217e9190614793565b60ff16905060008260ff168460ff16606461219991906147cc565b6121a79061ffff168a61477b565b6121b1919061477b565b90506121da81868461ffff16815181106121cd576121cd614976565b6020026020010151613225565b505080806121e790614916565b915050612159565b50806121fa81614916565b915050612148565b5050505050565b6000612214826117f4565b1561222f575050600f5461010090046001600160a01b031690565b6000828152600260205260409020546001600160a01b031680610dd35760405162461bcd60e51b815260206004820152602760248201527f4d4454503a206f776e657220717565727920666f72206e6f6e6578697374656e60448201527f7420746f6b656e000000000000000000000000000000000000000000000000006064820152608401610ce1565b600a5434101561230c5760405162461bcd60e51b815260206004820152601a60248201527f4d4454503a20696e73756666696369656e74207061796d656e740000000000006044820152606401610ce1565b611e5c8282600180613085565b6006546001600160a01b036101009091041633146123675760405162461bcd60e51b815260206004820181905260248201526000805160206149ce8339815191526044820152606401610ce1565b6113888161ffff16106123e25760405162461bcd60e51b815260206004820152602d60248201527f4d4454503a20726f79616c74794261736973506f696e7473206d75737420626560448201527f203c2035303030202835302529000000000000000000000000000000000000006064820152608401610ce1565b6009805461ffff191661ffff92909216919091179055565b60006001600160a01b0382166124785760405162461bcd60e51b815260206004820152602a60248201527f4552433732313a2062616c616e636520717565727920666f7220746865207a6560448201527f726f2061646472657373000000000000000000000000000000000000000000006064820152608401610ce1565b506001600160a01b031660009081526003602052604090205490565b6006546001600160a01b036101009091041633146124e25760405162461bcd60e51b815260206004820181905260248201526000805160206149ce8339815191526044820152606401610ce1565b611eb6600061331c565b6006546001600160a01b0361010090910416331461253a5760405162461bcd60e51b815260206004820181905260248201526000805160206149ce8339815191526044820152606401610ce1565b611eb661338d565b611e5c8282613225565b6006546001600160a01b0361010090910416331461259a5760405162461bcd60e51b815260206004820181905260248201526000805160206149ce8339815191526044820152606401610ce1565b600f5460ff16156125ed5760405162461bcd60e51b815260206004820152601b60248201527f4d4454503a206d65746164617461206973206e6f772066696e616c00000000006044820152606401610ce1565b600f805460ff19166001179055565b606060018054610de8906148a4565b600d8054612042906148a4565b6006546001600160a01b036101009091041633146126665760405162461bcd60e51b815260206004820181905260248201526000805160206149ce8339815191526044820152606401610ce1565b6009805461ffff909216620100000263ffff000019909216919091179055565b611e5c338383613408565b600c8054612042906148a4565b6006546001600160a01b036101009091041633146126ec5760405162461bcd60e51b815260206004820181905260248201526000805160206149ce8339815191526044820152606401610ce1565b600b80549115156101000261ff0019909216919091179055565b61271033836130a3565b6127825760405162461bcd60e51b815260206004820152603160248201527f4552433732313a207472616e736665722063616c6c6572206973206e6f74206f60448201527f776e6572206e6f7220617070726f7665640000000000000000000000000000006064820152608401610ce1565b611f4d848484846134d7565b6006546001600160a01b036101009091041633146127dc5760405162461bcd60e51b815260206004820181905260248201526000805160206149ce8339815191526044820152606401610ce1565b611f4d84848484600160405180602001604052806000815250613555565b600a5434101561284c5760405162461bcd60e51b815260206004820152601a60248201527f4d4454503a20696e73756666696369656e74207061796d656e740000000000006044820152606401610ce1565b6128593382600180613085565b50565b60608160008111801561287d57506128756064806147cc565b61ffff168111155b6128c15760405162461bcd60e51b8152602060048201526015602482015274135115140e881a5b9d985b1a59081d1bdad95b9259605a1b6044820152606401610ce1565b600d6128cc84612d66565b6040516020016128dd929190614609565b604051602081830303815290604052915050919050565b6000601054600754612906919061477b565b905090565b6006546001600160a01b036101009091041633146129595760405162461bcd60e51b815260206004820181905260248201526000805160206149ce8339815191526044820152606401610ce1565b600b805460ff1916911515919091179055565b6060600c8054610de8906148a4565b6006546001600160a01b036101009091041633146129c95760405162461bcd60e51b815260206004820181905260248201526000805160206149ce8339815191526044820152606401610ce1565b6009805461ffff9092166401000000000265ffff0000000019909216919091179055565b6006546001600160a01b03610100909104163314612a3b5760405162461bcd60e51b815260206004820181905260248201526000805160206149ce8339815191526044820152606401610ce1565b611020600e8383613dd6565b6006546001600160a01b03610100909104163314612a955760405162461bcd60e51b815260206004820181905260248201526000805160206149ce8339815191526044820152606401610ce1565b6001600160a01b038116612b115760405162461bcd60e51b815260206004820152602660248201527f4f776e61626c653a206e6577206f776e657220697320746865207a65726f206160448201527f64647265737300000000000000000000000000000000000000000000000000006064820152608401610ce1565b6128598161331c565b6006546001600160a01b03610100909104163314612b685760405162461bcd60e51b815260206004820181905260248201526000805160206149ce8339815191526044820152606401610ce1565b600a55565b6006546001600160a01b03610100909104163314612bbb5760405162461bcd60e51b815260206004820181905260248201526000805160206149ce8339815191526044820152606401610ce1565b600f5460ff1615612c0e5760405162461bcd60e51b815260206004820152601b60248201527f4d4454503a206d65746164617461206973206e6f772066696e616c00000000006044820152606401610ce1565b611020600d8383613dd6565b60006001600160e01b031982167f80ac58cd000000000000000000000000000000000000000000000000000000001480612c7d57506001600160e01b031982167f5b5e139f00000000000000000000000000000000000000000000000000000000145b80610dd357507f01ffc9a7000000000000000000000000000000000000000000000000000000006001600160e01b0319831614610dd3565b6000612cc0826117f4565b15612ccd57506001919050565b506000908152600260205260409020546001600160a01b0316151590565b6000818152600460205260409020805473ffffffffffffffffffffffffffffffffffffffff19166001600160a01b0384169081179091558190612d2d82612209565b6001600160a01b03167f8c5be1e5ebec7d5bd14f71427d1e84f3dd0314c0f7b2291e5b200ac8c7c3b92560405160405180910390a45050565b606081612da657505060408051808201909152600181527f3000000000000000000000000000000000000000000000000000000000000000602082015290565b8160005b8115612dd05780612dba816148fb565b9150612dc99050600a836147b8565b9150612daa565b60008167ffffffffffffffff811115612deb57612deb61498c565b6040519080825280601f01601f191660200182016040528015612e15576020820181803683370190505b5090505b8415612e9857612e2a60018361483e565b9150612e37600a86614936565b612e4290603061477b565b60f81b818381518110612e5757612e57614976565b60200101907effffffffffffffffffffffffffffffffffffffffffffffffffffffffffffff1916908160001a905350612e91600a866147b8565b9450612e19565b949350505050565b826001600160a01b0316612eb382612209565b6001600160a01b031614612f2f5760405162461bcd60e51b815260206004820152602960248201527f4552433732313a207472616e73666572206f6620746f6b656e2074686174206960448201527f73206e6f74206f776e00000000000000000000000000000000000000000000006064820152608401610ce1565b6001600160a01b038216612faa5760405162461bcd60e51b8152602060048201526024808201527f4552433732313a207472616e7366657220746f20746865207a65726f2061646460448201527f72657373000000000000000000000000000000000000000000000000000000006064820152608401610ce1565b612fb5838383613b89565b612fc0600082612ceb565b6001600160a01b0383166000908152600360205260408120805460019290612fe990849061483e565b90915550506001600160a01b038216600090815260036020526040812080546001929061301790849061477b565b9091555050600081815260026020526040808220805473ffffffffffffffffffffffffffffffffffffffff19166001600160a01b0386811691821790925591518493918716917fddf252ad1be2c89b69c2b068fc378daa952ba7f163c4a11628f55a4df523b3ef91a4505050565b611f4d84848484600060405180602001604052806000815250613555565b60006130ae82612cb5565b61310f5760405162461bcd60e51b815260206004820152602c60248201527f4552433732313a206f70657261746f7220717565727920666f72206e6f6e657860448201526b34b9ba32b73a103a37b5b2b760a11b6064820152608401610ce1565b600061311a83612209565b9050806001600160a01b0316846001600160a01b031614806131555750836001600160a01b031661314a84610e6b565b6001600160a01b0316145b80612e9857506001600160a01b0380821660009081526005602090815260408083209388168352929052205460ff16612e98565b60065460ff166131db5760405162461bcd60e51b815260206004820152601460248201527f5061757361626c653a206e6f74207061757365640000000000000000000000006044820152606401610ce1565b6006805460ff191690557f5db9ee0a495bf2e6ff9c91a7834c1ba4fdd244a5e8aa4e537bd38aeae4b073aa335b6040516001600160a01b03909116815260200160405180910390a1565b813361323082612209565b6001600160a01b0316146132865760405162461bcd60e51b815260206004820152601f60248201527f4d4454503a2063616c6c6572206973206e6f7420746f6b656e206f776e6572006044820152606401610ce1565b60065460ff16156132cc5760405162461bcd60e51b815260206004820152601060248201526f14185d5cd8589b194e881c185d5cd95960821b6044820152606401610ce1565b600083815260086020908152604090912083516132eb92850190613e5a565b5060405183907fd26ab77304eac64a04df2018c66716ad9c938c7b11429b56a46c017768172d1b90600090a2505050565b600680546001600160a01b038381166101008181027fffffffffffffffffffffff0000000000000000000000000000000000000000ff85161790945560405193909204169182907f8be0079c531659141344cd1fd0a4f28419497f9722a3daafe3b4186f6b6457e090600090a35050565b60065460ff16156133d35760405162461bcd60e51b815260206004820152601060248201526f14185d5cd8589b194e881c185d5cd95960821b6044820152606401610ce1565b6006805460ff191660011790557f62e78cea01bee320cd4e420270b5ea74000d11b0c9f74754ebdbfc544b05a2586132083390565b816001600160a01b0316836001600160a01b0316141561346a5760405162461bcd60e51b815260206004820152601960248201527f4552433732313a20617070726f766520746f2063616c6c6572000000000000006044820152606401610ce1565b6001600160a01b03838116600081815260056020908152604080832094871680845294825291829020805460ff191686151590811790915591519182527f17307eab39ab6107e8899845ad3d59bd9653f200f220920489ca2b5937696c31910160405180910390a3505050565b6134e2848484612ea0565b6134ee84848484613b97565b611f4d5760405162461bcd60e51b815260206004820152603260248201527f4552433732313a207472616e7366657220746f206e6f6e20455243373231526560448201527131b2b4bb32b91034b6b83632b6b2b73a32b960711b6064820152608401610ce1565b84848460008260ff16116135ab5760405162461bcd60e51b815260206004820152601760248201527f4d4454503a207769647468206d757374206265203e20300000000000000000006044820152606401610ce1565b60008160ff16116135fe5760405162461bcd60e51b815260206004820152601860248201527f4d4454503a20686569676874206d757374206265203e203000000000000000006044820152606401610ce1565b6001600160a01b0389166136545760405162461bcd60e51b815260206004820152601560248201527f4d4454503a20696e76616c6964206164647265737300000000000000000000006044820152606401610ce1565b6000881161369c5760405162461bcd60e51b8152602060048201526015602482015274135115140e881a5b9d985b1a59081d1bdad95b9259605a1b6044820152606401610ce1565b6136a76064806147cc565b61ffff166136b6600189614855565b60ff166136c4600189614855565b6136d29060ff1660646147cc565b6136e09061ffff168b61477b565b6136ea919061477b565b11156137305760405162461bcd60e51b8152602060048201526015602482015274135115140e881a5b9d985b1a59081d1bdad95b9259605a1b6044820152606401610ce1565b600061373c8789614815565b60ff169050600081116137915760405162461bcd60e51b815260206004820152601b60248201527f4d4454503a20696e73756666696369656e74207175616e7469747900000000006044820152606401610ce1565b8561392757600b5460ff166137e85760405162461bcd60e51b815260206004820152601560248201527f4d4454503a2073616c65206e6f742061637469766500000000000000000000006044820152606401610ce1565b6009546601000000000000900461ffff16816138038c6123fa565b61380d919061477b565b111561385b5760405162461bcd60e51b815260206004820152601d60248201527f4d4454503a206f766572206f776e6572736869704d696e744c696d69740000006044820152606401610ce1565b600954640100000000900461ffff168111156138b95760405162461bcd60e51b815260206004820152601a60248201527f4d4454503a206f7665722073696e676c654d696e744c696d69740000000000006044820152606401610ce1565b60095462010000900461ffff16816138cf6128f4565b6138d9919061477b565b11156139275760405162461bcd60e51b815260206004820152601960248201527f4d4454503a206f76657220746f74616c4d696e744c696d6974000000000000006044820152606401610ce1565b61393560008b8b8b8b613cef565b60005b8760ff168160ff161015613b4f5760005b8960ff168160ff161015613b3c5760008160ff168360ff16606461396d91906147cc565b61397b9061ffff168e61477b565b613985919061477b565b905061399081612cb5565b156139dd5760405162461bcd60e51b815260206004820152601a60248201527f4d4454503a20746f6b656e20616c7265616479206d696e7465640000000000006044820152606401610ce1565b600b54610100900460ff16806139f957506139f781613d86565b155b613a455760405162461bcd60e51b815260206004820152601f60248201527f4d4454503a206d696e74696e672063656e746572206e6f7420616374697665006044820152606401610ce1565b8c6002600083815260200190815260200160002060006101000a8154816001600160a01b0302191690836001600160a01b03160217905550613a8a60008e838b613b97565b613af15760405162461bcd60e51b815260206004820152603260248201527f4552433732313a207472616e7366657220746f206e6f6e20455243373231526560448201527131b2b4bb32b91034b6b83632b6b2b73a32b960711b6064820152608401610ce1565b60405181906001600160a01b038f16906000907fddf252ad1be2c89b69c2b068fc378daa952ba7f163c4a11628f55a4df523b3ef908290a45080613b3481614916565b915050613949565b5080613b4781614916565b915050613938565b506001600160a01b038a1660009081526003602052604081208054839290613b7890849061477b565b909155505050505050505050505050565b611020838383600180613cef565b60006001600160a01b0384163b15613ce457604051630a85bd0160e11b81526001600160a01b0385169063150b7a0290613bdb9033908990889088906004016146d3565b602060405180830381600087803b158015613bf557600080fd5b505af1925050508015613c25575060408051601f3d908101601f19168201909252613c2291810190614316565b60015b613cca573d808015613c53576040519150601f19603f3d011682016040523d82523d6000602084013e613c58565b606091505b508051613cc25760405162461bcd60e51b815260206004820152603260248201527f4552433732313a207472616e7366657220746f206e6f6e20455243373231526560448201527131b2b4bb32b91034b6b83632b6b2b73a32b960711b6064820152608401610ce1565b805181602001fd5b6001600160e01b031916630a85bd0160e11b149050612e98565b506001949350505050565b60065460ff1615613d355760405162461bcd60e51b815260206004820152601060248201526f14185d5cd8589b194e881c185d5cd95960821b6044820152606401610ce1565b836001600160a01b0316856001600160a01b031614612202576001600160a01b03851661220257613d668183614815565b60ff1660076000828254613d7a919061477b565b90915550505050505050565b600080613d94606484614936565b90506000613da36064856147b8565b905060268210158015613db75750603e8211155b8015613dc4575060288110155b8015612e985750603b10159392505050565b828054613de2906148a4565b90600052602060002090601f016020900481019282613e045760008555613e4a565b82601f10613e1d5782800160ff19823516178555613e4a565b82800160010185558215613e4a579182015b82811115613e4a578235825591602001919060010190613e2f565b50613e56929150613ece565b5090565b828054613e66906148a4565b90600052602060002090601f016020900481019282613e885760008555613e4a565b82601f10613ea157805160ff1916838001178555613e4a565b82800160010185558215613e4a579182015b82811115613e4a578251825591602001919060010190613eb3565b5b80821115613e565760008155600101613ecf565b6000613ef6613ef184614753565b614722565b9050828152838383011115613f0a57600080fd5b828260208301376000602084830101529392505050565b80358015158114613f3157600080fd5b919050565b60008083601f840112613f4857600080fd5b50813567ffffffffffffffff811115613f6057600080fd5b60208301915083602082850101111561186057600080fd5b600082601f830112613f8957600080fd5b613f9883833560208501613ee3565b9392505050565b803560ff81168114613f3157600080fd5b600060208284031215613fc257600080fd5b8135613f98816149a2565b600060208284031215613fdf57600080fd5b8151613f98816149a2565b60008060408385031215613ffd57600080fd5b8235614008816149a2565b91506020830135614018816149a2565b809150509250929050565b60008060006060848603121561403857600080fd5b8335614043816149a2565b92506020840135614053816149a2565b929592945050506040919091013590565b60008060008060006080868803121561407c57600080fd5b8535614087816149a2565b94506020860135614097816149a2565b935060408601359250606086013567ffffffffffffffff8111156140ba57600080fd5b6140c688828901613f36565b969995985093965092949392505050565b600080600080608085870312156140ed57600080fd5b84356140f8816149a2565b93506020850135614108816149a2565b925060408501359150606085013567ffffffffffffffff81111561412b57600080fd5b8501601f8101871361413c57600080fd5b61414b87823560208401613ee3565b91505092959194509250565b600080600080600060a0868803121561416f57600080fd5b853561417a816149a2565b9450602086013561418a816149a2565b93506040860135925061419f60608701613f9f565b91506141ad60808701613f9f565b90509295509295909350565b600080604083850312156141cc57600080fd5b82356141d7816149a2565b91506141e560208401613f21565b90509250929050565b6000806040838503121561420157600080fd5b823561420c816149a2565b946020939093013593505050565b6000806000806080858703121561423057600080fd5b843561423b816149a2565b93506020850135925061425060408601613f9f565b915061425e60608601613f9f565b905092959194509250565b6000806020838503121561427c57600080fd5b823567ffffffffffffffff8082111561429457600080fd5b818501915085601f8301126142a857600080fd5b8135818111156142b757600080fd5b8660208260051b85010111156142cc57600080fd5b60209290920196919550909350505050565b6000602082840312156142f057600080fd5b613f9882613f21565b60006020828403121561430b57600080fd5b8135613f98816149b7565b60006020828403121561432857600080fd5b8151613f98816149b7565b6000806020838503121561434657600080fd5b823567ffffffffffffffff81111561435d57600080fd5b61436985828601613f36565b90969095509350505050565b60006020828403121561438757600080fd5b815167ffffffffffffffff81111561439e57600080fd5b8201601f810184136143af57600080fd5b80516143bd613ef182614753565b8181528560208385010111156143d257600080fd5b6143e3826020830160208601614878565b95945050505050565b6000602082840312156143fe57600080fd5b813561ffff81168114613f9857600080fd5b60006020828403121561442257600080fd5b5035919050565b6000806040838503121561443c57600080fd5b82359150602083013567ffffffffffffffff81111561445a57600080fd5b61446685828601613f78565b9150509250929050565b6000806040838503121561448357600080fd5b50508035926020909101359150565b6000806000606084860312156144a757600080fd5b833592506144b760208501613f9f565b91506144c560408501613f9f565b90509250925092565b600080600080608085870312156144e457600080fd5b8435935060206144f5818701613f9f565b935061450360408701613f9f565b9250606086013567ffffffffffffffff8082111561452057600080fd5b818801915088601f83011261453457600080fd5b8135818111156145465761454661498c565b8060051b614555858201614722565b8281528581019085870183870188018e101561457057600080fd5b600093505b848410156145af5780358681111561458c57600080fd5b61459a8f8a838b0101613f78565b84525060019390930192918701918701614575565b50999c989b5096995050505050505050565b600081518084526145d9816020860160208601614878565b601f01601f19169290920160200192915050565b600081516145ff818560208601614878565b9290920192915050565b600080845481600182811c91508083168061462557607f831692505b602080841082141561464557634e487b7160e01b86526022600452602486fd5b818015614659576001811461466a57614697565b60ff19861689528489019650614697565b60008b81526020902060005b8681101561468f5781548b820152908501908301614676565b505084890196505b5050505050506143e36146aa82866145ed565b7f2e6a736f6e000000000000000000000000000000000000000000000000000000815260050190565b60006001600160a01b0380871683528086166020840152508360408301526080606083015261470560808301846145c1565b9695505050505050565b602081526000613f9860208301846145c1565b604051601f8201601f1916810167ffffffffffffffff8111828210171561474b5761474b61498c565b604052919050565b600067ffffffffffffffff82111561476d5761476d61498c565b50601f01601f191660200190565b6000821982111561478e5761478e61494a565b500190565b600060ff821660ff84168060ff038211156147b0576147b061494a565b019392505050565b6000826147c7576147c7614960565b500490565b600061ffff808316818516818304811182151516156147ed576147ed61494a565b02949350505050565b60008160001904831182151516156148105761481061494a565b500290565b600060ff821660ff84168160ff04811182151516156148365761483661494a565b029392505050565b6000828210156148505761485061494a565b500390565b600060ff821660ff84168082101561486f5761486f61494a565b90039392505050565b60005b8381101561489357818101518382015260200161487b565b83811115611f4d5750506000910152565b600181811c908216806148b857607f821691505b6020821081141561124657634e487b7160e01b600052602260045260246000fd5b600061ffff808316818114156148f1576148f161494a565b6001019392505050565b600060001982141561490f5761490f61494a565b5060010190565b600060ff821660ff81141561492d5761492d61494a565b60010192915050565b60008261494557614945614960565b500690565b634e487b7160e01b600052601160045260246000fd5b634e487b7160e01b600052601260045260246000fd5b634e487b7160e01b600052603260045260246000fd5b634e487b7160e01b600052604160045260246000fd5b6001600160a01b038116811461285957600080fd5b6001600160e01b03198116811461285957600080fdfe4f776e61626c653a2063616c6c6572206973206e6f7420746865206f776e6572a2646970667358221220ebf3bae39d127f17575c7450c748b128bba1d50f80b7055b797e060ad91d9ab264736f6c63430008070033",
  "linkReferences": {},
  "deployedLinkReferences": {}
}