{
  "_format": "hh-sol-artifact-1",
  "contractName": "MillionDollarTokenPage",
  "sourceName": "contracts/MillionDollarTokenPage.sol",
  "abi": [
    {
      "inputs": [],
      "stateMutability": "nonpayable",
      "type": "constructor"
    },
    {
      "anonymous": false,
      "inputs": [
        {
          "indexed": true,
          "internalType": "address",
          "name": "owner",
          "type": "address"
        },
        {
          "indexed": true,
          "internalType": "address",
          "name": "approved",
          "type": "address"
        },
        {
          "indexed": true,
          "internalType": "uint256",
          "name": "tokenId",
          "type": "uint256"
        }
      ],
      "name": "Approval",
      "type": "event"
    },
    {
      "anonymous": false,
      "inputs": [
        {
          "indexed": true,
          "internalType": "address",
          "name": "owner",
          "type": "address"
        },
        {
          "indexed": true,
          "internalType": "address",
          "name": "operator",
          "type": "address"
        },
        {
          "indexed": false,
          "internalType": "bool",
          "name": "approved",
          "type": "bool"
        }
      ],
      "name": "ApprovalForAll",
      "type": "event"
    },
    {
      "anonymous": false,
      "inputs": [
        {
          "indexed": true,
          "internalType": "address",
          "name": "previousOwner",
          "type": "address"
        },
        {
          "indexed": true,
          "internalType": "address",
          "name": "newOwner",
          "type": "address"
        }
      ],
      "name": "OwnershipTransferred",
      "type": "event"
    },
    {
      "anonymous": false,
      "inputs": [
        {
          "indexed": true,
          "internalType": "uint256",
          "name": "tokenId",
          "type": "uint256"
        }
      ],
      "name": "TokenContentURIChanged",
      "type": "event"
    },
    {
      "anonymous": false,
      "inputs": [
        {
          "indexed": true,
          "internalType": "address",
          "name": "from",
          "type": "address"
        },
        {
          "indexed": true,
          "internalType": "address",
          "name": "to",
          "type": "address"
        },
        {
          "indexed": true,
          "internalType": "uint256",
          "name": "tokenId",
          "type": "uint256"
        }
      ],
      "name": "Transfer",
      "type": "event"
    },
    {
      "inputs": [],
      "name": "COLUMN_COUNT",
      "outputs": [
        {
          "internalType": "uint16",
          "name": "",
          "type": "uint16"
        }
      ],
      "stateMutability": "view",
      "type": "function"
    },
    {
      "inputs": [],
      "name": "ROW_COUNT",
      "outputs": [
        {
          "internalType": "uint16",
          "name": "",
          "type": "uint16"
        }
      ],
      "stateMutability": "view",
      "type": "function"
    },
    {
      "inputs": [],
      "name": "SUPPLY_LIMIT",
      "outputs": [
        {
          "internalType": "uint16",
          "name": "",
          "type": "uint16"
        }
      ],
      "stateMutability": "view",
      "type": "function"
    },
    {
      "inputs": [
        {
          "internalType": "address",
          "name": "",
          "type": "address"
        }
      ],
      "name": "_admins",
      "outputs": [
        {
          "internalType": "bool",
          "name": "",
          "type": "bool"
        }
      ],
      "stateMutability": "view",
      "type": "function"
    },
    {
      "inputs": [
        {
          "internalType": "address",
          "name": "to",
          "type": "address"
        },
        {
          "internalType": "uint256",
          "name": "tokenId",
          "type": "uint256"
        }
      ],
      "name": "approve",
      "outputs": [],
      "stateMutability": "nonpayable",
      "type": "function"
    },
    {
      "inputs": [
        {
          "internalType": "address",
          "name": "owner",
          "type": "address"
        }
      ],
      "name": "balanceOf",
      "outputs": [
        {
          "internalType": "uint256",
          "name": "",
          "type": "uint256"
        }
      ],
      "stateMutability": "view",
      "type": "function"
    },
    {
      "inputs": [
        {
          "internalType": "uint256",
          "name": "tokenId",
          "type": "uint256"
        }
      ],
      "name": "getApproved",
      "outputs": [
        {
          "internalType": "address",
          "name": "",
          "type": "address"
        }
      ],
      "stateMutability": "view",
      "type": "function"
    },
    {
      "inputs": [
        {
          "internalType": "address",
          "name": "owner",
          "type": "address"
        },
        {
          "internalType": "address",
          "name": "operator",
          "type": "address"
        }
      ],
      "name": "isApprovedForAll",
      "outputs": [
        {
          "internalType": "bool",
          "name": "",
          "type": "bool"
        }
      ],
      "stateMutability": "view",
      "type": "function"
    },
    {
      "inputs": [
        {
          "internalType": "uint256",
          "name": "tokenId",
          "type": "uint256"
        }
      ],
      "name": "mint",
      "outputs": [],
      "stateMutability": "payable",
      "type": "function"
    },
    {
      "inputs": [
        {
          "internalType": "uint256",
          "name": "tokenId",
          "type": "uint256"
        }
      ],
      "name": "mintAdmin",
      "outputs": [],
      "stateMutability": "nonpayable",
      "type": "function"
    },
    {
      "inputs": [
        {
          "internalType": "uint256",
          "name": "tokenId",
          "type": "uint256"
        },
        {
          "internalType": "uint8",
          "name": "width",
          "type": "uint8"
        },
        {
          "internalType": "uint8",
          "name": "height",
          "type": "uint8"
        }
      ],
      "name": "mintGroup",
      "outputs": [],
      "stateMutability": "payable",
      "type": "function"
    },
    {
      "inputs": [
        {
          "internalType": "uint256",
          "name": "tokenId",
          "type": "uint256"
        },
        {
          "internalType": "uint8",
          "name": "width",
          "type": "uint8"
        },
        {
          "internalType": "uint8",
          "name": "height",
          "type": "uint8"
        }
      ],
      "name": "mintGroupAdmin",
      "outputs": [],
      "stateMutability": "payable",
      "type": "function"
    },
    {
      "inputs": [],
      "name": "mintPrice",
      "outputs": [
        {
          "internalType": "uint256",
          "name": "",
          "type": "uint256"
        }
      ],
      "stateMutability": "view",
      "type": "function"
    },
    {
      "inputs": [],
      "name": "mintedCount",
      "outputs": [
        {
          "internalType": "uint256",
          "name": "",
          "type": "uint256"
        }
      ],
      "stateMutability": "view",
      "type": "function"
    },
    {
      "inputs": [],
      "name": "name",
      "outputs": [
        {
          "internalType": "string",
          "name": "",
          "type": "string"
        }
      ],
      "stateMutability": "view",
      "type": "function"
    },
    {
      "inputs": [],
      "name": "owner",
      "outputs": [
        {
          "internalType": "address",
          "name": "",
          "type": "address"
        }
      ],
      "stateMutability": "view",
      "type": "function"
    },
    {
      "inputs": [
        {
          "internalType": "uint256",
          "name": "tokenId",
          "type": "uint256"
        }
      ],
      "name": "ownerOf",
      "outputs": [
        {
          "internalType": "address",
          "name": "",
          "type": "address"
        }
      ],
      "stateMutability": "view",
      "type": "function"
    },
    {
      "inputs": [],
      "name": "renounceOwnership",
      "outputs": [],
      "stateMutability": "nonpayable",
      "type": "function"
    },
    {
      "inputs": [
        {
          "internalType": "address",
          "name": "from",
          "type": "address"
        },
        {
          "internalType": "address",
          "name": "to",
          "type": "address"
        },
        {
          "internalType": "uint256",
          "name": "tokenId",
          "type": "uint256"
        }
      ],
      "name": "safeTransferFrom",
      "outputs": [],
      "stateMutability": "nonpayable",
      "type": "function"
    },
    {
      "inputs": [
        {
          "internalType": "address",
          "name": "from",
          "type": "address"
        },
        {
          "internalType": "address",
          "name": "to",
          "type": "address"
        },
        {
          "internalType": "uint256",
          "name": "tokenId",
          "type": "uint256"
        },
        {
          "internalType": "bytes",
          "name": "_data",
          "type": "bytes"
        }
      ],
      "name": "safeTransferFrom",
      "outputs": [],
      "stateMutability": "nonpayable",
      "type": "function"
    },
    {
      "inputs": [
        {
          "internalType": "address",
          "name": "admin",
          "type": "address"
        },
        {
          "internalType": "bool",
          "name": "state",
          "type": "bool"
        }
      ],
      "name": "setAdmin",
      "outputs": [],
      "stateMutability": "nonpayable",
      "type": "function"
    },
    {
      "inputs": [
        {
          "internalType": "address",
          "name": "operator",
          "type": "address"
        },
        {
          "internalType": "bool",
          "name": "approved",
          "type": "bool"
        }
      ],
      "name": "setApprovalForAll",
      "outputs": [],
      "stateMutability": "nonpayable",
      "type": "function"
    },
    {
      "inputs": [
        {
          "internalType": "uint256",
          "name": "newMintPrice",
          "type": "uint256"
        }
      ],
      "name": "setMintPrice",
      "outputs": [],
      "stateMutability": "nonpayable",
      "type": "function"
    },
    {
      "inputs": [
        {
          "internalType": "uint16",
          "name": "newSingleMintLimit",
          "type": "uint16"
        }
      ],
      "name": "setSingleMintLimit",
      "outputs": [],
      "stateMutability": "nonpayable",
      "type": "function"
    },
    {
      "inputs": [
        {
          "internalType": "uint256",
          "name": "tokenId",
          "type": "uint256"
        },
        {
          "internalType": "string",
          "name": "metadataURI",
          "type": "string"
        }
      ],
      "name": "setTokenContentURI",
      "outputs": [],
      "stateMutability": "nonpayable",
      "type": "function"
    },
    {
      "inputs": [
        {
          "internalType": "uint16",
          "name": "newTotalMintLimit",
          "type": "uint16"
        }
      ],
      "name": "setTotalMintLimit",
      "outputs": [],
      "stateMutability": "nonpayable",
      "type": "function"
    },
    {
      "inputs": [],
      "name": "singleMintLimit",
      "outputs": [
        {
          "internalType": "uint16",
          "name": "",
          "type": "uint16"
        }
      ],
      "stateMutability": "view",
      "type": "function"
    },
    {
      "inputs": [
        {
          "internalType": "bytes4",
          "name": "interfaceId",
          "type": "bytes4"
        }
      ],
      "name": "supportsInterface",
      "outputs": [
        {
          "internalType": "bool",
          "name": "",
          "type": "bool"
        }
      ],
      "stateMutability": "view",
      "type": "function"
    },
    {
      "inputs": [],
      "name": "symbol",
      "outputs": [
        {
          "internalType": "string",
          "name": "",
          "type": "string"
        }
      ],
      "stateMutability": "view",
      "type": "function"
    },
    {
      "inputs": [
        {
          "internalType": "uint256",
          "name": "index",
          "type": "uint256"
        }
      ],
      "name": "tokenByIndex",
      "outputs": [
        {
          "internalType": "uint256",
          "name": "",
          "type": "uint256"
        }
      ],
      "stateMutability": "pure",
      "type": "function"
    },
    {
      "inputs": [
        {
          "internalType": "uint256",
          "name": "tokenId",
          "type": "uint256"
        }
      ],
      "name": "tokenContentURI",
      "outputs": [
        {
          "internalType": "string",
          "name": "",
          "type": "string"
        }
      ],
      "stateMutability": "view",
      "type": "function"
    },
    {
      "inputs": [
        {
          "internalType": "address",
          "name": "owner",
          "type": "address"
        },
        {
          "internalType": "uint256",
          "name": "index",
          "type": "uint256"
        }
      ],
      "name": "tokenOfOwnerByIndex",
      "outputs": [
        {
          "internalType": "uint256",
          "name": "tokenId",
          "type": "uint256"
        }
      ],
      "stateMutability": "view",
      "type": "function"
    },
    {
      "inputs": [
        {
          "internalType": "uint256",
          "name": "tokenId",
          "type": "uint256"
        }
      ],
      "name": "tokenURI",
      "outputs": [
        {
          "internalType": "string",
          "name": "",
          "type": "string"
        }
      ],
      "stateMutability": "pure",
      "type": "function"
    },
    {
      "inputs": [],
      "name": "totalMintLimit",
      "outputs": [
        {
          "internalType": "uint16",
          "name": "",
          "type": "uint16"
        }
      ],
      "stateMutability": "view",
      "type": "function"
    },
    {
      "inputs": [],
      "name": "totalSupply",
      "outputs": [
        {
          "internalType": "uint256",
          "name": "",
          "type": "uint256"
        }
      ],
      "stateMutability": "pure",
      "type": "function"
    },
    {
      "inputs": [
        {
          "internalType": "address",
          "name": "from",
          "type": "address"
        },
        {
          "internalType": "address",
          "name": "to",
          "type": "address"
        },
        {
          "internalType": "uint256",
          "name": "tokenId",
          "type": "uint256"
        }
      ],
      "name": "transferFrom",
      "outputs": [],
      "stateMutability": "nonpayable",
      "type": "function"
    },
    {
      "inputs": [
        {
          "internalType": "address",
          "name": "newOwner",
          "type": "address"
        }
      ],
      "name": "transferOwnership",
      "outputs": [],
      "stateMutability": "nonpayable",
      "type": "function"
    },
    {
      "inputs": [],
      "name": "withdraw",
      "outputs": [],
      "stateMutability": "nonpayable",
      "type": "function"
    }
  ],
  "bytecode": "0x60806040526103e8600c60006101000a81548161ffff021916908361ffff1602179055506014600c60026101000a81548161ffff021916908361ffff1602179055506000600d553480156200005357600080fd5b506040518060400160405280601681526020017f4d696c6c696f6e446f6c6c6172546f6b656e50616765000000000000000000008152506040518060400160405280600381526020017fe28aa100000000000000000000000000000000000000000000000000000000008152508160009080519060200190620000d89291906200024f565b508060019080519060200190620000f19291906200024f565b50505062000114620001086200018160201b60201c565b6200018960201b60201c565b6001600660006200012a6200018160201b60201c565b73ffffffffffffffffffffffffffffffffffffffff1673ffffffffffffffffffffffffffffffffffffffff16815260200190815260200160002060006101000a81548160ff02191690831515021790555062000364565b600033905090565b6000600760009054906101000a900473ffffffffffffffffffffffffffffffffffffffff16905081600760006101000a81548173ffffffffffffffffffffffffffffffffffffffff021916908373ffffffffffffffffffffffffffffffffffffffff1602179055508173ffffffffffffffffffffffffffffffffffffffff168173ffffffffffffffffffffffffffffffffffffffff167f8be0079c531659141344cd1fd0a4f28419497f9722a3daafe3b4186f6b6457e060405160405180910390a35050565b8280546200025d90620002ff565b90600052602060002090601f016020900481019282620002815760008555620002cd565b82601f106200029c57805160ff1916838001178555620002cd565b82800160010185558215620002cd579182015b82811115620002cc578251825591602001919060010190620002af565b5b509050620002dc9190620002e0565b5090565b5b80821115620002fb576000816000905550600101620002e1565b5090565b600060028204905060018216806200031857607f821691505b602082108114156200032f576200032e62000335565b5b50919050565b7f4e487b7100000000000000000000000000000000000000000000000000000000600052602260045260246000fd5b6145c680620003746000396000f3fe6080604052600436106102255760003560e01c806370a0823111610123578063b88d4fde116100ab578063e04a8eaf1161006f578063e04a8eaf146107f0578063e8d44caf1461081b578063e985e9c514610844578063f2fde38b14610881578063f4a0a528146108aa57610225565b8063b88d4fde14610718578063c742856614610741578063c87b56dd1461076c578063cf721b15146107a9578063d42fa6b2146107d457610225565b80638da5cb5b116100f25780638da5cb5b1461065457806395d89b411461067f578063a0712d68146106aa578063a1ae82e5146106c6578063a22cb465146106ef57610225565b806370a08231146105ac578063715018a6146105e957806376dd1f86146106005780638d50645a1461062b57610225565b80633906f560116101b15780634f6ccce7116101755780634f6ccce7146104c257806355b8b28e146104ff5780636352211e1461051b578063677ab70b146105585780636817c76c1461058157610225565b80633906f560146104035780633ccfd60b1461042e57806342842e0e146104455780634a0218d61461046e5780634b0bddd21461049957610225565b80630c0a9d26116101f85780630c0a9d26146102f85780630d5e20531461033557806318160ddd1461037257806323b872dd1461039d5780632f745c59146103c657610225565b806301ffc9a71461022a57806306fdde0314610267578063081812fc14610292578063095ea7b3146102cf575b600080fd5b34801561023657600080fd5b50610251600480360381019061024c9190613064565b6108d3565b60405161025e919061365d565b60405180910390f35b34801561027357600080fd5b5061027c6109b5565b6040516102899190613678565b60405180910390f35b34801561029e57600080fd5b506102b960048036038101906102b491906130df565b610a47565b6040516102c691906135f6565b60405180910390f35b3480156102db57600080fd5b506102f660048036038101906102f19190613028565b610acc565b005b34801561030457600080fd5b5061031f600480360381019061031a91906130df565b610be4565b60405161032c9190613678565b60405180910390f35b34801561034157600080fd5b5061035c60048036038101906103579190612ebd565b610cd3565b604051610369919061365d565b60405180910390f35b34801561037e57600080fd5b50610387610cf3565b60405161039491906139b5565b60405180910390f35b3480156103a957600080fd5b506103c460048036038101906103bf9190612f22565b610d0b565b005b3480156103d257600080fd5b506103ed60048036038101906103e89190613028565b610d6b565b6040516103fa91906139b5565b60405180910390f35b34801561040f57600080fd5b50610418610dc6565b604051610425919061399a565b60405180910390f35b34801561043a57600080fd5b50610443610dd6565b005b34801561045157600080fd5b5061046c60048036038101906104679190612f22565b610ea1565b005b34801561047a57600080fd5b50610483610ec1565b604051610490919061399a565b60405180910390f35b3480156104a557600080fd5b506104c060048036038101906104bb9190612fec565b610ec6565b005b3480156104ce57600080fd5b506104e960048036038101906104e491906130df565b610fad565b6040516104f691906139b5565b60405180910390f35b6105196004803603810190610514919061315c565b611021565b005b34801561052757600080fd5b50610542600480360381019061053d91906130df565b611172565b60405161054f91906135f6565b60405180910390f35b34801561056457600080fd5b5061057f600480360381019061057a91906130df565b611224565b005b34801561058d57600080fd5b506105966112bc565b6040516105a391906139b5565b60405180910390f35b3480156105b857600080fd5b506105d360048036038101906105ce9190612ebd565b6112c2565b6040516105e091906139b5565b60405180910390f35b3480156105f557600080fd5b506105fe61137a565b005b34801561060c57600080fd5b50610615611402565b604051610622919061399a565b60405180910390f35b34801561063757600080fd5b50610652600480360381019061064d9190613108565b611416565b005b34801561066057600080fd5b506106696114a3565b60405161067691906135f6565b60405180910390f35b34801561068b57600080fd5b506106946114cd565b6040516106a19190613678565b60405180910390f35b6106c460048036038101906106bf91906130df565b61155f565b005b3480156106d257600080fd5b506106ed60048036038101906106e891906130b6565b61161a565b005b3480156106fb57600080fd5b5061071660048036038101906107119190612fec565b6116c6565b005b34801561072457600080fd5b5061073f600480360381019061073a9190612f71565b611847565b005b34801561074d57600080fd5b506107566118a9565b604051610763919061399a565b60405180910390f35b34801561077857600080fd5b50610793600480360381019061078e91906130df565b6118bd565b6040516107a09190613678565b60405180910390f35b3480156107b557600080fd5b506107be6118fd565b6040516107cb91906139b5565b60405180910390f35b6107ee60048036038101906107e9919061315c565b61190a565b005b3480156107fc57600080fd5b5061080561191a565b604051610812919061399a565b60405180910390f35b34801561082757600080fd5b50610842600480360381019061083d91906130b6565b61191f565b005b34801561085057600080fd5b5061086b60048036038101906108669190612ee6565b6119cb565b604051610878919061365d565b60405180910390f35b34801561088d57600080fd5b506108a860048036038101906108a39190612ebd565b611a5f565b005b3480156108b657600080fd5b506108d160048036038101906108cc91906130df565b611b57565b005b60007f80ac58cd000000000000000000000000000000000000000000000000000000007bffffffffffffffffffffffffffffffffffffffffffffffffffffffff1916827bffffffffffffffffffffffffffffffffffffffffffffffffffffffff1916148061099e57507f5b5e139f000000000000000000000000000000000000000000000000000000007bffffffffffffffffffffffffffffffffffffffffffffffffffffffff1916827bffffffffffffffffffffffffffffffffffffffffffffffffffffffff1916145b806109ae57506109ad82611bed565b5b9050919050565b6060600080546109c490613cf7565b80601f01602080910402602001604051908101604052809291908181526020018280546109f090613cf7565b8015610a3d5780601f10610a1257610100808354040283529160200191610a3d565b820191906000526020600020905b815481529060010190602001808311610a2057829003601f168201915b5050505050905090565b6000610a5282611c57565b610a91576040517f08c379a0000000000000000000000000000000000000000000000000000000008152600401610a889061385a565b60405180910390fd5b6004600083815260200190815260200160002060009054906101000a900473ffffffffffffffffffffffffffffffffffffffff169050919050565b6000610ad782611172565b90508073ffffffffffffffffffffffffffffffffffffffff168373ffffffffffffffffffffffffffffffffffffffff161415610b48576040517f08c379a0000000000000000000000000000000000000000000000000000000008152600401610b3f906138da565b60405180910390fd5b8073ffffffffffffffffffffffffffffffffffffffff16610b67611cc3565b73ffffffffffffffffffffffffffffffffffffffff161480610b965750610b9581610b90611cc3565b6119cb565b5b610bd5576040517f08c379a0000000000000000000000000000000000000000000000000000000008152600401610bcc9061379a565b60405180910390fd5b610bdf8383611ccb565b505050565b60606000600860008481526020019081526020016000208054610c0690613cf7565b80601f0160208091040260200160405190810160405280929190818152602001828054610c3290613cf7565b8015610c7f5780601f10610c5457610100808354040283529160200191610c7f565b820191906000526020600020905b815481529060010190602001808311610c6257829003601f168201915b50505050509050600081511115610c995780915050610cce565b610ca1611d84565b610caa84611da4565b604051602001610cbb9291906135d2565b6040516020818303038152906040529150505b919050565b60066020528060005260406000206000915054906101000a900460ff1681565b6000606480610d029190613b21565b61ffff16905090565b610d1c610d16611cc3565b82611f51565b610d5b576040517f08c379a0000000000000000000000000000000000000000000000000000000008152600401610d529061395a565b60405180910390fd5b610d6683838361202f565b505050565b6000600960008473ffffffffffffffffffffffffffffffffffffffff1673ffffffffffffffffffffffffffffffffffffffff168152602001908152602001600020600083815260200190815260200160002054905092915050565b606480610dd39190613b21565b81565b610dde611cc3565b73ffffffffffffffffffffffffffffffffffffffff16610dfc6114a3565b73ffffffffffffffffffffffffffffffffffffffff1614610e52576040517f08c379a0000000000000000000000000000000000000000000000000000000008152600401610e499061389a565b60405180910390fd5b60004790503373ffffffffffffffffffffffffffffffffffffffff166108fc829081150290604051600060405180830381858888f19350505050158015610e9d573d6000803e3d6000fd5b5050565b610ebc83838360405180602001604052806000815250611847565b505050565b606481565b600660003373ffffffffffffffffffffffffffffffffffffffff1673ffffffffffffffffffffffffffffffffffffffff16815260200190815260200160002060009054906101000a900460ff16610f52576040517f08c379a0000000000000000000000000000000000000000000000000000000008152600401610f49906138fa565b60405180910390fd5b80600660008473ffffffffffffffffffffffffffffffffffffffff1673ffffffffffffffffffffffffffffffffffffffff16815260200190815260200160002060006101000a81548160ff0219169083151502179055505050565b6000808210158015610fce5750606480610fc79190613b21565b61ffff1682105b61100d576040517f08c379a00000000000000000000000000000000000000000000000000000000081526004016110049061397a565b60405180910390fd5b60018261101a9190613a9a565b9050919050565b61104481836110309190613bb7565b60ff16600d5461228b90919063ffffffff16565b341015611086576040517f08c379a000000000000000000000000000000000000000000000000000000000815260040161107d9061393a565b60405180910390fd5b600c60009054906101000a900461ffff1661ffff1681836110a79190613bb7565b60ff166110b26118fd565b6110bc9190613a9a565b11156110fd576040517f08c379a00000000000000000000000000000000000000000000000000000000081526004016110f49061383a565b60405180910390fd5b600c60029054906101000a900461ffff1661ffff16818361111e9190613bb7565b60ff161115611162576040517f08c379a00000000000000000000000000000000000000000000000000000000081526004016111599061377a565b60405180910390fd5b61116d8383836122a1565b505050565b6000806002600084815260200190815260200160002060009054906101000a900473ffffffffffffffffffffffffffffffffffffffff169050600073ffffffffffffffffffffffffffffffffffffffff168173ffffffffffffffffffffffffffffffffffffffff16141561121b576040517f08c379a0000000000000000000000000000000000000000000000000000000008152600401611212906137da565b60405180910390fd5b80915050919050565b600660003373ffffffffffffffffffffffffffffffffffffffff1673ffffffffffffffffffffffffffffffffffffffff16815260200190815260200160002060009054906101000a900460ff166112b0576040517f08c379a00000000000000000000000000000000000000000000000000000000081526004016112a7906138fa565b60405180910390fd5b6112b9816123b1565b50565b600d5481565b60008073ffffffffffffffffffffffffffffffffffffffff168273ffffffffffffffffffffffffffffffffffffffff161415611333576040517f08c379a000000000000000000000000000000000000000000000000000000000815260040161132a906137ba565b60405180910390fd5b600360008373ffffffffffffffffffffffffffffffffffffffff1673ffffffffffffffffffffffffffffffffffffffff168152602001908152602001600020549050919050565b611382611cc3565b73ffffffffffffffffffffffffffffffffffffffff166113a06114a3565b73ffffffffffffffffffffffffffffffffffffffff16146113f6576040517f08c379a00000000000000000000000000000000000000000000000000000000081526004016113ed9061389a565b60405180910390fd5b611400600061241d565b565b600c60009054906101000a900461ffff1681565b8161141f611cc3565b73ffffffffffffffffffffffffffffffffffffffff1661143e82611172565b73ffffffffffffffffffffffffffffffffffffffff1614611494576040517f08c379a000000000000000000000000000000000000000000000000000000000815260040161148b9061387a565b60405180910390fd5b61149e83836124e3565b505050565b6000600760009054906101000a900473ffffffffffffffffffffffffffffffffffffffff16905090565b6060600180546114dc90613cf7565b80601f016020809104026020016040519081016040528092919081815260200182805461150890613cf7565b80156115555780601f1061152a57610100808354040283529160200191611555565b820191906000526020600020905b81548152906001019060200180831161153857829003601f168201915b5050505050905090565b600d543410156115a4576040517f08c379a000000000000000000000000000000000000000000000000000000000815260040161159b9061393a565b60405180910390fd5b600c60009054906101000a900461ffff1661ffff1660016115c36118fd565b6115cd9190613a9a565b111561160e576040517f08c379a00000000000000000000000000000000000000000000000000000000081526004016116059061383a565b60405180910390fd5b611617816123b1565b50565b600660003373ffffffffffffffffffffffffffffffffffffffff1673ffffffffffffffffffffffffffffffffffffffff16815260200190815260200160002060009054906101000a900460ff166116a6576040517f08c379a000000000000000000000000000000000000000000000000000000000815260040161169d906138fa565b60405180910390fd5b80600c60006101000a81548161ffff021916908361ffff16021790555050565b6116ce611cc3565b73ffffffffffffffffffffffffffffffffffffffff168273ffffffffffffffffffffffffffffffffffffffff16141561173c576040517f08c379a00000000000000000000000000000000000000000000000000000000081526004016117339061373a565b60405180910390fd5b8060056000611749611cc3565b73ffffffffffffffffffffffffffffffffffffffff1673ffffffffffffffffffffffffffffffffffffffff16815260200190815260200160002060008473ffffffffffffffffffffffffffffffffffffffff1673ffffffffffffffffffffffffffffffffffffffff16815260200190815260200160002060006101000a81548160ff0219169083151502179055508173ffffffffffffffffffffffffffffffffffffffff166117f6611cc3565b73ffffffffffffffffffffffffffffffffffffffff167f17307eab39ab6107e8899845ad3d59bd9653f200f220920489ca2b5937696c318360405161183b919061365d565b60405180910390a35050565b611858611852611cc3565b83611f51565b611897576040517f08c379a000000000000000000000000000000000000000000000000000000000815260040161188e9061395a565b60405180910390fd5b6118a38484848461253c565b50505050565b600c60029054906101000a900461ffff1681565b606060006118c9612598565b9050806118d584611da4565b6040516020016118e69291906135d2565b604051602081830303815290604052915050919050565b6000600b80549050905090565b6119158383836122a1565b505050565b606481565b600660003373ffffffffffffffffffffffffffffffffffffffff1673ffffffffffffffffffffffffffffffffffffffff16815260200190815260200160002060009054906101000a900460ff166119ab576040517f08c379a00000000000000000000000000000000000000000000000000000000081526004016119a2906138fa565b60405180910390fd5b80600c60026101000a81548161ffff021916908361ffff16021790555050565b6000600560008473ffffffffffffffffffffffffffffffffffffffff1673ffffffffffffffffffffffffffffffffffffffff16815260200190815260200160002060008373ffffffffffffffffffffffffffffffffffffffff1673ffffffffffffffffffffffffffffffffffffffff16815260200190815260200160002060009054906101000a900460ff16905092915050565b611a67611cc3565b73ffffffffffffffffffffffffffffffffffffffff16611a856114a3565b73ffffffffffffffffffffffffffffffffffffffff1614611adb576040517f08c379a0000000000000000000000000000000000000000000000000000000008152600401611ad29061389a565b60405180910390fd5b600073ffffffffffffffffffffffffffffffffffffffff168173ffffffffffffffffffffffffffffffffffffffff161415611b4b576040517f08c379a0000000000000000000000000000000000000000000000000000000008152600401611b42906136da565b60405180910390fd5b611b548161241d565b50565b600660003373ffffffffffffffffffffffffffffffffffffffff1673ffffffffffffffffffffffffffffffffffffffff16815260200190815260200160002060009054906101000a900460ff16611be3576040517f08c379a0000000000000000000000000000000000000000000000000000000008152600401611bda906138fa565b60405180910390fd5b80600d8190555050565b60007f01ffc9a7000000000000000000000000000000000000000000000000000000007bffffffffffffffffffffffffffffffffffffffffffffffffffffffff1916827bffffffffffffffffffffffffffffffffffffffffffffffffffffffff1916149050919050565b60008073ffffffffffffffffffffffffffffffffffffffff166002600084815260200190815260200160002060009054906101000a900473ffffffffffffffffffffffffffffffffffffffff1673ffffffffffffffffffffffffffffffffffffffff1614159050919050565b600033905090565b816004600083815260200190815260200160002060006101000a81548173ffffffffffffffffffffffffffffffffffffffff021916908373ffffffffffffffffffffffffffffffffffffffff160217905550808273ffffffffffffffffffffffffffffffffffffffff16611d3e83611172565b73ffffffffffffffffffffffffffffffffffffffff167f8c5be1e5ebec7d5bd14f71427d1e84f3dd0314c0f7b2291e5b200ac8c7c3b92560405160405180910390a45050565b60606040518060600160405280602b8152602001614566602b9139905090565b60606000821415611dec576040518060400160405280600181526020017f30000000000000000000000000000000000000000000000000000000000000008152509050611f4c565b600082905060005b60008214611e1e578080611e0790613d5a565b915050600a82611e179190613af0565b9150611df4565b60008167ffffffffffffffff811115611e60577f4e487b7100000000000000000000000000000000000000000000000000000000600052604160045260246000fd5b6040519080825280601f01601f191660200182016040528015611e925781602001600182028036833780820191505090505b5090505b60008514611f4557600182611eab9190613bf2565b9150600a85611eba9190613dcd565b6030611ec69190613a9a565b60f81b818381518110611f02577f4e487b7100000000000000000000000000000000000000000000000000000000600052603260045260246000fd5b60200101907effffffffffffffffffffffffffffffffffffffffffffffffffffffffffffff1916908160001a905350600a85611f3e9190613af0565b9450611e96565b8093505050505b919050565b6000611f5c82611c57565b611f9b576040517f08c379a0000000000000000000000000000000000000000000000000000000008152600401611f929061375a565b60405180910390fd5b6000611fa683611172565b90508073ffffffffffffffffffffffffffffffffffffffff168473ffffffffffffffffffffffffffffffffffffffff16148061201557508373ffffffffffffffffffffffffffffffffffffffff16611ffd84610a47565b73ffffffffffffffffffffffffffffffffffffffff16145b80612026575061202581856119cb565b5b91505092915050565b8273ffffffffffffffffffffffffffffffffffffffff1661204f82611172565b73ffffffffffffffffffffffffffffffffffffffff16146120a5576040517f08c379a000000000000000000000000000000000000000000000000000000000815260040161209c906138ba565b60405180910390fd5b600073ffffffffffffffffffffffffffffffffffffffff168273ffffffffffffffffffffffffffffffffffffffff161415612115576040517f08c379a000000000000000000000000000000000000000000000000000000000815260040161210c9061371a565b60405180910390fd5b6121208383836125b8565b61212b600082611ccb565b6001600360008573ffffffffffffffffffffffffffffffffffffffff1673ffffffffffffffffffffffffffffffffffffffff168152602001908152602001600020600082825461217b9190613bf2565b925050819055506001600360008473ffffffffffffffffffffffffffffffffffffffff1673ffffffffffffffffffffffffffffffffffffffff16815260200190815260200160002060008282546121d29190613a9a565b92505081905550816002600083815260200190815260200160002060006101000a81548173ffffffffffffffffffffffffffffffffffffffff021916908373ffffffffffffffffffffffffffffffffffffffff160217905550808273ffffffffffffffffffffffffffffffffffffffff168473ffffffffffffffffffffffffffffffffffffffff167fddf252ad1be2c89b69c2b068fc378daa952ba7f163c4a11628f55a4df523b3ef60405160405180910390a4505050565b600081836122999190613b5d565b905092915050565b60008260ff16116122e7576040517f08c379a00000000000000000000000000000000000000000000000000000000081526004016122de9061391a565b60405180910390fd5b60008160ff161161232d576040517f08c379a0000000000000000000000000000000000000000000000000000000008152600401612324906137fa565b60405180910390fd5b60005b8160ff168160ff1610156123ab5760005b8360ff168160ff161015612397576123848160ff168360ff1660646123669190613b21565b61ffff16876123759190613a9a565b61237f9190613a9a565b6123b1565b808061238f90613da3565b915050612341565b5080806123a390613da3565b915050612330565b50505050565b6000811180156123d157506064806123c99190613b21565b61ffff168111155b612410576040517f08c379a00000000000000000000000000000000000000000000000000000000081526004016124079061369a565b60405180910390fd5b61241a3382612881565b50565b6000600760009054906101000a900473ffffffffffffffffffffffffffffffffffffffff16905081600760006101000a81548173ffffffffffffffffffffffffffffffffffffffff021916908373ffffffffffffffffffffffffffffffffffffffff1602179055508173ffffffffffffffffffffffffffffffffffffffff168173ffffffffffffffffffffffffffffffffffffffff167f8be0079c531659141344cd1fd0a4f28419497f9722a3daafe3b4186f6b6457e060405160405180910390a35050565b8060086000848152602001908152602001600020908051906020019061250a929190612c77565b50817fd26ab77304eac64a04df2018c66716ad9c938c7b11429b56a46c017768172d1b60405160405180910390a25050565b61254784848461202f565b6125538484848461289f565b612592576040517f08c379a0000000000000000000000000000000000000000000000000000000008152600401612589906136ba565b60405180910390fd5b50505050565b606060405180606001604052806024815260200161454260249139905090565b6125c3838383612a36565b8273ffffffffffffffffffffffffffffffffffffffff168273ffffffffffffffffffffffffffffffffffffffff161461287c57600073ffffffffffffffffffffffffffffffffffffffff168373ffffffffffffffffffffffffffffffffffffffff16141561265957600b8190806001815401808255809150506001900390600052602060002001600090919091909150556127cb565b60006001612666856112c2565b6126709190613bf2565b90506000600a6000848152602001908152602001600020549050818114612755576000600960008773ffffffffffffffffffffffffffffffffffffffff1673ffffffffffffffffffffffffffffffffffffffff168152602001908152602001600020600084815260200190815260200160002054905080600960008873ffffffffffffffffffffffffffffffffffffffff1673ffffffffffffffffffffffffffffffffffffffff16815260200190815260200160002060008481526020019081526020016000208190555081600a600083815260200190815260200160002081905550505b600960008673ffffffffffffffffffffffffffffffffffffffff1673ffffffffffffffffffffffffffffffffffffffff1681526020019081526020016000206000838152602001908152602001600020600090556008600084815260200190815260200160002060006127c89190612cfd565b50505b600073ffffffffffffffffffffffffffffffffffffffff168273ffffffffffffffffffffffffffffffffffffffff161461287b57600061280a836112c2565b905081600960008573ffffffffffffffffffffffffffffffffffffffff1673ffffffffffffffffffffffffffffffffffffffff16815260200190815260200160002060008381526020019081526020016000208190555080600a600084815260200190815260200160002081905550505b5b505050565b61289b828260405180602001604052806000815250612a3b565b5050565b60006128c08473ffffffffffffffffffffffffffffffffffffffff16612a96565b15612a29578373ffffffffffffffffffffffffffffffffffffffff1663150b7a026128e9611cc3565b8786866040518563ffffffff1660e01b815260040161290b9493929190613611565b602060405180830381600087803b15801561292557600080fd5b505af192505050801561295657506040513d601f19601f82011682018060405250810190612953919061308d565b60015b6129d9573d8060008114612986576040519150601f19603f3d011682016040523d82523d6000602084013e61298b565b606091505b506000815114156129d1576040517f08c379a00000000000000000000000000000000000000000000000000000000081526004016129c8906136ba565b60405180910390fd5b805181602001fd5b63150b7a0260e01b7bffffffffffffffffffffffffffffffffffffffffffffffffffffffff1916817bffffffffffffffffffffffffffffffffffffffffffffffffffffffff191614915050612a2e565b600190505b949350505050565b505050565b612a458383612aa9565b612a52600084848461289f565b612a91576040517f08c379a0000000000000000000000000000000000000000000000000000000008152600401612a88906136ba565b60405180910390fd5b505050565b600080823b905060008111915050919050565b600073ffffffffffffffffffffffffffffffffffffffff168273ffffffffffffffffffffffffffffffffffffffff161415612b19576040517f08c379a0000000000000000000000000000000000000000000000000000000008152600401612b109061381a565b60405180910390fd5b612b2281611c57565b15612b62576040517f08c379a0000000000000000000000000000000000000000000000000000000008152600401612b59906136fa565b60405180910390fd5b612b6e600083836125b8565b6001600360008473ffffffffffffffffffffffffffffffffffffffff1673ffffffffffffffffffffffffffffffffffffffff1681526020019081526020016000206000828254612bbe9190613a9a565b92505081905550816002600083815260200190815260200160002060006101000a81548173ffffffffffffffffffffffffffffffffffffffff021916908373ffffffffffffffffffffffffffffffffffffffff160217905550808273ffffffffffffffffffffffffffffffffffffffff16600073ffffffffffffffffffffffffffffffffffffffff167fddf252ad1be2c89b69c2b068fc378daa952ba7f163c4a11628f55a4df523b3ef60405160405180910390a45050565b828054612c8390613cf7565b90600052602060002090601f016020900481019282612ca55760008555612cec565b82601f10612cbe57805160ff1916838001178555612cec565b82800160010185558215612cec579182015b82811115612ceb578251825591602001919060010190612cd0565b5b509050612cf99190612d3d565b5090565b508054612d0990613cf7565b6000825580601f10612d1b5750612d3a565b601f016020900490600052602060002090810190612d399190612d3d565b5b50565b5b80821115612d56576000816000905550600101612d3e565b5090565b6000612d6d612d68846139f5565b6139d0565b905082815260208101848484011115612d8557600080fd5b612d90848285613cb5565b509392505050565b6000612dab612da684613a26565b6139d0565b905082815260208101848484011115612dc357600080fd5b612dce848285613cb5565b509392505050565b600081359050612de5816144b7565b92915050565b600081359050612dfa816144ce565b92915050565b600081359050612e0f816144e5565b92915050565b600081519050612e24816144e5565b92915050565b600082601f830112612e3b57600080fd5b8135612e4b848260208601612d5a565b91505092915050565b600082601f830112612e6557600080fd5b8135612e75848260208601612d98565b91505092915050565b600081359050612e8d816144fc565b92915050565b600081359050612ea281614513565b92915050565b600081359050612eb78161452a565b92915050565b600060208284031215612ecf57600080fd5b6000612edd84828501612dd6565b91505092915050565b60008060408385031215612ef957600080fd5b6000612f0785828601612dd6565b9250506020612f1885828601612dd6565b9150509250929050565b600080600060608486031215612f3757600080fd5b6000612f4586828701612dd6565b9350506020612f5686828701612dd6565b9250506040612f6786828701612e93565b9150509250925092565b60008060008060808587031215612f8757600080fd5b6000612f9587828801612dd6565b9450506020612fa687828801612dd6565b9350506040612fb787828801612e93565b925050606085013567ffffffffffffffff811115612fd457600080fd5b612fe087828801612e2a565b91505092959194509250565b60008060408385031215612fff57600080fd5b600061300d85828601612dd6565b925050602061301e85828601612deb565b9150509250929050565b6000806040838503121561303b57600080fd5b600061304985828601612dd6565b925050602061305a85828601612e93565b9150509250929050565b60006020828403121561307657600080fd5b600061308484828501612e00565b91505092915050565b60006020828403121561309f57600080fd5b60006130ad84828501612e15565b91505092915050565b6000602082840312156130c857600080fd5b60006130d684828501612e7e565b91505092915050565b6000602082840312156130f157600080fd5b60006130ff84828501612e93565b91505092915050565b6000806040838503121561311b57600080fd5b600061312985828601612e93565b925050602083013567ffffffffffffffff81111561314657600080fd5b61315285828601612e54565b9150509250929050565b60008060006060848603121561317157600080fd5b600061317f86828701612e93565b935050602061319086828701612ea8565b92505060406131a186828701612ea8565b9150509250925092565b6131b481613c26565b82525050565b6131c381613c38565b82525050565b60006131d482613a57565b6131de8185613a6d565b93506131ee818560208601613cc4565b6131f781613eba565b840191505092915050565b600061320d82613a62565b6132178185613a7e565b9350613227818560208601613cc4565b61323081613eba565b840191505092915050565b600061324682613a62565b6132508185613a8f565b9350613260818560208601613cc4565b80840191505092915050565b6000613279601583613a7e565b915061328482613ecb565b602082019050919050565b600061329c603283613a7e565b91506132a782613ef4565b604082019050919050565b60006132bf602683613a7e565b91506132ca82613f43565b604082019050919050565b60006132e2601c83613a7e565b91506132ed82613f92565b602082019050919050565b6000613305602483613a7e565b915061331082613fbb565b604082019050919050565b6000613328601983613a7e565b91506133338261400a565b602082019050919050565b600061334b602c83613a7e565b915061335682614033565b604082019050919050565b600061336e602d83613a7e565b915061337982614082565b604082019050919050565b6000613391603883613a7e565b915061339c826140d1565b604082019050919050565b60006133b4602a83613a7e565b91506133bf82614120565b604082019050919050565b60006133d7602983613a7e565b91506133e28261416f565b604082019050919050565b60006133fa601883613a7e565b9150613405826141be565b602082019050919050565b600061341d602083613a7e565b9150613428826141e7565b602082019050919050565b6000613440602383613a7e565b915061344b82614210565b604082019050919050565b6000613463602c83613a7e565b915061346e8261425f565b604082019050919050565b6000613486602283613a7e565b9150613491826142ae565b604082019050919050565b60006134a9602083613a7e565b91506134b4826142fd565b602082019050919050565b60006134cc602983613a7e565b91506134d782614326565b604082019050919050565b60006134ef602183613a7e565b91506134fa82614375565b604082019050919050565b6000613512601d83613a7e565b915061351d826143c4565b602082019050919050565b6000613535601783613a7e565b9150613540826143ed565b602082019050919050565b6000613558601a83613a7e565b915061356382614416565b602082019050919050565b600061357b603183613a7e565b91506135868261443f565b604082019050919050565b600061359e601383613a7e565b91506135a98261448e565b602082019050919050565b6135bd81613c70565b82525050565b6135cc81613c9e565b82525050565b60006135de828561323b565b91506135ea828461323b565b91508190509392505050565b600060208201905061360b60008301846131ab565b92915050565b600060808201905061362660008301876131ab565b61363360208301866131ab565b61364060408301856135c3565b818103606083015261365281846131c9565b905095945050505050565b600060208201905061367260008301846131ba565b92915050565b600060208201905081810360008301526136928184613202565b905092915050565b600060208201905081810360008301526136b38161326c565b9050919050565b600060208201905081810360008301526136d38161328f565b9050919050565b600060208201905081810360008301526136f3816132b2565b9050919050565b60006020820190508181036000830152613713816132d5565b9050919050565b60006020820190508181036000830152613733816132f8565b9050919050565b600060208201905081810360008301526137538161331b565b9050919050565b600060208201905081810360008301526137738161333e565b9050919050565b6000602082019050818103600083015261379381613361565b9050919050565b600060208201905081810360008301526137b381613384565b9050919050565b600060208201905081810360008301526137d3816133a7565b9050919050565b600060208201905081810360008301526137f3816133ca565b9050919050565b60006020820190508181036000830152613813816133ed565b9050919050565b6000602082019050818103600083015261383381613410565b9050919050565b6000602082019050818103600083015261385381613433565b9050919050565b6000602082019050818103600083015261387381613456565b9050919050565b6000602082019050818103600083015261389381613479565b9050919050565b600060208201905081810360008301526138b38161349c565b9050919050565b600060208201905081810360008301526138d3816134bf565b9050919050565b600060208201905081810360008301526138f3816134e2565b9050919050565b6000602082019050818103600083015261391381613505565b9050919050565b6000602082019050818103600083015261393381613528565b9050919050565b600060208201905081810360008301526139538161354b565b9050919050565b600060208201905081810360008301526139738161356e565b9050919050565b6000602082019050818103600083015261399381613591565b9050919050565b60006020820190506139af60008301846135b4565b92915050565b60006020820190506139ca60008301846135c3565b92915050565b60006139da6139eb565b90506139e68282613d29565b919050565b6000604051905090565b600067ffffffffffffffff821115613a1057613a0f613e8b565b5b613a1982613eba565b9050602081019050919050565b600067ffffffffffffffff821115613a4157613a40613e8b565b5b613a4a82613eba565b9050602081019050919050565b600081519050919050565b600081519050919050565b600082825260208201905092915050565b600082825260208201905092915050565b600081905092915050565b6000613aa582613c9e565b9150613ab083613c9e565b9250827fffffffffffffffffffffffffffffffffffffffffffffffffffffffffffffffff03821115613ae557613ae4613dfe565b5b828201905092915050565b6000613afb82613c9e565b9150613b0683613c9e565b925082613b1657613b15613e2d565b5b828204905092915050565b6000613b2c82613c70565b9150613b3783613c70565b92508161ffff0483118215151615613b5257613b51613dfe565b5b828202905092915050565b6000613b6882613c9e565b9150613b7383613c9e565b9250817fffffffffffffffffffffffffffffffffffffffffffffffffffffffffffffffff0483118215151615613bac57613bab613dfe565b5b828202905092915050565b6000613bc282613ca8565b9150613bcd83613ca8565b92508160ff0483118215151615613be757613be6613dfe565b5b828202905092915050565b6000613bfd82613c9e565b9150613c0883613c9e565b925082821015613c1b57613c1a613dfe565b5b828203905092915050565b6000613c3182613c7e565b9050919050565b60008115159050919050565b60007fffffffff0000000000000000000000000000000000000000000000000000000082169050919050565b600061ffff82169050919050565b600073ffffffffffffffffffffffffffffffffffffffff82169050919050565b6000819050919050565b600060ff82169050919050565b82818337600083830152505050565b60005b83811015613ce2578082015181840152602081019050613cc7565b83811115613cf1576000848401525b50505050565b60006002820490506001821680613d0f57607f821691505b60208210811415613d2357613d22613e5c565b5b50919050565b613d3282613eba565b810181811067ffffffffffffffff82111715613d5157613d50613e8b565b5b80604052505050565b6000613d6582613c9e565b91507fffffffffffffffffffffffffffffffffffffffffffffffffffffffffffffffff821415613d9857613d97613dfe565b5b600182019050919050565b6000613dae82613ca8565b915060ff821415613dc257613dc1613dfe565b5b600182019050919050565b6000613dd882613c9e565b9150613de383613c9e565b925082613df357613df2613e2d565b5b828206905092915050565b7f4e487b7100000000000000000000000000000000000000000000000000000000600052601160045260246000fd5b7f4e487b7100000000000000000000000000000000000000000000000000000000600052601260045260246000fd5b7f4e487b7100000000000000000000000000000000000000000000000000000000600052602260045260246000fd5b7f4e487b7100000000000000000000000000000000000000000000000000000000600052604160045260246000fd5b6000601f19601f8301169050919050565b7f4d4454503a20696e76616c696420746f6b656e49640000000000000000000000600082015250565b7f4552433732313a207472616e7366657220746f206e6f6e20455243373231526560008201527f63656976657220696d706c656d656e7465720000000000000000000000000000602082015250565b7f4f776e61626c653a206e6577206f776e657220697320746865207a65726f206160008201527f6464726573730000000000000000000000000000000000000000000000000000602082015250565b7f4552433732313a20746f6b656e20616c7265616479206d696e74656400000000600082015250565b7f4552433732313a207472616e7366657220746f20746865207a65726f2061646460008201527f7265737300000000000000000000000000000000000000000000000000000000602082015250565b7f4552433732313a20617070726f766520746f2063616c6c657200000000000000600082015250565b7f4552433732313a206f70657261746f7220717565727920666f72206e6f6e657860008201527f697374656e7420746f6b656e0000000000000000000000000000000000000000602082015250565b7f4d4454503a20746f6b656e4964732e6c656e677468206973206f76657220736960008201527f6e676c654d696e744c696d697400000000000000000000000000000000000000602082015250565b7f4552433732313a20617070726f76652063616c6c6572206973206e6f74206f7760008201527f6e6572206e6f7220617070726f76656420666f7220616c6c0000000000000000602082015250565b7f4552433732313a2062616c616e636520717565727920666f7220746865207a6560008201527f726f206164647265737300000000000000000000000000000000000000000000602082015250565b7f4552433732313a206f776e657220717565727920666f72206e6f6e657869737460008201527f656e7420746f6b656e0000000000000000000000000000000000000000000000602082015250565b7f4d4454503a20686569676874206d757374206265203e20300000000000000000600082015250565b7f4552433732313a206d696e7420746f20746865207a65726f2061646472657373600082015250565b7f4d4454503a20726561636865642063757272656e74206d696e74696e67206c6960008201527f6d69740000000000000000000000000000000000000000000000000000000000602082015250565b7f4552433732313a20617070726f76656420717565727920666f72206e6f6e657860008201527f697374656e7420746f6b656e0000000000000000000000000000000000000000602082015250565b7f4d4454503a2063616c6c6572206973206e6f742074686520746f6b656e4f776e60008201527f6572000000000000000000000000000000000000000000000000000000000000602082015250565b7f4f776e61626c653a2063616c6c6572206973206e6f7420746865206f776e6572600082015250565b7f4552433732313a207472616e73666572206f6620746f6b656e2074686174206960008201527f73206e6f74206f776e0000000000000000000000000000000000000000000000602082015250565b7f4552433732313a20617070726f76616c20746f2063757272656e74206f776e6560008201527f7200000000000000000000000000000000000000000000000000000000000000602082015250565b7f41646d696e3a2063616c6c6572206973206e6f7420616e2061646d696e000000600082015250565b7f4d4454503a207769647468206d757374206265203e2030000000000000000000600082015250565b7f4d4454503a20496e73756666696369656e74207061796d656e74000000000000600082015250565b7f4552433732313a207472616e736665722063616c6c6572206973206e6f74206f60008201527f776e6572206e6f7220617070726f766564000000000000000000000000000000602082015250565b7f4d4454503a20696e76616c696420696e64657800000000000000000000000000600082015250565b6144c081613c26565b81146144cb57600080fd5b50565b6144d781613c38565b81146144e257600080fd5b50565b6144ee81613c44565b81146144f957600080fd5b50565b61450581613c70565b811461451057600080fd5b50565b61451c81613c9e565b811461452757600080fd5b50565b61453381613ca8565b811461453e57600080fd5b5056fe68747470733a2f2f6170692e6d6474702e636f2f746f6b656e2d6d65746164617461732f68747470733a2f2f6170692e6d6474702e636f2f746f6b656e2d64656661756c742d636f6e74656e74732fa2646970667358221220e9b161c6fef76e1e7a06525082b2c181f94978856aa710f07da69bfd0097d60364736f6c63430008040033",
  "linkReferences": {},
  "deployedLinkReferences": {}
}