{
  "_format": "hh-sol-artifact-1",
  "contractName": "MillionDollarTokenPage",
  "sourceName": "contracts/MillionDollarTokenPage.sol",
  "abi": [
    {
      "inputs": [],
      "stateMutability": "nonpayable",
      "type": "constructor"
    },
    {
      "anonymous": false,
      "inputs": [
        {
          "indexed": true,
          "internalType": "address",
          "name": "owner",
          "type": "address"
        },
        {
          "indexed": true,
          "internalType": "address",
          "name": "approved",
          "type": "address"
        },
        {
          "indexed": true,
          "internalType": "uint256",
          "name": "tokenId",
          "type": "uint256"
        }
      ],
      "name": "Approval",
      "type": "event"
    },
    {
      "anonymous": false,
      "inputs": [
        {
          "indexed": true,
          "internalType": "address",
          "name": "owner",
          "type": "address"
        },
        {
          "indexed": true,
          "internalType": "address",
          "name": "operator",
          "type": "address"
        },
        {
          "indexed": false,
          "internalType": "bool",
          "name": "approved",
          "type": "bool"
        }
      ],
      "name": "ApprovalForAll",
      "type": "event"
    },
    {
      "anonymous": false,
      "inputs": [
        {
          "indexed": true,
          "internalType": "address",
          "name": "previousOwner",
          "type": "address"
        },
        {
          "indexed": true,
          "internalType": "address",
          "name": "newOwner",
          "type": "address"
        }
      ],
      "name": "OwnershipTransferred",
      "type": "event"
    },
    {
      "anonymous": false,
      "inputs": [
        {
          "indexed": true,
          "internalType": "uint256",
          "name": "tokenId",
          "type": "uint256"
        }
      ],
      "name": "TokenContentURIChanged",
      "type": "event"
    },
    {
      "anonymous": false,
      "inputs": [
        {
          "indexed": true,
          "internalType": "address",
          "name": "from",
          "type": "address"
        },
        {
          "indexed": true,
          "internalType": "address",
          "name": "to",
          "type": "address"
        },
        {
          "indexed": true,
          "internalType": "uint256",
          "name": "tokenId",
          "type": "uint256"
        }
      ],
      "name": "Transfer",
      "type": "event"
    },
    {
      "inputs": [],
      "name": "SUPPLY_LIMIT",
      "outputs": [
        {
          "internalType": "uint16",
          "name": "",
          "type": "uint16"
        }
      ],
      "stateMutability": "view",
      "type": "function"
    },
    {
      "inputs": [
        {
          "internalType": "address",
          "name": "",
          "type": "address"
        }
      ],
      "name": "_admins",
      "outputs": [
        {
          "internalType": "bool",
          "name": "",
          "type": "bool"
        }
      ],
      "stateMutability": "view",
      "type": "function"
    },
    {
      "inputs": [
        {
          "internalType": "address",
          "name": "to",
          "type": "address"
        },
        {
          "internalType": "uint256",
          "name": "tokenId",
          "type": "uint256"
        }
      ],
      "name": "approve",
      "outputs": [],
      "stateMutability": "nonpayable",
      "type": "function"
    },
    {
      "inputs": [
        {
          "internalType": "address",
          "name": "owner",
          "type": "address"
        }
      ],
      "name": "balanceOf",
      "outputs": [
        {
          "internalType": "uint256",
          "name": "",
          "type": "uint256"
        }
      ],
      "stateMutability": "view",
      "type": "function"
    },
    {
      "inputs": [
        {
          "internalType": "uint256",
          "name": "tokenId",
          "type": "uint256"
        }
      ],
      "name": "getApproved",
      "outputs": [
        {
          "internalType": "address",
          "name": "",
          "type": "address"
        }
      ],
      "stateMutability": "view",
      "type": "function"
    },
    {
      "inputs": [
        {
          "internalType": "address",
          "name": "owner",
          "type": "address"
        },
        {
          "internalType": "address",
          "name": "operator",
          "type": "address"
        }
      ],
      "name": "isApprovedForAll",
      "outputs": [
        {
          "internalType": "bool",
          "name": "",
          "type": "bool"
        }
      ],
      "stateMutability": "view",
      "type": "function"
    },
    {
      "inputs": [
        {
          "internalType": "uint256",
          "name": "tokenId",
          "type": "uint256"
        }
      ],
      "name": "mint",
      "outputs": [],
      "stateMutability": "payable",
      "type": "function"
    },
    {
      "inputs": [
        {
          "internalType": "uint256",
          "name": "tokenId",
          "type": "uint256"
        }
      ],
      "name": "mintAdmin",
      "outputs": [],
      "stateMutability": "nonpayable",
      "type": "function"
    },
    {
      "inputs": [
        {
          "internalType": "uint256[]",
          "name": "tokenIds",
          "type": "uint256[]"
        }
      ],
      "name": "mintMany",
      "outputs": [],
      "stateMutability": "payable",
      "type": "function"
    },
    {
      "inputs": [
        {
          "internalType": "uint256[]",
          "name": "tokenIds",
          "type": "uint256[]"
        }
      ],
      "name": "mintManyAdmin",
      "outputs": [],
      "stateMutability": "payable",
      "type": "function"
    },
    {
      "inputs": [],
      "name": "mintPrice",
      "outputs": [
        {
          "internalType": "uint256",
          "name": "",
          "type": "uint256"
        }
      ],
      "stateMutability": "view",
      "type": "function"
    },
    {
      "inputs": [],
      "name": "mintedCount",
      "outputs": [
        {
          "internalType": "uint256",
          "name": "",
          "type": "uint256"
        }
      ],
      "stateMutability": "view",
      "type": "function"
    },
    {
      "inputs": [],
      "name": "name",
      "outputs": [
        {
          "internalType": "string",
          "name": "",
          "type": "string"
        }
      ],
      "stateMutability": "view",
      "type": "function"
    },
    {
      "inputs": [],
      "name": "owner",
      "outputs": [
        {
          "internalType": "address",
          "name": "",
          "type": "address"
        }
      ],
      "stateMutability": "view",
      "type": "function"
    },
    {
      "inputs": [
        {
          "internalType": "uint256",
          "name": "tokenId",
          "type": "uint256"
        }
      ],
      "name": "ownerOf",
      "outputs": [
        {
          "internalType": "address",
          "name": "",
          "type": "address"
        }
      ],
      "stateMutability": "view",
      "type": "function"
    },
    {
      "inputs": [],
      "name": "renounceOwnership",
      "outputs": [],
      "stateMutability": "nonpayable",
      "type": "function"
    },
    {
      "inputs": [
        {
          "internalType": "address",
          "name": "from",
          "type": "address"
        },
        {
          "internalType": "address",
          "name": "to",
          "type": "address"
        },
        {
          "internalType": "uint256",
          "name": "tokenId",
          "type": "uint256"
        }
      ],
      "name": "safeTransferFrom",
      "outputs": [],
      "stateMutability": "nonpayable",
      "type": "function"
    },
    {
      "inputs": [
        {
          "internalType": "address",
          "name": "from",
          "type": "address"
        },
        {
          "internalType": "address",
          "name": "to",
          "type": "address"
        },
        {
          "internalType": "uint256",
          "name": "tokenId",
          "type": "uint256"
        },
        {
          "internalType": "bytes",
          "name": "_data",
          "type": "bytes"
        }
      ],
      "name": "safeTransferFrom",
      "outputs": [],
      "stateMutability": "nonpayable",
      "type": "function"
    },
    {
      "inputs": [
        {
          "internalType": "address",
          "name": "admin",
          "type": "address"
        },
        {
          "internalType": "bool",
          "name": "state",
          "type": "bool"
        }
      ],
      "name": "setAdmin",
      "outputs": [],
      "stateMutability": "nonpayable",
      "type": "function"
    },
    {
      "inputs": [
        {
          "internalType": "address",
          "name": "operator",
          "type": "address"
        },
        {
          "internalType": "bool",
          "name": "approved",
          "type": "bool"
        }
      ],
      "name": "setApprovalForAll",
      "outputs": [],
      "stateMutability": "nonpayable",
      "type": "function"
    },
    {
      "inputs": [
        {
          "internalType": "uint256",
          "name": "newMintPrice",
          "type": "uint256"
        }
      ],
      "name": "setMintPrice",
      "outputs": [],
      "stateMutability": "nonpayable",
      "type": "function"
    },
    {
      "inputs": [
        {
          "internalType": "uint16",
          "name": "newSingleMintLimit",
          "type": "uint16"
        }
      ],
      "name": "setSingleMintLimit",
      "outputs": [],
      "stateMutability": "nonpayable",
      "type": "function"
    },
    {
      "inputs": [
        {
          "internalType": "uint256",
          "name": "tokenId",
          "type": "uint256"
        },
        {
          "internalType": "string",
          "name": "metadataURI",
          "type": "string"
        }
      ],
      "name": "setTokenContentURI",
      "outputs": [],
      "stateMutability": "nonpayable",
      "type": "function"
    },
    {
      "inputs": [
        {
          "internalType": "uint16",
          "name": "newTotalMintLimit",
          "type": "uint16"
        }
      ],
      "name": "setTotalMintLimit",
      "outputs": [],
      "stateMutability": "nonpayable",
      "type": "function"
    },
    {
      "inputs": [],
      "name": "singleMintLimit",
      "outputs": [
        {
          "internalType": "uint16",
          "name": "",
          "type": "uint16"
        }
      ],
      "stateMutability": "view",
      "type": "function"
    },
    {
      "inputs": [
        {
          "internalType": "bytes4",
          "name": "interfaceId",
          "type": "bytes4"
        }
      ],
      "name": "supportsInterface",
      "outputs": [
        {
          "internalType": "bool",
          "name": "",
          "type": "bool"
        }
      ],
      "stateMutability": "view",
      "type": "function"
    },
    {
      "inputs": [],
      "name": "symbol",
      "outputs": [
        {
          "internalType": "string",
          "name": "",
          "type": "string"
        }
      ],
      "stateMutability": "view",
      "type": "function"
    },
    {
      "inputs": [
        {
          "internalType": "uint256",
          "name": "index",
          "type": "uint256"
        }
      ],
      "name": "tokenByIndex",
      "outputs": [
        {
          "internalType": "uint256",
          "name": "",
          "type": "uint256"
        }
      ],
      "stateMutability": "pure",
      "type": "function"
    },
    {
      "inputs": [
        {
          "internalType": "uint256",
          "name": "tokenId",
          "type": "uint256"
        }
      ],
      "name": "tokenContentURI",
      "outputs": [
        {
          "internalType": "string",
          "name": "",
          "type": "string"
        }
      ],
      "stateMutability": "view",
      "type": "function"
    },
    {
      "inputs": [
        {
          "internalType": "address",
          "name": "owner",
          "type": "address"
        },
        {
          "internalType": "uint256",
          "name": "index",
          "type": "uint256"
        }
      ],
      "name": "tokenOfOwnerByIndex",
      "outputs": [
        {
          "internalType": "uint256",
          "name": "tokenId",
          "type": "uint256"
        }
      ],
      "stateMutability": "view",
      "type": "function"
    },
    {
      "inputs": [
        {
          "internalType": "uint256",
          "name": "tokenId",
          "type": "uint256"
        }
      ],
      "name": "tokenURI",
      "outputs": [
        {
          "internalType": "string",
          "name": "",
          "type": "string"
        }
      ],
      "stateMutability": "pure",
      "type": "function"
    },
    {
      "inputs": [],
      "name": "totalMintLimit",
      "outputs": [
        {
          "internalType": "uint16",
          "name": "",
          "type": "uint16"
        }
      ],
      "stateMutability": "view",
      "type": "function"
    },
    {
      "inputs": [],
      "name": "totalSupply",
      "outputs": [
        {
          "internalType": "uint256",
          "name": "",
          "type": "uint256"
        }
      ],
      "stateMutability": "pure",
      "type": "function"
    },
    {
      "inputs": [
        {
          "internalType": "address",
          "name": "from",
          "type": "address"
        },
        {
          "internalType": "address",
          "name": "to",
          "type": "address"
        },
        {
          "internalType": "uint256",
          "name": "tokenId",
          "type": "uint256"
        }
      ],
      "name": "transferFrom",
      "outputs": [],
      "stateMutability": "nonpayable",
      "type": "function"
    },
    {
      "inputs": [
        {
          "internalType": "address",
          "name": "newOwner",
          "type": "address"
        }
      ],
      "name": "transferOwnership",
      "outputs": [],
      "stateMutability": "nonpayable",
      "type": "function"
    },
    {
      "inputs": [],
      "name": "withdraw",
      "outputs": [],
      "stateMutability": "nonpayable",
      "type": "function"
    }
  ],
  "bytecode": "0x60806040526103e8600c60006101000a81548161ffff021916908361ffff1602179055506014600c60026101000a81548161ffff021916908361ffff1602179055506000600d553480156200005357600080fd5b506040518060400160405280601681526020017f4d696c6c696f6e446f6c6c6172546f6b656e50616765000000000000000000008152506040518060400160405280600381526020017fe28aa100000000000000000000000000000000000000000000000000000000008152508160009080519060200190620000d89291906200021a565b508060019080519060200190620000f19291906200021a565b5050506000620001066200021260201b60201c565b905080600760006101000a81548173ffffffffffffffffffffffffffffffffffffffff021916908373ffffffffffffffffffffffffffffffffffffffff1602179055508073ffffffffffffffffffffffffffffffffffffffff16600073ffffffffffffffffffffffffffffffffffffffff167f8be0079c531659141344cd1fd0a4f28419497f9722a3daafe3b4186f6b6457e060405160405180910390a350600160066000620001bb6200021260201b60201c565b73ffffffffffffffffffffffffffffffffffffffff1673ffffffffffffffffffffffffffffffffffffffff16815260200190815260200160002060006101000a81548160ff0219169083151502179055506200032f565b600033905090565b8280546200022890620002ca565b90600052602060002090601f0160209004810192826200024c576000855562000298565b82601f106200026757805160ff191683800117855562000298565b8280016001018555821562000298579182015b82811115620002975782518255916020019190600101906200027a565b5b509050620002a79190620002ab565b5090565b5b80821115620002c6576000816000905550600101620002ac565b5090565b60006002820490506001821680620002e357607f821691505b60208210811415620002fa57620002f962000300565b5b50919050565b7f4e487b7100000000000000000000000000000000000000000000000000000000600052602260045260246000fd5b61444e806200033f6000396000f3fe60806040526004361061020f5760003560e01c806370a0823111610118578063b88d4fde116100a0578063e4f3c3db1161006f578063e4f3c3db14610793578063e8d44caf146107af578063e985e9c5146107d8578063f2fde38b14610815578063f4a0a5281461083e5761020f565b8063b88d4fde146106d7578063c742856614610700578063c87b56dd1461072b578063cf721b15146107685761020f565b80638da5cb5b116100e75780638da5cb5b1461061357806395d89b411461063e578063a0712d6814610669578063a1ae82e514610685578063a22cb465146106ae5761020f565b806370a082311461056b578063715018a6146105a857806376dd1f86146105bf5780638d50645a146105ea5761020f565b80632f745c591161019b5780634b0bddd21161016a5780634b0bddd2146104745780634f6ccce71461049d5780636352211e146104da578063677ab70b146105175780636817c76c146105405761020f565b80632f745c59146103cc5780633906f560146104095780633ccfd60b1461043457806342842e0e1461044b5761020f565b80630c0a9d26116101e25780630c0a9d26146102e25780630d5e20531461031f57806318160ddd1461035c5780631fb850c31461038757806323b872dd146103a35761020f565b806301ffc9a71461021457806306fdde0314610251578063081812fc1461027c578063095ea7b3146102b9575b600080fd5b34801561022057600080fd5b5061023b600480360381019061023691906130ac565b610867565b6040516102489190613610565b60405180910390f35b34801561025d57600080fd5b50610266610949565b604051610273919061362b565b60405180910390f35b34801561028857600080fd5b506102a3600480360381019061029e9190613127565b6109db565b6040516102b091906135a9565b60405180910390f35b3480156102c557600080fd5b506102e060048036038101906102db919061302f565b610a60565b005b3480156102ee57600080fd5b5061030960048036038101906103049190613127565b610b78565b604051610316919061362b565b60405180910390f35b34801561032b57600080fd5b5061034660048036038101906103419190612ec4565b610c67565b6040516103539190613610565b60405180910390f35b34801561036857600080fd5b50610371610c87565b60405161037e9190613928565b60405180910390f35b6103a1600480360381019061039c919061306b565b610c95565b005b3480156103af57600080fd5b506103ca60048036038101906103c59190612f29565b610d01565b005b3480156103d857600080fd5b506103f360048036038101906103ee919061302f565b610d61565b6040516104009190613928565b60405180910390f35b34801561041557600080fd5b5061041e610dbc565b60405161042b919061390d565b60405180910390f35b34801561044057600080fd5b50610449610dc2565b005b34801561045757600080fd5b50610472600480360381019061046d9190612f29565b610e8d565b005b34801561048057600080fd5b5061049b60048036038101906104969190612ff3565b610ead565b005b3480156104a957600080fd5b506104c460048036038101906104bf9190613127565b610f94565b6040516104d19190613928565b60405180910390f35b3480156104e657600080fd5b5061050160048036038101906104fc9190613127565b610ffe565b60405161050e91906135a9565b60405180910390f35b34801561052357600080fd5b5061053e60048036038101906105399190613127565b6110b0565b005b34801561054c57600080fd5b50610555611148565b6040516105629190613928565b60405180910390f35b34801561057757600080fd5b50610592600480360381019061058d9190612ec4565b61114e565b60405161059f9190613928565b60405180910390f35b3480156105b457600080fd5b506105bd611206565b005b3480156105cb57600080fd5b506105d4611343565b6040516105e1919061390d565b60405180910390f35b3480156105f657600080fd5b50610611600480360381019061060c9190613150565b611357565b005b34801561061f57600080fd5b506106286113e4565b60405161063591906135a9565b60405180910390f35b34801561064a57600080fd5b5061065361140e565b604051610660919061362b565b60405180910390f35b610683600480360381019061067e9190613127565b6114a0565b005b34801561069157600080fd5b506106ac60048036038101906106a791906130fe565b61155b565b005b3480156106ba57600080fd5b506106d560048036038101906106d09190612ff3565b611607565b005b3480156106e357600080fd5b506106fe60048036038101906106f99190612f78565b611788565b005b34801561070c57600080fd5b506107156117ea565b604051610722919061390d565b60405180910390f35b34801561073757600080fd5b50610752600480360381019061074d9190613127565b6117fe565b60405161075f919061362b565b60405180910390f35b34801561077457600080fd5b5061077d61183e565b60405161078a9190613928565b60405180910390f35b6107ad60048036038101906107a8919061306b565b61184b565b005b3480156107bb57600080fd5b506107d660048036038101906107d191906130fe565b6119d1565b005b3480156107e457600080fd5b506107ff60048036038101906107fa9190612eed565b611a7d565b60405161080c9190613610565b60405180910390f35b34801561082157600080fd5b5061083c60048036038101906108379190612ec4565b611b11565b005b34801561084a57600080fd5b5061086560048036038101906108609190613127565b611cbd565b005b60007f80ac58cd000000000000000000000000000000000000000000000000000000007bffffffffffffffffffffffffffffffffffffffffffffffffffffffff1916827bffffffffffffffffffffffffffffffffffffffffffffffffffffffff1916148061093257507f5b5e139f000000000000000000000000000000000000000000000000000000007bffffffffffffffffffffffffffffffffffffffffffffffffffffffff1916827bffffffffffffffffffffffffffffffffffffffffffffffffffffffff1916145b80610942575061094182611d53565b5b9050919050565b60606000805461095890613c12565b80601f016020809104026020016040519081016040528092919081815260200182805461098490613c12565b80156109d15780601f106109a6576101008083540402835291602001916109d1565b820191906000526020600020905b8154815290600101906020018083116109b457829003601f168201915b5050505050905090565b60006109e682611dbd565b610a25576040517f08c379a0000000000000000000000000000000000000000000000000000000008152600401610a1c906137ed565b60405180910390fd5b6004600083815260200190815260200160002060009054906101000a900473ffffffffffffffffffffffffffffffffffffffff169050919050565b6000610a6b82610ffe565b90508073ffffffffffffffffffffffffffffffffffffffff168373ffffffffffffffffffffffffffffffffffffffff161415610adc576040517f08c379a0000000000000000000000000000000000000000000000000000000008152600401610ad39061386d565b60405180910390fd5b8073ffffffffffffffffffffffffffffffffffffffff16610afb611e29565b73ffffffffffffffffffffffffffffffffffffffff161480610b2a5750610b2981610b24611e29565b611a7d565b5b610b69576040517f08c379a0000000000000000000000000000000000000000000000000000000008152600401610b609061374d565b60405180910390fd5b610b738383611e31565b505050565b60606000600860008481526020019081526020016000208054610b9a90613c12565b80601f0160208091040260200160405190810160405280929190818152602001828054610bc690613c12565b8015610c135780601f10610be857610100808354040283529160200191610c13565b820191906000526020600020905b815481529060010190602001808311610bf657829003601f168201915b50505050509050600081511115610c2d5780915050610c62565b610c35611eea565b610c3e84611f0a565b604051602001610c4f929190613585565b6040516020818303038152906040529150505b919050565b60066020528060005260406000206000915054906101000a900460ff1681565b600061271061ffff16905090565b60005b8151811015610cfd57610cea828281518110610cdd577f4e487b7100000000000000000000000000000000000000000000000000000000600052603260045260246000fd5b60200260200101516120b7565b8080610cf590613c75565b915050610c98565b5050565b610d12610d0c611e29565b82612119565b610d51576040517f08c379a0000000000000000000000000000000000000000000000000000000008152600401610d48906138cd565b60405180910390fd5b610d5c8383836121f7565b505050565b6000600960008473ffffffffffffffffffffffffffffffffffffffff1673ffffffffffffffffffffffffffffffffffffffff168152602001908152602001600020600083815260200190815260200160002054905092915050565b61271081565b610dca611e29565b73ffffffffffffffffffffffffffffffffffffffff16610de86113e4565b73ffffffffffffffffffffffffffffffffffffffff1614610e3e576040517f08c379a0000000000000000000000000000000000000000000000000000000008152600401610e359061382d565b60405180910390fd5b60004790503373ffffffffffffffffffffffffffffffffffffffff166108fc829081150290604051600060405180830381858888f19350505050158015610e89573d6000803e3d6000fd5b5050565b610ea883838360405180602001604052806000815250611788565b505050565b600660003373ffffffffffffffffffffffffffffffffffffffff1673ffffffffffffffffffffffffffffffffffffffff16815260200190815260200160002060009054906101000a900460ff16610f39576040517f08c379a0000000000000000000000000000000000000000000000000000000008152600401610f309061388d565b60405180910390fd5b80600660008473ffffffffffffffffffffffffffffffffffffffff1673ffffffffffffffffffffffffffffffffffffffff16815260200190815260200160002060006101000a81548160ff0219169083151502179055505050565b6000808210158015610fab575061271061ffff1682105b610fea576040517f08c379a0000000000000000000000000000000000000000000000000000000008152600401610fe1906138ed565b60405180910390fd5b600182610ff79190613a39565b9050919050565b6000806002600084815260200190815260200160002060009054906101000a900473ffffffffffffffffffffffffffffffffffffffff169050600073ffffffffffffffffffffffffffffffffffffffff168173ffffffffffffffffffffffffffffffffffffffff1614156110a7576040517f08c379a000000000000000000000000000000000000000000000000000000000815260040161109e9061378d565b60405180910390fd5b80915050919050565b600660003373ffffffffffffffffffffffffffffffffffffffff1673ffffffffffffffffffffffffffffffffffffffff16815260200190815260200160002060009054906101000a900460ff1661113c576040517f08c379a00000000000000000000000000000000000000000000000000000000081526004016111339061388d565b60405180910390fd5b611145816120b7565b50565b600d5481565b60008073ffffffffffffffffffffffffffffffffffffffff168273ffffffffffffffffffffffffffffffffffffffff1614156111bf576040517f08c379a00000000000000000000000000000000000000000000000000000000081526004016111b69061376d565b60405180910390fd5b600360008373ffffffffffffffffffffffffffffffffffffffff1673ffffffffffffffffffffffffffffffffffffffff168152602001908152602001600020549050919050565b61120e611e29565b73ffffffffffffffffffffffffffffffffffffffff1661122c6113e4565b73ffffffffffffffffffffffffffffffffffffffff1614611282576040517f08c379a00000000000000000000000000000000000000000000000000000000081526004016112799061382d565b60405180910390fd5b600073ffffffffffffffffffffffffffffffffffffffff16600760009054906101000a900473ffffffffffffffffffffffffffffffffffffffff1673ffffffffffffffffffffffffffffffffffffffff167f8be0079c531659141344cd1fd0a4f28419497f9722a3daafe3b4186f6b6457e060405160405180910390a36000600760006101000a81548173ffffffffffffffffffffffffffffffffffffffff021916908373ffffffffffffffffffffffffffffffffffffffff160217905550565b600c60009054906101000a900461ffff1681565b81611360611e29565b73ffffffffffffffffffffffffffffffffffffffff1661137f82610ffe565b73ffffffffffffffffffffffffffffffffffffffff16146113d5576040517f08c379a00000000000000000000000000000000000000000000000000000000081526004016113cc9061380d565b60405180910390fd5b6113df8383612453565b505050565b6000600760009054906101000a900473ffffffffffffffffffffffffffffffffffffffff16905090565b60606001805461141d90613c12565b80601f016020809104026020016040519081016040528092919081815260200182805461144990613c12565b80156114965780601f1061146b57610100808354040283529160200191611496565b820191906000526020600020905b81548152906001019060200180831161147957829003601f168201915b5050505050905090565b600d543410156114e5576040517f08c379a00000000000000000000000000000000000000000000000000000000081526004016114dc906138ad565b60405180910390fd5b600c60009054906101000a900461ffff1661ffff16600161150461183e565b61150e9190613a39565b111561154f576040517f08c379a0000000000000000000000000000000000000000000000000000000008152600401611546906137cd565b60405180910390fd5b611558816120b7565b50565b600660003373ffffffffffffffffffffffffffffffffffffffff1673ffffffffffffffffffffffffffffffffffffffff16815260200190815260200160002060009054906101000a900460ff166115e7576040517f08c379a00000000000000000000000000000000000000000000000000000000081526004016115de9061388d565b60405180910390fd5b80600c60006101000a81548161ffff021916908361ffff16021790555050565b61160f611e29565b73ffffffffffffffffffffffffffffffffffffffff168273ffffffffffffffffffffffffffffffffffffffff16141561167d576040517f08c379a0000000000000000000000000000000000000000000000000000000008152600401611674906136ed565b60405180910390fd5b806005600061168a611e29565b73ffffffffffffffffffffffffffffffffffffffff1673ffffffffffffffffffffffffffffffffffffffff16815260200190815260200160002060008473ffffffffffffffffffffffffffffffffffffffff1673ffffffffffffffffffffffffffffffffffffffff16815260200190815260200160002060006101000a81548160ff0219169083151502179055508173ffffffffffffffffffffffffffffffffffffffff16611737611e29565b73ffffffffffffffffffffffffffffffffffffffff167f17307eab39ab6107e8899845ad3d59bd9653f200f220920489ca2b5937696c318360405161177c9190613610565b60405180910390a35050565b611799611793611e29565b83612119565b6117d8576040517f08c379a00000000000000000000000000000000000000000000000000000000081526004016117cf906138cd565b60405180910390fd5b6117e4848484846124ac565b50505050565b600c60029054906101000a900461ffff1681565b6060600061180a612508565b90508061181684611f0a565b604051602001611827929190613585565b604051602081830303815290604052915050919050565b6000600b80549050905090565b6118618151600d5461252890919063ffffffff16565b3410156118a3576040517f08c379a000000000000000000000000000000000000000000000000000000000815260040161189a906138ad565b60405180910390fd5b600c60009054906101000a900461ffff1661ffff1681516118c261183e565b6118cc9190613a39565b111561190d576040517f08c379a0000000000000000000000000000000000000000000000000000000008152600401611904906137cd565b60405180910390fd5b600c60029054906101000a900461ffff1661ffff1681511115611965576040517f08c379a000000000000000000000000000000000000000000000000000000000815260040161195c9061372d565b60405180910390fd5b60005b81518110156119cd576119ba8282815181106119ad577f4e487b7100000000000000000000000000000000000000000000000000000000600052603260045260246000fd5b60200260200101516120b7565b80806119c590613c75565b915050611968565b5050565b600660003373ffffffffffffffffffffffffffffffffffffffff1673ffffffffffffffffffffffffffffffffffffffff16815260200190815260200160002060009054906101000a900460ff16611a5d576040517f08c379a0000000000000000000000000000000000000000000000000000000008152600401611a549061388d565b60405180910390fd5b80600c60026101000a81548161ffff021916908361ffff16021790555050565b6000600560008473ffffffffffffffffffffffffffffffffffffffff1673ffffffffffffffffffffffffffffffffffffffff16815260200190815260200160002060008373ffffffffffffffffffffffffffffffffffffffff1673ffffffffffffffffffffffffffffffffffffffff16815260200190815260200160002060009054906101000a900460ff16905092915050565b611b19611e29565b73ffffffffffffffffffffffffffffffffffffffff16611b376113e4565b73ffffffffffffffffffffffffffffffffffffffff1614611b8d576040517f08c379a0000000000000000000000000000000000000000000000000000000008152600401611b849061382d565b60405180910390fd5b600073ffffffffffffffffffffffffffffffffffffffff168173ffffffffffffffffffffffffffffffffffffffff161415611bfd576040517f08c379a0000000000000000000000000000000000000000000000000000000008152600401611bf49061368d565b60405180910390fd5b8073ffffffffffffffffffffffffffffffffffffffff16600760009054906101000a900473ffffffffffffffffffffffffffffffffffffffff1673ffffffffffffffffffffffffffffffffffffffff167f8be0079c531659141344cd1fd0a4f28419497f9722a3daafe3b4186f6b6457e060405160405180910390a380600760006101000a81548173ffffffffffffffffffffffffffffffffffffffff021916908373ffffffffffffffffffffffffffffffffffffffff16021790555050565b600660003373ffffffffffffffffffffffffffffffffffffffff1673ffffffffffffffffffffffffffffffffffffffff16815260200190815260200160002060009054906101000a900460ff16611d49576040517f08c379a0000000000000000000000000000000000000000000000000000000008152600401611d409061388d565b60405180910390fd5b80600d8190555050565b60007f01ffc9a7000000000000000000000000000000000000000000000000000000007bffffffffffffffffffffffffffffffffffffffffffffffffffffffff1916827bffffffffffffffffffffffffffffffffffffffffffffffffffffffff1916149050919050565b60008073ffffffffffffffffffffffffffffffffffffffff166002600084815260200190815260200160002060009054906101000a900473ffffffffffffffffffffffffffffffffffffffff1673ffffffffffffffffffffffffffffffffffffffff1614159050919050565b600033905090565b816004600083815260200190815260200160002060006101000a81548173ffffffffffffffffffffffffffffffffffffffff021916908373ffffffffffffffffffffffffffffffffffffffff160217905550808273ffffffffffffffffffffffffffffffffffffffff16611ea483610ffe565b73ffffffffffffffffffffffffffffffffffffffff167f8c5be1e5ebec7d5bd14f71427d1e84f3dd0314c0f7b2291e5b200ac8c7c3b92560405160405180910390a45050565b60606040518060600160405280602b81526020016143ee602b9139905090565b60606000821415611f52576040518060400160405280600181526020017f300000000000000000000000000000000000000000000000000000000000000081525090506120b2565b600082905060005b60008214611f84578080611f6d90613c75565b915050600a82611f7d9190613a8f565b9150611f5a565b60008167ffffffffffffffff811115611fc6577f4e487b7100000000000000000000000000000000000000000000000000000000600052604160045260246000fd5b6040519080825280601f01601f191660200182016040528015611ff85781602001600182028036833780820191505090505b5090505b600085146120ab576001826120119190613b1a565b9150600a856120209190613cbe565b603061202c9190613a39565b60f81b818381518110612068577f4e487b7100000000000000000000000000000000000000000000000000000000600052603260045260246000fd5b60200101907effffffffffffffffffffffffffffffffffffffffffffffffffffffffffffff1916908160001a905350600a856120a49190613a8f565b9450611ffc565b8093505050505b919050565b6000811180156120cd575061271061ffff168111155b61210c576040517f08c379a00000000000000000000000000000000000000000000000000000000081526004016121039061364d565b60405180910390fd5b612116338261253e565b50565b600061212482611dbd565b612163576040517f08c379a000000000000000000000000000000000000000000000000000000000815260040161215a9061370d565b60405180910390fd5b600061216e83610ffe565b90508073ffffffffffffffffffffffffffffffffffffffff168473ffffffffffffffffffffffffffffffffffffffff1614806121dd57508373ffffffffffffffffffffffffffffffffffffffff166121c5846109db565b73ffffffffffffffffffffffffffffffffffffffff16145b806121ee57506121ed8185611a7d565b5b91505092915050565b8273ffffffffffffffffffffffffffffffffffffffff1661221782610ffe565b73ffffffffffffffffffffffffffffffffffffffff161461226d576040517f08c379a00000000000000000000000000000000000000000000000000000000081526004016122649061384d565b60405180910390fd5b600073ffffffffffffffffffffffffffffffffffffffff168273ffffffffffffffffffffffffffffffffffffffff1614156122dd576040517f08c379a00000000000000000000000000000000000000000000000000000000081526004016122d4906136cd565b60405180910390fd5b6122e883838361255c565b6122f3600082611e31565b6001600360008573ffffffffffffffffffffffffffffffffffffffff1673ffffffffffffffffffffffffffffffffffffffff16815260200190815260200160002060008282546123439190613b1a565b925050819055506001600360008473ffffffffffffffffffffffffffffffffffffffff1673ffffffffffffffffffffffffffffffffffffffff168152602001908152602001600020600082825461239a9190613a39565b92505081905550816002600083815260200190815260200160002060006101000a81548173ffffffffffffffffffffffffffffffffffffffff021916908373ffffffffffffffffffffffffffffffffffffffff160217905550808273ffffffffffffffffffffffffffffffffffffffff168473ffffffffffffffffffffffffffffffffffffffff167fddf252ad1be2c89b69c2b068fc378daa952ba7f163c4a11628f55a4df523b3ef60405160405180910390a4505050565b8060086000848152602001908152602001600020908051906020019061247a929190612bfd565b50817fd26ab77304eac64a04df2018c66716ad9c938c7b11429b56a46c017768172d1b60405160405180910390a25050565b6124b78484846121f7565b6124c384848484612825565b612502576040517f08c379a00000000000000000000000000000000000000000000000000000000081526004016124f99061366d565b60405180910390fd5b50505050565b60606040518060600160405280602481526020016143ca60249139905090565b600081836125369190613ac0565b905092915050565b6125588282604051806020016040528060008152506129bc565b5050565b612567838383612a17565b8273ffffffffffffffffffffffffffffffffffffffff168273ffffffffffffffffffffffffffffffffffffffff161461282057600073ffffffffffffffffffffffffffffffffffffffff168373ffffffffffffffffffffffffffffffffffffffff1614156125fd57600b81908060018154018082558091505060019003906000526020600020016000909190919091505561276f565b6000600161260a8561114e565b6126149190613b1a565b90506000600a60008481526020019081526020016000205490508181146126f9576000600960008773ffffffffffffffffffffffffffffffffffffffff1673ffffffffffffffffffffffffffffffffffffffff168152602001908152602001600020600084815260200190815260200160002054905080600960008873ffffffffffffffffffffffffffffffffffffffff1673ffffffffffffffffffffffffffffffffffffffff16815260200190815260200160002060008481526020019081526020016000208190555081600a600083815260200190815260200160002081905550505b600960008673ffffffffffffffffffffffffffffffffffffffff1673ffffffffffffffffffffffffffffffffffffffff16815260200190815260200160002060008381526020019081526020016000206000905560086000848152602001908152602001600020600061276c9190612c83565b50505b600073ffffffffffffffffffffffffffffffffffffffff168273ffffffffffffffffffffffffffffffffffffffff161461281f5760006127ae8361114e565b905081600960008573ffffffffffffffffffffffffffffffffffffffff1673ffffffffffffffffffffffffffffffffffffffff16815260200190815260200160002060008381526020019081526020016000208190555080600a600084815260200190815260200160002081905550505b5b505050565b60006128468473ffffffffffffffffffffffffffffffffffffffff16612a1c565b156129af578373ffffffffffffffffffffffffffffffffffffffff1663150b7a0261286f611e29565b8786866040518563ffffffff1660e01b815260040161289194939291906135c4565b602060405180830381600087803b1580156128ab57600080fd5b505af19250505080156128dc57506040513d601f19601f820116820180604052508101906128d991906130d5565b60015b61295f573d806000811461290c576040519150601f19603f3d011682016040523d82523d6000602084013e612911565b606091505b50600081511415612957576040517f08c379a000000000000000000000000000000000000000000000000000000000815260040161294e9061366d565b60405180910390fd5b805181602001fd5b63150b7a0260e01b7bffffffffffffffffffffffffffffffffffffffffffffffffffffffff1916817bffffffffffffffffffffffffffffffffffffffffffffffffffffffff1916149150506129b4565b600190505b949350505050565b6129c68383612a2f565b6129d36000848484612825565b612a12576040517f08c379a0000000000000000000000000000000000000000000000000000000008152600401612a099061366d565b60405180910390fd5b505050565b505050565b600080823b905060008111915050919050565b600073ffffffffffffffffffffffffffffffffffffffff168273ffffffffffffffffffffffffffffffffffffffff161415612a9f576040517f08c379a0000000000000000000000000000000000000000000000000000000008152600401612a96906137ad565b60405180910390fd5b612aa881611dbd565b15612ae8576040517f08c379a0000000000000000000000000000000000000000000000000000000008152600401612adf906136ad565b60405180910390fd5b612af46000838361255c565b6001600360008473ffffffffffffffffffffffffffffffffffffffff1673ffffffffffffffffffffffffffffffffffffffff1681526020019081526020016000206000828254612b449190613a39565b92505081905550816002600083815260200190815260200160002060006101000a81548173ffffffffffffffffffffffffffffffffffffffff021916908373ffffffffffffffffffffffffffffffffffffffff160217905550808273ffffffffffffffffffffffffffffffffffffffff16600073ffffffffffffffffffffffffffffffffffffffff167fddf252ad1be2c89b69c2b068fc378daa952ba7f163c4a11628f55a4df523b3ef60405160405180910390a45050565b828054612c0990613c12565b90600052602060002090601f016020900481019282612c2b5760008555612c72565b82601f10612c4457805160ff1916838001178555612c72565b82800160010185558215612c72579182015b82811115612c71578251825591602001919060010190612c56565b5b509050612c7f9190612cc3565b5090565b508054612c8f90613c12565b6000825580601f10612ca15750612cc0565b601f016020900490600052602060002090810190612cbf9190612cc3565b5b50565b5b80821115612cdc576000816000905550600101612cc4565b5090565b6000612cf3612cee84613968565b613943565b90508083825260208201905082856020860282011115612d1257600080fd5b60005b85811015612d425781612d288882612eaf565b845260208401935060208301925050600181019050612d15565b5050509392505050565b6000612d5f612d5a84613994565b613943565b905082815260208101848484011115612d7757600080fd5b612d82848285613bd0565b509392505050565b6000612d9d612d98846139c5565b613943565b905082815260208101848484011115612db557600080fd5b612dc0848285613bd0565b509392505050565b600081359050612dd781614356565b92915050565b600082601f830112612dee57600080fd5b8135612dfe848260208601612ce0565b91505092915050565b600081359050612e168161436d565b92915050565b600081359050612e2b81614384565b92915050565b600081519050612e4081614384565b92915050565b600082601f830112612e5757600080fd5b8135612e67848260208601612d4c565b91505092915050565b600082601f830112612e8157600080fd5b8135612e91848260208601612d8a565b91505092915050565b600081359050612ea98161439b565b92915050565b600081359050612ebe816143b2565b92915050565b600060208284031215612ed657600080fd5b6000612ee484828501612dc8565b91505092915050565b60008060408385031215612f0057600080fd5b6000612f0e85828601612dc8565b9250506020612f1f85828601612dc8565b9150509250929050565b600080600060608486031215612f3e57600080fd5b6000612f4c86828701612dc8565b9350506020612f5d86828701612dc8565b9250506040612f6e86828701612eaf565b9150509250925092565b60008060008060808587031215612f8e57600080fd5b6000612f9c87828801612dc8565b9450506020612fad87828801612dc8565b9350506040612fbe87828801612eaf565b925050606085013567ffffffffffffffff811115612fdb57600080fd5b612fe787828801612e46565b91505092959194509250565b6000806040838503121561300657600080fd5b600061301485828601612dc8565b925050602061302585828601612e07565b9150509250929050565b6000806040838503121561304257600080fd5b600061305085828601612dc8565b925050602061306185828601612eaf565b9150509250929050565b60006020828403121561307d57600080fd5b600082013567ffffffffffffffff81111561309757600080fd5b6130a384828501612ddd565b91505092915050565b6000602082840312156130be57600080fd5b60006130cc84828501612e1c565b91505092915050565b6000602082840312156130e757600080fd5b60006130f584828501612e31565b91505092915050565b60006020828403121561311057600080fd5b600061311e84828501612e9a565b91505092915050565b60006020828403121561313957600080fd5b600061314784828501612eaf565b91505092915050565b6000806040838503121561316357600080fd5b600061317185828601612eaf565b925050602083013567ffffffffffffffff81111561318e57600080fd5b61319a85828601612e70565b9150509250929050565b6131ad81613b4e565b82525050565b6131bc81613b60565b82525050565b60006131cd826139f6565b6131d78185613a0c565b93506131e7818560208601613bdf565b6131f081613dab565b840191505092915050565b600061320682613a01565b6132108185613a1d565b9350613220818560208601613bdf565b61322981613dab565b840191505092915050565b600061323f82613a01565b6132498185613a2e565b9350613259818560208601613bdf565b80840191505092915050565b6000613272601583613a1d565b915061327d82613dbc565b602082019050919050565b6000613295603283613a1d565b91506132a082613de5565b604082019050919050565b60006132b8602683613a1d565b91506132c382613e34565b604082019050919050565b60006132db601c83613a1d565b91506132e682613e83565b602082019050919050565b60006132fe602483613a1d565b915061330982613eac565b604082019050919050565b6000613321601983613a1d565b915061332c82613efb565b602082019050919050565b6000613344602c83613a1d565b915061334f82613f24565b604082019050919050565b6000613367602d83613a1d565b915061337282613f73565b604082019050919050565b600061338a603883613a1d565b915061339582613fc2565b604082019050919050565b60006133ad602a83613a1d565b91506133b882614011565b604082019050919050565b60006133d0602983613a1d565b91506133db82614060565b604082019050919050565b60006133f3602083613a1d565b91506133fe826140af565b602082019050919050565b6000613416602383613a1d565b9150613421826140d8565b604082019050919050565b6000613439602c83613a1d565b915061344482614127565b604082019050919050565b600061345c602283613a1d565b915061346782614176565b604082019050919050565b600061347f602083613a1d565b915061348a826141c5565b602082019050919050565b60006134a2602983613a1d565b91506134ad826141ee565b604082019050919050565b60006134c5602183613a1d565b91506134d08261423d565b604082019050919050565b60006134e8601d83613a1d565b91506134f38261428c565b602082019050919050565b600061350b601a83613a1d565b9150613516826142b5565b602082019050919050565b600061352e603183613a1d565b9150613539826142de565b604082019050919050565b6000613551601383613a1d565b915061355c8261432d565b602082019050919050565b61357081613b98565b82525050565b61357f81613bc6565b82525050565b60006135918285613234565b915061359d8284613234565b91508190509392505050565b60006020820190506135be60008301846131a4565b92915050565b60006080820190506135d960008301876131a4565b6135e660208301866131a4565b6135f36040830185613576565b818103606083015261360581846131c2565b905095945050505050565b600060208201905061362560008301846131b3565b92915050565b6000602082019050818103600083015261364581846131fb565b905092915050565b6000602082019050818103600083015261366681613265565b9050919050565b6000602082019050818103600083015261368681613288565b9050919050565b600060208201905081810360008301526136a6816132ab565b9050919050565b600060208201905081810360008301526136c6816132ce565b9050919050565b600060208201905081810360008301526136e6816132f1565b9050919050565b6000602082019050818103600083015261370681613314565b9050919050565b6000602082019050818103600083015261372681613337565b9050919050565b600060208201905081810360008301526137468161335a565b9050919050565b600060208201905081810360008301526137668161337d565b9050919050565b60006020820190508181036000830152613786816133a0565b9050919050565b600060208201905081810360008301526137a6816133c3565b9050919050565b600060208201905081810360008301526137c6816133e6565b9050919050565b600060208201905081810360008301526137e681613409565b9050919050565b600060208201905081810360008301526138068161342c565b9050919050565b600060208201905081810360008301526138268161344f565b9050919050565b6000602082019050818103600083015261384681613472565b9050919050565b6000602082019050818103600083015261386681613495565b9050919050565b60006020820190508181036000830152613886816134b8565b9050919050565b600060208201905081810360008301526138a6816134db565b9050919050565b600060208201905081810360008301526138c6816134fe565b9050919050565b600060208201905081810360008301526138e681613521565b9050919050565b6000602082019050818103600083015261390681613544565b9050919050565b60006020820190506139226000830184613567565b92915050565b600060208201905061393d6000830184613576565b92915050565b600061394d61395e565b90506139598282613c44565b919050565b6000604051905090565b600067ffffffffffffffff82111561398357613982613d7c565b5b602082029050602081019050919050565b600067ffffffffffffffff8211156139af576139ae613d7c565b5b6139b882613dab565b9050602081019050919050565b600067ffffffffffffffff8211156139e0576139df613d7c565b5b6139e982613dab565b9050602081019050919050565b600081519050919050565b600081519050919050565b600082825260208201905092915050565b600082825260208201905092915050565b600081905092915050565b6000613a4482613bc6565b9150613a4f83613bc6565b9250827fffffffffffffffffffffffffffffffffffffffffffffffffffffffffffffffff03821115613a8457613a83613cef565b5b828201905092915050565b6000613a9a82613bc6565b9150613aa583613bc6565b925082613ab557613ab4613d1e565b5b828204905092915050565b6000613acb82613bc6565b9150613ad683613bc6565b9250817fffffffffffffffffffffffffffffffffffffffffffffffffffffffffffffffff0483118215151615613b0f57613b0e613cef565b5b828202905092915050565b6000613b2582613bc6565b9150613b3083613bc6565b925082821015613b4357613b42613cef565b5b828203905092915050565b6000613b5982613ba6565b9050919050565b60008115159050919050565b60007fffffffff0000000000000000000000000000000000000000000000000000000082169050919050565b600061ffff82169050919050565b600073ffffffffffffffffffffffffffffffffffffffff82169050919050565b6000819050919050565b82818337600083830152505050565b60005b83811015613bfd578082015181840152602081019050613be2565b83811115613c0c576000848401525b50505050565b60006002820490506001821680613c2a57607f821691505b60208210811415613c3e57613c3d613d4d565b5b50919050565b613c4d82613dab565b810181811067ffffffffffffffff82111715613c6c57613c6b613d7c565b5b80604052505050565b6000613c8082613bc6565b91507fffffffffffffffffffffffffffffffffffffffffffffffffffffffffffffffff821415613cb357613cb2613cef565b5b600182019050919050565b6000613cc982613bc6565b9150613cd483613bc6565b925082613ce457613ce3613d1e565b5b828206905092915050565b7f4e487b7100000000000000000000000000000000000000000000000000000000600052601160045260246000fd5b7f4e487b7100000000000000000000000000000000000000000000000000000000600052601260045260246000fd5b7f4e487b7100000000000000000000000000000000000000000000000000000000600052602260045260246000fd5b7f4e487b7100000000000000000000000000000000000000000000000000000000600052604160045260246000fd5b6000601f19601f8301169050919050565b7f4d4454503a20696e76616c696420746f6b656e49640000000000000000000000600082015250565b7f4552433732313a207472616e7366657220746f206e6f6e20455243373231526560008201527f63656976657220696d706c656d656e7465720000000000000000000000000000602082015250565b7f4f776e61626c653a206e6577206f776e657220697320746865207a65726f206160008201527f6464726573730000000000000000000000000000000000000000000000000000602082015250565b7f4552433732313a20746f6b656e20616c7265616479206d696e74656400000000600082015250565b7f4552433732313a207472616e7366657220746f20746865207a65726f2061646460008201527f7265737300000000000000000000000000000000000000000000000000000000602082015250565b7f4552433732313a20617070726f766520746f2063616c6c657200000000000000600082015250565b7f4552433732313a206f70657261746f7220717565727920666f72206e6f6e657860008201527f697374656e7420746f6b656e0000000000000000000000000000000000000000602082015250565b7f4d4454503a20746f6b656e4964732e6c656e677468206973206f76657220736960008201527f6e676c654d696e744c696d697400000000000000000000000000000000000000602082015250565b7f4552433732313a20617070726f76652063616c6c6572206973206e6f74206f7760008201527f6e6572206e6f7220617070726f76656420666f7220616c6c0000000000000000602082015250565b7f4552433732313a2062616c616e636520717565727920666f7220746865207a6560008201527f726f206164647265737300000000000000000000000000000000000000000000602082015250565b7f4552433732313a206f776e657220717565727920666f72206e6f6e657869737460008201527f656e7420746f6b656e0000000000000000000000000000000000000000000000602082015250565b7f4552433732313a206d696e7420746f20746865207a65726f2061646472657373600082015250565b7f4d4454503a20726561636865642063757272656e74206d696e74696e67206c6960008201527f6d69740000000000000000000000000000000000000000000000000000000000602082015250565b7f4552433732313a20617070726f76656420717565727920666f72206e6f6e657860008201527f697374656e7420746f6b656e0000000000000000000000000000000000000000602082015250565b7f4d4454503a2063616c6c6572206973206e6f742074686520746f6b656e4f776e60008201527f6572000000000000000000000000000000000000000000000000000000000000602082015250565b7f4f776e61626c653a2063616c6c6572206973206e6f7420746865206f776e6572600082015250565b7f4552433732313a207472616e73666572206f6620746f6b656e2074686174206960008201527f73206e6f74206f776e0000000000000000000000000000000000000000000000602082015250565b7f4552433732313a20617070726f76616c20746f2063757272656e74206f776e6560008201527f7200000000000000000000000000000000000000000000000000000000000000602082015250565b7f41646d696e3a2063616c6c6572206973206e6f7420616e2061646d696e000000600082015250565b7f4d4454503a20496e73756666696369656e74207061796d656e74000000000000600082015250565b7f4552433732313a207472616e736665722063616c6c6572206973206e6f74206f60008201527f776e6572206e6f7220617070726f766564000000000000000000000000000000602082015250565b7f4d4454503a20696e76616c696420696e64657800000000000000000000000000600082015250565b61435f81613b4e565b811461436a57600080fd5b50565b61437681613b60565b811461438157600080fd5b50565b61438d81613b6c565b811461439857600080fd5b50565b6143a481613b98565b81146143af57600080fd5b50565b6143bb81613bc6565b81146143c657600080fd5b5056fe68747470733a2f2f6170692e6d6474702e636f2f746f6b656e2d6d65746164617461732f68747470733a2f2f6170692e6d6474702e636f2f746f6b656e2d64656661756c742d636f6e74656e74732fa26469706673582212204bcbf90a09a615f3b1266836f3144033c88564d8492fab30ad98f8429baf8a0e64736f6c63430008040033",
  "linkReferences": {},
  "deployedLinkReferences": {}
}