{
  "_format": "hh-sol-artifact-1",
  "contractName": "MillionDollarTokenPage",
  "sourceName": "contracts/MillionDollarTokenPage.sol",
  "abi": [
    {
      "inputs": [
        {
          "internalType": "uint16",
          "name": "initialTotalMintLimit",
          "type": "uint16"
        },
        {
          "internalType": "uint16",
          "name": "initialSingleMintLimit",
          "type": "uint16"
        },
        {
          "internalType": "uint16",
          "name": "initialOwnershipMintLimit",
          "type": "uint16"
        },
        {
          "internalType": "uint256",
          "name": "initialMintPrice",
          "type": "uint256"
        },
        {
          "internalType": "string",
          "name": "initialMetadataBaseURI",
          "type": "string"
        },
        {
          "internalType": "string",
          "name": "initialDefaultContentBaseURI",
          "type": "string"
        }
      ],
      "stateMutability": "nonpayable",
      "type": "constructor"
    },
    {
      "anonymous": false,
      "inputs": [
        {
          "indexed": true,
          "internalType": "address",
          "name": "owner",
          "type": "address"
        },
        {
          "indexed": true,
          "internalType": "address",
          "name": "approved",
          "type": "address"
        },
        {
          "indexed": true,
          "internalType": "uint256",
          "name": "tokenId",
          "type": "uint256"
        }
      ],
      "name": "Approval",
      "type": "event"
    },
    {
      "anonymous": false,
      "inputs": [
        {
          "indexed": true,
          "internalType": "address",
          "name": "owner",
          "type": "address"
        },
        {
          "indexed": true,
          "internalType": "address",
          "name": "operator",
          "type": "address"
        },
        {
          "indexed": false,
          "internalType": "bool",
          "name": "approved",
          "type": "bool"
        }
      ],
      "name": "ApprovalForAll",
      "type": "event"
    },
    {
      "anonymous": false,
      "inputs": [
        {
          "indexed": true,
          "internalType": "address",
          "name": "previousOwner",
          "type": "address"
        },
        {
          "indexed": true,
          "internalType": "address",
          "name": "newOwner",
          "type": "address"
        }
      ],
      "name": "OwnershipTransferred",
      "type": "event"
    },
    {
      "anonymous": false,
      "inputs": [
        {
          "indexed": true,
          "internalType": "uint256",
          "name": "tokenId",
          "type": "uint256"
        }
      ],
      "name": "TokenContentURIChanged",
      "type": "event"
    },
    {
      "anonymous": false,
      "inputs": [
        {
          "indexed": true,
          "internalType": "address",
          "name": "from",
          "type": "address"
        },
        {
          "indexed": true,
          "internalType": "address",
          "name": "to",
          "type": "address"
        },
        {
          "indexed": true,
          "internalType": "uint256",
          "name": "tokenId",
          "type": "uint256"
        }
      ],
      "name": "Transfer",
      "type": "event"
    },
    {
      "inputs": [],
      "name": "COLUMN_COUNT",
      "outputs": [
        {
          "internalType": "uint16",
          "name": "",
          "type": "uint16"
        }
      ],
      "stateMutability": "view",
      "type": "function"
    },
    {
      "inputs": [],
      "name": "ROW_COUNT",
      "outputs": [
        {
          "internalType": "uint16",
          "name": "",
          "type": "uint16"
        }
      ],
      "stateMutability": "view",
      "type": "function"
    },
    {
      "inputs": [],
      "name": "SUPPLY_LIMIT",
      "outputs": [
        {
          "internalType": "uint16",
          "name": "",
          "type": "uint16"
        }
      ],
      "stateMutability": "view",
      "type": "function"
    },
    {
      "inputs": [],
      "name": "_defaultContentBaseURI",
      "outputs": [
        {
          "internalType": "string",
          "name": "",
          "type": "string"
        }
      ],
      "stateMutability": "view",
      "type": "function"
    },
    {
      "inputs": [],
      "name": "_metadataBaseURI",
      "outputs": [
        {
          "internalType": "string",
          "name": "",
          "type": "string"
        }
      ],
      "stateMutability": "view",
      "type": "function"
    },
    {
      "inputs": [
        {
          "internalType": "address",
          "name": "to",
          "type": "address"
        },
        {
          "internalType": "uint256",
          "name": "tokenId",
          "type": "uint256"
        }
      ],
      "name": "approve",
      "outputs": [],
      "stateMutability": "nonpayable",
      "type": "function"
    },
    {
      "inputs": [
        {
          "internalType": "address",
          "name": "owner",
          "type": "address"
        }
      ],
      "name": "balanceOf",
      "outputs": [
        {
          "internalType": "uint256",
          "name": "",
          "type": "uint256"
        }
      ],
      "stateMutability": "view",
      "type": "function"
    },
    {
      "inputs": [
        {
          "internalType": "uint256",
          "name": "tokenId",
          "type": "uint256"
        }
      ],
      "name": "getApproved",
      "outputs": [
        {
          "internalType": "address",
          "name": "",
          "type": "address"
        }
      ],
      "stateMutability": "view",
      "type": "function"
    },
    {
      "inputs": [
        {
          "internalType": "address",
          "name": "owner",
          "type": "address"
        },
        {
          "internalType": "address",
          "name": "operator",
          "type": "address"
        }
      ],
      "name": "isApprovedForAll",
      "outputs": [
        {
          "internalType": "bool",
          "name": "",
          "type": "bool"
        }
      ],
      "stateMutability": "view",
      "type": "function"
    },
    {
      "inputs": [
        {
          "internalType": "uint256",
          "name": "tokenId",
          "type": "uint256"
        }
      ],
      "name": "mintAdmin",
      "outputs": [],
      "stateMutability": "nonpayable",
      "type": "function"
    },
    {
      "inputs": [],
      "name": "mintPrice",
      "outputs": [
        {
          "internalType": "uint256",
          "name": "",
          "type": "uint256"
        }
      ],
      "stateMutability": "view",
      "type": "function"
    },
    {
      "inputs": [
        {
          "internalType": "uint256",
          "name": "tokenId",
          "type": "uint256"
        }
      ],
      "name": "mintToken",
      "outputs": [],
      "stateMutability": "payable",
      "type": "function"
    },
    {
      "inputs": [
        {
          "internalType": "uint256",
          "name": "tokenId",
          "type": "uint256"
        },
        {
          "internalType": "uint8",
          "name": "width",
          "type": "uint8"
        },
        {
          "internalType": "uint8",
          "name": "height",
          "type": "uint8"
        }
      ],
      "name": "mintTokenGroup",
      "outputs": [],
      "stateMutability": "payable",
      "type": "function"
    },
    {
      "inputs": [
        {
          "internalType": "uint256",
          "name": "tokenId",
          "type": "uint256"
        },
        {
          "internalType": "uint8",
          "name": "width",
          "type": "uint8"
        },
        {
          "internalType": "uint8",
          "name": "height",
          "type": "uint8"
        }
      ],
      "name": "mintTokenGroupAdmin",
      "outputs": [],
      "stateMutability": "payable",
      "type": "function"
    },
    {
      "inputs": [],
      "name": "mintedCount",
      "outputs": [
        {
          "internalType": "uint256",
          "name": "",
          "type": "uint256"
        }
      ],
      "stateMutability": "view",
      "type": "function"
    },
    {
      "inputs": [],
      "name": "name",
      "outputs": [
        {
          "internalType": "string",
          "name": "",
          "type": "string"
        }
      ],
      "stateMutability": "view",
      "type": "function"
    },
    {
      "inputs": [],
      "name": "owner",
      "outputs": [
        {
          "internalType": "address",
          "name": "",
          "type": "address"
        }
      ],
      "stateMutability": "view",
      "type": "function"
    },
    {
      "inputs": [
        {
          "internalType": "uint256",
          "name": "tokenId",
          "type": "uint256"
        }
      ],
      "name": "ownerOf",
      "outputs": [
        {
          "internalType": "address",
          "name": "",
          "type": "address"
        }
      ],
      "stateMutability": "view",
      "type": "function"
    },
    {
      "inputs": [],
      "name": "ownershipMintLimit",
      "outputs": [
        {
          "internalType": "uint16",
          "name": "",
          "type": "uint16"
        }
      ],
      "stateMutability": "view",
      "type": "function"
    },
    {
      "inputs": [],
      "name": "renounceOwnership",
      "outputs": [],
      "stateMutability": "nonpayable",
      "type": "function"
    },
    {
      "inputs": [
        {
          "internalType": "address",
          "name": "from",
          "type": "address"
        },
        {
          "internalType": "address",
          "name": "to",
          "type": "address"
        },
        {
          "internalType": "uint256",
          "name": "tokenId",
          "type": "uint256"
        }
      ],
      "name": "safeTransferFrom",
      "outputs": [],
      "stateMutability": "nonpayable",
      "type": "function"
    },
    {
      "inputs": [
        {
          "internalType": "address",
          "name": "from",
          "type": "address"
        },
        {
          "internalType": "address",
          "name": "to",
          "type": "address"
        },
        {
          "internalType": "uint256",
          "name": "tokenId",
          "type": "uint256"
        },
        {
          "internalType": "bytes",
          "name": "_data",
          "type": "bytes"
        }
      ],
      "name": "safeTransferFrom",
      "outputs": [],
      "stateMutability": "nonpayable",
      "type": "function"
    },
    {
      "inputs": [
        {
          "internalType": "address",
          "name": "operator",
          "type": "address"
        },
        {
          "internalType": "bool",
          "name": "approved",
          "type": "bool"
        }
      ],
      "name": "setApprovalForAll",
      "outputs": [],
      "stateMutability": "nonpayable",
      "type": "function"
    },
    {
      "inputs": [
        {
          "internalType": "string",
          "name": "newDefaultContentBaseURI",
          "type": "string"
        }
      ],
      "name": "setDefaultContentBaseURI",
      "outputs": [],
      "stateMutability": "nonpayable",
      "type": "function"
    },
    {
      "inputs": [
        {
          "internalType": "string",
          "name": "newMetadataBaseURI",
          "type": "string"
        }
      ],
      "name": "setMetadataBaseURI",
      "outputs": [],
      "stateMutability": "nonpayable",
      "type": "function"
    },
    {
      "inputs": [
        {
          "internalType": "uint256",
          "name": "newMintPrice",
          "type": "uint256"
        }
      ],
      "name": "setMintPrice",
      "outputs": [],
      "stateMutability": "nonpayable",
      "type": "function"
    },
    {
      "inputs": [
        {
          "internalType": "uint16",
          "name": "newOwnershipMintLimit",
          "type": "uint16"
        }
      ],
      "name": "setOwnershipMintLimit",
      "outputs": [],
      "stateMutability": "nonpayable",
      "type": "function"
    },
    {
      "inputs": [
        {
          "internalType": "uint16",
          "name": "newSingleMintLimit",
          "type": "uint16"
        }
      ],
      "name": "setSingleMintLimit",
      "outputs": [],
      "stateMutability": "nonpayable",
      "type": "function"
    },
    {
      "inputs": [
        {
          "internalType": "uint256",
          "name": "tokenId",
          "type": "uint256"
        },
        {
          "internalType": "string",
          "name": "contentURI",
          "type": "string"
        }
      ],
      "name": "setTokenContentURI",
      "outputs": [],
      "stateMutability": "nonpayable",
      "type": "function"
    },
    {
      "inputs": [
        {
          "internalType": "uint256",
          "name": "tokenId",
          "type": "uint256"
        },
        {
          "internalType": "uint8",
          "name": "width",
          "type": "uint8"
        },
        {
          "internalType": "uint8",
          "name": "height",
          "type": "uint8"
        },
        {
          "internalType": "string[]",
          "name": "contentURIs",
          "type": "string[]"
        }
      ],
      "name": "setTokenGroupContentURIs",
      "outputs": [],
      "stateMutability": "nonpayable",
      "type": "function"
    },
    {
      "inputs": [
        {
          "internalType": "uint16",
          "name": "newTotalMintLimit",
          "type": "uint16"
        }
      ],
      "name": "setTotalMintLimit",
      "outputs": [],
      "stateMutability": "nonpayable",
      "type": "function"
    },
    {
      "inputs": [],
      "name": "singleMintLimit",
      "outputs": [
        {
          "internalType": "uint16",
          "name": "",
          "type": "uint16"
        }
      ],
      "stateMutability": "view",
      "type": "function"
    },
    {
      "inputs": [
        {
          "internalType": "bytes4",
          "name": "interfaceId",
          "type": "bytes4"
        }
      ],
      "name": "supportsInterface",
      "outputs": [
        {
          "internalType": "bool",
          "name": "",
          "type": "bool"
        }
      ],
      "stateMutability": "view",
      "type": "function"
    },
    {
      "inputs": [],
      "name": "symbol",
      "outputs": [
        {
          "internalType": "string",
          "name": "",
          "type": "string"
        }
      ],
      "stateMutability": "view",
      "type": "function"
    },
    {
      "inputs": [
        {
          "internalType": "uint256",
          "name": "index",
          "type": "uint256"
        }
      ],
      "name": "tokenByIndex",
      "outputs": [
        {
          "internalType": "uint256",
          "name": "",
          "type": "uint256"
        }
      ],
      "stateMutability": "pure",
      "type": "function"
    },
    {
      "inputs": [
        {
          "internalType": "uint256",
          "name": "tokenId",
          "type": "uint256"
        }
      ],
      "name": "tokenContentURI",
      "outputs": [
        {
          "internalType": "string",
          "name": "",
          "type": "string"
        }
      ],
      "stateMutability": "view",
      "type": "function"
    },
    {
      "inputs": [
        {
          "internalType": "address",
          "name": "owner",
          "type": "address"
        },
        {
          "internalType": "uint256",
          "name": "index",
          "type": "uint256"
        }
      ],
      "name": "tokenOfOwnerByIndex",
      "outputs": [
        {
          "internalType": "uint256",
          "name": "tokenId",
          "type": "uint256"
        }
      ],
      "stateMutability": "view",
      "type": "function"
    },
    {
      "inputs": [
        {
          "internalType": "uint256",
          "name": "tokenId",
          "type": "uint256"
        }
      ],
      "name": "tokenURI",
      "outputs": [
        {
          "internalType": "string",
          "name": "",
          "type": "string"
        }
      ],
      "stateMutability": "view",
      "type": "function"
    },
    {
      "inputs": [],
      "name": "totalMintLimit",
      "outputs": [
        {
          "internalType": "uint16",
          "name": "",
          "type": "uint16"
        }
      ],
      "stateMutability": "view",
      "type": "function"
    },
    {
      "inputs": [],
      "name": "totalSupply",
      "outputs": [
        {
          "internalType": "uint256",
          "name": "",
          "type": "uint256"
        }
      ],
      "stateMutability": "pure",
      "type": "function"
    },
    {
      "inputs": [
        {
          "internalType": "address",
          "name": "from",
          "type": "address"
        },
        {
          "internalType": "address",
          "name": "to",
          "type": "address"
        },
        {
          "internalType": "uint256",
          "name": "tokenId",
          "type": "uint256"
        }
      ],
      "name": "transferFrom",
      "outputs": [],
      "stateMutability": "nonpayable",
      "type": "function"
    },
    {
      "inputs": [
        {
          "internalType": "address",
          "name": "newOwner",
          "type": "address"
        }
      ],
      "name": "transferOwnership",
      "outputs": [],
      "stateMutability": "nonpayable",
      "type": "function"
    },
    {
      "inputs": [],
      "name": "withdraw",
      "outputs": [],
      "stateMutability": "nonpayable",
      "type": "function"
    }
  ],
  "bytecode": "0x60806040523480156200001157600080fd5b5060405162005600380380620056008339818101604052810190620000379190620003b1565b6040518060400160405280601681526020017f4d696c6c696f6e446f6c6c6172546f6b656e50616765000000000000000000008152506040518060400160405280600381526020017fe28aa100000000000000000000000000000000000000000000000000000000008152508160009080519060200190620000bb92919062000261565b508060019080519060200190620000d492919062000261565b505050620000f7620000eb6200019360201b60201c565b6200019b60201b60201c565b81600d90805190602001906200010f92919062000261565b5080600e90805190602001906200012892919062000261565b5085600b60006101000a81548161ffff021916908361ffff16021790555084600b60026101000a81548161ffff021916908361ffff16021790555083600b60046101000a81548161ffff021916908361ffff16021790555082600c8190555050505050505062000635565b600033905090565b6000600660009054906101000a900473ffffffffffffffffffffffffffffffffffffffff16905081600660006101000a81548173ffffffffffffffffffffffffffffffffffffffff021916908373ffffffffffffffffffffffffffffffffffffffff1602179055508173ffffffffffffffffffffffffffffffffffffffff168173ffffffffffffffffffffffffffffffffffffffff167f8be0079c531659141344cd1fd0a4f28419497f9722a3daafe3b4186f6b6457e060405160405180910390a35050565b8280546200026f9062000526565b90600052602060002090601f016020900481019282620002935760008555620002df565b82601f10620002ae57805160ff1916838001178555620002df565b82800160010185558215620002df579182015b82811115620002de578251825591602001919060010190620002c1565b5b509050620002ee9190620002f2565b5090565b5b808211156200030d576000816000905550600101620002f3565b5090565b6000620003286200032284620004a2565b62000479565b9050828152602081018484840111156200034157600080fd5b6200034e848285620004f0565b509392505050565b600082601f8301126200036857600080fd5b81516200037a84826020860162000311565b91505092915050565b600081519050620003948162000601565b92915050565b600081519050620003ab816200061b565b92915050565b60008060008060008060c08789031215620003cb57600080fd5b6000620003db89828a0162000383565b9650506020620003ee89828a0162000383565b95505060406200040189828a0162000383565b94505060606200041489828a016200039a565b935050608087015167ffffffffffffffff8111156200043257600080fd5b6200044089828a0162000356565b92505060a087015167ffffffffffffffff8111156200045e57600080fd5b6200046c89828a0162000356565b9150509295509295509295565b60006200048562000498565b90506200049382826200055c565b919050565b6000604051905090565b600067ffffffffffffffff821115620004c057620004bf620005c1565b5b620004cb82620005f0565b9050602081019050919050565b600061ffff82169050919050565b6000819050919050565b60005b8381101562000510578082015181840152602081019050620004f3565b8381111562000520576000848401525b50505050565b600060028204905060018216806200053f57607f821691505b6020821081141562000556576200055562000592565b5b50919050565b6200056782620005f0565b810181811067ffffffffffffffff82111715620005895762000588620005c1565b5b80604052505050565b7f4e487b7100000000000000000000000000000000000000000000000000000000600052602260045260246000fd5b7f4e487b7100000000000000000000000000000000000000000000000000000000600052604160045260246000fd5b6000601f19601f8301169050919050565b6200060c81620004d8565b81146200061857600080fd5b50565b6200062681620004e6565b81146200063257600080fd5b50565b614fbb80620006456000396000f3fe60806040526004361061025c5760003560e01c806370a0823111610144578063c634d032116100b6578063e8d44caf1161007a578063e8d44caf146108bf578063e985e9c5146108e8578063eb3391a914610925578063f2fde38b1461094e578063f4a0a52814610977578063fb94bd8a146109a05761025c565b8063c634d032146107e5578063c742856614610801578063c87b56dd1461082c578063cf721b1514610869578063e04a8eaf146108945761025c565b806395d89b411161010857806395d89b41146106f8578063a1ae82e514610723578063a2194baf1461074c578063a22cb46514610768578063a5dee00214610791578063b88d4fde146107bc5761025c565b806370a0823114610625578063715018a61461066257806376dd1f86146106795780638d50645a146106a45780638da5cb5b146106cd5761025c565b80632f745c59116101dd5780634ddd7fec116101a15780634ddd7fec146105035780634f6ccce71461052e5780635935e01a1461056b5780636352211e14610594578063677ab70b146105d15780636817c76c146105fa5761025c565b80632f745c59146104305780633906f5601461046d5780633ccfd60b1461049857806342842e0e146104af5780634a0218d6146104d85761025c565b80630c0a9d26116102245780630c0a9d261461035857806318160ddd146103955780631f5e7978146103c057806323b872dd146103dc57806328b8692a146104055761025c565b80630170163a1461026157806301ffc9a71461028a57806306fdde03146102c7578063081812fc146102f2578063095ea7b31461032f575b600080fd5b34801561026d57600080fd5b506102886004803603810190610283919061387b565b6109c9565b005b34801561029657600080fd5b506102b160048036038101906102ac91906137e8565b610a65565b6040516102be9190613f11565b60405180910390f35b3480156102d357600080fd5b506102dc610b47565b6040516102e99190613f2c565b60405180910390f35b3480156102fe57600080fd5b50610319600480360381019061031491906138a4565b610bd9565b6040516103269190613eaa565b60405180910390f35b34801561033b57600080fd5b50610356600480360381019061035191906137ac565b610c5e565b005b34801561036457600080fd5b5061037f600480360381019061037a91906138a4565b610d76565b60405161038c9190613f2c565b60405180910390f35b3480156103a157600080fd5b506103aa610e65565b6040516103b791906142a9565b60405180910390f35b6103da60048036038101906103d59190613921565b610e7d565b005b3480156103e857600080fd5b5061040360048036038101906103fe91906136a6565b611022565b005b34801561041157600080fd5b5061041a611082565b6040516104279190613f2c565b60405180910390f35b34801561043c57600080fd5b50610457600480360381019061045291906137ac565b611110565b60405161046491906142a9565b60405180910390f35b34801561047957600080fd5b5061048261116b565b60405161048f919061428e565b60405180910390f35b3480156104a457600080fd5b506104ad61117b565b005b3480156104bb57600080fd5b506104d660048036038101906104d191906136a6565b611246565b005b3480156104e457600080fd5b506104ed611266565b6040516104fa919061428e565b60405180910390f35b34801561050f57600080fd5b5061051861126b565b6040516105259190613f2c565b60405180910390f35b34801561053a57600080fd5b50610555600480360381019061055091906138a4565b6112f9565b60405161056291906142a9565b60405180910390f35b34801561057757600080fd5b50610592600480360381019061058d9190613970565b61136d565b005b3480156105a057600080fd5b506105bb60048036038101906105b691906138a4565b61163e565b6040516105c89190613eaa565b60405180910390f35b3480156105dd57600080fd5b506105f860048036038101906105f391906138a4565b6116f0565b005b34801561060657600080fd5b5061060f611778565b60405161061c91906142a9565b60405180910390f35b34801561063157600080fd5b5061064c60048036038101906106479190613641565b61177e565b60405161065991906142a9565b60405180910390f35b34801561066e57600080fd5b50610677611836565b005b34801561068557600080fd5b5061068e6118be565b60405161069b919061428e565b60405180910390f35b3480156106b057600080fd5b506106cb60048036038101906106c691906138cd565b6118d2565b005b3480156106d957600080fd5b506106e261195f565b6040516106ef9190613eaa565b60405180910390f35b34801561070457600080fd5b5061070d611989565b60405161071a9190613f2c565b60405180910390f35b34801561072f57600080fd5b5061074a6004803603810190610745919061387b565b611a1b565b005b61076660048036038101906107619190613921565b611ab7565b005b34801561077457600080fd5b5061078f600480360381019061078a9190613770565b611ac7565b005b34801561079d57600080fd5b506107a6611c48565b6040516107b3919061428e565b60405180910390f35b3480156107c857600080fd5b506107e360048036038101906107de91906136f5565b611c5c565b005b6107ff60048036038101906107fa91906138a4565b611cbe565b005b34801561080d57600080fd5b50610816611de4565b604051610823919061428e565b60405180910390f35b34801561083857600080fd5b50610853600480360381019061084e91906138a4565b611df8565b6040516108609190613f2c565b60405180910390f35b34801561087557600080fd5b5061087e611e32565b60405161088b91906142a9565b60405180910390f35b3480156108a057600080fd5b506108a9611e3f565b6040516108b6919061428e565b60405180910390f35b3480156108cb57600080fd5b506108e660048036038101906108e1919061387b565b611e44565b005b3480156108f457600080fd5b5061090f600480360381019061090a919061366a565b611ee0565b60405161091c9190613f11565b60405180910390f35b34801561093157600080fd5b5061094c6004803603810190610947919061383a565b611f74565b005b34801561095a57600080fd5b5061097560048036038101906109709190613641565b61200a565b005b34801561098357600080fd5b5061099e600480360381019061099991906138a4565b612102565b005b3480156109ac57600080fd5b506109c760048036038101906109c2919061383a565b612188565b005b6109d161221e565b73ffffffffffffffffffffffffffffffffffffffff166109ef61195f565b73ffffffffffffffffffffffffffffffffffffffff1614610a45576040517f08c379a0000000000000000000000000000000000000000000000000000000008152600401610a3c9061418e565b60405180910390fd5b80600b60046101000a81548161ffff021916908361ffff16021790555050565b60007f80ac58cd000000000000000000000000000000000000000000000000000000007bffffffffffffffffffffffffffffffffffffffffffffffffffffffff1916827bffffffffffffffffffffffffffffffffffffffffffffffffffffffff19161480610b3057507f5b5e139f000000000000000000000000000000000000000000000000000000007bffffffffffffffffffffffffffffffffffffffffffffffffffffffff1916827bffffffffffffffffffffffffffffffffffffffffffffffffffffffff1916145b80610b405750610b3f82612226565b5b9050919050565b606060008054610b569061464e565b80601f0160208091040260200160405190810160405280929190818152602001828054610b829061464e565b8015610bcf5780601f10610ba457610100808354040283529160200191610bcf565b820191906000526020600020905b815481529060010190602001808311610bb257829003601f168201915b5050505050905090565b6000610be482612290565b610c23576040517f08c379a0000000000000000000000000000000000000000000000000000000008152600401610c1a9061414e565b60405180910390fd5b6004600083815260200190815260200160002060009054906101000a900473ffffffffffffffffffffffffffffffffffffffff169050919050565b6000610c698261163e565b90508073ffffffffffffffffffffffffffffffffffffffff168373ffffffffffffffffffffffffffffffffffffffff161415610cda576040517f08c379a0000000000000000000000000000000000000000000000000000000008152600401610cd1906141ee565b60405180910390fd5b8073ffffffffffffffffffffffffffffffffffffffff16610cf961221e565b73ffffffffffffffffffffffffffffffffffffffff161480610d285750610d2781610d2261221e565b611ee0565b5b610d67576040517f08c379a0000000000000000000000000000000000000000000000000000000008152600401610d5e9061406e565b60405180910390fd5b610d7183836122fc565b505050565b60606000600760008481526020019081526020016000208054610d989061464e565b80601f0160208091040260200160405190810160405280929190818152602001828054610dc49061464e565b8015610e115780601f10610de657610100808354040283529160200191610e11565b820191906000526020600020905b815481529060010190602001808311610df457829003601f168201915b50505050509050600081511115610e2b5780915050610e60565b610e336123b5565b610e3c84612447565b604051602001610e4d929190613e7b565b6040516020818303038152906040529150505b919050565b6000606480610e749190614478565b61ffff16905090565b60008183610e8b919061450e565b60ff169050610ea581600c546125f490919063ffffffff16565b341015610ee7576040517f08c379a0000000000000000000000000000000000000000000000000000000008152600401610ede9061422e565b60405180910390fd5b600b60009054906101000a900461ffff1661ffff1681610f05611e32565b610f0f91906143ba565b1115610f50576040517f08c379a0000000000000000000000000000000000000000000000000000000008152600401610f479061412e565b60405180910390fd5b600b60049054906101000a900461ffff1661ffff1681610f6f3361177e565b610f7991906143ba565b1115610fba576040517f08c379a0000000000000000000000000000000000000000000000000000000008152600401610fb190613f4e565b60405180910390fd5b600b60029054906101000a900461ffff1661ffff16811115611011576040517f08c379a0000000000000000000000000000000000000000000000000000000008152600401611008906141ce565b60405180910390fd5b61101c84848461260a565b50505050565b61103361102d61221e565b82612726565b611072576040517f08c379a00000000000000000000000000000000000000000000000000000000081526004016110699061424e565b60405180910390fd5b61107d838383612804565b505050565b600d805461108f9061464e565b80601f01602080910402602001604051908101604052809291908181526020018280546110bb9061464e565b80156111085780601f106110dd57610100808354040283529160200191611108565b820191906000526020600020905b8154815290600101906020018083116110eb57829003601f168201915b505050505081565b6000600860008473ffffffffffffffffffffffffffffffffffffffff1673ffffffffffffffffffffffffffffffffffffffff168152602001908152602001600020600083815260200190815260200160002054905092915050565b6064806111789190614478565b81565b61118361221e565b73ffffffffffffffffffffffffffffffffffffffff166111a161195f565b73ffffffffffffffffffffffffffffffffffffffff16146111f7576040517f08c379a00000000000000000000000000000000000000000000000000000000081526004016111ee9061418e565b60405180910390fd5b60004790503373ffffffffffffffffffffffffffffffffffffffff166108fc829081150290604051600060405180830381858888f19350505050158015611242573d6000803e3d6000fd5b5050565b61126183838360405180602001604052806000815250611c5c565b505050565b606481565b600e80546112789061464e565b80601f01602080910402602001604051908101604052809291908181526020018280546112a49061464e565b80156112f15780601f106112c6576101008083540402835291602001916112f1565b820191906000526020600020905b8154815290600101906020018083116112d457829003601f168201915b505050505081565b600080821015801561131a57506064806113139190614478565b61ffff1682105b611359576040517f08c379a00000000000000000000000000000000000000000000000000000000081526004016113509061426e565b60405180910390fd5b60018261136691906143ba565b9050919050565b83838360005b8160ff168160ff1610156114685760005b8360ff168160ff1610156114545760008160ff168360ff1660646113a89190614478565b61ffff16876113b791906143ba565b6113c191906143ba565b90506113cb61221e565b73ffffffffffffffffffffffffffffffffffffffff166113ea8261163e565b73ffffffffffffffffffffffffffffffffffffffff1614611440576040517f08c379a000000000000000000000000000000000000000000000000000000000815260040161143790613fee565b60405180910390fd5b50808061144c906146fa565b915050611384565b508080611460906146fa565b915050611373565b5086868660008260ff16116114b2576040517f08c379a00000000000000000000000000000000000000000000000000000000081526004016114a99061420e565b60405180910390fd5b60008160ff16116114f8576040517f08c379a00000000000000000000000000000000000000000000000000000000081526004016114ef906140ce565b60405180910390fd5b8651888a611506919061450e565b60ff1614611549576040517f08c379a0000000000000000000000000000000000000000000000000000000008152600401611540906140ee565b60405180910390fd5b60005b8860ff168160ff1610156116315760005b8a60ff168160ff16101561161d57600081838d61157a919061450e565b6115849190614410565b60ff16905060008260ff168460ff16606461159f9190614478565b61ffff168f6115ae91906143ba565b6115b891906143ba565b9050611608818c8461ffff16815181106115fb577f4e487b7100000000000000000000000000000000000000000000000000000000600052603260045260246000fd5b6020026020010151612a60565b50508080611615906146fa565b91505061155d565b508080611629906146fa565b91505061154c565b5050505050505050505050565b6000806002600084815260200190815260200160002060009054906101000a900473ffffffffffffffffffffffffffffffffffffffff169050600073ffffffffffffffffffffffffffffffffffffffff168173ffffffffffffffffffffffffffffffffffffffff1614156116e7576040517f08c379a00000000000000000000000000000000000000000000000000000000081526004016116de906140ae565b60405180910390fd5b80915050919050565b6116f861221e565b73ffffffffffffffffffffffffffffffffffffffff1661171661195f565b73ffffffffffffffffffffffffffffffffffffffff161461176c576040517f08c379a00000000000000000000000000000000000000000000000000000000081526004016117639061418e565b60405180910390fd5b61177581612ab9565b50565b600c5481565b60008073ffffffffffffffffffffffffffffffffffffffff168273ffffffffffffffffffffffffffffffffffffffff1614156117ef576040517f08c379a00000000000000000000000000000000000000000000000000000000081526004016117e69061408e565b60405180910390fd5b600360008373ffffffffffffffffffffffffffffffffffffffff1673ffffffffffffffffffffffffffffffffffffffff168152602001908152602001600020549050919050565b61183e61221e565b73ffffffffffffffffffffffffffffffffffffffff1661185c61195f565b73ffffffffffffffffffffffffffffffffffffffff16146118b2576040517f08c379a00000000000000000000000000000000000000000000000000000000081526004016118a99061418e565b60405180910390fd5b6118bc6000612b37565b565b600b60009054906101000a900461ffff1681565b816118db61221e565b73ffffffffffffffffffffffffffffffffffffffff166118fa8261163e565b73ffffffffffffffffffffffffffffffffffffffff1614611950576040517f08c379a00000000000000000000000000000000000000000000000000000000081526004016119479061416e565b60405180910390fd5b61195a8383612a60565b505050565b6000600660009054906101000a900473ffffffffffffffffffffffffffffffffffffffff16905090565b6060600180546119989061464e565b80601f01602080910402602001604051908101604052809291908181526020018280546119c49061464e565b8015611a115780601f106119e657610100808354040283529160200191611a11565b820191906000526020600020905b8154815290600101906020018083116119f457829003601f168201915b5050505050905090565b611a2361221e565b73ffffffffffffffffffffffffffffffffffffffff16611a4161195f565b73ffffffffffffffffffffffffffffffffffffffff1614611a97576040517f08c379a0000000000000000000000000000000000000000000000000000000008152600401611a8e9061418e565b60405180910390fd5b80600b60006101000a81548161ffff021916908361ffff16021790555050565b611ac283838361260a565b505050565b611acf61221e565b73ffffffffffffffffffffffffffffffffffffffff168273ffffffffffffffffffffffffffffffffffffffff161415611b3d576040517f08c379a0000000000000000000000000000000000000000000000000000000008152600401611b349061402e565b60405180910390fd5b8060056000611b4a61221e565b73ffffffffffffffffffffffffffffffffffffffff1673ffffffffffffffffffffffffffffffffffffffff16815260200190815260200160002060008473ffffffffffffffffffffffffffffffffffffffff1673ffffffffffffffffffffffffffffffffffffffff16815260200190815260200160002060006101000a81548160ff0219169083151502179055508173ffffffffffffffffffffffffffffffffffffffff16611bf761221e565b73ffffffffffffffffffffffffffffffffffffffff167f17307eab39ab6107e8899845ad3d59bd9653f200f220920489ca2b5937696c3183604051611c3c9190613f11565b60405180910390a35050565b600b60049054906101000a900461ffff1681565b611c6d611c6761221e565b83612726565b611cac576040517f08c379a0000000000000000000000000000000000000000000000000000000008152600401611ca39061424e565b60405180910390fd5b611cb884848484612bfd565b50505050565b600c54341015611d03576040517f08c379a0000000000000000000000000000000000000000000000000000000008152600401611cfa9061422e565b60405180910390fd5b600b60009054906101000a900461ffff1661ffff166001611d22611e32565b611d2c91906143ba565b1115611d6d576040517f08c379a0000000000000000000000000000000000000000000000000000000008152600401611d649061412e565b60405180910390fd5b600b60049054906101000a900461ffff1661ffff166001611d8d3361177e565b611d9791906143ba565b1115611dd8576040517f08c379a0000000000000000000000000000000000000000000000000000000008152600401611dcf90613f4e565b60405180910390fd5b611de181612ab9565b50565b600b60029054906101000a900461ffff1681565b6060611e02612c59565b611e0b83612447565b604051602001611e1c929190613e7b565b6040516020818303038152906040529050919050565b6000600a80549050905090565b606481565b611e4c61221e565b73ffffffffffffffffffffffffffffffffffffffff16611e6a61195f565b73ffffffffffffffffffffffffffffffffffffffff1614611ec0576040517f08c379a0000000000000000000000000000000000000000000000000000000008152600401611eb79061418e565b60405180910390fd5b80600b60026101000a81548161ffff021916908361ffff16021790555050565b6000600560008473ffffffffffffffffffffffffffffffffffffffff1673ffffffffffffffffffffffffffffffffffffffff16815260200190815260200160002060008373ffffffffffffffffffffffffffffffffffffffff1673ffffffffffffffffffffffffffffffffffffffff16815260200190815260200160002060009054906101000a900460ff16905092915050565b611f7c61221e565b73ffffffffffffffffffffffffffffffffffffffff16611f9a61195f565b73ffffffffffffffffffffffffffffffffffffffff1614611ff0576040517f08c379a0000000000000000000000000000000000000000000000000000000008152600401611fe79061418e565b60405180910390fd5b80600e908051906020019061200692919061338b565b5050565b61201261221e565b73ffffffffffffffffffffffffffffffffffffffff1661203061195f565b73ffffffffffffffffffffffffffffffffffffffff1614612086576040517f08c379a000000000000000000000000000000000000000000000000000000000815260040161207d9061418e565b60405180910390fd5b600073ffffffffffffffffffffffffffffffffffffffff168173ffffffffffffffffffffffffffffffffffffffff1614156120f6576040517f08c379a00000000000000000000000000000000000000000000000000000000081526004016120ed90613fae565b60405180910390fd5b6120ff81612b37565b50565b61210a61221e565b73ffffffffffffffffffffffffffffffffffffffff1661212861195f565b73ffffffffffffffffffffffffffffffffffffffff161461217e576040517f08c379a00000000000000000000000000000000000000000000000000000000081526004016121759061418e565b60405180910390fd5b80600c8190555050565b61219061221e565b73ffffffffffffffffffffffffffffffffffffffff166121ae61195f565b73ffffffffffffffffffffffffffffffffffffffff1614612204576040517f08c379a00000000000000000000000000000000000000000000000000000000081526004016121fb9061418e565b60405180910390fd5b80600d908051906020019061221a92919061338b565b5050565b600033905090565b60007f01ffc9a7000000000000000000000000000000000000000000000000000000007bffffffffffffffffffffffffffffffffffffffffffffffffffffffff1916827bffffffffffffffffffffffffffffffffffffffffffffffffffffffff1916149050919050565b60008073ffffffffffffffffffffffffffffffffffffffff166002600084815260200190815260200160002060009054906101000a900473ffffffffffffffffffffffffffffffffffffffff1673ffffffffffffffffffffffffffffffffffffffff1614159050919050565b816004600083815260200190815260200160002060006101000a81548173ffffffffffffffffffffffffffffffffffffffff021916908373ffffffffffffffffffffffffffffffffffffffff160217905550808273ffffffffffffffffffffffffffffffffffffffff1661236f8361163e565b73ffffffffffffffffffffffffffffffffffffffff167f8c5be1e5ebec7d5bd14f71427d1e84f3dd0314c0f7b2291e5b200ac8c7c3b92560405160405180910390a45050565b6060600e80546123c49061464e565b80601f01602080910402602001604051908101604052809291908181526020018280546123f09061464e565b801561243d5780601f106124125761010080835404028352916020019161243d565b820191906000526020600020905b81548152906001019060200180831161242057829003601f168201915b5050505050905090565b6060600082141561248f576040518060400160405280600181526020017f300000000000000000000000000000000000000000000000000000000000000081525090506125ef565b600082905060005b600082146124c15780806124aa906146b1565b915050600a826124ba9190614447565b9150612497565b60008167ffffffffffffffff811115612503577f4e487b7100000000000000000000000000000000000000000000000000000000600052604160045260246000fd5b6040519080825280601f01601f1916602001820160405280156125355781602001600182028036833780820191505090505b5090505b600085146125e85760018261254e9190614549565b9150600a8561255d9190614724565b603061256991906143ba565b60f81b8183815181106125a5577f4e487b7100000000000000000000000000000000000000000000000000000000600052603260045260246000fd5b60200101907effffffffffffffffffffffffffffffffffffffffffffffffffffffffffffff1916908160001a905350600a856125e19190614447565b9450612539565b8093505050505b919050565b6000818361260291906144b4565b905092915050565b82828260008260ff1611612653576040517f08c379a000000000000000000000000000000000000000000000000000000000815260040161264a9061420e565b60405180910390fd5b60008160ff1611612699576040517f08c379a0000000000000000000000000000000000000000000000000000000008152600401612690906140ce565b60405180910390fd5b60005b8460ff168160ff16101561271d5760005b8660ff168160ff1610156127095760008160ff168360ff1660646126d19190614478565b61ffff168a6126e091906143ba565b6126ea91906143ba565b90506126f581612ab9565b508080612701906146fa565b9150506126ad565b508080612715906146fa565b91505061269c565b50505050505050565b600061273182612290565b612770576040517f08c379a00000000000000000000000000000000000000000000000000000000081526004016127679061404e565b60405180910390fd5b600061277b8361163e565b90508073ffffffffffffffffffffffffffffffffffffffff168473ffffffffffffffffffffffffffffffffffffffff1614806127ea57508373ffffffffffffffffffffffffffffffffffffffff166127d284610bd9565b73ffffffffffffffffffffffffffffffffffffffff16145b806127fb57506127fa8185611ee0565b5b91505092915050565b8273ffffffffffffffffffffffffffffffffffffffff166128248261163e565b73ffffffffffffffffffffffffffffffffffffffff161461287a576040517f08c379a0000000000000000000000000000000000000000000000000000000008152600401612871906141ae565b60405180910390fd5b600073ffffffffffffffffffffffffffffffffffffffff168273ffffffffffffffffffffffffffffffffffffffff1614156128ea576040517f08c379a00000000000000000000000000000000000000000000000000000000081526004016128e19061400e565b60405180910390fd5b6128f5838383612ceb565b6129006000826122fc565b6001600360008573ffffffffffffffffffffffffffffffffffffffff1673ffffffffffffffffffffffffffffffffffffffff16815260200190815260200160002060008282546129509190614549565b925050819055506001600360008473ffffffffffffffffffffffffffffffffffffffff1673ffffffffffffffffffffffffffffffffffffffff16815260200190815260200160002060008282546129a791906143ba565b92505081905550816002600083815260200190815260200160002060006101000a81548173ffffffffffffffffffffffffffffffffffffffff021916908373ffffffffffffffffffffffffffffffffffffffff160217905550808273ffffffffffffffffffffffffffffffffffffffff168473ffffffffffffffffffffffffffffffffffffffff167fddf252ad1be2c89b69c2b068fc378daa952ba7f163c4a11628f55a4df523b3ef60405160405180910390a4505050565b80600760008481526020019081526020016000209080519060200190612a8792919061338b565b50817fd26ab77304eac64a04df2018c66716ad9c938c7b11429b56a46c017768172d1b60405160405180910390a25050565b600081118015612ad95750606480612ad19190614478565b61ffff168111155b612b18576040517f08c379a0000000000000000000000000000000000000000000000000000000008152600401612b0f90613f6e565b60405180910390fd5b612b223382612f95565b612b3481612b2f83611df8565b612a60565b50565b6000600660009054906101000a900473ffffffffffffffffffffffffffffffffffffffff16905081600660006101000a81548173ffffffffffffffffffffffffffffffffffffffff021916908373ffffffffffffffffffffffffffffffffffffffff1602179055508173ffffffffffffffffffffffffffffffffffffffff168173ffffffffffffffffffffffffffffffffffffffff167f8be0079c531659141344cd1fd0a4f28419497f9722a3daafe3b4186f6b6457e060405160405180910390a35050565b612c08848484612804565b612c1484848484612fb3565b612c53576040517f08c379a0000000000000000000000000000000000000000000000000000000008152600401612c4a90613f8e565b60405180910390fd5b50505050565b6060600d8054612c689061464e565b80601f0160208091040260200160405190810160405280929190818152602001828054612c949061464e565b8015612ce15780601f10612cb657610100808354040283529160200191612ce1565b820191906000526020600020905b815481529060010190602001808311612cc457829003601f168201915b5050505050905090565b612cf683838361314a565b8273ffffffffffffffffffffffffffffffffffffffff168273ffffffffffffffffffffffffffffffffffffffff1614612f9057600073ffffffffffffffffffffffffffffffffffffffff168373ffffffffffffffffffffffffffffffffffffffff161415612d8c57600a819080600181540180825580915050600190039060005260206000200160009091909190915055612edf565b60006001612d998561177e565b612da39190614549565b9050600060096000848152602001908152602001600020549050818114612e88576000600860008773ffffffffffffffffffffffffffffffffffffffff1673ffffffffffffffffffffffffffffffffffffffff168152602001908152602001600020600084815260200190815260200160002054905080600860008873ffffffffffffffffffffffffffffffffffffffff1673ffffffffffffffffffffffffffffffffffffffff168152602001908152602001600020600084815260200190815260200160002081905550816009600083815260200190815260200160002081905550505b600860008673ffffffffffffffffffffffffffffffffffffffff1673ffffffffffffffffffffffffffffffffffffffff16815260200190815260200160002060008381526020019081526020016000206000905550505b600073ffffffffffffffffffffffffffffffffffffffff168273ffffffffffffffffffffffffffffffffffffffff1614612f8f576000612f1e8361177e565b905081600860008573ffffffffffffffffffffffffffffffffffffffff1673ffffffffffffffffffffffffffffffffffffffff168152602001908152602001600020600083815260200190815260200160002081905550806009600084815260200190815260200160002081905550505b5b505050565b612faf82826040518060200160405280600081525061314f565b5050565b6000612fd48473ffffffffffffffffffffffffffffffffffffffff166131aa565b1561313d578373ffffffffffffffffffffffffffffffffffffffff1663150b7a02612ffd61221e565b8786866040518563ffffffff1660e01b815260040161301f9493929190613ec5565b602060405180830381600087803b15801561303957600080fd5b505af192505050801561306a57506040513d601f19601f820116820180604052508101906130679190613811565b60015b6130ed573d806000811461309a576040519150601f19603f3d011682016040523d82523d6000602084013e61309f565b606091505b506000815114156130e5576040517f08c379a00000000000000000000000000000000000000000000000000000000081526004016130dc90613f8e565b60405180910390fd5b805181602001fd5b63150b7a0260e01b7bffffffffffffffffffffffffffffffffffffffffffffffffffffffff1916817bffffffffffffffffffffffffffffffffffffffffffffffffffffffff191614915050613142565b600190505b949350505050565b505050565b61315983836131bd565b6131666000848484612fb3565b6131a5576040517f08c379a000000000000000000000000000000000000000000000000000000000815260040161319c90613f8e565b60405180910390fd5b505050565b600080823b905060008111915050919050565b600073ffffffffffffffffffffffffffffffffffffffff168273ffffffffffffffffffffffffffffffffffffffff16141561322d576040517f08c379a00000000000000000000000000000000000000000000000000000000081526004016132249061410e565b60405180910390fd5b61323681612290565b15613276576040517f08c379a000000000000000000000000000000000000000000000000000000000815260040161326d90613fce565b60405180910390fd5b61328260008383612ceb565b6001600360008473ffffffffffffffffffffffffffffffffffffffff1673ffffffffffffffffffffffffffffffffffffffff16815260200190815260200160002060008282546132d291906143ba565b92505081905550816002600083815260200190815260200160002060006101000a81548173ffffffffffffffffffffffffffffffffffffffff021916908373ffffffffffffffffffffffffffffffffffffffff160217905550808273ffffffffffffffffffffffffffffffffffffffff16600073ffffffffffffffffffffffffffffffffffffffff167fddf252ad1be2c89b69c2b068fc378daa952ba7f163c4a11628f55a4df523b3ef60405160405180910390a45050565b8280546133979061464e565b90600052602060002090601f0160209004810192826133b95760008555613400565b82601f106133d257805160ff1916838001178555613400565b82800160010185558215613400579182015b828111156133ff5782518255916020019190600101906133e4565b5b50905061340d9190613411565b5090565b5b8082111561342a576000816000905550600101613412565b5090565b600061344161343c846142e9565b6142c4565b9050808382526020820190508285602086028201111561346057600080fd5b60005b858110156134aa57813567ffffffffffffffff81111561348257600080fd5b80860161348f89826135d8565b85526020850194506020840193505050600181019050613463565b5050509392505050565b60006134c76134c284614315565b6142c4565b9050828152602081018484840111156134df57600080fd5b6134ea84828561460c565b509392505050565b600061350561350084614346565b6142c4565b90508281526020810184848401111561351d57600080fd5b61352884828561460c565b509392505050565b60008135905061353f81614efb565b92915050565b600082601f83011261355657600080fd5b813561356684826020860161342e565b91505092915050565b60008135905061357e81614f12565b92915050565b60008135905061359381614f29565b92915050565b6000815190506135a881614f29565b92915050565b600082601f8301126135bf57600080fd5b81356135cf8482602086016134b4565b91505092915050565b600082601f8301126135e957600080fd5b81356135f98482602086016134f2565b91505092915050565b60008135905061361181614f40565b92915050565b60008135905061362681614f57565b92915050565b60008135905061363b81614f6e565b92915050565b60006020828403121561365357600080fd5b600061366184828501613530565b91505092915050565b6000806040838503121561367d57600080fd5b600061368b85828601613530565b925050602061369c85828601613530565b9150509250929050565b6000806000606084860312156136bb57600080fd5b60006136c986828701613530565b93505060206136da86828701613530565b92505060406136eb86828701613617565b9150509250925092565b6000806000806080858703121561370b57600080fd5b600061371987828801613530565b945050602061372a87828801613530565b935050604061373b87828801613617565b925050606085013567ffffffffffffffff81111561375857600080fd5b613764878288016135ae565b91505092959194509250565b6000806040838503121561378357600080fd5b600061379185828601613530565b92505060206137a28582860161356f565b9150509250929050565b600080604083850312156137bf57600080fd5b60006137cd85828601613530565b92505060206137de85828601613617565b9150509250929050565b6000602082840312156137fa57600080fd5b600061380884828501613584565b91505092915050565b60006020828403121561382357600080fd5b600061383184828501613599565b91505092915050565b60006020828403121561384c57600080fd5b600082013567ffffffffffffffff81111561386657600080fd5b613872848285016135d8565b91505092915050565b60006020828403121561388d57600080fd5b600061389b84828501613602565b91505092915050565b6000602082840312156138b657600080fd5b60006138c484828501613617565b91505092915050565b600080604083850312156138e057600080fd5b60006138ee85828601613617565b925050602083013567ffffffffffffffff81111561390b57600080fd5b613917858286016135d8565b9150509250929050565b60008060006060848603121561393657600080fd5b600061394486828701613617565b93505060206139558682870161362c565b92505060406139668682870161362c565b9150509250925092565b6000806000806080858703121561398657600080fd5b600061399487828801613617565b94505060206139a58782880161362c565b93505060406139b68782880161362c565b925050606085013567ffffffffffffffff8111156139d357600080fd5b6139df87828801613545565b91505092959194509250565b6139f48161457d565b82525050565b613a038161458f565b82525050565b6000613a1482614377565b613a1e818561438d565b9350613a2e81856020860161461b565b613a3781614811565b840191505092915050565b6000613a4d82614382565b613a57818561439e565b9350613a6781856020860161461b565b613a7081614811565b840191505092915050565b6000613a8682614382565b613a9081856143af565b9350613aa081856020860161461b565b80840191505092915050565b6000613ab960258361439e565b9150613ac482614822565b604082019050919050565b6000613adc60158361439e565b9150613ae782614871565b602082019050919050565b6000613aff60328361439e565b9150613b0a8261489a565b604082019050919050565b6000613b2260268361439e565b9150613b2d826148e9565b604082019050919050565b6000613b45601c8361439e565b9150613b5082614938565b602082019050919050565b6000613b6860398361439e565b9150613b7382614961565b604082019050919050565b6000613b8b60248361439e565b9150613b96826149b0565b604082019050919050565b6000613bae60198361439e565b9150613bb9826149ff565b602082019050919050565b6000613bd1602c8361439e565b9150613bdc82614a28565b604082019050919050565b6000613bf460388361439e565b9150613bff82614a77565b604082019050919050565b6000613c17602a8361439e565b9150613c2282614ac6565b604082019050919050565b6000613c3a60298361439e565b9150613c4582614b15565b604082019050919050565b6000613c5d60188361439e565b9150613c6882614b64565b602082019050919050565b6000613c80603e8361439e565b9150613c8b82614b8d565b604082019050919050565b6000613ca360208361439e565b9150613cae82614bdc565b602082019050919050565b6000613cc660238361439e565b9150613cd182614c05565b604082019050919050565b6000613ce9602c8361439e565b9150613cf482614c54565b604082019050919050565b6000613d0c6005836143af565b9150613d1782614ca3565b600582019050919050565b6000613d2f60228361439e565b9150613d3a82614ccc565b604082019050919050565b6000613d5260208361439e565b9150613d5d82614d1b565b602082019050919050565b6000613d7560298361439e565b9150613d8082614d44565b604082019050919050565b6000613d9860338361439e565b9150613da382614d93565b604082019050919050565b6000613dbb60218361439e565b9150613dc682614de2565b604082019050919050565b6000613dde60178361439e565b9150613de982614e31565b602082019050919050565b6000613e01601a8361439e565b9150613e0c82614e5a565b602082019050919050565b6000613e2460318361439e565b9150613e2f82614e83565b604082019050919050565b6000613e4760138361439e565b9150613e5282614ed2565b602082019050919050565b613e66816145c7565b82525050565b613e75816145f5565b82525050565b6000613e878285613a7b565b9150613e938284613a7b565b9150613e9e82613cff565b91508190509392505050565b6000602082019050613ebf60008301846139eb565b92915050565b6000608082019050613eda60008301876139eb565b613ee760208301866139eb565b613ef46040830185613e6c565b8181036060830152613f068184613a09565b905095945050505050565b6000602082019050613f2660008301846139fa565b92915050565b60006020820190508181036000830152613f468184613a42565b905092915050565b60006020820190508181036000830152613f6781613aac565b9050919050565b60006020820190508181036000830152613f8781613acf565b9050919050565b60006020820190508181036000830152613fa781613af2565b9050919050565b60006020820190508181036000830152613fc781613b15565b9050919050565b60006020820190508181036000830152613fe781613b38565b9050919050565b6000602082019050818103600083015261400781613b5b565b9050919050565b6000602082019050818103600083015261402781613b7e565b9050919050565b6000602082019050818103600083015261404781613ba1565b9050919050565b6000602082019050818103600083015261406781613bc4565b9050919050565b6000602082019050818103600083015261408781613be7565b9050919050565b600060208201905081810360008301526140a781613c0a565b9050919050565b600060208201905081810360008301526140c781613c2d565b9050919050565b600060208201905081810360008301526140e781613c50565b9050919050565b6000602082019050818103600083015261410781613c73565b9050919050565b6000602082019050818103600083015261412781613c96565b9050919050565b6000602082019050818103600083015261414781613cb9565b9050919050565b6000602082019050818103600083015261416781613cdc565b9050919050565b6000602082019050818103600083015261418781613d22565b9050919050565b600060208201905081810360008301526141a781613d45565b9050919050565b600060208201905081810360008301526141c781613d68565b9050919050565b600060208201905081810360008301526141e781613d8b565b9050919050565b6000602082019050818103600083015261420781613dae565b9050919050565b6000602082019050818103600083015261422781613dd1565b9050919050565b6000602082019050818103600083015261424781613df4565b9050919050565b6000602082019050818103600083015261426781613e17565b9050919050565b6000602082019050818103600083015261428781613e3a565b9050919050565b60006020820190506142a36000830184613e5d565b92915050565b60006020820190506142be6000830184613e6c565b92915050565b60006142ce6142df565b90506142da8282614680565b919050565b6000604051905090565b600067ffffffffffffffff821115614304576143036147e2565b5b602082029050602081019050919050565b600067ffffffffffffffff8211156143305761432f6147e2565b5b61433982614811565b9050602081019050919050565b600067ffffffffffffffff821115614361576143606147e2565b5b61436a82614811565b9050602081019050919050565b600081519050919050565b600081519050919050565b600082825260208201905092915050565b600082825260208201905092915050565b600081905092915050565b60006143c5826145f5565b91506143d0836145f5565b9250827fffffffffffffffffffffffffffffffffffffffffffffffffffffffffffffffff0382111561440557614404614755565b5b828201905092915050565b600061441b826145ff565b9150614426836145ff565b92508260ff0382111561443c5761443b614755565b5b828201905092915050565b6000614452826145f5565b915061445d836145f5565b92508261446d5761446c614784565b5b828204905092915050565b6000614483826145c7565b915061448e836145c7565b92508161ffff04831182151516156144a9576144a8614755565b5b828202905092915050565b60006144bf826145f5565b91506144ca836145f5565b9250817fffffffffffffffffffffffffffffffffffffffffffffffffffffffffffffffff048311821515161561450357614502614755565b5b828202905092915050565b6000614519826145ff565b9150614524836145ff565b92508160ff048311821515161561453e5761453d614755565b5b828202905092915050565b6000614554826145f5565b915061455f836145f5565b92508282101561457257614571614755565b5b828203905092915050565b6000614588826145d5565b9050919050565b60008115159050919050565b60007fffffffff0000000000000000000000000000000000000000000000000000000082169050919050565b600061ffff82169050919050565b600073ffffffffffffffffffffffffffffffffffffffff82169050919050565b6000819050919050565b600060ff82169050919050565b82818337600083830152505050565b60005b8381101561463957808201518184015260208101905061461e565b83811115614648576000848401525b50505050565b6000600282049050600182168061466657607f821691505b6020821081141561467a576146796147b3565b5b50919050565b61468982614811565b810181811067ffffffffffffffff821117156146a8576146a76147e2565b5b80604052505050565b60006146bc826145f5565b91507fffffffffffffffffffffffffffffffffffffffffffffffffffffffffffffffff8214156146ef576146ee614755565b5b600182019050919050565b6000614705826145ff565b915060ff82141561471957614718614755565b5b600182019050919050565b600061472f826145f5565b915061473a836145f5565b92508261474a57614749614784565b5b828206905092915050565b7f4e487b7100000000000000000000000000000000000000000000000000000000600052601160045260246000fd5b7f4e487b7100000000000000000000000000000000000000000000000000000000600052601260045260246000fd5b7f4e487b7100000000000000000000000000000000000000000000000000000000600052602260045260246000fd5b7f4e487b7100000000000000000000000000000000000000000000000000000000600052604160045260246000fd5b6000601f19601f8301169050919050565b7f4d4454503a20726561636865642063757272656e74206f776e6572736869702060008201527f6c696d6974000000000000000000000000000000000000000000000000000000602082015250565b7f4d4454503a20696e76616c696420746f6b656e49640000000000000000000000600082015250565b7f4552433732313a207472616e7366657220746f206e6f6e20455243373231526560008201527f63656976657220696d706c656d656e7465720000000000000000000000000000602082015250565b7f4f776e61626c653a206e6577206f776e657220697320746865207a65726f206160008201527f6464726573730000000000000000000000000000000000000000000000000000602082015250565b7f4552433732313a20746f6b656e20616c7265616479206d696e74656400000000600082015250565b7f4d4454503a2063616c6c6572206973206e6f742074686520746f6b656e4f776e60008201527f6572206f6620616c6c20746f6b656e7320696e2067726f757000000000000000602082015250565b7f4552433732313a207472616e7366657220746f20746865207a65726f2061646460008201527f7265737300000000000000000000000000000000000000000000000000000000602082015250565b7f4552433732313a20617070726f766520746f2063616c6c657200000000000000600082015250565b7f4552433732313a206f70657261746f7220717565727920666f72206e6f6e657860008201527f697374656e7420746f6b656e0000000000000000000000000000000000000000602082015250565b7f4552433732313a20617070726f76652063616c6c6572206973206e6f74206f7760008201527f6e6572206e6f7220617070726f76656420666f7220616c6c0000000000000000602082015250565b7f4552433732313a2062616c616e636520717565727920666f7220746865207a6560008201527f726f206164647265737300000000000000000000000000000000000000000000602082015250565b7f4552433732313a206f776e657220717565727920666f72206e6f6e657869737460008201527f656e7420746f6b656e0000000000000000000000000000000000000000000000602082015250565b7f4d4454503a20686569676874206d757374206265203e20300000000000000000600082015250565b7f4d4454503a206c656e677468206f6620636f6e74656e7455524973206d75737460008201527f206265207468652073616d65206173207769647468202a206865696768740000602082015250565b7f4552433732313a206d696e7420746f20746865207a65726f2061646472657373600082015250565b7f4d4454503a20726561636865642063757272656e74206d696e74696e67206c6960008201527f6d69740000000000000000000000000000000000000000000000000000000000602082015250565b7f4552433732313a20617070726f76656420717565727920666f72206e6f6e657860008201527f697374656e7420746f6b656e0000000000000000000000000000000000000000602082015250565b7f2e6a736f6e000000000000000000000000000000000000000000000000000000600082015250565b7f4d4454503a2063616c6c6572206973206e6f742074686520746f6b656e4f776e60008201527f6572000000000000000000000000000000000000000000000000000000000000602082015250565b7f4f776e61626c653a2063616c6c6572206973206e6f7420746865206f776e6572600082015250565b7f4552433732313a207472616e73666572206f6620746f6b656e2074686174206960008201527f73206e6f74206f776e0000000000000000000000000000000000000000000000602082015250565b7f4d4454503a2072657175657374656420746f6b656e20636f756e74206973206f60008201527f7665722073696e676c654d696e744c696d697400000000000000000000000000602082015250565b7f4552433732313a20617070726f76616c20746f2063757272656e74206f776e6560008201527f7200000000000000000000000000000000000000000000000000000000000000602082015250565b7f4d4454503a207769647468206d757374206265203e2030000000000000000000600082015250565b7f4d4454503a20496e73756666696369656e74207061796d656e74000000000000600082015250565b7f4552433732313a207472616e736665722063616c6c6572206973206e6f74206f60008201527f776e6572206e6f7220617070726f766564000000000000000000000000000000602082015250565b7f4d4454503a20696e76616c696420696e64657800000000000000000000000000600082015250565b614f048161457d565b8114614f0f57600080fd5b50565b614f1b8161458f565b8114614f2657600080fd5b50565b614f328161459b565b8114614f3d57600080fd5b50565b614f49816145c7565b8114614f5457600080fd5b50565b614f60816145f5565b8114614f6b57600080fd5b50565b614f77816145ff565b8114614f8257600080fd5b5056fea2646970667358221220fbee3882196fb2ce1bcd7e42b864e7711c32be7b75c3476a036995464008084d64736f6c63430008040033",
  "linkReferences": {},
  "deployedLinkReferences": {}
}