{
  "_format": "hh-sol-artifact-1",
  "contractName": "MillionDollarTokenPage",
  "sourceName": "contracts/MillionDollarTokenPage.sol",
  "abi": [
    {
      "inputs": [
        {
          "internalType": "uint16",
          "name": "initialTotalMintLimit",
          "type": "uint16"
        },
        {
          "internalType": "uint16",
          "name": "initialSingleMintLimit",
          "type": "uint16"
        },
        {
          "internalType": "uint16",
          "name": "initialOwnershipMintLimit",
          "type": "uint16"
        },
        {
          "internalType": "uint256",
          "name": "initialMintPrice",
          "type": "uint256"
        },
        {
          "internalType": "string",
          "name": "initialMetadataBaseURI",
          "type": "string"
        },
        {
          "internalType": "string",
          "name": "initialDefaultContentBaseURI",
          "type": "string"
        }
      ],
      "stateMutability": "nonpayable",
      "type": "constructor"
    },
    {
      "anonymous": false,
      "inputs": [
        {
          "indexed": true,
          "internalType": "address",
          "name": "owner",
          "type": "address"
        },
        {
          "indexed": true,
          "internalType": "address",
          "name": "approved",
          "type": "address"
        },
        {
          "indexed": true,
          "internalType": "uint256",
          "name": "tokenId",
          "type": "uint256"
        }
      ],
      "name": "Approval",
      "type": "event"
    },
    {
      "anonymous": false,
      "inputs": [
        {
          "indexed": true,
          "internalType": "address",
          "name": "owner",
          "type": "address"
        },
        {
          "indexed": true,
          "internalType": "address",
          "name": "operator",
          "type": "address"
        },
        {
          "indexed": false,
          "internalType": "bool",
          "name": "approved",
          "type": "bool"
        }
      ],
      "name": "ApprovalForAll",
      "type": "event"
    },
    {
      "anonymous": false,
      "inputs": [
        {
          "indexed": true,
          "internalType": "address",
          "name": "previousOwner",
          "type": "address"
        },
        {
          "indexed": true,
          "internalType": "address",
          "name": "newOwner",
          "type": "address"
        }
      ],
      "name": "OwnershipTransferred",
      "type": "event"
    },
    {
      "anonymous": false,
      "inputs": [
        {
          "indexed": true,
          "internalType": "uint256",
          "name": "tokenId",
          "type": "uint256"
        }
      ],
      "name": "TokenContentURIChanged",
      "type": "event"
    },
    {
      "anonymous": false,
      "inputs": [
        {
          "indexed": true,
          "internalType": "address",
          "name": "from",
          "type": "address"
        },
        {
          "indexed": true,
          "internalType": "address",
          "name": "to",
          "type": "address"
        },
        {
          "indexed": true,
          "internalType": "uint256",
          "name": "tokenId",
          "type": "uint256"
        }
      ],
      "name": "Transfer",
      "type": "event"
    },
    {
      "inputs": [],
      "name": "COLUMN_COUNT",
      "outputs": [
        {
          "internalType": "uint16",
          "name": "",
          "type": "uint16"
        }
      ],
      "stateMutability": "view",
      "type": "function"
    },
    {
      "inputs": [],
      "name": "ROW_COUNT",
      "outputs": [
        {
          "internalType": "uint16",
          "name": "",
          "type": "uint16"
        }
      ],
      "stateMutability": "view",
      "type": "function"
    },
    {
      "inputs": [],
      "name": "SUPPLY_LIMIT",
      "outputs": [
        {
          "internalType": "uint16",
          "name": "",
          "type": "uint16"
        }
      ],
      "stateMutability": "view",
      "type": "function"
    },
    {
      "inputs": [],
      "name": "_defaultContentBaseURI",
      "outputs": [
        {
          "internalType": "string",
          "name": "",
          "type": "string"
        }
      ],
      "stateMutability": "view",
      "type": "function"
    },
    {
      "inputs": [],
      "name": "_metadataBaseURI",
      "outputs": [
        {
          "internalType": "string",
          "name": "",
          "type": "string"
        }
      ],
      "stateMutability": "view",
      "type": "function"
    },
    {
      "inputs": [
        {
          "internalType": "address",
          "name": "to",
          "type": "address"
        },
        {
          "internalType": "uint256",
          "name": "tokenId",
          "type": "uint256"
        }
      ],
      "name": "approve",
      "outputs": [],
      "stateMutability": "nonpayable",
      "type": "function"
    },
    {
      "inputs": [
        {
          "internalType": "address",
          "name": "owner",
          "type": "address"
        }
      ],
      "name": "balanceOf",
      "outputs": [
        {
          "internalType": "uint256",
          "name": "",
          "type": "uint256"
        }
      ],
      "stateMutability": "view",
      "type": "function"
    },
    {
      "inputs": [
        {
          "internalType": "uint256",
          "name": "tokenId",
          "type": "uint256"
        }
      ],
      "name": "getApproved",
      "outputs": [
        {
          "internalType": "address",
          "name": "",
          "type": "address"
        }
      ],
      "stateMutability": "view",
      "type": "function"
    },
    {
      "inputs": [
        {
          "internalType": "address",
          "name": "owner",
          "type": "address"
        },
        {
          "internalType": "address",
          "name": "operator",
          "type": "address"
        }
      ],
      "name": "isApprovedForAll",
      "outputs": [
        {
          "internalType": "bool",
          "name": "",
          "type": "bool"
        }
      ],
      "stateMutability": "view",
      "type": "function"
    },
    {
      "inputs": [
        {
          "internalType": "uint256",
          "name": "tokenId",
          "type": "uint256"
        }
      ],
      "name": "mintAdmin",
      "outputs": [],
      "stateMutability": "nonpayable",
      "type": "function"
    },
    {
      "inputs": [],
      "name": "mintPrice",
      "outputs": [
        {
          "internalType": "uint256",
          "name": "",
          "type": "uint256"
        }
      ],
      "stateMutability": "view",
      "type": "function"
    },
    {
      "inputs": [
        {
          "internalType": "uint256",
          "name": "tokenId",
          "type": "uint256"
        }
      ],
      "name": "mintToken",
      "outputs": [],
      "stateMutability": "payable",
      "type": "function"
    },
    {
      "inputs": [
        {
          "internalType": "uint256",
          "name": "tokenId",
          "type": "uint256"
        },
        {
          "internalType": "uint8",
          "name": "width",
          "type": "uint8"
        },
        {
          "internalType": "uint8",
          "name": "height",
          "type": "uint8"
        }
      ],
      "name": "mintTokenGroup",
      "outputs": [],
      "stateMutability": "payable",
      "type": "function"
    },
    {
      "inputs": [
        {
          "internalType": "uint256",
          "name": "tokenId",
          "type": "uint256"
        },
        {
          "internalType": "uint8",
          "name": "width",
          "type": "uint8"
        },
        {
          "internalType": "uint8",
          "name": "height",
          "type": "uint8"
        }
      ],
      "name": "mintTokenGroupAdmin",
      "outputs": [],
      "stateMutability": "payable",
      "type": "function"
    },
    {
      "inputs": [],
      "name": "mintedCount",
      "outputs": [
        {
          "internalType": "uint256",
          "name": "",
          "type": "uint256"
        }
      ],
      "stateMutability": "view",
      "type": "function"
    },
    {
      "inputs": [],
      "name": "name",
      "outputs": [
        {
          "internalType": "string",
          "name": "",
          "type": "string"
        }
      ],
      "stateMutability": "view",
      "type": "function"
    },
    {
      "inputs": [],
      "name": "owner",
      "outputs": [
        {
          "internalType": "address",
          "name": "",
          "type": "address"
        }
      ],
      "stateMutability": "view",
      "type": "function"
    },
    {
      "inputs": [
        {
          "internalType": "uint256",
          "name": "tokenId",
          "type": "uint256"
        }
      ],
      "name": "ownerOf",
      "outputs": [
        {
          "internalType": "address",
          "name": "",
          "type": "address"
        }
      ],
      "stateMutability": "view",
      "type": "function"
    },
    {
      "inputs": [],
      "name": "ownershipMintLimit",
      "outputs": [
        {
          "internalType": "uint16",
          "name": "",
          "type": "uint16"
        }
      ],
      "stateMutability": "view",
      "type": "function"
    },
    {
      "inputs": [],
      "name": "renounceOwnership",
      "outputs": [],
      "stateMutability": "nonpayable",
      "type": "function"
    },
    {
      "inputs": [
        {
          "internalType": "address",
          "name": "from",
          "type": "address"
        },
        {
          "internalType": "address",
          "name": "to",
          "type": "address"
        },
        {
          "internalType": "uint256",
          "name": "tokenId",
          "type": "uint256"
        }
      ],
      "name": "safeTransferFrom",
      "outputs": [],
      "stateMutability": "nonpayable",
      "type": "function"
    },
    {
      "inputs": [
        {
          "internalType": "address",
          "name": "from",
          "type": "address"
        },
        {
          "internalType": "address",
          "name": "to",
          "type": "address"
        },
        {
          "internalType": "uint256",
          "name": "tokenId",
          "type": "uint256"
        },
        {
          "internalType": "bytes",
          "name": "_data",
          "type": "bytes"
        }
      ],
      "name": "safeTransferFrom",
      "outputs": [],
      "stateMutability": "nonpayable",
      "type": "function"
    },
    {
      "inputs": [
        {
          "internalType": "address",
          "name": "operator",
          "type": "address"
        },
        {
          "internalType": "bool",
          "name": "approved",
          "type": "bool"
        }
      ],
      "name": "setApprovalForAll",
      "outputs": [],
      "stateMutability": "nonpayable",
      "type": "function"
    },
    {
      "inputs": [
        {
          "internalType": "string",
          "name": "newDefaultContentBaseURI",
          "type": "string"
        }
      ],
      "name": "setDefaultContentBaseURI",
      "outputs": [],
      "stateMutability": "nonpayable",
      "type": "function"
    },
    {
      "inputs": [
        {
          "internalType": "string",
          "name": "newMetadataBaseURI",
          "type": "string"
        }
      ],
      "name": "setMetadataBaseURI",
      "outputs": [],
      "stateMutability": "nonpayable",
      "type": "function"
    },
    {
      "inputs": [
        {
          "internalType": "uint256",
          "name": "newMintPrice",
          "type": "uint256"
        }
      ],
      "name": "setMintPrice",
      "outputs": [],
      "stateMutability": "nonpayable",
      "type": "function"
    },
    {
      "inputs": [
        {
          "internalType": "uint16",
          "name": "newOwnershipMintLimit",
          "type": "uint16"
        }
      ],
      "name": "setOwnershipMintLimit",
      "outputs": [],
      "stateMutability": "nonpayable",
      "type": "function"
    },
    {
      "inputs": [
        {
          "internalType": "uint16",
          "name": "newSingleMintLimit",
          "type": "uint16"
        }
      ],
      "name": "setSingleMintLimit",
      "outputs": [],
      "stateMutability": "nonpayable",
      "type": "function"
    },
    {
      "inputs": [
        {
          "internalType": "uint256",
          "name": "tokenId",
          "type": "uint256"
        },
        {
          "internalType": "string",
          "name": "contentURI",
          "type": "string"
        }
      ],
      "name": "setTokenContentURI",
      "outputs": [],
      "stateMutability": "nonpayable",
      "type": "function"
    },
    {
      "inputs": [
        {
          "internalType": "uint256",
          "name": "tokenId",
          "type": "uint256"
        },
        {
          "internalType": "uint8",
          "name": "width",
          "type": "uint8"
        },
        {
          "internalType": "uint8",
          "name": "height",
          "type": "uint8"
        },
        {
          "internalType": "string[]",
          "name": "contentURIs",
          "type": "string[]"
        }
      ],
      "name": "setTokenGroupContentURIs",
      "outputs": [],
      "stateMutability": "nonpayable",
      "type": "function"
    },
    {
      "inputs": [
        {
          "internalType": "uint16",
          "name": "newTotalMintLimit",
          "type": "uint16"
        }
      ],
      "name": "setTotalMintLimit",
      "outputs": [],
      "stateMutability": "nonpayable",
      "type": "function"
    },
    {
      "inputs": [],
      "name": "singleMintLimit",
      "outputs": [
        {
          "internalType": "uint16",
          "name": "",
          "type": "uint16"
        }
      ],
      "stateMutability": "view",
      "type": "function"
    },
    {
      "inputs": [
        {
          "internalType": "bytes4",
          "name": "interfaceId",
          "type": "bytes4"
        }
      ],
      "name": "supportsInterface",
      "outputs": [
        {
          "internalType": "bool",
          "name": "",
          "type": "bool"
        }
      ],
      "stateMutability": "view",
      "type": "function"
    },
    {
      "inputs": [],
      "name": "symbol",
      "outputs": [
        {
          "internalType": "string",
          "name": "",
          "type": "string"
        }
      ],
      "stateMutability": "view",
      "type": "function"
    },
    {
      "inputs": [
        {
          "internalType": "uint256",
          "name": "index",
          "type": "uint256"
        }
      ],
      "name": "tokenByIndex",
      "outputs": [
        {
          "internalType": "uint256",
          "name": "",
          "type": "uint256"
        }
      ],
      "stateMutability": "pure",
      "type": "function"
    },
    {
      "inputs": [
        {
          "internalType": "uint256",
          "name": "tokenId",
          "type": "uint256"
        }
      ],
      "name": "tokenContentURI",
      "outputs": [
        {
          "internalType": "string",
          "name": "",
          "type": "string"
        }
      ],
      "stateMutability": "view",
      "type": "function"
    },
    {
      "inputs": [
        {
          "internalType": "address",
          "name": "owner",
          "type": "address"
        },
        {
          "internalType": "uint256",
          "name": "index",
          "type": "uint256"
        }
      ],
      "name": "tokenOfOwnerByIndex",
      "outputs": [
        {
          "internalType": "uint256",
          "name": "tokenId",
          "type": "uint256"
        }
      ],
      "stateMutability": "view",
      "type": "function"
    },
    {
      "inputs": [
        {
          "internalType": "uint256",
          "name": "tokenId",
          "type": "uint256"
        }
      ],
      "name": "tokenURI",
      "outputs": [
        {
          "internalType": "string",
          "name": "",
          "type": "string"
        }
      ],
      "stateMutability": "view",
      "type": "function"
    },
    {
      "inputs": [],
      "name": "totalMintLimit",
      "outputs": [
        {
          "internalType": "uint16",
          "name": "",
          "type": "uint16"
        }
      ],
      "stateMutability": "view",
      "type": "function"
    },
    {
      "inputs": [],
      "name": "totalSupply",
      "outputs": [
        {
          "internalType": "uint256",
          "name": "",
          "type": "uint256"
        }
      ],
      "stateMutability": "pure",
      "type": "function"
    },
    {
      "inputs": [
        {
          "internalType": "address",
          "name": "from",
          "type": "address"
        },
        {
          "internalType": "address",
          "name": "to",
          "type": "address"
        },
        {
          "internalType": "uint256",
          "name": "tokenId",
          "type": "uint256"
        }
      ],
      "name": "transferFrom",
      "outputs": [],
      "stateMutability": "nonpayable",
      "type": "function"
    },
    {
      "inputs": [
        {
          "internalType": "address",
          "name": "newOwner",
          "type": "address"
        }
      ],
      "name": "transferOwnership",
      "outputs": [],
      "stateMutability": "nonpayable",
      "type": "function"
    },
    {
      "inputs": [],
      "name": "withdraw",
      "outputs": [],
      "stateMutability": "nonpayable",
      "type": "function"
    }
  ],
  "bytecode": "0x60806040523480156200001157600080fd5b506040516200560d3803806200560d8339818101604052810190620000379190620003b1565b6040518060400160405280601681526020017f4d696c6c696f6e446f6c6c6172546f6b656e50616765000000000000000000008152506040518060400160405280600381526020017fe28aa100000000000000000000000000000000000000000000000000000000008152508160009080519060200190620000bb92919062000261565b508060019080519060200190620000d492919062000261565b505050620000f7620000eb6200019360201b60201c565b6200019b60201b60201c565b81600d90805190602001906200010f92919062000261565b5080600e90805190602001906200012892919062000261565b5085600b60006101000a81548161ffff021916908361ffff16021790555084600b60026101000a81548161ffff021916908361ffff16021790555083600b60046101000a81548161ffff021916908361ffff16021790555082600c8190555050505050505062000635565b600033905090565b6000600660009054906101000a900473ffffffffffffffffffffffffffffffffffffffff16905081600660006101000a81548173ffffffffffffffffffffffffffffffffffffffff021916908373ffffffffffffffffffffffffffffffffffffffff1602179055508173ffffffffffffffffffffffffffffffffffffffff168173ffffffffffffffffffffffffffffffffffffffff167f8be0079c531659141344cd1fd0a4f28419497f9722a3daafe3b4186f6b6457e060405160405180910390a35050565b8280546200026f9062000526565b90600052602060002090601f016020900481019282620002935760008555620002df565b82601f10620002ae57805160ff1916838001178555620002df565b82800160010185558215620002df579182015b82811115620002de578251825591602001919060010190620002c1565b5b509050620002ee9190620002f2565b5090565b5b808211156200030d576000816000905550600101620002f3565b5090565b6000620003286200032284620004a2565b62000479565b9050828152602081018484840111156200034157600080fd5b6200034e848285620004f0565b509392505050565b600082601f8301126200036857600080fd5b81516200037a84826020860162000311565b91505092915050565b600081519050620003948162000601565b92915050565b600081519050620003ab816200061b565b92915050565b60008060008060008060c08789031215620003cb57600080fd5b6000620003db89828a0162000383565b9650506020620003ee89828a0162000383565b95505060406200040189828a0162000383565b94505060606200041489828a016200039a565b935050608087015167ffffffffffffffff8111156200043257600080fd5b6200044089828a0162000356565b92505060a087015167ffffffffffffffff8111156200045e57600080fd5b6200046c89828a0162000356565b9150509295509295509295565b60006200048562000498565b90506200049382826200055c565b919050565b6000604051905090565b600067ffffffffffffffff821115620004c057620004bf620005c1565b5b620004cb82620005f0565b9050602081019050919050565b600061ffff82169050919050565b6000819050919050565b60005b8381101562000510578082015181840152602081019050620004f3565b8381111562000520576000848401525b50505050565b600060028204905060018216806200053f57607f821691505b6020821081141562000556576200055562000592565b5b50919050565b6200056782620005f0565b810181811067ffffffffffffffff82111715620005895762000588620005c1565b5b80604052505050565b7f4e487b7100000000000000000000000000000000000000000000000000000000600052602260045260246000fd5b7f4e487b7100000000000000000000000000000000000000000000000000000000600052604160045260246000fd5b6000601f19601f8301169050919050565b6200060c81620004d8565b81146200061857600080fd5b50565b6200062681620004e6565b81146200063257600080fd5b50565b614fc880620006456000396000f3fe60806040526004361061025c5760003560e01c806370a0823111610144578063c634d032116100b6578063e8d44caf1161007a578063e8d44caf146108bf578063e985e9c5146108e8578063eb3391a914610925578063f2fde38b1461094e578063f4a0a52814610977578063fb94bd8a146109a05761025c565b8063c634d032146107e5578063c742856614610801578063c87b56dd1461082c578063cf721b1514610869578063e04a8eaf146108945761025c565b806395d89b411161010857806395d89b41146106f8578063a1ae82e514610723578063a2194baf1461074c578063a22cb46514610768578063a5dee00214610791578063b88d4fde146107bc5761025c565b806370a0823114610625578063715018a61461066257806376dd1f86146106795780638d50645a146106a45780638da5cb5b146106cd5761025c565b80632f745c59116101dd5780634ddd7fec116101a15780634ddd7fec146105035780634f6ccce71461052e5780635935e01a1461056b5780636352211e14610594578063677ab70b146105d15780636817c76c146105fa5761025c565b80632f745c59146104305780633906f5601461046d5780633ccfd60b1461049857806342842e0e146104af5780634a0218d6146104d85761025c565b80630c0a9d26116102245780630c0a9d261461035857806318160ddd146103955780631f5e7978146103c057806323b872dd146103dc57806328b8692a146104055761025c565b80630170163a1461026157806301ffc9a71461028a57806306fdde03146102c7578063081812fc146102f2578063095ea7b31461032f575b600080fd5b34801561026d57600080fd5b5061028860048036038101906102839190613888565b6109c9565b005b34801561029657600080fd5b506102b160048036038101906102ac91906137f5565b610a65565b6040516102be9190613f1e565b60405180910390f35b3480156102d357600080fd5b506102dc610b47565b6040516102e99190613f39565b60405180910390f35b3480156102fe57600080fd5b50610319600480360381019061031491906138b1565b610bd9565b6040516103269190613eb7565b60405180910390f35b34801561033b57600080fd5b50610356600480360381019061035191906137b9565b610c5e565b005b34801561036457600080fd5b5061037f600480360381019061037a91906138b1565b610d76565b60405161038c9190613f39565b60405180910390f35b3480156103a157600080fd5b506103aa610e84565b6040516103b791906142b6565b60405180910390f35b6103da60048036038101906103d5919061392e565b610e9c565b005b3480156103e857600080fd5b5061040360048036038101906103fe91906136b3565b611041565b005b34801561041157600080fd5b5061041a6110a1565b6040516104279190613f39565b60405180910390f35b34801561043c57600080fd5b50610457600480360381019061045291906137b9565b61112f565b60405161046491906142b6565b60405180910390f35b34801561047957600080fd5b5061048261118a565b60405161048f919061429b565b60405180910390f35b3480156104a457600080fd5b506104ad61119a565b005b3480156104bb57600080fd5b506104d660048036038101906104d191906136b3565b611265565b005b3480156104e457600080fd5b506104ed611285565b6040516104fa919061429b565b60405180910390f35b34801561050f57600080fd5b5061051861128a565b6040516105259190613f39565b60405180910390f35b34801561053a57600080fd5b50610555600480360381019061055091906138b1565b611318565b60405161056291906142b6565b60405180910390f35b34801561057757600080fd5b50610592600480360381019061058d919061397d565b61138c565b005b3480156105a057600080fd5b506105bb60048036038101906105b691906138b1565b61165d565b6040516105c89190613eb7565b60405180910390f35b3480156105dd57600080fd5b506105f860048036038101906105f391906138b1565b61170f565b005b34801561060657600080fd5b5061060f611797565b60405161061c91906142b6565b60405180910390f35b34801561063157600080fd5b5061064c6004803603810190610647919061364e565b61179d565b60405161065991906142b6565b60405180910390f35b34801561066e57600080fd5b50610677611855565b005b34801561068557600080fd5b5061068e6118dd565b60405161069b919061429b565b60405180910390f35b3480156106b057600080fd5b506106cb60048036038101906106c691906138da565b6118f1565b005b3480156106d957600080fd5b506106e261197e565b6040516106ef9190613eb7565b60405180910390f35b34801561070457600080fd5b5061070d6119a8565b60405161071a9190613f39565b60405180910390f35b34801561072f57600080fd5b5061074a60048036038101906107459190613888565b611a3a565b005b6107666004803603810190610761919061392e565b611ad6565b005b34801561077457600080fd5b5061078f600480360381019061078a919061377d565b611ae6565b005b34801561079d57600080fd5b506107a6611c67565b6040516107b3919061429b565b60405180910390f35b3480156107c857600080fd5b506107e360048036038101906107de9190613702565b611c7b565b005b6107ff60048036038101906107fa91906138b1565b611cdd565b005b34801561080d57600080fd5b50610816611e03565b604051610823919061429b565b60405180910390f35b34801561083857600080fd5b50610853600480360381019061084e91906138b1565b611e17565b6040516108609190613f39565b60405180910390f35b34801561087557600080fd5b5061087e611e51565b60405161088b91906142b6565b60405180910390f35b3480156108a057600080fd5b506108a9611e5e565b6040516108b6919061429b565b60405180910390f35b3480156108cb57600080fd5b506108e660048036038101906108e19190613888565b611e63565b005b3480156108f457600080fd5b5061090f600480360381019061090a9190613677565b611eff565b60405161091c9190613f1e565b60405180910390f35b34801561093157600080fd5b5061094c60048036038101906109479190613847565b611f93565b005b34801561095a57600080fd5b506109756004803603810190610970919061364e565b612029565b005b34801561098357600080fd5b5061099e600480360381019061099991906138b1565b612121565b005b3480156109ac57600080fd5b506109c760048036038101906109c29190613847565b6121a7565b005b6109d161223d565b73ffffffffffffffffffffffffffffffffffffffff166109ef61197e565b73ffffffffffffffffffffffffffffffffffffffff1614610a45576040517f08c379a0000000000000000000000000000000000000000000000000000000008152600401610a3c9061419b565b60405180910390fd5b80600b60046101000a81548161ffff021916908361ffff16021790555050565b60007f80ac58cd000000000000000000000000000000000000000000000000000000007bffffffffffffffffffffffffffffffffffffffffffffffffffffffff1916827bffffffffffffffffffffffffffffffffffffffffffffffffffffffff19161480610b3057507f5b5e139f000000000000000000000000000000000000000000000000000000007bffffffffffffffffffffffffffffffffffffffffffffffffffffffff1916827bffffffffffffffffffffffffffffffffffffffffffffffffffffffff1916145b80610b405750610b3f82612245565b5b9050919050565b606060008054610b569061465b565b80601f0160208091040260200160405190810160405280929190818152602001828054610b829061465b565b8015610bcf5780601f10610ba457610100808354040283529160200191610bcf565b820191906000526020600020905b815481529060010190602001808311610bb257829003601f168201915b5050505050905090565b6000610be4826122af565b610c23576040517f08c379a0000000000000000000000000000000000000000000000000000000008152600401610c1a9061415b565b60405180910390fd5b6004600083815260200190815260200160002060009054906101000a900473ffffffffffffffffffffffffffffffffffffffff169050919050565b6000610c698261165d565b90508073ffffffffffffffffffffffffffffffffffffffff168373ffffffffffffffffffffffffffffffffffffffff161415610cda576040517f08c379a0000000000000000000000000000000000000000000000000000000008152600401610cd1906141fb565b60405180910390fd5b8073ffffffffffffffffffffffffffffffffffffffff16610cf961223d565b73ffffffffffffffffffffffffffffffffffffffff161480610d285750610d2781610d2261223d565b611eff565b5b610d67576040517f08c379a0000000000000000000000000000000000000000000000000000000008152600401610d5e9061407b565b60405180910390fd5b610d71838361231b565b505050565b60606000600760008481526020019081526020016000208054610d989061465b565b80601f0160208091040260200160405190810160405280929190818152602001828054610dc49061465b565b8015610e115780601f10610de657610100808354040283529160200191610e11565b820191906000526020600020905b815481529060010190602001808311610df457829003601f168201915b50505050509050600081511115610e2b5780915050610e7f565b610e34836122af565b15610e4a57610e4283611e17565b915050610e7f565b610e526123d4565b610e5b84612466565b604051602001610e6c929190613e88565b6040516020818303038152906040529150505b919050565b6000606480610e939190614485565b61ffff16905090565b60008183610eaa919061451b565b60ff169050610ec481600c5461261390919063ffffffff16565b341015610f06576040517f08c379a0000000000000000000000000000000000000000000000000000000008152600401610efd9061423b565b60405180910390fd5b600b60009054906101000a900461ffff1661ffff1681610f24611e51565b610f2e91906143c7565b1115610f6f576040517f08c379a0000000000000000000000000000000000000000000000000000000008152600401610f669061413b565b60405180910390fd5b600b60049054906101000a900461ffff1661ffff1681610f8e3361179d565b610f9891906143c7565b1115610fd9576040517f08c379a0000000000000000000000000000000000000000000000000000000008152600401610fd090613f5b565b60405180910390fd5b600b60029054906101000a900461ffff1661ffff16811115611030576040517f08c379a0000000000000000000000000000000000000000000000000000000008152600401611027906141db565b60405180910390fd5b61103b848484612629565b50505050565b61105261104c61223d565b82612745565b611091576040517f08c379a00000000000000000000000000000000000000000000000000000000081526004016110889061425b565b60405180910390fd5b61109c838383612823565b505050565b600d80546110ae9061465b565b80601f01602080910402602001604051908101604052809291908181526020018280546110da9061465b565b80156111275780601f106110fc57610100808354040283529160200191611127565b820191906000526020600020905b81548152906001019060200180831161110a57829003601f168201915b505050505081565b6000600860008473ffffffffffffffffffffffffffffffffffffffff1673ffffffffffffffffffffffffffffffffffffffff168152602001908152602001600020600083815260200190815260200160002054905092915050565b6064806111979190614485565b81565b6111a261223d565b73ffffffffffffffffffffffffffffffffffffffff166111c061197e565b73ffffffffffffffffffffffffffffffffffffffff1614611216576040517f08c379a000000000000000000000000000000000000000000000000000000000815260040161120d9061419b565b60405180910390fd5b60004790503373ffffffffffffffffffffffffffffffffffffffff166108fc829081150290604051600060405180830381858888f19350505050158015611261573d6000803e3d6000fd5b5050565b61128083838360405180602001604052806000815250611c7b565b505050565b606481565b600e80546112979061465b565b80601f01602080910402602001604051908101604052809291908181526020018280546112c39061465b565b80156113105780601f106112e557610100808354040283529160200191611310565b820191906000526020600020905b8154815290600101906020018083116112f357829003601f168201915b505050505081565b600080821015801561133957506064806113329190614485565b61ffff1682105b611378576040517f08c379a000000000000000000000000000000000000000000000000000000000815260040161136f9061427b565b60405180910390fd5b60018261138591906143c7565b9050919050565b83838360005b8160ff168160ff1610156114875760005b8360ff168160ff1610156114735760008160ff168360ff1660646113c79190614485565b61ffff16876113d691906143c7565b6113e091906143c7565b90506113ea61223d565b73ffffffffffffffffffffffffffffffffffffffff166114098261165d565b73ffffffffffffffffffffffffffffffffffffffff161461145f576040517f08c379a000000000000000000000000000000000000000000000000000000000815260040161145690613ffb565b60405180910390fd5b50808061146b90614707565b9150506113a3565b50808061147f90614707565b915050611392565b5086868660008260ff16116114d1576040517f08c379a00000000000000000000000000000000000000000000000000000000081526004016114c89061421b565b60405180910390fd5b60008160ff1611611517576040517f08c379a000000000000000000000000000000000000000000000000000000000815260040161150e906140db565b60405180910390fd5b8651888a611525919061451b565b60ff1614611568576040517f08c379a000000000000000000000000000000000000000000000000000000000815260040161155f906140fb565b60405180910390fd5b60005b8860ff168160ff1610156116505760005b8a60ff168160ff16101561163c57600081838d611599919061451b565b6115a3919061441d565b60ff16905060008260ff168460ff1660646115be9190614485565b61ffff168f6115cd91906143c7565b6115d791906143c7565b9050611627818c8461ffff168151811061161a577f4e487b7100000000000000000000000000000000000000000000000000000000600052603260045260246000fd5b6020026020010151612a7f565b5050808061163490614707565b91505061157c565b50808061164890614707565b91505061156b565b5050505050505050505050565b6000806002600084815260200190815260200160002060009054906101000a900473ffffffffffffffffffffffffffffffffffffffff169050600073ffffffffffffffffffffffffffffffffffffffff168173ffffffffffffffffffffffffffffffffffffffff161415611706576040517f08c379a00000000000000000000000000000000000000000000000000000000081526004016116fd906140bb565b60405180910390fd5b80915050919050565b61171761223d565b73ffffffffffffffffffffffffffffffffffffffff1661173561197e565b73ffffffffffffffffffffffffffffffffffffffff161461178b576040517f08c379a00000000000000000000000000000000000000000000000000000000081526004016117829061419b565b60405180910390fd5b61179481612ad8565b50565b600c5481565b60008073ffffffffffffffffffffffffffffffffffffffff168273ffffffffffffffffffffffffffffffffffffffff16141561180e576040517f08c379a00000000000000000000000000000000000000000000000000000000081526004016118059061409b565b60405180910390fd5b600360008373ffffffffffffffffffffffffffffffffffffffff1673ffffffffffffffffffffffffffffffffffffffff168152602001908152602001600020549050919050565b61185d61223d565b73ffffffffffffffffffffffffffffffffffffffff1661187b61197e565b73ffffffffffffffffffffffffffffffffffffffff16146118d1576040517f08c379a00000000000000000000000000000000000000000000000000000000081526004016118c89061419b565b60405180910390fd5b6118db6000612b44565b565b600b60009054906101000a900461ffff1681565b816118fa61223d565b73ffffffffffffffffffffffffffffffffffffffff166119198261165d565b73ffffffffffffffffffffffffffffffffffffffff161461196f576040517f08c379a00000000000000000000000000000000000000000000000000000000081526004016119669061417b565b60405180910390fd5b6119798383612a7f565b505050565b6000600660009054906101000a900473ffffffffffffffffffffffffffffffffffffffff16905090565b6060600180546119b79061465b565b80601f01602080910402602001604051908101604052809291908181526020018280546119e39061465b565b8015611a305780601f10611a0557610100808354040283529160200191611a30565b820191906000526020600020905b815481529060010190602001808311611a1357829003601f168201915b5050505050905090565b611a4261223d565b73ffffffffffffffffffffffffffffffffffffffff16611a6061197e565b73ffffffffffffffffffffffffffffffffffffffff1614611ab6576040517f08c379a0000000000000000000000000000000000000000000000000000000008152600401611aad9061419b565b60405180910390fd5b80600b60006101000a81548161ffff021916908361ffff16021790555050565b611ae1838383612629565b505050565b611aee61223d565b73ffffffffffffffffffffffffffffffffffffffff168273ffffffffffffffffffffffffffffffffffffffff161415611b5c576040517f08c379a0000000000000000000000000000000000000000000000000000000008152600401611b539061403b565b60405180910390fd5b8060056000611b6961223d565b73ffffffffffffffffffffffffffffffffffffffff1673ffffffffffffffffffffffffffffffffffffffff16815260200190815260200160002060008473ffffffffffffffffffffffffffffffffffffffff1673ffffffffffffffffffffffffffffffffffffffff16815260200190815260200160002060006101000a81548160ff0219169083151502179055508173ffffffffffffffffffffffffffffffffffffffff16611c1661223d565b73ffffffffffffffffffffffffffffffffffffffff167f17307eab39ab6107e8899845ad3d59bd9653f200f220920489ca2b5937696c3183604051611c5b9190613f1e565b60405180910390a35050565b600b60049054906101000a900461ffff1681565b611c8c611c8661223d565b83612745565b611ccb576040517f08c379a0000000000000000000000000000000000000000000000000000000008152600401611cc29061425b565b60405180910390fd5b611cd784848484612c0a565b50505050565b600c54341015611d22576040517f08c379a0000000000000000000000000000000000000000000000000000000008152600401611d199061423b565b60405180910390fd5b600b60009054906101000a900461ffff1661ffff166001611d41611e51565b611d4b91906143c7565b1115611d8c576040517f08c379a0000000000000000000000000000000000000000000000000000000008152600401611d839061413b565b60405180910390fd5b600b60049054906101000a900461ffff1661ffff166001611dac3361179d565b611db691906143c7565b1115611df7576040517f08c379a0000000000000000000000000000000000000000000000000000000008152600401611dee90613f5b565b60405180910390fd5b611e0081612ad8565b50565b600b60029054906101000a900461ffff1681565b6060611e21612c66565b611e2a83612466565b604051602001611e3b929190613e88565b6040516020818303038152906040529050919050565b6000600a80549050905090565b606481565b611e6b61223d565b73ffffffffffffffffffffffffffffffffffffffff16611e8961197e565b73ffffffffffffffffffffffffffffffffffffffff1614611edf576040517f08c379a0000000000000000000000000000000000000000000000000000000008152600401611ed69061419b565b60405180910390fd5b80600b60026101000a81548161ffff021916908361ffff16021790555050565b6000600560008473ffffffffffffffffffffffffffffffffffffffff1673ffffffffffffffffffffffffffffffffffffffff16815260200190815260200160002060008373ffffffffffffffffffffffffffffffffffffffff1673ffffffffffffffffffffffffffffffffffffffff16815260200190815260200160002060009054906101000a900460ff16905092915050565b611f9b61223d565b73ffffffffffffffffffffffffffffffffffffffff16611fb961197e565b73ffffffffffffffffffffffffffffffffffffffff161461200f576040517f08c379a00000000000000000000000000000000000000000000000000000000081526004016120069061419b565b60405180910390fd5b80600e9080519060200190612025929190613398565b5050565b61203161223d565b73ffffffffffffffffffffffffffffffffffffffff1661204f61197e565b73ffffffffffffffffffffffffffffffffffffffff16146120a5576040517f08c379a000000000000000000000000000000000000000000000000000000000815260040161209c9061419b565b60405180910390fd5b600073ffffffffffffffffffffffffffffffffffffffff168173ffffffffffffffffffffffffffffffffffffffff161415612115576040517f08c379a000000000000000000000000000000000000000000000000000000000815260040161210c90613fbb565b60405180910390fd5b61211e81612b44565b50565b61212961223d565b73ffffffffffffffffffffffffffffffffffffffff1661214761197e565b73ffffffffffffffffffffffffffffffffffffffff161461219d576040517f08c379a00000000000000000000000000000000000000000000000000000000081526004016121949061419b565b60405180910390fd5b80600c8190555050565b6121af61223d565b73ffffffffffffffffffffffffffffffffffffffff166121cd61197e565b73ffffffffffffffffffffffffffffffffffffffff1614612223576040517f08c379a000000000000000000000000000000000000000000000000000000000815260040161221a9061419b565b60405180910390fd5b80600d9080519060200190612239929190613398565b5050565b600033905090565b60007f01ffc9a7000000000000000000000000000000000000000000000000000000007bffffffffffffffffffffffffffffffffffffffffffffffffffffffff1916827bffffffffffffffffffffffffffffffffffffffffffffffffffffffff1916149050919050565b60008073ffffffffffffffffffffffffffffffffffffffff166002600084815260200190815260200160002060009054906101000a900473ffffffffffffffffffffffffffffffffffffffff1673ffffffffffffffffffffffffffffffffffffffff1614159050919050565b816004600083815260200190815260200160002060006101000a81548173ffffffffffffffffffffffffffffffffffffffff021916908373ffffffffffffffffffffffffffffffffffffffff160217905550808273ffffffffffffffffffffffffffffffffffffffff1661238e8361165d565b73ffffffffffffffffffffffffffffffffffffffff167f8c5be1e5ebec7d5bd14f71427d1e84f3dd0314c0f7b2291e5b200ac8c7c3b92560405160405180910390a45050565b6060600e80546123e39061465b565b80601f016020809104026020016040519081016040528092919081815260200182805461240f9061465b565b801561245c5780601f106124315761010080835404028352916020019161245c565b820191906000526020600020905b81548152906001019060200180831161243f57829003601f168201915b5050505050905090565b606060008214156124ae576040518060400160405280600181526020017f3000000000000000000000000000000000000000000000000000000000000000815250905061260e565b600082905060005b600082146124e05780806124c9906146be565b915050600a826124d99190614454565b91506124b6565b60008167ffffffffffffffff811115612522577f4e487b7100000000000000000000000000000000000000000000000000000000600052604160045260246000fd5b6040519080825280601f01601f1916602001820160405280156125545781602001600182028036833780820191505090505b5090505b600085146126075760018261256d9190614556565b9150600a8561257c9190614731565b603061258891906143c7565b60f81b8183815181106125c4577f4e487b7100000000000000000000000000000000000000000000000000000000600052603260045260246000fd5b60200101907effffffffffffffffffffffffffffffffffffffffffffffffffffffffffffff1916908160001a905350600a856126009190614454565b9450612558565b8093505050505b919050565b6000818361262191906144c1565b905092915050565b82828260008260ff1611612672576040517f08c379a00000000000000000000000000000000000000000000000000000000081526004016126699061421b565b60405180910390fd5b60008160ff16116126b8576040517f08c379a00000000000000000000000000000000000000000000000000000000081526004016126af906140db565b60405180910390fd5b60005b8460ff168160ff16101561273c5760005b8660ff168160ff1610156127285760008160ff168360ff1660646126f09190614485565b61ffff168a6126ff91906143c7565b61270991906143c7565b905061271481612ad8565b50808061272090614707565b9150506126cc565b50808061273490614707565b9150506126bb565b50505050505050565b6000612750826122af565b61278f576040517f08c379a00000000000000000000000000000000000000000000000000000000081526004016127869061405b565b60405180910390fd5b600061279a8361165d565b90508073ffffffffffffffffffffffffffffffffffffffff168473ffffffffffffffffffffffffffffffffffffffff16148061280957508373ffffffffffffffffffffffffffffffffffffffff166127f184610bd9565b73ffffffffffffffffffffffffffffffffffffffff16145b8061281a57506128198185611eff565b5b91505092915050565b8273ffffffffffffffffffffffffffffffffffffffff166128438261165d565b73ffffffffffffffffffffffffffffffffffffffff1614612899576040517f08c379a0000000000000000000000000000000000000000000000000000000008152600401612890906141bb565b60405180910390fd5b600073ffffffffffffffffffffffffffffffffffffffff168273ffffffffffffffffffffffffffffffffffffffff161415612909576040517f08c379a00000000000000000000000000000000000000000000000000000000081526004016129009061401b565b60405180910390fd5b612914838383612cf8565b61291f60008261231b565b6001600360008573ffffffffffffffffffffffffffffffffffffffff1673ffffffffffffffffffffffffffffffffffffffff168152602001908152602001600020600082825461296f9190614556565b925050819055506001600360008473ffffffffffffffffffffffffffffffffffffffff1673ffffffffffffffffffffffffffffffffffffffff16815260200190815260200160002060008282546129c691906143c7565b92505081905550816002600083815260200190815260200160002060006101000a81548173ffffffffffffffffffffffffffffffffffffffff021916908373ffffffffffffffffffffffffffffffffffffffff160217905550808273ffffffffffffffffffffffffffffffffffffffff168473ffffffffffffffffffffffffffffffffffffffff167fddf252ad1be2c89b69c2b068fc378daa952ba7f163c4a11628f55a4df523b3ef60405160405180910390a4505050565b80600760008481526020019081526020016000209080519060200190612aa6929190613398565b50817fd26ab77304eac64a04df2018c66716ad9c938c7b11429b56a46c017768172d1b60405160405180910390a25050565b600081118015612af85750606480612af09190614485565b61ffff168111155b612b37576040517f08c379a0000000000000000000000000000000000000000000000000000000008152600401612b2e90613f7b565b60405180910390fd5b612b413382612fa2565b50565b6000600660009054906101000a900473ffffffffffffffffffffffffffffffffffffffff16905081600660006101000a81548173ffffffffffffffffffffffffffffffffffffffff021916908373ffffffffffffffffffffffffffffffffffffffff1602179055508173ffffffffffffffffffffffffffffffffffffffff168173ffffffffffffffffffffffffffffffffffffffff167f8be0079c531659141344cd1fd0a4f28419497f9722a3daafe3b4186f6b6457e060405160405180910390a35050565b612c15848484612823565b612c2184848484612fc0565b612c60576040517f08c379a0000000000000000000000000000000000000000000000000000000008152600401612c5790613f9b565b60405180910390fd5b50505050565b6060600d8054612c759061465b565b80601f0160208091040260200160405190810160405280929190818152602001828054612ca19061465b565b8015612cee5780601f10612cc357610100808354040283529160200191612cee565b820191906000526020600020905b815481529060010190602001808311612cd157829003601f168201915b5050505050905090565b612d03838383613157565b8273ffffffffffffffffffffffffffffffffffffffff168273ffffffffffffffffffffffffffffffffffffffff1614612f9d57600073ffffffffffffffffffffffffffffffffffffffff168373ffffffffffffffffffffffffffffffffffffffff161415612d9957600a819080600181540180825580915050600190039060005260206000200160009091909190915055612eec565b60006001612da68561179d565b612db09190614556565b9050600060096000848152602001908152602001600020549050818114612e95576000600860008773ffffffffffffffffffffffffffffffffffffffff1673ffffffffffffffffffffffffffffffffffffffff168152602001908152602001600020600084815260200190815260200160002054905080600860008873ffffffffffffffffffffffffffffffffffffffff1673ffffffffffffffffffffffffffffffffffffffff168152602001908152602001600020600084815260200190815260200160002081905550816009600083815260200190815260200160002081905550505b600860008673ffffffffffffffffffffffffffffffffffffffff1673ffffffffffffffffffffffffffffffffffffffff16815260200190815260200160002060008381526020019081526020016000206000905550505b600073ffffffffffffffffffffffffffffffffffffffff168273ffffffffffffffffffffffffffffffffffffffff1614612f9c576000612f2b8361179d565b905081600860008573ffffffffffffffffffffffffffffffffffffffff1673ffffffffffffffffffffffffffffffffffffffff168152602001908152602001600020600083815260200190815260200160002081905550806009600084815260200190815260200160002081905550505b5b505050565b612fbc82826040518060200160405280600081525061315c565b5050565b6000612fe18473ffffffffffffffffffffffffffffffffffffffff166131b7565b1561314a578373ffffffffffffffffffffffffffffffffffffffff1663150b7a0261300a61223d565b8786866040518563ffffffff1660e01b815260040161302c9493929190613ed2565b602060405180830381600087803b15801561304657600080fd5b505af192505050801561307757506040513d601f19601f82011682018060405250810190613074919061381e565b60015b6130fa573d80600081146130a7576040519150601f19603f3d011682016040523d82523d6000602084013e6130ac565b606091505b506000815114156130f2576040517f08c379a00000000000000000000000000000000000000000000000000000000081526004016130e990613f9b565b60405180910390fd5b805181602001fd5b63150b7a0260e01b7bffffffffffffffffffffffffffffffffffffffffffffffffffffffff1916817bffffffffffffffffffffffffffffffffffffffffffffffffffffffff19161491505061314f565b600190505b949350505050565b505050565b61316683836131ca565b6131736000848484612fc0565b6131b2576040517f08c379a00000000000000000000000000000000000000000000000000000000081526004016131a990613f9b565b60405180910390fd5b505050565b600080823b905060008111915050919050565b600073ffffffffffffffffffffffffffffffffffffffff168273ffffffffffffffffffffffffffffffffffffffff16141561323a576040517f08c379a00000000000000000000000000000000000000000000000000000000081526004016132319061411b565b60405180910390fd5b613243816122af565b15613283576040517f08c379a000000000000000000000000000000000000000000000000000000000815260040161327a90613fdb565b60405180910390fd5b61328f60008383612cf8565b6001600360008473ffffffffffffffffffffffffffffffffffffffff1673ffffffffffffffffffffffffffffffffffffffff16815260200190815260200160002060008282546132df91906143c7565b92505081905550816002600083815260200190815260200160002060006101000a81548173ffffffffffffffffffffffffffffffffffffffff021916908373ffffffffffffffffffffffffffffffffffffffff160217905550808273ffffffffffffffffffffffffffffffffffffffff16600073ffffffffffffffffffffffffffffffffffffffff167fddf252ad1be2c89b69c2b068fc378daa952ba7f163c4a11628f55a4df523b3ef60405160405180910390a45050565b8280546133a49061465b565b90600052602060002090601f0160209004810192826133c6576000855561340d565b82601f106133df57805160ff191683800117855561340d565b8280016001018555821561340d579182015b8281111561340c5782518255916020019190600101906133f1565b5b50905061341a919061341e565b5090565b5b8082111561343757600081600090555060010161341f565b5090565b600061344e613449846142f6565b6142d1565b9050808382526020820190508285602086028201111561346d57600080fd5b60005b858110156134b757813567ffffffffffffffff81111561348f57600080fd5b80860161349c89826135e5565b85526020850194506020840193505050600181019050613470565b5050509392505050565b60006134d46134cf84614322565b6142d1565b9050828152602081018484840111156134ec57600080fd5b6134f7848285614619565b509392505050565b600061351261350d84614353565b6142d1565b90508281526020810184848401111561352a57600080fd5b613535848285614619565b509392505050565b60008135905061354c81614f08565b92915050565b600082601f83011261356357600080fd5b813561357384826020860161343b565b91505092915050565b60008135905061358b81614f1f565b92915050565b6000813590506135a081614f36565b92915050565b6000815190506135b581614f36565b92915050565b600082601f8301126135cc57600080fd5b81356135dc8482602086016134c1565b91505092915050565b600082601f8301126135f657600080fd5b81356136068482602086016134ff565b91505092915050565b60008135905061361e81614f4d565b92915050565b60008135905061363381614f64565b92915050565b60008135905061364881614f7b565b92915050565b60006020828403121561366057600080fd5b600061366e8482850161353d565b91505092915050565b6000806040838503121561368a57600080fd5b60006136988582860161353d565b92505060206136a98582860161353d565b9150509250929050565b6000806000606084860312156136c857600080fd5b60006136d68682870161353d565b93505060206136e78682870161353d565b92505060406136f886828701613624565b9150509250925092565b6000806000806080858703121561371857600080fd5b60006137268782880161353d565b94505060206137378782880161353d565b935050604061374887828801613624565b925050606085013567ffffffffffffffff81111561376557600080fd5b613771878288016135bb565b91505092959194509250565b6000806040838503121561379057600080fd5b600061379e8582860161353d565b92505060206137af8582860161357c565b9150509250929050565b600080604083850312156137cc57600080fd5b60006137da8582860161353d565b92505060206137eb85828601613624565b9150509250929050565b60006020828403121561380757600080fd5b600061381584828501613591565b91505092915050565b60006020828403121561383057600080fd5b600061383e848285016135a6565b91505092915050565b60006020828403121561385957600080fd5b600082013567ffffffffffffffff81111561387357600080fd5b61387f848285016135e5565b91505092915050565b60006020828403121561389a57600080fd5b60006138a88482850161360f565b91505092915050565b6000602082840312156138c357600080fd5b60006138d184828501613624565b91505092915050565b600080604083850312156138ed57600080fd5b60006138fb85828601613624565b925050602083013567ffffffffffffffff81111561391857600080fd5b613924858286016135e5565b9150509250929050565b60008060006060848603121561394357600080fd5b600061395186828701613624565b935050602061396286828701613639565b925050604061397386828701613639565b9150509250925092565b6000806000806080858703121561399357600080fd5b60006139a187828801613624565b94505060206139b287828801613639565b93505060406139c387828801613639565b925050606085013567ffffffffffffffff8111156139e057600080fd5b6139ec87828801613552565b91505092959194509250565b613a018161458a565b82525050565b613a108161459c565b82525050565b6000613a2182614384565b613a2b818561439a565b9350613a3b818560208601614628565b613a448161481e565b840191505092915050565b6000613a5a8261438f565b613a6481856143ab565b9350613a74818560208601614628565b613a7d8161481e565b840191505092915050565b6000613a938261438f565b613a9d81856143bc565b9350613aad818560208601614628565b80840191505092915050565b6000613ac66025836143ab565b9150613ad18261482f565b604082019050919050565b6000613ae96015836143ab565b9150613af48261487e565b602082019050919050565b6000613b0c6032836143ab565b9150613b17826148a7565b604082019050919050565b6000613b2f6026836143ab565b9150613b3a826148f6565b604082019050919050565b6000613b52601c836143ab565b9150613b5d82614945565b602082019050919050565b6000613b756039836143ab565b9150613b808261496e565b604082019050919050565b6000613b986024836143ab565b9150613ba3826149bd565b604082019050919050565b6000613bbb6019836143ab565b9150613bc682614a0c565b602082019050919050565b6000613bde602c836143ab565b9150613be982614a35565b604082019050919050565b6000613c016038836143ab565b9150613c0c82614a84565b604082019050919050565b6000613c24602a836143ab565b9150613c2f82614ad3565b604082019050919050565b6000613c476029836143ab565b9150613c5282614b22565b604082019050919050565b6000613c6a6018836143ab565b9150613c7582614b71565b602082019050919050565b6000613c8d603e836143ab565b9150613c9882614b9a565b604082019050919050565b6000613cb06020836143ab565b9150613cbb82614be9565b602082019050919050565b6000613cd36023836143ab565b9150613cde82614c12565b604082019050919050565b6000613cf6602c836143ab565b9150613d0182614c61565b604082019050919050565b6000613d196005836143bc565b9150613d2482614cb0565b600582019050919050565b6000613d3c6022836143ab565b9150613d4782614cd9565b604082019050919050565b6000613d5f6020836143ab565b9150613d6a82614d28565b602082019050919050565b6000613d826029836143ab565b9150613d8d82614d51565b604082019050919050565b6000613da56033836143ab565b9150613db082614da0565b604082019050919050565b6000613dc86021836143ab565b9150613dd382614def565b604082019050919050565b6000613deb6017836143ab565b9150613df682614e3e565b602082019050919050565b6000613e0e601a836143ab565b9150613e1982614e67565b602082019050919050565b6000613e316031836143ab565b9150613e3c82614e90565b604082019050919050565b6000613e546013836143ab565b9150613e5f82614edf565b602082019050919050565b613e73816145d4565b82525050565b613e8281614602565b82525050565b6000613e948285613a88565b9150613ea08284613a88565b9150613eab82613d0c565b91508190509392505050565b6000602082019050613ecc60008301846139f8565b92915050565b6000608082019050613ee760008301876139f8565b613ef460208301866139f8565b613f016040830185613e79565b8181036060830152613f138184613a16565b905095945050505050565b6000602082019050613f336000830184613a07565b92915050565b60006020820190508181036000830152613f538184613a4f565b905092915050565b60006020820190508181036000830152613f7481613ab9565b9050919050565b60006020820190508181036000830152613f9481613adc565b9050919050565b60006020820190508181036000830152613fb481613aff565b9050919050565b60006020820190508181036000830152613fd481613b22565b9050919050565b60006020820190508181036000830152613ff481613b45565b9050919050565b6000602082019050818103600083015261401481613b68565b9050919050565b6000602082019050818103600083015261403481613b8b565b9050919050565b6000602082019050818103600083015261405481613bae565b9050919050565b6000602082019050818103600083015261407481613bd1565b9050919050565b6000602082019050818103600083015261409481613bf4565b9050919050565b600060208201905081810360008301526140b481613c17565b9050919050565b600060208201905081810360008301526140d481613c3a565b9050919050565b600060208201905081810360008301526140f481613c5d565b9050919050565b6000602082019050818103600083015261411481613c80565b9050919050565b6000602082019050818103600083015261413481613ca3565b9050919050565b6000602082019050818103600083015261415481613cc6565b9050919050565b6000602082019050818103600083015261417481613ce9565b9050919050565b6000602082019050818103600083015261419481613d2f565b9050919050565b600060208201905081810360008301526141b481613d52565b9050919050565b600060208201905081810360008301526141d481613d75565b9050919050565b600060208201905081810360008301526141f481613d98565b9050919050565b6000602082019050818103600083015261421481613dbb565b9050919050565b6000602082019050818103600083015261423481613dde565b9050919050565b6000602082019050818103600083015261425481613e01565b9050919050565b6000602082019050818103600083015261427481613e24565b9050919050565b6000602082019050818103600083015261429481613e47565b9050919050565b60006020820190506142b06000830184613e6a565b92915050565b60006020820190506142cb6000830184613e79565b92915050565b60006142db6142ec565b90506142e7828261468d565b919050565b6000604051905090565b600067ffffffffffffffff821115614311576143106147ef565b5b602082029050602081019050919050565b600067ffffffffffffffff82111561433d5761433c6147ef565b5b6143468261481e565b9050602081019050919050565b600067ffffffffffffffff82111561436e5761436d6147ef565b5b6143778261481e565b9050602081019050919050565b600081519050919050565b600081519050919050565b600082825260208201905092915050565b600082825260208201905092915050565b600081905092915050565b60006143d282614602565b91506143dd83614602565b9250827fffffffffffffffffffffffffffffffffffffffffffffffffffffffffffffffff0382111561441257614411614762565b5b828201905092915050565b60006144288261460c565b91506144338361460c565b92508260ff0382111561444957614448614762565b5b828201905092915050565b600061445f82614602565b915061446a83614602565b92508261447a57614479614791565b5b828204905092915050565b6000614490826145d4565b915061449b836145d4565b92508161ffff04831182151516156144b6576144b5614762565b5b828202905092915050565b60006144cc82614602565b91506144d783614602565b9250817fffffffffffffffffffffffffffffffffffffffffffffffffffffffffffffffff04831182151516156145105761450f614762565b5b828202905092915050565b60006145268261460c565b91506145318361460c565b92508160ff048311821515161561454b5761454a614762565b5b828202905092915050565b600061456182614602565b915061456c83614602565b92508282101561457f5761457e614762565b5b828203905092915050565b6000614595826145e2565b9050919050565b60008115159050919050565b60007fffffffff0000000000000000000000000000000000000000000000000000000082169050919050565b600061ffff82169050919050565b600073ffffffffffffffffffffffffffffffffffffffff82169050919050565b6000819050919050565b600060ff82169050919050565b82818337600083830152505050565b60005b8381101561464657808201518184015260208101905061462b565b83811115614655576000848401525b50505050565b6000600282049050600182168061467357607f821691505b60208210811415614687576146866147c0565b5b50919050565b6146968261481e565b810181811067ffffffffffffffff821117156146b5576146b46147ef565b5b80604052505050565b60006146c982614602565b91507fffffffffffffffffffffffffffffffffffffffffffffffffffffffffffffffff8214156146fc576146fb614762565b5b600182019050919050565b60006147128261460c565b915060ff82141561472657614725614762565b5b600182019050919050565b600061473c82614602565b915061474783614602565b92508261475757614756614791565b5b828206905092915050565b7f4e487b7100000000000000000000000000000000000000000000000000000000600052601160045260246000fd5b7f4e487b7100000000000000000000000000000000000000000000000000000000600052601260045260246000fd5b7f4e487b7100000000000000000000000000000000000000000000000000000000600052602260045260246000fd5b7f4e487b7100000000000000000000000000000000000000000000000000000000600052604160045260246000fd5b6000601f19601f8301169050919050565b7f4d4454503a20726561636865642063757272656e74206f776e6572736869702060008201527f6c696d6974000000000000000000000000000000000000000000000000000000602082015250565b7f4d4454503a20696e76616c696420746f6b656e49640000000000000000000000600082015250565b7f4552433732313a207472616e7366657220746f206e6f6e20455243373231526560008201527f63656976657220696d706c656d656e7465720000000000000000000000000000602082015250565b7f4f776e61626c653a206e6577206f776e657220697320746865207a65726f206160008201527f6464726573730000000000000000000000000000000000000000000000000000602082015250565b7f4552433732313a20746f6b656e20616c7265616479206d696e74656400000000600082015250565b7f4d4454503a2063616c6c6572206973206e6f742074686520746f6b656e4f776e60008201527f6572206f6620616c6c20746f6b656e7320696e2067726f757000000000000000602082015250565b7f4552433732313a207472616e7366657220746f20746865207a65726f2061646460008201527f7265737300000000000000000000000000000000000000000000000000000000602082015250565b7f4552433732313a20617070726f766520746f2063616c6c657200000000000000600082015250565b7f4552433732313a206f70657261746f7220717565727920666f72206e6f6e657860008201527f697374656e7420746f6b656e0000000000000000000000000000000000000000602082015250565b7f4552433732313a20617070726f76652063616c6c6572206973206e6f74206f7760008201527f6e6572206e6f7220617070726f76656420666f7220616c6c0000000000000000602082015250565b7f4552433732313a2062616c616e636520717565727920666f7220746865207a6560008201527f726f206164647265737300000000000000000000000000000000000000000000602082015250565b7f4552433732313a206f776e657220717565727920666f72206e6f6e657869737460008201527f656e7420746f6b656e0000000000000000000000000000000000000000000000602082015250565b7f4d4454503a20686569676874206d757374206265203e20300000000000000000600082015250565b7f4d4454503a206c656e677468206f6620636f6e74656e7455524973206d75737460008201527f206265207468652073616d65206173207769647468202a206865696768740000602082015250565b7f4552433732313a206d696e7420746f20746865207a65726f2061646472657373600082015250565b7f4d4454503a20726561636865642063757272656e74206d696e74696e67206c6960008201527f6d69740000000000000000000000000000000000000000000000000000000000602082015250565b7f4552433732313a20617070726f76656420717565727920666f72206e6f6e657860008201527f697374656e7420746f6b656e0000000000000000000000000000000000000000602082015250565b7f2e6a736f6e000000000000000000000000000000000000000000000000000000600082015250565b7f4d4454503a2063616c6c6572206973206e6f742074686520746f6b656e4f776e60008201527f6572000000000000000000000000000000000000000000000000000000000000602082015250565b7f4f776e61626c653a2063616c6c6572206973206e6f7420746865206f776e6572600082015250565b7f4552433732313a207472616e73666572206f6620746f6b656e2074686174206960008201527f73206e6f74206f776e0000000000000000000000000000000000000000000000602082015250565b7f4d4454503a2072657175657374656420746f6b656e20636f756e74206973206f60008201527f7665722073696e676c654d696e744c696d697400000000000000000000000000602082015250565b7f4552433732313a20617070726f76616c20746f2063757272656e74206f776e6560008201527f7200000000000000000000000000000000000000000000000000000000000000602082015250565b7f4d4454503a207769647468206d757374206265203e2030000000000000000000600082015250565b7f4d4454503a20496e73756666696369656e74207061796d656e74000000000000600082015250565b7f4552433732313a207472616e736665722063616c6c6572206973206e6f74206f60008201527f776e6572206e6f7220617070726f766564000000000000000000000000000000602082015250565b7f4d4454503a20696e76616c696420696e64657800000000000000000000000000600082015250565b614f118161458a565b8114614f1c57600080fd5b50565b614f288161459c565b8114614f3357600080fd5b50565b614f3f816145a8565b8114614f4a57600080fd5b50565b614f56816145d4565b8114614f6157600080fd5b50565b614f6d81614602565b8114614f7857600080fd5b50565b614f848161460c565b8114614f8f57600080fd5b5056fea26469706673582212207a3a200708a08e1d27f2ead6965ea703d0b79fcffc8568f347d3227db11e27d764736f6c63430008040033",
  "linkReferences": {},
  "deployedLinkReferences": {}
}