{
  "_format": "hh-sol-artifact-1",
  "contractName": "MillionDollarTokenPage",
  "sourceName": "contracts/MillionDollarTokenPage.sol",
  "abi": [
    {
      "inputs": [],
      "stateMutability": "nonpayable",
      "type": "constructor"
    },
    {
      "anonymous": false,
      "inputs": [
        {
          "indexed": true,
          "internalType": "address",
          "name": "owner",
          "type": "address"
        },
        {
          "indexed": true,
          "internalType": "address",
          "name": "approved",
          "type": "address"
        },
        {
          "indexed": true,
          "internalType": "uint256",
          "name": "tokenId",
          "type": "uint256"
        }
      ],
      "name": "Approval",
      "type": "event"
    },
    {
      "anonymous": false,
      "inputs": [
        {
          "indexed": true,
          "internalType": "address",
          "name": "owner",
          "type": "address"
        },
        {
          "indexed": true,
          "internalType": "address",
          "name": "operator",
          "type": "address"
        },
        {
          "indexed": false,
          "internalType": "bool",
          "name": "approved",
          "type": "bool"
        }
      ],
      "name": "ApprovalForAll",
      "type": "event"
    },
    {
      "anonymous": false,
      "inputs": [
        {
          "indexed": true,
          "internalType": "address",
          "name": "previousOwner",
          "type": "address"
        },
        {
          "indexed": true,
          "internalType": "address",
          "name": "newOwner",
          "type": "address"
        }
      ],
      "name": "OwnershipTransferred",
      "type": "event"
    },
    {
      "anonymous": false,
      "inputs": [
        {
          "indexed": true,
          "internalType": "uint256",
          "name": "tokenId",
          "type": "uint256"
        }
      ],
      "name": "TokenContentURIChanged",
      "type": "event"
    },
    {
      "anonymous": false,
      "inputs": [
        {
          "indexed": true,
          "internalType": "address",
          "name": "from",
          "type": "address"
        },
        {
          "indexed": true,
          "internalType": "address",
          "name": "to",
          "type": "address"
        },
        {
          "indexed": true,
          "internalType": "uint256",
          "name": "tokenId",
          "type": "uint256"
        }
      ],
      "name": "Transfer",
      "type": "event"
    },
    {
      "inputs": [],
      "name": "COLUMN_COUNT",
      "outputs": [
        {
          "internalType": "uint16",
          "name": "",
          "type": "uint16"
        }
      ],
      "stateMutability": "view",
      "type": "function"
    },
    {
      "inputs": [],
      "name": "ROW_COUNT",
      "outputs": [
        {
          "internalType": "uint16",
          "name": "",
          "type": "uint16"
        }
      ],
      "stateMutability": "view",
      "type": "function"
    },
    {
      "inputs": [],
      "name": "SUPPLY_LIMIT",
      "outputs": [
        {
          "internalType": "uint16",
          "name": "",
          "type": "uint16"
        }
      ],
      "stateMutability": "view",
      "type": "function"
    },
    {
      "inputs": [
        {
          "internalType": "address",
          "name": "",
          "type": "address"
        }
      ],
      "name": "_admins",
      "outputs": [
        {
          "internalType": "bool",
          "name": "",
          "type": "bool"
        }
      ],
      "stateMutability": "view",
      "type": "function"
    },
    {
      "inputs": [
        {
          "internalType": "address",
          "name": "to",
          "type": "address"
        },
        {
          "internalType": "uint256",
          "name": "tokenId",
          "type": "uint256"
        }
      ],
      "name": "approve",
      "outputs": [],
      "stateMutability": "nonpayable",
      "type": "function"
    },
    {
      "inputs": [
        {
          "internalType": "address",
          "name": "owner",
          "type": "address"
        }
      ],
      "name": "balanceOf",
      "outputs": [
        {
          "internalType": "uint256",
          "name": "",
          "type": "uint256"
        }
      ],
      "stateMutability": "view",
      "type": "function"
    },
    {
      "inputs": [
        {
          "internalType": "uint256",
          "name": "tokenId",
          "type": "uint256"
        }
      ],
      "name": "getApproved",
      "outputs": [
        {
          "internalType": "address",
          "name": "",
          "type": "address"
        }
      ],
      "stateMutability": "view",
      "type": "function"
    },
    {
      "inputs": [
        {
          "internalType": "address",
          "name": "owner",
          "type": "address"
        },
        {
          "internalType": "address",
          "name": "operator",
          "type": "address"
        }
      ],
      "name": "isApprovedForAll",
      "outputs": [
        {
          "internalType": "bool",
          "name": "",
          "type": "bool"
        }
      ],
      "stateMutability": "view",
      "type": "function"
    },
    {
      "inputs": [
        {
          "internalType": "uint256",
          "name": "tokenId",
          "type": "uint256"
        }
      ],
      "name": "mint",
      "outputs": [],
      "stateMutability": "payable",
      "type": "function"
    },
    {
      "inputs": [
        {
          "internalType": "uint256",
          "name": "tokenId",
          "type": "uint256"
        }
      ],
      "name": "mintAdmin",
      "outputs": [],
      "stateMutability": "nonpayable",
      "type": "function"
    },
    {
      "inputs": [],
      "name": "mintPrice",
      "outputs": [
        {
          "internalType": "uint256",
          "name": "",
          "type": "uint256"
        }
      ],
      "stateMutability": "view",
      "type": "function"
    },
    {
      "inputs": [
        {
          "internalType": "uint256",
          "name": "tokenId",
          "type": "uint256"
        },
        {
          "internalType": "uint8",
          "name": "width",
          "type": "uint8"
        },
        {
          "internalType": "uint8",
          "name": "height",
          "type": "uint8"
        }
      ],
      "name": "mintTokenGroup",
      "outputs": [],
      "stateMutability": "payable",
      "type": "function"
    },
    {
      "inputs": [
        {
          "internalType": "uint256",
          "name": "tokenId",
          "type": "uint256"
        },
        {
          "internalType": "uint8",
          "name": "width",
          "type": "uint8"
        },
        {
          "internalType": "uint8",
          "name": "height",
          "type": "uint8"
        }
      ],
      "name": "mintTokenGroupAdmin",
      "outputs": [],
      "stateMutability": "payable",
      "type": "function"
    },
    {
      "inputs": [],
      "name": "mintedCount",
      "outputs": [
        {
          "internalType": "uint256",
          "name": "",
          "type": "uint256"
        }
      ],
      "stateMutability": "view",
      "type": "function"
    },
    {
      "inputs": [],
      "name": "name",
      "outputs": [
        {
          "internalType": "string",
          "name": "",
          "type": "string"
        }
      ],
      "stateMutability": "view",
      "type": "function"
    },
    {
      "inputs": [],
      "name": "owner",
      "outputs": [
        {
          "internalType": "address",
          "name": "",
          "type": "address"
        }
      ],
      "stateMutability": "view",
      "type": "function"
    },
    {
      "inputs": [
        {
          "internalType": "uint256",
          "name": "tokenId",
          "type": "uint256"
        }
      ],
      "name": "ownerOf",
      "outputs": [
        {
          "internalType": "address",
          "name": "",
          "type": "address"
        }
      ],
      "stateMutability": "view",
      "type": "function"
    },
    {
      "inputs": [],
      "name": "renounceOwnership",
      "outputs": [],
      "stateMutability": "nonpayable",
      "type": "function"
    },
    {
      "inputs": [
        {
          "internalType": "address",
          "name": "from",
          "type": "address"
        },
        {
          "internalType": "address",
          "name": "to",
          "type": "address"
        },
        {
          "internalType": "uint256",
          "name": "tokenId",
          "type": "uint256"
        }
      ],
      "name": "safeTransferFrom",
      "outputs": [],
      "stateMutability": "nonpayable",
      "type": "function"
    },
    {
      "inputs": [
        {
          "internalType": "address",
          "name": "from",
          "type": "address"
        },
        {
          "internalType": "address",
          "name": "to",
          "type": "address"
        },
        {
          "internalType": "uint256",
          "name": "tokenId",
          "type": "uint256"
        },
        {
          "internalType": "bytes",
          "name": "_data",
          "type": "bytes"
        }
      ],
      "name": "safeTransferFrom",
      "outputs": [],
      "stateMutability": "nonpayable",
      "type": "function"
    },
    {
      "inputs": [
        {
          "internalType": "address",
          "name": "admin",
          "type": "address"
        },
        {
          "internalType": "bool",
          "name": "state",
          "type": "bool"
        }
      ],
      "name": "setAdmin",
      "outputs": [],
      "stateMutability": "nonpayable",
      "type": "function"
    },
    {
      "inputs": [
        {
          "internalType": "address",
          "name": "operator",
          "type": "address"
        },
        {
          "internalType": "bool",
          "name": "approved",
          "type": "bool"
        }
      ],
      "name": "setApprovalForAll",
      "outputs": [],
      "stateMutability": "nonpayable",
      "type": "function"
    },
    {
      "inputs": [
        {
          "internalType": "uint256",
          "name": "newMintPrice",
          "type": "uint256"
        }
      ],
      "name": "setMintPrice",
      "outputs": [],
      "stateMutability": "nonpayable",
      "type": "function"
    },
    {
      "inputs": [
        {
          "internalType": "uint16",
          "name": "newSingleMintLimit",
          "type": "uint16"
        }
      ],
      "name": "setSingleMintLimit",
      "outputs": [],
      "stateMutability": "nonpayable",
      "type": "function"
    },
    {
      "inputs": [
        {
          "internalType": "uint256",
          "name": "tokenId",
          "type": "uint256"
        },
        {
          "internalType": "string",
          "name": "metadataURI",
          "type": "string"
        }
      ],
      "name": "setTokenContentURI",
      "outputs": [],
      "stateMutability": "nonpayable",
      "type": "function"
    },
    {
      "inputs": [
        {
          "internalType": "uint256",
          "name": "tokenId",
          "type": "uint256"
        },
        {
          "internalType": "uint8",
          "name": "width",
          "type": "uint8"
        },
        {
          "internalType": "uint8",
          "name": "height",
          "type": "uint8"
        },
        {
          "internalType": "string[]",
          "name": "metadataURIs",
          "type": "string[]"
        }
      ],
      "name": "setTokenGroupContentURIs",
      "outputs": [],
      "stateMutability": "nonpayable",
      "type": "function"
    },
    {
      "inputs": [
        {
          "internalType": "uint16",
          "name": "newTotalMintLimit",
          "type": "uint16"
        }
      ],
      "name": "setTotalMintLimit",
      "outputs": [],
      "stateMutability": "nonpayable",
      "type": "function"
    },
    {
      "inputs": [],
      "name": "singleMintLimit",
      "outputs": [
        {
          "internalType": "uint16",
          "name": "",
          "type": "uint16"
        }
      ],
      "stateMutability": "view",
      "type": "function"
    },
    {
      "inputs": [
        {
          "internalType": "bytes4",
          "name": "interfaceId",
          "type": "bytes4"
        }
      ],
      "name": "supportsInterface",
      "outputs": [
        {
          "internalType": "bool",
          "name": "",
          "type": "bool"
        }
      ],
      "stateMutability": "view",
      "type": "function"
    },
    {
      "inputs": [],
      "name": "symbol",
      "outputs": [
        {
          "internalType": "string",
          "name": "",
          "type": "string"
        }
      ],
      "stateMutability": "view",
      "type": "function"
    },
    {
      "inputs": [
        {
          "internalType": "uint256",
          "name": "index",
          "type": "uint256"
        }
      ],
      "name": "tokenByIndex",
      "outputs": [
        {
          "internalType": "uint256",
          "name": "",
          "type": "uint256"
        }
      ],
      "stateMutability": "pure",
      "type": "function"
    },
    {
      "inputs": [
        {
          "internalType": "uint256",
          "name": "tokenId",
          "type": "uint256"
        }
      ],
      "name": "tokenContentURI",
      "outputs": [
        {
          "internalType": "string",
          "name": "",
          "type": "string"
        }
      ],
      "stateMutability": "view",
      "type": "function"
    },
    {
      "inputs": [
        {
          "internalType": "address",
          "name": "owner",
          "type": "address"
        },
        {
          "internalType": "uint256",
          "name": "index",
          "type": "uint256"
        }
      ],
      "name": "tokenOfOwnerByIndex",
      "outputs": [
        {
          "internalType": "uint256",
          "name": "tokenId",
          "type": "uint256"
        }
      ],
      "stateMutability": "view",
      "type": "function"
    },
    {
      "inputs": [
        {
          "internalType": "uint256",
          "name": "tokenId",
          "type": "uint256"
        }
      ],
      "name": "tokenURI",
      "outputs": [
        {
          "internalType": "string",
          "name": "",
          "type": "string"
        }
      ],
      "stateMutability": "pure",
      "type": "function"
    },
    {
      "inputs": [],
      "name": "totalMintLimit",
      "outputs": [
        {
          "internalType": "uint16",
          "name": "",
          "type": "uint16"
        }
      ],
      "stateMutability": "view",
      "type": "function"
    },
    {
      "inputs": [],
      "name": "totalSupply",
      "outputs": [
        {
          "internalType": "uint256",
          "name": "",
          "type": "uint256"
        }
      ],
      "stateMutability": "pure",
      "type": "function"
    },
    {
      "inputs": [
        {
          "internalType": "address",
          "name": "from",
          "type": "address"
        },
        {
          "internalType": "address",
          "name": "to",
          "type": "address"
        },
        {
          "internalType": "uint256",
          "name": "tokenId",
          "type": "uint256"
        }
      ],
      "name": "transferFrom",
      "outputs": [],
      "stateMutability": "nonpayable",
      "type": "function"
    },
    {
      "inputs": [
        {
          "internalType": "address",
          "name": "newOwner",
          "type": "address"
        }
      ],
      "name": "transferOwnership",
      "outputs": [],
      "stateMutability": "nonpayable",
      "type": "function"
    },
    {
      "inputs": [],
      "name": "withdraw",
      "outputs": [],
      "stateMutability": "nonpayable",
      "type": "function"
    }
  ],
  "bytecode": "0x60806040526103e8600c60006101000a81548161ffff021916908361ffff1602179055506014600c60026101000a81548161ffff021916908361ffff1602179055506000600d553480156200005357600080fd5b506040518060400160405280601681526020017f4d696c6c696f6e446f6c6c6172546f6b656e50616765000000000000000000008152506040518060400160405280600381526020017fe28aa100000000000000000000000000000000000000000000000000000000008152508160009080519060200190620000d89291906200024f565b508060019080519060200190620000f19291906200024f565b50505062000114620001086200018160201b60201c565b6200018960201b60201c565b6001600660006200012a6200018160201b60201c565b73ffffffffffffffffffffffffffffffffffffffff1673ffffffffffffffffffffffffffffffffffffffff16815260200190815260200160002060006101000a81548160ff02191690831515021790555062000364565b600033905090565b6000600760009054906101000a900473ffffffffffffffffffffffffffffffffffffffff16905081600760006101000a81548173ffffffffffffffffffffffffffffffffffffffff021916908373ffffffffffffffffffffffffffffffffffffffff1602179055508173ffffffffffffffffffffffffffffffffffffffff168173ffffffffffffffffffffffffffffffffffffffff167f8be0079c531659141344cd1fd0a4f28419497f9722a3daafe3b4186f6b6457e060405160405180910390a35050565b8280546200025d90620002ff565b90600052602060002090601f016020900481019282620002815760008555620002cd565b82601f106200029c57805160ff1916838001178555620002cd565b82800160010185558215620002cd579182015b82811115620002cc578251825591602001919060010190620002af565b5b509050620002dc9190620002e0565b5090565b5b80821115620002fb576000816000905550600101620002e1565b5090565b600060028204905060018216806200031857607f821691505b602082108114156200032f576200032e62000335565b5b50919050565b7f4e487b7100000000000000000000000000000000000000000000000000000000600052602260045260246000fd5b614b8980620003746000396000f3fe6080604052600436106102305760003560e01c80636817c76c1161012e578063a22cb465116100ab578063e04a8eaf1161006f578063e04a8eaf14610824578063e8d44caf1461084f578063e985e9c514610878578063f2fde38b146108b5578063f4a0a528146108de57610230565b8063a22cb4651461073f578063b88d4fde14610768578063c742856614610791578063c87b56dd146107bc578063cf721b15146107f957610230565b80638da5cb5b116100f25780638da5cb5b1461068857806395d89b41146106b3578063a0712d68146106de578063a1ae82e5146106fa578063a2194baf1461072357610230565b80636817c76c146105b557806370a08231146105e0578063715018a61461061d57806376dd1f86146106345780638d50645a1461065f57610230565b80632f745c59116101bc5780634b0bddd2116101805780634b0bddd2146104c05780634f6ccce7146104e95780635935e01a146105265780636352211e1461054f578063677ab70b1461058c57610230565b80632f745c59146103ed5780633906f5601461042a5780633ccfd60b1461045557806342842e0e1461046c5780634a0218d61461049557610230565b80630c0a9d26116102035780630c0a9d26146103035780630d5e20531461034057806318160ddd1461037d5780631f5e7978146103a857806323b872dd146103c457610230565b806301ffc9a71461023557806306fdde0314610272578063081812fc1461029d578063095ea7b3146102da575b600080fd5b34801561024157600080fd5b5061025c60048036038101906102579190613425565b610907565b6040516102699190613adf565b60405180910390f35b34801561027e57600080fd5b506102876109e9565b6040516102949190613afa565b60405180910390f35b3480156102a957600080fd5b506102c460048036038101906102bf91906134a0565b610a7b565b6040516102d19190613a78565b60405180910390f35b3480156102e657600080fd5b5061030160048036038101906102fc91906133e9565b610b00565b005b34801561030f57600080fd5b5061032a600480360381019061032591906134a0565b610c18565b6040516103379190613afa565b60405180910390f35b34801561034c57600080fd5b506103676004803603810190610362919061327e565b610d07565b6040516103749190613adf565b60405180910390f35b34801561038957600080fd5b50610392610d27565b60405161039f9190613e77565b60405180910390f35b6103c260048036038101906103bd919061351d565b610d3f565b005b3480156103d057600080fd5b506103eb60048036038101906103e691906132e3565b610e90565b005b3480156103f957600080fd5b50610414600480360381019061040f91906133e9565b610ef0565b6040516104219190613e77565b60405180910390f35b34801561043657600080fd5b5061043f610f4b565b60405161044c9190613e5c565b60405180910390f35b34801561046157600080fd5b5061046a610f5b565b005b34801561047857600080fd5b50610493600480360381019061048e91906132e3565b611026565b005b3480156104a157600080fd5b506104aa611046565b6040516104b79190613e5c565b60405180910390f35b3480156104cc57600080fd5b506104e760048036038101906104e291906133ad565b61104b565b005b3480156104f557600080fd5b50610510600480360381019061050b91906134a0565b611132565b60405161051d9190613e77565b60405180910390f35b34801561053257600080fd5b5061054d6004803603810190610548919061356c565b6111a6565b005b34801561055b57600080fd5b50610576600480360381019061057191906134a0565b611477565b6040516105839190613a78565b60405180910390f35b34801561059857600080fd5b506105b360048036038101906105ae91906134a0565b611529565b005b3480156105c157600080fd5b506105ca6115c1565b6040516105d79190613e77565b60405180910390f35b3480156105ec57600080fd5b506106076004803603810190610602919061327e565b6115c7565b6040516106149190613e77565b60405180910390f35b34801561062957600080fd5b5061063261167f565b005b34801561064057600080fd5b50610649611707565b6040516106569190613e5c565b60405180910390f35b34801561066b57600080fd5b50610686600480360381019061068191906134c9565b61171b565b005b34801561069457600080fd5b5061069d6117a8565b6040516106aa9190613a78565b60405180910390f35b3480156106bf57600080fd5b506106c86117d2565b6040516106d59190613afa565b60405180910390f35b6106f860048036038101906106f391906134a0565b611864565b005b34801561070657600080fd5b50610721600480360381019061071c9190613477565b61191f565b005b61073d6004803603810190610738919061351d565b6119cb565b005b34801561074b57600080fd5b50610766600480360381019061076191906133ad565b6119db565b005b34801561077457600080fd5b5061078f600480360381019061078a9190613332565b611b5c565b005b34801561079d57600080fd5b506107a6611bbe565b6040516107b39190613e5c565b60405180910390f35b3480156107c857600080fd5b506107e360048036038101906107de91906134a0565b611bd2565b6040516107f09190613afa565b60405180910390f35b34801561080557600080fd5b5061080e611c12565b60405161081b9190613e77565b60405180910390f35b34801561083057600080fd5b50610839611c1f565b6040516108469190613e5c565b60405180910390f35b34801561085b57600080fd5b5061087660048036038101906108719190613477565b611c24565b005b34801561088457600080fd5b5061089f600480360381019061089a91906132a7565b611cd0565b6040516108ac9190613adf565b60405180910390f35b3480156108c157600080fd5b506108dc60048036038101906108d7919061327e565b611d64565b005b3480156108ea57600080fd5b50610905600480360381019061090091906134a0565b611e5c565b005b60007f80ac58cd000000000000000000000000000000000000000000000000000000007bffffffffffffffffffffffffffffffffffffffffffffffffffffffff1916827bffffffffffffffffffffffffffffffffffffffffffffffffffffffff191614806109d257507f5b5e139f000000000000000000000000000000000000000000000000000000007bffffffffffffffffffffffffffffffffffffffffffffffffffffffff1916827bffffffffffffffffffffffffffffffffffffffffffffffffffffffff1916145b806109e257506109e182611ef2565b5b9050919050565b6060600080546109f89061421c565b80601f0160208091040260200160405190810160405280929190818152602001828054610a249061421c565b8015610a715780601f10610a4657610100808354040283529160200191610a71565b820191906000526020600020905b815481529060010190602001808311610a5457829003601f168201915b5050505050905090565b6000610a8682611f5c565b610ac5576040517f08c379a0000000000000000000000000000000000000000000000000000000008152600401610abc90613cfc565b60405180910390fd5b6004600083815260200190815260200160002060009054906101000a900473ffffffffffffffffffffffffffffffffffffffff169050919050565b6000610b0b82611477565b90508073ffffffffffffffffffffffffffffffffffffffff168373ffffffffffffffffffffffffffffffffffffffff161415610b7c576040517f08c379a0000000000000000000000000000000000000000000000000000000008152600401610b7390613d9c565b60405180910390fd5b8073ffffffffffffffffffffffffffffffffffffffff16610b9b611fc8565b73ffffffffffffffffffffffffffffffffffffffff161480610bca5750610bc981610bc4611fc8565b611cd0565b5b610c09576040517f08c379a0000000000000000000000000000000000000000000000000000000008152600401610c0090613c3c565b60405180910390fd5b610c138383611fd0565b505050565b60606000600860008481526020019081526020016000208054610c3a9061421c565b80601f0160208091040260200160405190810160405280929190818152602001828054610c669061421c565b8015610cb35780601f10610c8857610100808354040283529160200191610cb3565b820191906000526020600020905b815481529060010190602001808311610c9657829003601f168201915b50505050509050600081511115610ccd5780915050610d02565b610cd5612089565b610cde846120a9565b604051602001610cef929190613a54565b6040516020818303038152906040529150505b919050565b60066020528060005260406000206000915054906101000a900460ff1681565b6000606480610d369190614046565b61ffff16905090565b610d628183610d4e91906140dc565b60ff16600d5461225690919063ffffffff16565b341015610da4576040517f08c379a0000000000000000000000000000000000000000000000000000000008152600401610d9b90613dfc565b60405180910390fd5b600c60009054906101000a900461ffff1661ffff168183610dc591906140dc565b60ff16610dd0611c12565b610dda9190613f88565b1115610e1b576040517f08c379a0000000000000000000000000000000000000000000000000000000008152600401610e1290613cdc565b60405180910390fd5b600c60029054906101000a900461ffff1661ffff168183610e3c91906140dc565b60ff161115610e80576040517f08c379a0000000000000000000000000000000000000000000000000000000008152600401610e7790613d7c565b60405180910390fd5b610e8b83838361226c565b505050565b610ea1610e9b611fc8565b82612388565b610ee0576040517f08c379a0000000000000000000000000000000000000000000000000000000008152600401610ed790613e1c565b60405180910390fd5b610eeb838383612466565b505050565b6000600960008473ffffffffffffffffffffffffffffffffffffffff1673ffffffffffffffffffffffffffffffffffffffff168152602001908152602001600020600083815260200190815260200160002054905092915050565b606480610f589190614046565b81565b610f63611fc8565b73ffffffffffffffffffffffffffffffffffffffff16610f816117a8565b73ffffffffffffffffffffffffffffffffffffffff1614610fd7576040517f08c379a0000000000000000000000000000000000000000000000000000000008152600401610fce90613d3c565b60405180910390fd5b60004790503373ffffffffffffffffffffffffffffffffffffffff166108fc829081150290604051600060405180830381858888f19350505050158015611022573d6000803e3d6000fd5b5050565b61104183838360405180602001604052806000815250611b5c565b505050565b606481565b600660003373ffffffffffffffffffffffffffffffffffffffff1673ffffffffffffffffffffffffffffffffffffffff16815260200190815260200160002060009054906101000a900460ff166110d7576040517f08c379a00000000000000000000000000000000000000000000000000000000081526004016110ce90613dbc565b60405180910390fd5b80600660008473ffffffffffffffffffffffffffffffffffffffff1673ffffffffffffffffffffffffffffffffffffffff16815260200190815260200160002060006101000a81548160ff0219169083151502179055505050565b6000808210158015611153575060648061114c9190614046565b61ffff1682105b611192576040517f08c379a000000000000000000000000000000000000000000000000000000000815260040161118990613e3c565b60405180910390fd5b60018261119f9190613f88565b9050919050565b83838360005b8160ff168160ff1610156112a15760005b8360ff168160ff16101561128d5760008160ff168360ff1660646111e19190614046565b61ffff16876111f09190613f88565b6111fa9190613f88565b9050611204611fc8565b73ffffffffffffffffffffffffffffffffffffffff1661122382611477565b73ffffffffffffffffffffffffffffffffffffffff1614611279576040517f08c379a000000000000000000000000000000000000000000000000000000000815260040161127090613bbc565b60405180910390fd5b508080611285906142c8565b9150506111bd565b508080611299906142c8565b9150506111ac565b5086868660008260ff16116112eb576040517f08c379a00000000000000000000000000000000000000000000000000000000081526004016112e290613ddc565b60405180910390fd5b60008160ff1611611331576040517f08c379a000000000000000000000000000000000000000000000000000000000815260040161132890613c9c565b60405180910390fd5b8651888a61133f91906140dc565b60ff1614611382576040517f08c379a000000000000000000000000000000000000000000000000000000000815260040161137990613b7c565b60405180910390fd5b60005b8860ff168160ff16101561146a5760005b8a60ff168160ff16101561145657600081838d6113b391906140dc565b6113bd9190613fde565b60ff16905060008260ff168460ff1660646113d89190614046565b61ffff168f6113e79190613f88565b6113f19190613f88565b9050611441818c8461ffff1681518110611434577f4e487b7100000000000000000000000000000000000000000000000000000000600052603260045260246000fd5b60200260200101516126c2565b5050808061144e906142c8565b915050611396565b508080611462906142c8565b915050611385565b5050505050505050505050565b6000806002600084815260200190815260200160002060009054906101000a900473ffffffffffffffffffffffffffffffffffffffff169050600073ffffffffffffffffffffffffffffffffffffffff168173ffffffffffffffffffffffffffffffffffffffff161415611520576040517f08c379a000000000000000000000000000000000000000000000000000000000815260040161151790613c7c565b60405180910390fd5b80915050919050565b600660003373ffffffffffffffffffffffffffffffffffffffff1673ffffffffffffffffffffffffffffffffffffffff16815260200190815260200160002060009054906101000a900460ff166115b5576040517f08c379a00000000000000000000000000000000000000000000000000000000081526004016115ac90613dbc565b60405180910390fd5b6115be8161271b565b50565b600d5481565b60008073ffffffffffffffffffffffffffffffffffffffff168273ffffffffffffffffffffffffffffffffffffffff161415611638576040517f08c379a000000000000000000000000000000000000000000000000000000000815260040161162f90613c5c565b60405180910390fd5b600360008373ffffffffffffffffffffffffffffffffffffffff1673ffffffffffffffffffffffffffffffffffffffff168152602001908152602001600020549050919050565b611687611fc8565b73ffffffffffffffffffffffffffffffffffffffff166116a56117a8565b73ffffffffffffffffffffffffffffffffffffffff16146116fb576040517f08c379a00000000000000000000000000000000000000000000000000000000081526004016116f290613d3c565b60405180910390fd5b6117056000612787565b565b600c60009054906101000a900461ffff1681565b81611724611fc8565b73ffffffffffffffffffffffffffffffffffffffff1661174382611477565b73ffffffffffffffffffffffffffffffffffffffff1614611799576040517f08c379a000000000000000000000000000000000000000000000000000000000815260040161179090613d1c565b60405180910390fd5b6117a383836126c2565b505050565b6000600760009054906101000a900473ffffffffffffffffffffffffffffffffffffffff16905090565b6060600180546117e19061421c565b80601f016020809104026020016040519081016040528092919081815260200182805461180d9061421c565b801561185a5780601f1061182f5761010080835404028352916020019161185a565b820191906000526020600020905b81548152906001019060200180831161183d57829003601f168201915b5050505050905090565b600d543410156118a9576040517f08c379a00000000000000000000000000000000000000000000000000000000081526004016118a090613dfc565b60405180910390fd5b600c60009054906101000a900461ffff1661ffff1660016118c8611c12565b6118d29190613f88565b1115611913576040517f08c379a000000000000000000000000000000000000000000000000000000000815260040161190a90613cdc565b60405180910390fd5b61191c8161271b565b50565b600660003373ffffffffffffffffffffffffffffffffffffffff1673ffffffffffffffffffffffffffffffffffffffff16815260200190815260200160002060009054906101000a900460ff166119ab576040517f08c379a00000000000000000000000000000000000000000000000000000000081526004016119a290613dbc565b60405180910390fd5b80600c60006101000a81548161ffff021916908361ffff16021790555050565b6119d683838361226c565b505050565b6119e3611fc8565b73ffffffffffffffffffffffffffffffffffffffff168273ffffffffffffffffffffffffffffffffffffffff161415611a51576040517f08c379a0000000000000000000000000000000000000000000000000000000008152600401611a4890613bfc565b60405180910390fd5b8060056000611a5e611fc8565b73ffffffffffffffffffffffffffffffffffffffff1673ffffffffffffffffffffffffffffffffffffffff16815260200190815260200160002060008473ffffffffffffffffffffffffffffffffffffffff1673ffffffffffffffffffffffffffffffffffffffff16815260200190815260200160002060006101000a81548160ff0219169083151502179055508173ffffffffffffffffffffffffffffffffffffffff16611b0b611fc8565b73ffffffffffffffffffffffffffffffffffffffff167f17307eab39ab6107e8899845ad3d59bd9653f200f220920489ca2b5937696c3183604051611b509190613adf565b60405180910390a35050565b611b6d611b67611fc8565b83612388565b611bac576040517f08c379a0000000000000000000000000000000000000000000000000000000008152600401611ba390613e1c565b60405180910390fd5b611bb88484848461284d565b50505050565b600c60029054906101000a900461ffff1681565b60606000611bde6128a9565b905080611bea846120a9565b604051602001611bfb929190613a54565b604051602081830303815290604052915050919050565b6000600b80549050905090565b606481565b600660003373ffffffffffffffffffffffffffffffffffffffff1673ffffffffffffffffffffffffffffffffffffffff16815260200190815260200160002060009054906101000a900460ff16611cb0576040517f08c379a0000000000000000000000000000000000000000000000000000000008152600401611ca790613dbc565b60405180910390fd5b80600c60026101000a81548161ffff021916908361ffff16021790555050565b6000600560008473ffffffffffffffffffffffffffffffffffffffff1673ffffffffffffffffffffffffffffffffffffffff16815260200190815260200160002060008373ffffffffffffffffffffffffffffffffffffffff1673ffffffffffffffffffffffffffffffffffffffff16815260200190815260200160002060009054906101000a900460ff16905092915050565b611d6c611fc8565b73ffffffffffffffffffffffffffffffffffffffff16611d8a6117a8565b73ffffffffffffffffffffffffffffffffffffffff1614611de0576040517f08c379a0000000000000000000000000000000000000000000000000000000008152600401611dd790613d3c565b60405180910390fd5b600073ffffffffffffffffffffffffffffffffffffffff168173ffffffffffffffffffffffffffffffffffffffff161415611e50576040517f08c379a0000000000000000000000000000000000000000000000000000000008152600401611e4790613b5c565b60405180910390fd5b611e5981612787565b50565b600660003373ffffffffffffffffffffffffffffffffffffffff1673ffffffffffffffffffffffffffffffffffffffff16815260200190815260200160002060009054906101000a900460ff16611ee8576040517f08c379a0000000000000000000000000000000000000000000000000000000008152600401611edf90613dbc565b60405180910390fd5b80600d8190555050565b60007f01ffc9a7000000000000000000000000000000000000000000000000000000007bffffffffffffffffffffffffffffffffffffffffffffffffffffffff1916827bffffffffffffffffffffffffffffffffffffffffffffffffffffffff1916149050919050565b60008073ffffffffffffffffffffffffffffffffffffffff166002600084815260200190815260200160002060009054906101000a900473ffffffffffffffffffffffffffffffffffffffff1673ffffffffffffffffffffffffffffffffffffffff1614159050919050565b600033905090565b816004600083815260200190815260200160002060006101000a81548173ffffffffffffffffffffffffffffffffffffffff021916908373ffffffffffffffffffffffffffffffffffffffff160217905550808273ffffffffffffffffffffffffffffffffffffffff1661204383611477565b73ffffffffffffffffffffffffffffffffffffffff167f8c5be1e5ebec7d5bd14f71427d1e84f3dd0314c0f7b2291e5b200ac8c7c3b92560405160405180910390a45050565b60606040518060600160405280602b8152602001614b29602b9139905090565b606060008214156120f1576040518060400160405280600181526020017f30000000000000000000000000000000000000000000000000000000000000008152509050612251565b600082905060005b6000821461212357808061210c9061427f565b915050600a8261211c9190614015565b91506120f9565b60008167ffffffffffffffff811115612165577f4e487b7100000000000000000000000000000000000000000000000000000000600052604160045260246000fd5b6040519080825280601f01601f1916602001820160405280156121975781602001600182028036833780820191505090505b5090505b6000851461224a576001826121b09190614117565b9150600a856121bf91906142f2565b60306121cb9190613f88565b60f81b818381518110612207577f4e487b7100000000000000000000000000000000000000000000000000000000600052603260045260246000fd5b60200101907effffffffffffffffffffffffffffffffffffffffffffffffffffffffffffff1916908160001a905350600a856122439190614015565b945061219b565b8093505050505b919050565b600081836122649190614082565b905092915050565b82828260008260ff16116122b5576040517f08c379a00000000000000000000000000000000000000000000000000000000081526004016122ac90613ddc565b60405180910390fd5b60008160ff16116122fb576040517f08c379a00000000000000000000000000000000000000000000000000000000081526004016122f290613c9c565b60405180910390fd5b60005b8460ff168160ff16101561237f5760005b8660ff168160ff16101561236b5760008160ff168360ff1660646123339190614046565b61ffff168a6123429190613f88565b61234c9190613f88565b90506123578161271b565b508080612363906142c8565b91505061230f565b508080612377906142c8565b9150506122fe565b50505050505050565b600061239382611f5c565b6123d2576040517f08c379a00000000000000000000000000000000000000000000000000000000081526004016123c990613c1c565b60405180910390fd5b60006123dd83611477565b90508073ffffffffffffffffffffffffffffffffffffffff168473ffffffffffffffffffffffffffffffffffffffff16148061244c57508373ffffffffffffffffffffffffffffffffffffffff1661243484610a7b565b73ffffffffffffffffffffffffffffffffffffffff16145b8061245d575061245c8185611cd0565b5b91505092915050565b8273ffffffffffffffffffffffffffffffffffffffff1661248682611477565b73ffffffffffffffffffffffffffffffffffffffff16146124dc576040517f08c379a00000000000000000000000000000000000000000000000000000000081526004016124d390613d5c565b60405180910390fd5b600073ffffffffffffffffffffffffffffffffffffffff168273ffffffffffffffffffffffffffffffffffffffff16141561254c576040517f08c379a000000000000000000000000000000000000000000000000000000000815260040161254390613bdc565b60405180910390fd5b6125578383836128c9565b612562600082611fd0565b6001600360008573ffffffffffffffffffffffffffffffffffffffff1673ffffffffffffffffffffffffffffffffffffffff16815260200190815260200160002060008282546125b29190614117565b925050819055506001600360008473ffffffffffffffffffffffffffffffffffffffff1673ffffffffffffffffffffffffffffffffffffffff16815260200190815260200160002060008282546126099190613f88565b92505081905550816002600083815260200190815260200160002060006101000a81548173ffffffffffffffffffffffffffffffffffffffff021916908373ffffffffffffffffffffffffffffffffffffffff160217905550808273ffffffffffffffffffffffffffffffffffffffff168473ffffffffffffffffffffffffffffffffffffffff167fddf252ad1be2c89b69c2b068fc378daa952ba7f163c4a11628f55a4df523b3ef60405160405180910390a4505050565b806008600084815260200190815260200160002090805190602001906126e9929190612f88565b50817fd26ab77304eac64a04df2018c66716ad9c938c7b11429b56a46c017768172d1b60405160405180910390a25050565b60008111801561273b57506064806127339190614046565b61ffff168111155b61277a576040517f08c379a000000000000000000000000000000000000000000000000000000000815260040161277190613b1c565b60405180910390fd5b6127843382612b92565b50565b6000600760009054906101000a900473ffffffffffffffffffffffffffffffffffffffff16905081600760006101000a81548173ffffffffffffffffffffffffffffffffffffffff021916908373ffffffffffffffffffffffffffffffffffffffff1602179055508173ffffffffffffffffffffffffffffffffffffffff168173ffffffffffffffffffffffffffffffffffffffff167f8be0079c531659141344cd1fd0a4f28419497f9722a3daafe3b4186f6b6457e060405160405180910390a35050565b612858848484612466565b61286484848484612bb0565b6128a3576040517f08c379a000000000000000000000000000000000000000000000000000000000815260040161289a90613b3c565b60405180910390fd5b50505050565b6060604051806060016040528060248152602001614b0560249139905090565b6128d4838383612d47565b8273ffffffffffffffffffffffffffffffffffffffff168273ffffffffffffffffffffffffffffffffffffffff1614612b8d57600073ffffffffffffffffffffffffffffffffffffffff168373ffffffffffffffffffffffffffffffffffffffff16141561296a57600b819080600181540180825580915050600190039060005260206000200160009091909190915055612adc565b60006001612977856115c7565b6129819190614117565b90506000600a6000848152602001908152602001600020549050818114612a66576000600960008773ffffffffffffffffffffffffffffffffffffffff1673ffffffffffffffffffffffffffffffffffffffff168152602001908152602001600020600084815260200190815260200160002054905080600960008873ffffffffffffffffffffffffffffffffffffffff1673ffffffffffffffffffffffffffffffffffffffff16815260200190815260200160002060008481526020019081526020016000208190555081600a600083815260200190815260200160002081905550505b600960008673ffffffffffffffffffffffffffffffffffffffff1673ffffffffffffffffffffffffffffffffffffffff168152602001908152602001600020600083815260200190815260200160002060009055600860008481526020019081526020016000206000612ad9919061300e565b50505b600073ffffffffffffffffffffffffffffffffffffffff168273ffffffffffffffffffffffffffffffffffffffff1614612b8c576000612b1b836115c7565b905081600960008573ffffffffffffffffffffffffffffffffffffffff1673ffffffffffffffffffffffffffffffffffffffff16815260200190815260200160002060008381526020019081526020016000208190555080600a600084815260200190815260200160002081905550505b5b505050565b612bac828260405180602001604052806000815250612d4c565b5050565b6000612bd18473ffffffffffffffffffffffffffffffffffffffff16612da7565b15612d3a578373ffffffffffffffffffffffffffffffffffffffff1663150b7a02612bfa611fc8565b8786866040518563ffffffff1660e01b8152600401612c1c9493929190613a93565b602060405180830381600087803b158015612c3657600080fd5b505af1925050508015612c6757506040513d601f19601f82011682018060405250810190612c64919061344e565b60015b612cea573d8060008114612c97576040519150601f19603f3d011682016040523d82523d6000602084013e612c9c565b606091505b50600081511415612ce2576040517f08c379a0000000000000000000000000000000000000000000000000000000008152600401612cd990613b3c565b60405180910390fd5b805181602001fd5b63150b7a0260e01b7bffffffffffffffffffffffffffffffffffffffffffffffffffffffff1916817bffffffffffffffffffffffffffffffffffffffffffffffffffffffff191614915050612d3f565b600190505b949350505050565b505050565b612d568383612dba565b612d636000848484612bb0565b612da2576040517f08c379a0000000000000000000000000000000000000000000000000000000008152600401612d9990613b3c565b60405180910390fd5b505050565b600080823b905060008111915050919050565b600073ffffffffffffffffffffffffffffffffffffffff168273ffffffffffffffffffffffffffffffffffffffff161415612e2a576040517f08c379a0000000000000000000000000000000000000000000000000000000008152600401612e2190613cbc565b60405180910390fd5b612e3381611f5c565b15612e73576040517f08c379a0000000000000000000000000000000000000000000000000000000008152600401612e6a90613b9c565b60405180910390fd5b612e7f600083836128c9565b6001600360008473ffffffffffffffffffffffffffffffffffffffff1673ffffffffffffffffffffffffffffffffffffffff1681526020019081526020016000206000828254612ecf9190613f88565b92505081905550816002600083815260200190815260200160002060006101000a81548173ffffffffffffffffffffffffffffffffffffffff021916908373ffffffffffffffffffffffffffffffffffffffff160217905550808273ffffffffffffffffffffffffffffffffffffffff16600073ffffffffffffffffffffffffffffffffffffffff167fddf252ad1be2c89b69c2b068fc378daa952ba7f163c4a11628f55a4df523b3ef60405160405180910390a45050565b828054612f949061421c565b90600052602060002090601f016020900481019282612fb65760008555612ffd565b82601f10612fcf57805160ff1916838001178555612ffd565b82800160010185558215612ffd579182015b82811115612ffc578251825591602001919060010190612fe1565b5b50905061300a919061304e565b5090565b50805461301a9061421c565b6000825580601f1061302c575061304b565b601f01602090049060005260206000209081019061304a919061304e565b5b50565b5b8082111561306757600081600090555060010161304f565b5090565b600061307e61307984613eb7565b613e92565b9050808382526020820190508285602086028201111561309d57600080fd5b60005b858110156130e757813567ffffffffffffffff8111156130bf57600080fd5b8086016130cc8982613215565b855260208501945060208401935050506001810190506130a0565b5050509392505050565b60006131046130ff84613ee3565b613e92565b90508281526020810184848401111561311c57600080fd5b6131278482856141da565b509392505050565b600061314261313d84613f14565b613e92565b90508281526020810184848401111561315a57600080fd5b6131658482856141da565b509392505050565b60008135905061317c81614a7a565b92915050565b600082601f83011261319357600080fd5b81356131a384826020860161306b565b91505092915050565b6000813590506131bb81614a91565b92915050565b6000813590506131d081614aa8565b92915050565b6000815190506131e581614aa8565b92915050565b600082601f8301126131fc57600080fd5b813561320c8482602086016130f1565b91505092915050565b600082601f83011261322657600080fd5b813561323684826020860161312f565b91505092915050565b60008135905061324e81614abf565b92915050565b60008135905061326381614ad6565b92915050565b60008135905061327881614aed565b92915050565b60006020828403121561329057600080fd5b600061329e8482850161316d565b91505092915050565b600080604083850312156132ba57600080fd5b60006132c88582860161316d565b92505060206132d98582860161316d565b9150509250929050565b6000806000606084860312156132f857600080fd5b60006133068682870161316d565b93505060206133178682870161316d565b925050604061332886828701613254565b9150509250925092565b6000806000806080858703121561334857600080fd5b60006133568782880161316d565b94505060206133678782880161316d565b935050604061337887828801613254565b925050606085013567ffffffffffffffff81111561339557600080fd5b6133a1878288016131eb565b91505092959194509250565b600080604083850312156133c057600080fd5b60006133ce8582860161316d565b92505060206133df858286016131ac565b9150509250929050565b600080604083850312156133fc57600080fd5b600061340a8582860161316d565b925050602061341b85828601613254565b9150509250929050565b60006020828403121561343757600080fd5b6000613445848285016131c1565b91505092915050565b60006020828403121561346057600080fd5b600061346e848285016131d6565b91505092915050565b60006020828403121561348957600080fd5b60006134978482850161323f565b91505092915050565b6000602082840312156134b257600080fd5b60006134c084828501613254565b91505092915050565b600080604083850312156134dc57600080fd5b60006134ea85828601613254565b925050602083013567ffffffffffffffff81111561350757600080fd5b61351385828601613215565b9150509250929050565b60008060006060848603121561353257600080fd5b600061354086828701613254565b935050602061355186828701613269565b925050604061356286828701613269565b9150509250925092565b6000806000806080858703121561358257600080fd5b600061359087828801613254565b94505060206135a187828801613269565b93505060406135b287828801613269565b925050606085013567ffffffffffffffff8111156135cf57600080fd5b6135db87828801613182565b91505092959194509250565b6135f08161414b565b82525050565b6135ff8161415d565b82525050565b600061361082613f45565b61361a8185613f5b565b935061362a8185602086016141e9565b613633816143df565b840191505092915050565b600061364982613f50565b6136538185613f6c565b93506136638185602086016141e9565b61366c816143df565b840191505092915050565b600061368282613f50565b61368c8185613f7d565b935061369c8185602086016141e9565b80840191505092915050565b60006136b5601583613f6c565b91506136c0826143f0565b602082019050919050565b60006136d8603283613f6c565b91506136e382614419565b604082019050919050565b60006136fb602683613f6c565b915061370682614468565b604082019050919050565b600061371e603f83613f6c565b9150613729826144b7565b604082019050919050565b6000613741601c83613f6c565b915061374c82614506565b602082019050919050565b6000613764603983613f6c565b915061376f8261452f565b604082019050919050565b6000613787602483613f6c565b91506137928261457e565b604082019050919050565b60006137aa601983613f6c565b91506137b5826145cd565b602082019050919050565b60006137cd602c83613f6c565b91506137d8826145f6565b604082019050919050565b60006137f0603883613f6c565b91506137fb82614645565b604082019050919050565b6000613813602a83613f6c565b915061381e82614694565b604082019050919050565b6000613836602983613f6c565b9150613841826146e3565b604082019050919050565b6000613859601883613f6c565b915061386482614732565b602082019050919050565b600061387c602083613f6c565b91506138878261475b565b602082019050919050565b600061389f602383613f6c565b91506138aa82614784565b604082019050919050565b60006138c2602c83613f6c565b91506138cd826147d3565b604082019050919050565b60006138e5602283613f6c565b91506138f082614822565b604082019050919050565b6000613908602083613f6c565b915061391382614871565b602082019050919050565b600061392b602983613f6c565b91506139368261489a565b604082019050919050565b600061394e603383613f6c565b9150613959826148e9565b604082019050919050565b6000613971602183613f6c565b915061397c82614938565b604082019050919050565b6000613994601d83613f6c565b915061399f82614987565b602082019050919050565b60006139b7601783613f6c565b91506139c2826149b0565b602082019050919050565b60006139da601a83613f6c565b91506139e5826149d9565b602082019050919050565b60006139fd603183613f6c565b9150613a0882614a02565b604082019050919050565b6000613a20601383613f6c565b9150613a2b82614a51565b602082019050919050565b613a3f81614195565b82525050565b613a4e816141c3565b82525050565b6000613a608285613677565b9150613a6c8284613677565b91508190509392505050565b6000602082019050613a8d60008301846135e7565b92915050565b6000608082019050613aa860008301876135e7565b613ab560208301866135e7565b613ac26040830185613a45565b8181036060830152613ad48184613605565b905095945050505050565b6000602082019050613af460008301846135f6565b92915050565b60006020820190508181036000830152613b14818461363e565b905092915050565b60006020820190508181036000830152613b35816136a8565b9050919050565b60006020820190508181036000830152613b55816136cb565b9050919050565b60006020820190508181036000830152613b75816136ee565b9050919050565b60006020820190508181036000830152613b9581613711565b9050919050565b60006020820190508181036000830152613bb581613734565b9050919050565b60006020820190508181036000830152613bd581613757565b9050919050565b60006020820190508181036000830152613bf58161377a565b9050919050565b60006020820190508181036000830152613c158161379d565b9050919050565b60006020820190508181036000830152613c35816137c0565b9050919050565b60006020820190508181036000830152613c55816137e3565b9050919050565b60006020820190508181036000830152613c7581613806565b9050919050565b60006020820190508181036000830152613c9581613829565b9050919050565b60006020820190508181036000830152613cb58161384c565b9050919050565b60006020820190508181036000830152613cd58161386f565b9050919050565b60006020820190508181036000830152613cf581613892565b9050919050565b60006020820190508181036000830152613d15816138b5565b9050919050565b60006020820190508181036000830152613d35816138d8565b9050919050565b60006020820190508181036000830152613d55816138fb565b9050919050565b60006020820190508181036000830152613d758161391e565b9050919050565b60006020820190508181036000830152613d9581613941565b9050919050565b60006020820190508181036000830152613db581613964565b9050919050565b60006020820190508181036000830152613dd581613987565b9050919050565b60006020820190508181036000830152613df5816139aa565b9050919050565b60006020820190508181036000830152613e15816139cd565b9050919050565b60006020820190508181036000830152613e35816139f0565b9050919050565b60006020820190508181036000830152613e5581613a13565b9050919050565b6000602082019050613e716000830184613a36565b92915050565b6000602082019050613e8c6000830184613a45565b92915050565b6000613e9c613ead565b9050613ea8828261424e565b919050565b6000604051905090565b600067ffffffffffffffff821115613ed257613ed16143b0565b5b602082029050602081019050919050565b600067ffffffffffffffff821115613efe57613efd6143b0565b5b613f07826143df565b9050602081019050919050565b600067ffffffffffffffff821115613f2f57613f2e6143b0565b5b613f38826143df565b9050602081019050919050565b600081519050919050565b600081519050919050565b600082825260208201905092915050565b600082825260208201905092915050565b600081905092915050565b6000613f93826141c3565b9150613f9e836141c3565b9250827fffffffffffffffffffffffffffffffffffffffffffffffffffffffffffffffff03821115613fd357613fd2614323565b5b828201905092915050565b6000613fe9826141cd565b9150613ff4836141cd565b92508260ff0382111561400a57614009614323565b5b828201905092915050565b6000614020826141c3565b915061402b836141c3565b92508261403b5761403a614352565b5b828204905092915050565b600061405182614195565b915061405c83614195565b92508161ffff048311821515161561407757614076614323565b5b828202905092915050565b600061408d826141c3565b9150614098836141c3565b9250817fffffffffffffffffffffffffffffffffffffffffffffffffffffffffffffffff04831182151516156140d1576140d0614323565b5b828202905092915050565b60006140e7826141cd565b91506140f2836141cd565b92508160ff048311821515161561410c5761410b614323565b5b828202905092915050565b6000614122826141c3565b915061412d836141c3565b9250828210156141405761413f614323565b5b828203905092915050565b6000614156826141a3565b9050919050565b60008115159050919050565b60007fffffffff0000000000000000000000000000000000000000000000000000000082169050919050565b600061ffff82169050919050565b600073ffffffffffffffffffffffffffffffffffffffff82169050919050565b6000819050919050565b600060ff82169050919050565b82818337600083830152505050565b60005b838110156142075780820151818401526020810190506141ec565b83811115614216576000848401525b50505050565b6000600282049050600182168061423457607f821691505b6020821081141561424857614247614381565b5b50919050565b614257826143df565b810181811067ffffffffffffffff82111715614276576142756143b0565b5b80604052505050565b600061428a826141c3565b91507fffffffffffffffffffffffffffffffffffffffffffffffffffffffffffffffff8214156142bd576142bc614323565b5b600182019050919050565b60006142d3826141cd565b915060ff8214156142e7576142e6614323565b5b600182019050919050565b60006142fd826141c3565b9150614308836141c3565b92508261431857614317614352565b5b828206905092915050565b7f4e487b7100000000000000000000000000000000000000000000000000000000600052601160045260246000fd5b7f4e487b7100000000000000000000000000000000000000000000000000000000600052601260045260246000fd5b7f4e487b7100000000000000000000000000000000000000000000000000000000600052602260045260246000fd5b7f4e487b7100000000000000000000000000000000000000000000000000000000600052604160045260246000fd5b6000601f19601f8301169050919050565b7f4d4454503a20696e76616c696420746f6b656e49640000000000000000000000600082015250565b7f4552433732313a207472616e7366657220746f206e6f6e20455243373231526560008201527f63656976657220696d706c656d656e7465720000000000000000000000000000602082015250565b7f4f776e61626c653a206e6577206f776e657220697320746865207a65726f206160008201527f6464726573730000000000000000000000000000000000000000000000000000602082015250565b7f4d4454503a206c656e677468206f66206d6574616461746155524973206d757360008201527f74206265207468652073616d65206173207769647468202a2068656967687400602082015250565b7f4552433732313a20746f6b656e20616c7265616479206d696e74656400000000600082015250565b7f4d4454503a2063616c6c6572206973206e6f742074686520746f6b656e4f776e60008201527f6572206f6620616c6c20746f6b656e7320696e2067726f757000000000000000602082015250565b7f4552433732313a207472616e7366657220746f20746865207a65726f2061646460008201527f7265737300000000000000000000000000000000000000000000000000000000602082015250565b7f4552433732313a20617070726f766520746f2063616c6c657200000000000000600082015250565b7f4552433732313a206f70657261746f7220717565727920666f72206e6f6e657860008201527f697374656e7420746f6b656e0000000000000000000000000000000000000000602082015250565b7f4552433732313a20617070726f76652063616c6c6572206973206e6f74206f7760008201527f6e6572206e6f7220617070726f76656420666f7220616c6c0000000000000000602082015250565b7f4552433732313a2062616c616e636520717565727920666f7220746865207a6560008201527f726f206164647265737300000000000000000000000000000000000000000000602082015250565b7f4552433732313a206f776e657220717565727920666f72206e6f6e657869737460008201527f656e7420746f6b656e0000000000000000000000000000000000000000000000602082015250565b7f4d4454503a20686569676874206d757374206265203e20300000000000000000600082015250565b7f4552433732313a206d696e7420746f20746865207a65726f2061646472657373600082015250565b7f4d4454503a20726561636865642063757272656e74206d696e74696e67206c6960008201527f6d69740000000000000000000000000000000000000000000000000000000000602082015250565b7f4552433732313a20617070726f76656420717565727920666f72206e6f6e657860008201527f697374656e7420746f6b656e0000000000000000000000000000000000000000602082015250565b7f4d4454503a2063616c6c6572206973206e6f742074686520746f6b656e4f776e60008201527f6572000000000000000000000000000000000000000000000000000000000000602082015250565b7f4f776e61626c653a2063616c6c6572206973206e6f7420746865206f776e6572600082015250565b7f4552433732313a207472616e73666572206f6620746f6b656e2074686174206960008201527f73206e6f74206f776e0000000000000000000000000000000000000000000000602082015250565b7f4d4454503a2072657175657374656420746f6b656e20636f756e74206973206f60008201527f7665722073696e676c654d696e744c696d697400000000000000000000000000602082015250565b7f4552433732313a20617070726f76616c20746f2063757272656e74206f776e6560008201527f7200000000000000000000000000000000000000000000000000000000000000602082015250565b7f41646d696e3a2063616c6c6572206973206e6f7420616e2061646d696e000000600082015250565b7f4d4454503a207769647468206d757374206265203e2030000000000000000000600082015250565b7f4d4454503a20496e73756666696369656e74207061796d656e74000000000000600082015250565b7f4552433732313a207472616e736665722063616c6c6572206973206e6f74206f60008201527f776e6572206e6f7220617070726f766564000000000000000000000000000000602082015250565b7f4d4454503a20696e76616c696420696e64657800000000000000000000000000600082015250565b614a838161414b565b8114614a8e57600080fd5b50565b614a9a8161415d565b8114614aa557600080fd5b50565b614ab181614169565b8114614abc57600080fd5b50565b614ac881614195565b8114614ad357600080fd5b50565b614adf816141c3565b8114614aea57600080fd5b50565b614af6816141cd565b8114614b0157600080fd5b5056fe68747470733a2f2f6170692e6d6474702e636f2f746f6b656e2d6d65746164617461732f68747470733a2f2f6170692e6d6474702e636f2f746f6b656e2d64656661756c742d636f6e74656e74732fa26469706673582212206bc264b2a4dfb236d65c160330fd1b6df2ba438ef1df3f4dcbf16cf6243e9aea64736f6c63430008040033",
  "linkReferences": {},
  "deployedLinkReferences": {}
}