{
  "_format": "hh-sol-artifact-1",
  "contractName": "MillionDollarTokenPage",
  "sourceName": "contracts/MillionDollarTokenPage.sol",
  "abi": [
    {
      "inputs": [],
      "stateMutability": "nonpayable",
      "type": "constructor"
    },
    {
      "anonymous": false,
      "inputs": [
        {
          "indexed": true,
          "internalType": "address",
          "name": "owner",
          "type": "address"
        },
        {
          "indexed": true,
          "internalType": "address",
          "name": "approved",
          "type": "address"
        },
        {
          "indexed": true,
          "internalType": "uint256",
          "name": "tokenId",
          "type": "uint256"
        }
      ],
      "name": "Approval",
      "type": "event"
    },
    {
      "anonymous": false,
      "inputs": [
        {
          "indexed": true,
          "internalType": "address",
          "name": "owner",
          "type": "address"
        },
        {
          "indexed": true,
          "internalType": "address",
          "name": "operator",
          "type": "address"
        },
        {
          "indexed": false,
          "internalType": "bool",
          "name": "approved",
          "type": "bool"
        }
      ],
      "name": "ApprovalForAll",
      "type": "event"
    },
    {
      "anonymous": false,
      "inputs": [
        {
          "indexed": true,
          "internalType": "address",
          "name": "previousOwner",
          "type": "address"
        },
        {
          "indexed": true,
          "internalType": "address",
          "name": "newOwner",
          "type": "address"
        }
      ],
      "name": "OwnershipTransferred",
      "type": "event"
    },
    {
      "anonymous": false,
      "inputs": [
        {
          "indexed": true,
          "internalType": "uint256",
          "name": "tokenId",
          "type": "uint256"
        }
      ],
      "name": "TokenContentURIChanged",
      "type": "event"
    },
    {
      "anonymous": false,
      "inputs": [
        {
          "indexed": true,
          "internalType": "address",
          "name": "from",
          "type": "address"
        },
        {
          "indexed": true,
          "internalType": "address",
          "name": "to",
          "type": "address"
        },
        {
          "indexed": true,
          "internalType": "uint256",
          "name": "tokenId",
          "type": "uint256"
        }
      ],
      "name": "Transfer",
      "type": "event"
    },
    {
      "inputs": [],
      "name": "COLUMN_COUNT",
      "outputs": [
        {
          "internalType": "uint16",
          "name": "",
          "type": "uint16"
        }
      ],
      "stateMutability": "view",
      "type": "function"
    },
    {
      "inputs": [],
      "name": "ROW_COUNT",
      "outputs": [
        {
          "internalType": "uint16",
          "name": "",
          "type": "uint16"
        }
      ],
      "stateMutability": "view",
      "type": "function"
    },
    {
      "inputs": [],
      "name": "SUPPLY_LIMIT",
      "outputs": [
        {
          "internalType": "uint16",
          "name": "",
          "type": "uint16"
        }
      ],
      "stateMutability": "view",
      "type": "function"
    },
    {
      "inputs": [
        {
          "internalType": "address",
          "name": "",
          "type": "address"
        }
      ],
      "name": "_admins",
      "outputs": [
        {
          "internalType": "bool",
          "name": "",
          "type": "bool"
        }
      ],
      "stateMutability": "view",
      "type": "function"
    },
    {
      "inputs": [
        {
          "internalType": "address",
          "name": "to",
          "type": "address"
        },
        {
          "internalType": "uint256",
          "name": "tokenId",
          "type": "uint256"
        }
      ],
      "name": "approve",
      "outputs": [],
      "stateMutability": "nonpayable",
      "type": "function"
    },
    {
      "inputs": [
        {
          "internalType": "address",
          "name": "owner",
          "type": "address"
        }
      ],
      "name": "balanceOf",
      "outputs": [
        {
          "internalType": "uint256",
          "name": "",
          "type": "uint256"
        }
      ],
      "stateMutability": "view",
      "type": "function"
    },
    {
      "inputs": [
        {
          "internalType": "uint256",
          "name": "tokenId",
          "type": "uint256"
        }
      ],
      "name": "getApproved",
      "outputs": [
        {
          "internalType": "address",
          "name": "",
          "type": "address"
        }
      ],
      "stateMutability": "view",
      "type": "function"
    },
    {
      "inputs": [
        {
          "internalType": "address",
          "name": "owner",
          "type": "address"
        },
        {
          "internalType": "address",
          "name": "operator",
          "type": "address"
        }
      ],
      "name": "isApprovedForAll",
      "outputs": [
        {
          "internalType": "bool",
          "name": "",
          "type": "bool"
        }
      ],
      "stateMutability": "view",
      "type": "function"
    },
    {
      "inputs": [
        {
          "internalType": "uint256",
          "name": "tokenId",
          "type": "uint256"
        }
      ],
      "name": "mint",
      "outputs": [],
      "stateMutability": "payable",
      "type": "function"
    },
    {
      "inputs": [
        {
          "internalType": "uint256",
          "name": "tokenId",
          "type": "uint256"
        }
      ],
      "name": "mintAdmin",
      "outputs": [],
      "stateMutability": "nonpayable",
      "type": "function"
    },
    {
      "inputs": [],
      "name": "mintPrice",
      "outputs": [
        {
          "internalType": "uint256",
          "name": "",
          "type": "uint256"
        }
      ],
      "stateMutability": "view",
      "type": "function"
    },
    {
      "inputs": [
        {
          "internalType": "uint256",
          "name": "tokenId",
          "type": "uint256"
        },
        {
          "internalType": "uint8",
          "name": "width",
          "type": "uint8"
        },
        {
          "internalType": "uint8",
          "name": "height",
          "type": "uint8"
        }
      ],
      "name": "mintTokenGroup",
      "outputs": [],
      "stateMutability": "payable",
      "type": "function"
    },
    {
      "inputs": [
        {
          "internalType": "uint256",
          "name": "tokenId",
          "type": "uint256"
        },
        {
          "internalType": "uint8",
          "name": "width",
          "type": "uint8"
        },
        {
          "internalType": "uint8",
          "name": "height",
          "type": "uint8"
        }
      ],
      "name": "mintTokenGroupAdmin",
      "outputs": [],
      "stateMutability": "payable",
      "type": "function"
    },
    {
      "inputs": [],
      "name": "mintedCount",
      "outputs": [
        {
          "internalType": "uint256",
          "name": "",
          "type": "uint256"
        }
      ],
      "stateMutability": "view",
      "type": "function"
    },
    {
      "inputs": [],
      "name": "name",
      "outputs": [
        {
          "internalType": "string",
          "name": "",
          "type": "string"
        }
      ],
      "stateMutability": "view",
      "type": "function"
    },
    {
      "inputs": [],
      "name": "owner",
      "outputs": [
        {
          "internalType": "address",
          "name": "",
          "type": "address"
        }
      ],
      "stateMutability": "view",
      "type": "function"
    },
    {
      "inputs": [
        {
          "internalType": "uint256",
          "name": "tokenId",
          "type": "uint256"
        }
      ],
      "name": "ownerOf",
      "outputs": [
        {
          "internalType": "address",
          "name": "",
          "type": "address"
        }
      ],
      "stateMutability": "view",
      "type": "function"
    },
    {
      "inputs": [],
      "name": "renounceOwnership",
      "outputs": [],
      "stateMutability": "nonpayable",
      "type": "function"
    },
    {
      "inputs": [
        {
          "internalType": "address",
          "name": "from",
          "type": "address"
        },
        {
          "internalType": "address",
          "name": "to",
          "type": "address"
        },
        {
          "internalType": "uint256",
          "name": "tokenId",
          "type": "uint256"
        }
      ],
      "name": "safeTransferFrom",
      "outputs": [],
      "stateMutability": "nonpayable",
      "type": "function"
    },
    {
      "inputs": [
        {
          "internalType": "address",
          "name": "from",
          "type": "address"
        },
        {
          "internalType": "address",
          "name": "to",
          "type": "address"
        },
        {
          "internalType": "uint256",
          "name": "tokenId",
          "type": "uint256"
        },
        {
          "internalType": "bytes",
          "name": "_data",
          "type": "bytes"
        }
      ],
      "name": "safeTransferFrom",
      "outputs": [],
      "stateMutability": "nonpayable",
      "type": "function"
    },
    {
      "inputs": [
        {
          "internalType": "address",
          "name": "admin",
          "type": "address"
        },
        {
          "internalType": "bool",
          "name": "state",
          "type": "bool"
        }
      ],
      "name": "setAdmin",
      "outputs": [],
      "stateMutability": "nonpayable",
      "type": "function"
    },
    {
      "inputs": [
        {
          "internalType": "address",
          "name": "operator",
          "type": "address"
        },
        {
          "internalType": "bool",
          "name": "approved",
          "type": "bool"
        }
      ],
      "name": "setApprovalForAll",
      "outputs": [],
      "stateMutability": "nonpayable",
      "type": "function"
    },
    {
      "inputs": [
        {
          "internalType": "uint256",
          "name": "newMintPrice",
          "type": "uint256"
        }
      ],
      "name": "setMintPrice",
      "outputs": [],
      "stateMutability": "nonpayable",
      "type": "function"
    },
    {
      "inputs": [
        {
          "internalType": "uint16",
          "name": "newSingleMintLimit",
          "type": "uint16"
        }
      ],
      "name": "setSingleMintLimit",
      "outputs": [],
      "stateMutability": "nonpayable",
      "type": "function"
    },
    {
      "inputs": [
        {
          "internalType": "uint256",
          "name": "tokenId",
          "type": "uint256"
        },
        {
          "internalType": "string",
          "name": "metadataURI",
          "type": "string"
        }
      ],
      "name": "setTokenContentURI",
      "outputs": [],
      "stateMutability": "nonpayable",
      "type": "function"
    },
    {
      "inputs": [
        {
          "internalType": "uint256",
          "name": "tokenId",
          "type": "uint256"
        },
        {
          "internalType": "uint8",
          "name": "width",
          "type": "uint8"
        },
        {
          "internalType": "uint8",
          "name": "height",
          "type": "uint8"
        },
        {
          "internalType": "string[]",
          "name": "metadataURIs",
          "type": "string[]"
        }
      ],
      "name": "setTokenGroupContentURIs",
      "outputs": [],
      "stateMutability": "nonpayable",
      "type": "function"
    },
    {
      "inputs": [
        {
          "internalType": "uint16",
          "name": "newTotalMintLimit",
          "type": "uint16"
        }
      ],
      "name": "setTotalMintLimit",
      "outputs": [],
      "stateMutability": "nonpayable",
      "type": "function"
    },
    {
      "inputs": [],
      "name": "singleMintLimit",
      "outputs": [
        {
          "internalType": "uint16",
          "name": "",
          "type": "uint16"
        }
      ],
      "stateMutability": "view",
      "type": "function"
    },
    {
      "inputs": [
        {
          "internalType": "bytes4",
          "name": "interfaceId",
          "type": "bytes4"
        }
      ],
      "name": "supportsInterface",
      "outputs": [
        {
          "internalType": "bool",
          "name": "",
          "type": "bool"
        }
      ],
      "stateMutability": "view",
      "type": "function"
    },
    {
      "inputs": [],
      "name": "symbol",
      "outputs": [
        {
          "internalType": "string",
          "name": "",
          "type": "string"
        }
      ],
      "stateMutability": "view",
      "type": "function"
    },
    {
      "inputs": [
        {
          "internalType": "uint256",
          "name": "index",
          "type": "uint256"
        }
      ],
      "name": "tokenByIndex",
      "outputs": [
        {
          "internalType": "uint256",
          "name": "",
          "type": "uint256"
        }
      ],
      "stateMutability": "pure",
      "type": "function"
    },
    {
      "inputs": [
        {
          "internalType": "uint256",
          "name": "tokenId",
          "type": "uint256"
        }
      ],
      "name": "tokenContentURI",
      "outputs": [
        {
          "internalType": "string",
          "name": "",
          "type": "string"
        }
      ],
      "stateMutability": "view",
      "type": "function"
    },
    {
      "inputs": [
        {
          "internalType": "address",
          "name": "owner",
          "type": "address"
        },
        {
          "internalType": "uint256",
          "name": "index",
          "type": "uint256"
        }
      ],
      "name": "tokenOfOwnerByIndex",
      "outputs": [
        {
          "internalType": "uint256",
          "name": "tokenId",
          "type": "uint256"
        }
      ],
      "stateMutability": "view",
      "type": "function"
    },
    {
      "inputs": [
        {
          "internalType": "uint256",
          "name": "tokenId",
          "type": "uint256"
        }
      ],
      "name": "tokenURI",
      "outputs": [
        {
          "internalType": "string",
          "name": "",
          "type": "string"
        }
      ],
      "stateMutability": "pure",
      "type": "function"
    },
    {
      "inputs": [],
      "name": "totalMintLimit",
      "outputs": [
        {
          "internalType": "uint16",
          "name": "",
          "type": "uint16"
        }
      ],
      "stateMutability": "view",
      "type": "function"
    },
    {
      "inputs": [],
      "name": "totalSupply",
      "outputs": [
        {
          "internalType": "uint256",
          "name": "",
          "type": "uint256"
        }
      ],
      "stateMutability": "pure",
      "type": "function"
    },
    {
      "inputs": [
        {
          "internalType": "address",
          "name": "from",
          "type": "address"
        },
        {
          "internalType": "address",
          "name": "to",
          "type": "address"
        },
        {
          "internalType": "uint256",
          "name": "tokenId",
          "type": "uint256"
        }
      ],
      "name": "transferFrom",
      "outputs": [],
      "stateMutability": "nonpayable",
      "type": "function"
    },
    {
      "inputs": [
        {
          "internalType": "address",
          "name": "newOwner",
          "type": "address"
        }
      ],
      "name": "transferOwnership",
      "outputs": [],
      "stateMutability": "nonpayable",
      "type": "function"
    },
    {
      "inputs": [],
      "name": "withdraw",
      "outputs": [],
      "stateMutability": "nonpayable",
      "type": "function"
    }
  ],
  "bytecode": "0x60806040526103e8600c60006101000a81548161ffff021916908361ffff1602179055506014600c60026101000a81548161ffff021916908361ffff1602179055506000600d553480156200005357600080fd5b506040518060400160405280601681526020017f4d696c6c696f6e446f6c6c6172546f6b656e50616765000000000000000000008152506040518060400160405280600381526020017fe28aa100000000000000000000000000000000000000000000000000000000008152508160009080519060200190620000d89291906200024f565b508060019080519060200190620000f19291906200024f565b50505062000114620001086200018160201b60201c565b6200018960201b60201c565b6001600660006200012a6200018160201b60201c565b73ffffffffffffffffffffffffffffffffffffffff1673ffffffffffffffffffffffffffffffffffffffff16815260200190815260200160002060006101000a81548160ff02191690831515021790555062000364565b600033905090565b6000600760009054906101000a900473ffffffffffffffffffffffffffffffffffffffff16905081600760006101000a81548173ffffffffffffffffffffffffffffffffffffffff021916908373ffffffffffffffffffffffffffffffffffffffff1602179055508173ffffffffffffffffffffffffffffffffffffffff168173ffffffffffffffffffffffffffffffffffffffff167f8be0079c531659141344cd1fd0a4f28419497f9722a3daafe3b4186f6b6457e060405160405180910390a35050565b8280546200025d90620002ff565b90600052602060002090601f016020900481019282620002815760008555620002cd565b82601f106200029c57805160ff1916838001178555620002cd565b82800160010185558215620002cd579182015b82811115620002cc578251825591602001919060010190620002af565b5b509050620002dc9190620002e0565b5090565b5b80821115620002fb576000816000905550600101620002e1565b5090565b600060028204905060018216806200031857607f821691505b602082108114156200032f576200032e62000335565b5b50919050565b7f4e487b7100000000000000000000000000000000000000000000000000000000600052602260045260246000fd5b614b2a80620003746000396000f3fe6080604052600436106102305760003560e01c80636817c76c1161012e578063a22cb465116100ab578063e04a8eaf1161006f578063e04a8eaf14610824578063e8d44caf1461084f578063e985e9c514610878578063f2fde38b146108b5578063f4a0a528146108de57610230565b8063a22cb4651461073f578063b88d4fde14610768578063c742856614610791578063c87b56dd146107bc578063cf721b15146107f957610230565b80638da5cb5b116100f25780638da5cb5b1461068857806395d89b41146106b3578063a0712d68146106de578063a1ae82e5146106fa578063a2194baf1461072357610230565b80636817c76c146105b557806370a08231146105e0578063715018a61461061d57806376dd1f86146106345780638d50645a1461065f57610230565b80632f745c59116101bc5780634b0bddd2116101805780634b0bddd2146104c05780634f6ccce7146104e95780635935e01a146105265780636352211e1461054f578063677ab70b1461058c57610230565b80632f745c59146103ed5780633906f5601461042a5780633ccfd60b1461045557806342842e0e1461046c5780634a0218d61461049557610230565b80630c0a9d26116102035780630c0a9d26146103035780630d5e20531461034057806318160ddd1461037d5780631f5e7978146103a857806323b872dd146103c457610230565b806301ffc9a71461023557806306fdde0314610272578063081812fc1461029d578063095ea7b3146102da575b600080fd5b34801561024157600080fd5b5061025c600480360381019061025791906133c6565b610907565b6040516102699190613a80565b60405180910390f35b34801561027e57600080fd5b506102876109e9565b6040516102949190613a9b565b60405180910390f35b3480156102a957600080fd5b506102c460048036038101906102bf9190613441565b610a7b565b6040516102d19190613a19565b60405180910390f35b3480156102e657600080fd5b5061030160048036038101906102fc919061338a565b610b00565b005b34801561030f57600080fd5b5061032a60048036038101906103259190613441565b610c18565b6040516103379190613a9b565b60405180910390f35b34801561034c57600080fd5b506103676004803603810190610362919061321f565b610d07565b6040516103749190613a80565b60405180910390f35b34801561038957600080fd5b50610392610d27565b60405161039f9190613e18565b60405180910390f35b6103c260048036038101906103bd91906134be565b610d3f565b005b3480156103d057600080fd5b506103eb60048036038101906103e69190613284565b610e90565b005b3480156103f957600080fd5b50610414600480360381019061040f919061338a565b610ef0565b6040516104219190613e18565b60405180910390f35b34801561043657600080fd5b5061043f610f4b565b60405161044c9190613dfd565b60405180910390f35b34801561046157600080fd5b5061046a610f5b565b005b34801561047857600080fd5b50610493600480360381019061048e9190613284565b611026565b005b3480156104a157600080fd5b506104aa611046565b6040516104b79190613dfd565b60405180910390f35b3480156104cc57600080fd5b506104e760048036038101906104e2919061334e565b61104b565b005b3480156104f557600080fd5b50610510600480360381019061050b9190613441565b611132565b60405161051d9190613e18565b60405180910390f35b34801561053257600080fd5b5061054d6004803603810190610548919061350d565b6111a6565b005b34801561055b57600080fd5b5061057660048036038101906105719190613441565b611477565b6040516105839190613a19565b60405180910390f35b34801561059857600080fd5b506105b360048036038101906105ae9190613441565b611529565b005b3480156105c157600080fd5b506105ca6115c1565b6040516105d79190613e18565b60405180910390f35b3480156105ec57600080fd5b506106076004803603810190610602919061321f565b6115c7565b6040516106149190613e18565b60405180910390f35b34801561062957600080fd5b5061063261167f565b005b34801561064057600080fd5b50610649611707565b6040516106569190613dfd565b60405180910390f35b34801561066b57600080fd5b506106866004803603810190610681919061346a565b61171b565b005b34801561069457600080fd5b5061069d6117a8565b6040516106aa9190613a19565b60405180910390f35b3480156106bf57600080fd5b506106c86117d2565b6040516106d59190613a9b565b60405180910390f35b6106f860048036038101906106f39190613441565b611864565b005b34801561070657600080fd5b50610721600480360381019061071c9190613418565b61191f565b005b61073d600480360381019061073891906134be565b6119cb565b005b34801561074b57600080fd5b506107666004803603810190610761919061334e565b6119db565b005b34801561077457600080fd5b5061078f600480360381019061078a91906132d3565b611b5c565b005b34801561079d57600080fd5b506107a6611bbe565b6040516107b39190613dfd565b60405180910390f35b3480156107c857600080fd5b506107e360048036038101906107de9190613441565b611bd2565b6040516107f09190613a9b565b60405180910390f35b34801561080557600080fd5b5061080e611c12565b60405161081b9190613e18565b60405180910390f35b34801561083057600080fd5b50610839611c1f565b6040516108469190613dfd565b60405180910390f35b34801561085b57600080fd5b5061087660048036038101906108719190613418565b611c24565b005b34801561088457600080fd5b5061089f600480360381019061089a9190613248565b611cd0565b6040516108ac9190613a80565b60405180910390f35b3480156108c157600080fd5b506108dc60048036038101906108d7919061321f565b611d64565b005b3480156108ea57600080fd5b5061090560048036038101906109009190613441565b611e5c565b005b60007f80ac58cd000000000000000000000000000000000000000000000000000000007bffffffffffffffffffffffffffffffffffffffffffffffffffffffff1916827bffffffffffffffffffffffffffffffffffffffffffffffffffffffff191614806109d257507f5b5e139f000000000000000000000000000000000000000000000000000000007bffffffffffffffffffffffffffffffffffffffffffffffffffffffff1916827bffffffffffffffffffffffffffffffffffffffffffffffffffffffff1916145b806109e257506109e182611ef2565b5b9050919050565b6060600080546109f8906141bd565b80601f0160208091040260200160405190810160405280929190818152602001828054610a24906141bd565b8015610a715780601f10610a4657610100808354040283529160200191610a71565b820191906000526020600020905b815481529060010190602001808311610a5457829003601f168201915b5050505050905090565b6000610a8682611f5c565b610ac5576040517f08c379a0000000000000000000000000000000000000000000000000000000008152600401610abc90613c9d565b60405180910390fd5b6004600083815260200190815260200160002060009054906101000a900473ffffffffffffffffffffffffffffffffffffffff169050919050565b6000610b0b82611477565b90508073ffffffffffffffffffffffffffffffffffffffff168373ffffffffffffffffffffffffffffffffffffffff161415610b7c576040517f08c379a0000000000000000000000000000000000000000000000000000000008152600401610b7390613d3d565b60405180910390fd5b8073ffffffffffffffffffffffffffffffffffffffff16610b9b611fc8565b73ffffffffffffffffffffffffffffffffffffffff161480610bca5750610bc981610bc4611fc8565b611cd0565b5b610c09576040517f08c379a0000000000000000000000000000000000000000000000000000000008152600401610c0090613bdd565b60405180910390fd5b610c138383611fd0565b505050565b60606000600860008481526020019081526020016000208054610c3a906141bd565b80601f0160208091040260200160405190810160405280929190818152602001828054610c66906141bd565b8015610cb35780601f10610c8857610100808354040283529160200191610cb3565b820191906000526020600020905b815481529060010190602001808311610c9657829003601f168201915b50505050509050600081511115610ccd5780915050610d02565b610cd5612089565b610cde846120a9565b604051602001610cef9291906139f5565b6040516020818303038152906040529150505b919050565b60066020528060005260406000206000915054906101000a900460ff1681565b6000606480610d369190613fe7565b61ffff16905090565b610d628183610d4e919061407d565b60ff16600d5461225690919063ffffffff16565b341015610da4576040517f08c379a0000000000000000000000000000000000000000000000000000000008152600401610d9b90613d9d565b60405180910390fd5b600c60009054906101000a900461ffff1661ffff168183610dc5919061407d565b60ff16610dd0611c12565b610dda9190613f29565b1115610e1b576040517f08c379a0000000000000000000000000000000000000000000000000000000008152600401610e1290613c7d565b60405180910390fd5b600c60029054906101000a900461ffff1661ffff168183610e3c919061407d565b60ff161115610e80576040517f08c379a0000000000000000000000000000000000000000000000000000000008152600401610e7790613d1d565b60405180910390fd5b610e8b83838361226c565b505050565b610ea1610e9b611fc8565b82612388565b610ee0576040517f08c379a0000000000000000000000000000000000000000000000000000000008152600401610ed790613dbd565b60405180910390fd5b610eeb838383612466565b505050565b6000600960008473ffffffffffffffffffffffffffffffffffffffff1673ffffffffffffffffffffffffffffffffffffffff168152602001908152602001600020600083815260200190815260200160002054905092915050565b606480610f589190613fe7565b81565b610f63611fc8565b73ffffffffffffffffffffffffffffffffffffffff16610f816117a8565b73ffffffffffffffffffffffffffffffffffffffff1614610fd7576040517f08c379a0000000000000000000000000000000000000000000000000000000008152600401610fce90613cdd565b60405180910390fd5b60004790503373ffffffffffffffffffffffffffffffffffffffff166108fc829081150290604051600060405180830381858888f19350505050158015611022573d6000803e3d6000fd5b5050565b61104183838360405180602001604052806000815250611b5c565b505050565b606481565b600660003373ffffffffffffffffffffffffffffffffffffffff1673ffffffffffffffffffffffffffffffffffffffff16815260200190815260200160002060009054906101000a900460ff166110d7576040517f08c379a00000000000000000000000000000000000000000000000000000000081526004016110ce90613d5d565b60405180910390fd5b80600660008473ffffffffffffffffffffffffffffffffffffffff1673ffffffffffffffffffffffffffffffffffffffff16815260200190815260200160002060006101000a81548160ff0219169083151502179055505050565b6000808210158015611153575060648061114c9190613fe7565b61ffff1682105b611192576040517f08c379a000000000000000000000000000000000000000000000000000000000815260040161118990613ddd565b60405180910390fd5b60018261119f9190613f29565b9050919050565b83838360005b8160ff168160ff1610156112a15760005b8360ff168160ff16101561128d5760008160ff168360ff1660646111e19190613fe7565b61ffff16876111f09190613f29565b6111fa9190613f29565b9050611204611fc8565b73ffffffffffffffffffffffffffffffffffffffff1661122382611477565b73ffffffffffffffffffffffffffffffffffffffff1614611279576040517f08c379a000000000000000000000000000000000000000000000000000000000815260040161127090613b5d565b60405180910390fd5b50808061128590614269565b9150506111bd565b50808061129990614269565b9150506111ac565b5086868660008260ff16116112eb576040517f08c379a00000000000000000000000000000000000000000000000000000000081526004016112e290613d7d565b60405180910390fd5b60008160ff1611611331576040517f08c379a000000000000000000000000000000000000000000000000000000000815260040161132890613c3d565b60405180910390fd5b8651888a61133f919061407d565b60ff1614611382576040517f08c379a000000000000000000000000000000000000000000000000000000000815260040161137990613b1d565b60405180910390fd5b60005b8860ff168160ff16101561146a5760005b8a60ff168160ff16101561145657600081838d6113b3919061407d565b6113bd9190613f7f565b60ff16905060008260ff168460ff1660646113d89190613fe7565b61ffff168f6113e79190613f29565b6113f19190613f29565b9050611441818c8461ffff1681518110611434577f4e487b7100000000000000000000000000000000000000000000000000000000600052603260045260246000fd5b60200260200101516126c2565b5050808061144e90614269565b915050611396565b50808061146290614269565b915050611385565b5050505050505050505050565b6000806002600084815260200190815260200160002060009054906101000a900473ffffffffffffffffffffffffffffffffffffffff169050600073ffffffffffffffffffffffffffffffffffffffff168173ffffffffffffffffffffffffffffffffffffffff161415611520576040517f08c379a000000000000000000000000000000000000000000000000000000000815260040161151790613c1d565b60405180910390fd5b80915050919050565b600660003373ffffffffffffffffffffffffffffffffffffffff1673ffffffffffffffffffffffffffffffffffffffff16815260200190815260200160002060009054906101000a900460ff166115b5576040517f08c379a00000000000000000000000000000000000000000000000000000000081526004016115ac90613d5d565b60405180910390fd5b6115be8161271b565b50565b600d5481565b60008073ffffffffffffffffffffffffffffffffffffffff168273ffffffffffffffffffffffffffffffffffffffff161415611638576040517f08c379a000000000000000000000000000000000000000000000000000000000815260040161162f90613bfd565b60405180910390fd5b600360008373ffffffffffffffffffffffffffffffffffffffff1673ffffffffffffffffffffffffffffffffffffffff168152602001908152602001600020549050919050565b611687611fc8565b73ffffffffffffffffffffffffffffffffffffffff166116a56117a8565b73ffffffffffffffffffffffffffffffffffffffff16146116fb576040517f08c379a00000000000000000000000000000000000000000000000000000000081526004016116f290613cdd565b60405180910390fd5b6117056000612787565b565b600c60009054906101000a900461ffff1681565b81611724611fc8565b73ffffffffffffffffffffffffffffffffffffffff1661174382611477565b73ffffffffffffffffffffffffffffffffffffffff1614611799576040517f08c379a000000000000000000000000000000000000000000000000000000000815260040161179090613cbd565b60405180910390fd5b6117a383836126c2565b505050565b6000600760009054906101000a900473ffffffffffffffffffffffffffffffffffffffff16905090565b6060600180546117e1906141bd565b80601f016020809104026020016040519081016040528092919081815260200182805461180d906141bd565b801561185a5780601f1061182f5761010080835404028352916020019161185a565b820191906000526020600020905b81548152906001019060200180831161183d57829003601f168201915b5050505050905090565b600d543410156118a9576040517f08c379a00000000000000000000000000000000000000000000000000000000081526004016118a090613d9d565b60405180910390fd5b600c60009054906101000a900461ffff1661ffff1660016118c8611c12565b6118d29190613f29565b1115611913576040517f08c379a000000000000000000000000000000000000000000000000000000000815260040161190a90613c7d565b60405180910390fd5b61191c8161271b565b50565b600660003373ffffffffffffffffffffffffffffffffffffffff1673ffffffffffffffffffffffffffffffffffffffff16815260200190815260200160002060009054906101000a900460ff166119ab576040517f08c379a00000000000000000000000000000000000000000000000000000000081526004016119a290613d5d565b60405180910390fd5b80600c60006101000a81548161ffff021916908361ffff16021790555050565b6119d683838361226c565b505050565b6119e3611fc8565b73ffffffffffffffffffffffffffffffffffffffff168273ffffffffffffffffffffffffffffffffffffffff161415611a51576040517f08c379a0000000000000000000000000000000000000000000000000000000008152600401611a4890613b9d565b60405180910390fd5b8060056000611a5e611fc8565b73ffffffffffffffffffffffffffffffffffffffff1673ffffffffffffffffffffffffffffffffffffffff16815260200190815260200160002060008473ffffffffffffffffffffffffffffffffffffffff1673ffffffffffffffffffffffffffffffffffffffff16815260200190815260200160002060006101000a81548160ff0219169083151502179055508173ffffffffffffffffffffffffffffffffffffffff16611b0b611fc8565b73ffffffffffffffffffffffffffffffffffffffff167f17307eab39ab6107e8899845ad3d59bd9653f200f220920489ca2b5937696c3183604051611b509190613a80565b60405180910390a35050565b611b6d611b67611fc8565b83612388565b611bac576040517f08c379a0000000000000000000000000000000000000000000000000000000008152600401611ba390613dbd565b60405180910390fd5b611bb88484848461284d565b50505050565b600c60029054906101000a900461ffff1681565b60606000611bde6128a9565b905080611bea846120a9565b604051602001611bfb9291906139f5565b604051602081830303815290604052915050919050565b6000600b80549050905090565b606481565b600660003373ffffffffffffffffffffffffffffffffffffffff1673ffffffffffffffffffffffffffffffffffffffff16815260200190815260200160002060009054906101000a900460ff16611cb0576040517f08c379a0000000000000000000000000000000000000000000000000000000008152600401611ca790613d5d565b60405180910390fd5b80600c60026101000a81548161ffff021916908361ffff16021790555050565b6000600560008473ffffffffffffffffffffffffffffffffffffffff1673ffffffffffffffffffffffffffffffffffffffff16815260200190815260200160002060008373ffffffffffffffffffffffffffffffffffffffff1673ffffffffffffffffffffffffffffffffffffffff16815260200190815260200160002060009054906101000a900460ff16905092915050565b611d6c611fc8565b73ffffffffffffffffffffffffffffffffffffffff16611d8a6117a8565b73ffffffffffffffffffffffffffffffffffffffff1614611de0576040517f08c379a0000000000000000000000000000000000000000000000000000000008152600401611dd790613cdd565b60405180910390fd5b600073ffffffffffffffffffffffffffffffffffffffff168173ffffffffffffffffffffffffffffffffffffffff161415611e50576040517f08c379a0000000000000000000000000000000000000000000000000000000008152600401611e4790613afd565b60405180910390fd5b611e5981612787565b50565b600660003373ffffffffffffffffffffffffffffffffffffffff1673ffffffffffffffffffffffffffffffffffffffff16815260200190815260200160002060009054906101000a900460ff16611ee8576040517f08c379a0000000000000000000000000000000000000000000000000000000008152600401611edf90613d5d565b60405180910390fd5b80600d8190555050565b60007f01ffc9a7000000000000000000000000000000000000000000000000000000007bffffffffffffffffffffffffffffffffffffffffffffffffffffffff1916827bffffffffffffffffffffffffffffffffffffffffffffffffffffffff1916149050919050565b60008073ffffffffffffffffffffffffffffffffffffffff166002600084815260200190815260200160002060009054906101000a900473ffffffffffffffffffffffffffffffffffffffff1673ffffffffffffffffffffffffffffffffffffffff1614159050919050565b600033905090565b816004600083815260200190815260200160002060006101000a81548173ffffffffffffffffffffffffffffffffffffffff021916908373ffffffffffffffffffffffffffffffffffffffff160217905550808273ffffffffffffffffffffffffffffffffffffffff1661204383611477565b73ffffffffffffffffffffffffffffffffffffffff167f8c5be1e5ebec7d5bd14f71427d1e84f3dd0314c0f7b2291e5b200ac8c7c3b92560405160405180910390a45050565b60606040518060600160405280602b8152602001614aca602b9139905090565b606060008214156120f1576040518060400160405280600181526020017f30000000000000000000000000000000000000000000000000000000000000008152509050612251565b600082905060005b6000821461212357808061210c90614220565b915050600a8261211c9190613fb6565b91506120f9565b60008167ffffffffffffffff811115612165577f4e487b7100000000000000000000000000000000000000000000000000000000600052604160045260246000fd5b6040519080825280601f01601f1916602001820160405280156121975781602001600182028036833780820191505090505b5090505b6000851461224a576001826121b091906140b8565b9150600a856121bf9190614293565b60306121cb9190613f29565b60f81b818381518110612207577f4e487b7100000000000000000000000000000000000000000000000000000000600052603260045260246000fd5b60200101907effffffffffffffffffffffffffffffffffffffffffffffffffffffffffffff1916908160001a905350600a856122439190613fb6565b945061219b565b8093505050505b919050565b600081836122649190614023565b905092915050565b82828260008260ff16116122b5576040517f08c379a00000000000000000000000000000000000000000000000000000000081526004016122ac90613d7d565b60405180910390fd5b60008160ff16116122fb576040517f08c379a00000000000000000000000000000000000000000000000000000000081526004016122f290613c3d565b60405180910390fd5b60005b8460ff168160ff16101561237f5760005b8660ff168160ff16101561236b5760008160ff168360ff1660646123339190613fe7565b61ffff168a6123429190613f29565b61234c9190613f29565b90506123578161271b565b50808061236390614269565b91505061230f565b50808061237790614269565b9150506122fe565b50505050505050565b600061239382611f5c565b6123d2576040517f08c379a00000000000000000000000000000000000000000000000000000000081526004016123c990613bbd565b60405180910390fd5b60006123dd83611477565b90508073ffffffffffffffffffffffffffffffffffffffff168473ffffffffffffffffffffffffffffffffffffffff16148061244c57508373ffffffffffffffffffffffffffffffffffffffff1661243484610a7b565b73ffffffffffffffffffffffffffffffffffffffff16145b8061245d575061245c8185611cd0565b5b91505092915050565b8273ffffffffffffffffffffffffffffffffffffffff1661248682611477565b73ffffffffffffffffffffffffffffffffffffffff16146124dc576040517f08c379a00000000000000000000000000000000000000000000000000000000081526004016124d390613cfd565b60405180910390fd5b600073ffffffffffffffffffffffffffffffffffffffff168273ffffffffffffffffffffffffffffffffffffffff16141561254c576040517f08c379a000000000000000000000000000000000000000000000000000000000815260040161254390613b7d565b60405180910390fd5b6125578383836128c9565b612562600082611fd0565b6001600360008573ffffffffffffffffffffffffffffffffffffffff1673ffffffffffffffffffffffffffffffffffffffff16815260200190815260200160002060008282546125b291906140b8565b925050819055506001600360008473ffffffffffffffffffffffffffffffffffffffff1673ffffffffffffffffffffffffffffffffffffffff16815260200190815260200160002060008282546126099190613f29565b92505081905550816002600083815260200190815260200160002060006101000a81548173ffffffffffffffffffffffffffffffffffffffff021916908373ffffffffffffffffffffffffffffffffffffffff160217905550808273ffffffffffffffffffffffffffffffffffffffff168473ffffffffffffffffffffffffffffffffffffffff167fddf252ad1be2c89b69c2b068fc378daa952ba7f163c4a11628f55a4df523b3ef60405160405180910390a4505050565b806008600084815260200190815260200160002090805190602001906126e9929190612f69565b50817fd26ab77304eac64a04df2018c66716ad9c938c7b11429b56a46c017768172d1b60405160405180910390a25050565b60008111801561273b57506064806127339190613fe7565b61ffff168111155b61277a576040517f08c379a000000000000000000000000000000000000000000000000000000000815260040161277190613abd565b60405180910390fd5b6127843382612b73565b50565b6000600760009054906101000a900473ffffffffffffffffffffffffffffffffffffffff16905081600760006101000a81548173ffffffffffffffffffffffffffffffffffffffff021916908373ffffffffffffffffffffffffffffffffffffffff1602179055508173ffffffffffffffffffffffffffffffffffffffff168173ffffffffffffffffffffffffffffffffffffffff167f8be0079c531659141344cd1fd0a4f28419497f9722a3daafe3b4186f6b6457e060405160405180910390a35050565b612858848484612466565b61286484848484612b91565b6128a3576040517f08c379a000000000000000000000000000000000000000000000000000000000815260040161289a90613add565b60405180910390fd5b50505050565b6060604051806060016040528060248152602001614aa660249139905090565b6128d4838383612d28565b8273ffffffffffffffffffffffffffffffffffffffff168273ffffffffffffffffffffffffffffffffffffffff1614612b6e57600073ffffffffffffffffffffffffffffffffffffffff168373ffffffffffffffffffffffffffffffffffffffff16141561296a57600b819080600181540180825580915050600190039060005260206000200160009091909190915055612abd565b60006001612977856115c7565b61298191906140b8565b90506000600a6000848152602001908152602001600020549050818114612a66576000600960008773ffffffffffffffffffffffffffffffffffffffff1673ffffffffffffffffffffffffffffffffffffffff168152602001908152602001600020600084815260200190815260200160002054905080600960008873ffffffffffffffffffffffffffffffffffffffff1673ffffffffffffffffffffffffffffffffffffffff16815260200190815260200160002060008481526020019081526020016000208190555081600a600083815260200190815260200160002081905550505b600960008673ffffffffffffffffffffffffffffffffffffffff1673ffffffffffffffffffffffffffffffffffffffff16815260200190815260200160002060008381526020019081526020016000206000905550505b600073ffffffffffffffffffffffffffffffffffffffff168273ffffffffffffffffffffffffffffffffffffffff1614612b6d576000612afc836115c7565b905081600960008573ffffffffffffffffffffffffffffffffffffffff1673ffffffffffffffffffffffffffffffffffffffff16815260200190815260200160002060008381526020019081526020016000208190555080600a600084815260200190815260200160002081905550505b5b505050565b612b8d828260405180602001604052806000815250612d2d565b5050565b6000612bb28473ffffffffffffffffffffffffffffffffffffffff16612d88565b15612d1b578373ffffffffffffffffffffffffffffffffffffffff1663150b7a02612bdb611fc8565b8786866040518563ffffffff1660e01b8152600401612bfd9493929190613a34565b602060405180830381600087803b158015612c1757600080fd5b505af1925050508015612c4857506040513d601f19601f82011682018060405250810190612c4591906133ef565b60015b612ccb573d8060008114612c78576040519150601f19603f3d011682016040523d82523d6000602084013e612c7d565b606091505b50600081511415612cc3576040517f08c379a0000000000000000000000000000000000000000000000000000000008152600401612cba90613add565b60405180910390fd5b805181602001fd5b63150b7a0260e01b7bffffffffffffffffffffffffffffffffffffffffffffffffffffffff1916817bffffffffffffffffffffffffffffffffffffffffffffffffffffffff191614915050612d20565b600190505b949350505050565b505050565b612d378383612d9b565b612d446000848484612b91565b612d83576040517f08c379a0000000000000000000000000000000000000000000000000000000008152600401612d7a90613add565b60405180910390fd5b505050565b600080823b905060008111915050919050565b600073ffffffffffffffffffffffffffffffffffffffff168273ffffffffffffffffffffffffffffffffffffffff161415612e0b576040517f08c379a0000000000000000000000000000000000000000000000000000000008152600401612e0290613c5d565b60405180910390fd5b612e1481611f5c565b15612e54576040517f08c379a0000000000000000000000000000000000000000000000000000000008152600401612e4b90613b3d565b60405180910390fd5b612e60600083836128c9565b6001600360008473ffffffffffffffffffffffffffffffffffffffff1673ffffffffffffffffffffffffffffffffffffffff1681526020019081526020016000206000828254612eb09190613f29565b92505081905550816002600083815260200190815260200160002060006101000a81548173ffffffffffffffffffffffffffffffffffffffff021916908373ffffffffffffffffffffffffffffffffffffffff160217905550808273ffffffffffffffffffffffffffffffffffffffff16600073ffffffffffffffffffffffffffffffffffffffff167fddf252ad1be2c89b69c2b068fc378daa952ba7f163c4a11628f55a4df523b3ef60405160405180910390a45050565b828054612f75906141bd565b90600052602060002090601f016020900481019282612f975760008555612fde565b82601f10612fb057805160ff1916838001178555612fde565b82800160010185558215612fde579182015b82811115612fdd578251825591602001919060010190612fc2565b5b509050612feb9190612fef565b5090565b5b80821115613008576000816000905550600101612ff0565b5090565b600061301f61301a84613e58565b613e33565b9050808382526020820190508285602086028201111561303e57600080fd5b60005b8581101561308857813567ffffffffffffffff81111561306057600080fd5b80860161306d89826131b6565b85526020850194506020840193505050600181019050613041565b5050509392505050565b60006130a56130a084613e84565b613e33565b9050828152602081018484840111156130bd57600080fd5b6130c884828561417b565b509392505050565b60006130e36130de84613eb5565b613e33565b9050828152602081018484840111156130fb57600080fd5b61310684828561417b565b509392505050565b60008135905061311d81614a1b565b92915050565b600082601f83011261313457600080fd5b813561314484826020860161300c565b91505092915050565b60008135905061315c81614a32565b92915050565b60008135905061317181614a49565b92915050565b60008151905061318681614a49565b92915050565b600082601f83011261319d57600080fd5b81356131ad848260208601613092565b91505092915050565b600082601f8301126131c757600080fd5b81356131d78482602086016130d0565b91505092915050565b6000813590506131ef81614a60565b92915050565b60008135905061320481614a77565b92915050565b60008135905061321981614a8e565b92915050565b60006020828403121561323157600080fd5b600061323f8482850161310e565b91505092915050565b6000806040838503121561325b57600080fd5b60006132698582860161310e565b925050602061327a8582860161310e565b9150509250929050565b60008060006060848603121561329957600080fd5b60006132a78682870161310e565b93505060206132b88682870161310e565b92505060406132c9868287016131f5565b9150509250925092565b600080600080608085870312156132e957600080fd5b60006132f78782880161310e565b94505060206133088782880161310e565b9350506040613319878288016131f5565b925050606085013567ffffffffffffffff81111561333657600080fd5b6133428782880161318c565b91505092959194509250565b6000806040838503121561336157600080fd5b600061336f8582860161310e565b92505060206133808582860161314d565b9150509250929050565b6000806040838503121561339d57600080fd5b60006133ab8582860161310e565b92505060206133bc858286016131f5565b9150509250929050565b6000602082840312156133d857600080fd5b60006133e684828501613162565b91505092915050565b60006020828403121561340157600080fd5b600061340f84828501613177565b91505092915050565b60006020828403121561342a57600080fd5b6000613438848285016131e0565b91505092915050565b60006020828403121561345357600080fd5b6000613461848285016131f5565b91505092915050565b6000806040838503121561347d57600080fd5b600061348b858286016131f5565b925050602083013567ffffffffffffffff8111156134a857600080fd5b6134b4858286016131b6565b9150509250929050565b6000806000606084860312156134d357600080fd5b60006134e1868287016131f5565b93505060206134f28682870161320a565b92505060406135038682870161320a565b9150509250925092565b6000806000806080858703121561352357600080fd5b6000613531878288016131f5565b94505060206135428782880161320a565b93505060406135538782880161320a565b925050606085013567ffffffffffffffff81111561357057600080fd5b61357c87828801613123565b91505092959194509250565b613591816140ec565b82525050565b6135a0816140fe565b82525050565b60006135b182613ee6565b6135bb8185613efc565b93506135cb81856020860161418a565b6135d481614380565b840191505092915050565b60006135ea82613ef1565b6135f48185613f0d565b935061360481856020860161418a565b61360d81614380565b840191505092915050565b600061362382613ef1565b61362d8185613f1e565b935061363d81856020860161418a565b80840191505092915050565b6000613656601583613f0d565b915061366182614391565b602082019050919050565b6000613679603283613f0d565b9150613684826143ba565b604082019050919050565b600061369c602683613f0d565b91506136a782614409565b604082019050919050565b60006136bf603f83613f0d565b91506136ca82614458565b604082019050919050565b60006136e2601c83613f0d565b91506136ed826144a7565b602082019050919050565b6000613705603983613f0d565b9150613710826144d0565b604082019050919050565b6000613728602483613f0d565b91506137338261451f565b604082019050919050565b600061374b601983613f0d565b91506137568261456e565b602082019050919050565b600061376e602c83613f0d565b915061377982614597565b604082019050919050565b6000613791603883613f0d565b915061379c826145e6565b604082019050919050565b60006137b4602a83613f0d565b91506137bf82614635565b604082019050919050565b60006137d7602983613f0d565b91506137e282614684565b604082019050919050565b60006137fa601883613f0d565b9150613805826146d3565b602082019050919050565b600061381d602083613f0d565b9150613828826146fc565b602082019050919050565b6000613840602383613f0d565b915061384b82614725565b604082019050919050565b6000613863602c83613f0d565b915061386e82614774565b604082019050919050565b6000613886602283613f0d565b9150613891826147c3565b604082019050919050565b60006138a9602083613f0d565b91506138b482614812565b602082019050919050565b60006138cc602983613f0d565b91506138d78261483b565b604082019050919050565b60006138ef603383613f0d565b91506138fa8261488a565b604082019050919050565b6000613912602183613f0d565b915061391d826148d9565b604082019050919050565b6000613935601d83613f0d565b915061394082614928565b602082019050919050565b6000613958601783613f0d565b915061396382614951565b602082019050919050565b600061397b601a83613f0d565b91506139868261497a565b602082019050919050565b600061399e603183613f0d565b91506139a9826149a3565b604082019050919050565b60006139c1601383613f0d565b91506139cc826149f2565b602082019050919050565b6139e081614136565b82525050565b6139ef81614164565b82525050565b6000613a018285613618565b9150613a0d8284613618565b91508190509392505050565b6000602082019050613a2e6000830184613588565b92915050565b6000608082019050613a496000830187613588565b613a566020830186613588565b613a6360408301856139e6565b8181036060830152613a7581846135a6565b905095945050505050565b6000602082019050613a956000830184613597565b92915050565b60006020820190508181036000830152613ab581846135df565b905092915050565b60006020820190508181036000830152613ad681613649565b9050919050565b60006020820190508181036000830152613af68161366c565b9050919050565b60006020820190508181036000830152613b168161368f565b9050919050565b60006020820190508181036000830152613b36816136b2565b9050919050565b60006020820190508181036000830152613b56816136d5565b9050919050565b60006020820190508181036000830152613b76816136f8565b9050919050565b60006020820190508181036000830152613b968161371b565b9050919050565b60006020820190508181036000830152613bb68161373e565b9050919050565b60006020820190508181036000830152613bd681613761565b9050919050565b60006020820190508181036000830152613bf681613784565b9050919050565b60006020820190508181036000830152613c16816137a7565b9050919050565b60006020820190508181036000830152613c36816137ca565b9050919050565b60006020820190508181036000830152613c56816137ed565b9050919050565b60006020820190508181036000830152613c7681613810565b9050919050565b60006020820190508181036000830152613c9681613833565b9050919050565b60006020820190508181036000830152613cb681613856565b9050919050565b60006020820190508181036000830152613cd681613879565b9050919050565b60006020820190508181036000830152613cf68161389c565b9050919050565b60006020820190508181036000830152613d16816138bf565b9050919050565b60006020820190508181036000830152613d36816138e2565b9050919050565b60006020820190508181036000830152613d5681613905565b9050919050565b60006020820190508181036000830152613d7681613928565b9050919050565b60006020820190508181036000830152613d968161394b565b9050919050565b60006020820190508181036000830152613db68161396e565b9050919050565b60006020820190508181036000830152613dd681613991565b9050919050565b60006020820190508181036000830152613df6816139b4565b9050919050565b6000602082019050613e1260008301846139d7565b92915050565b6000602082019050613e2d60008301846139e6565b92915050565b6000613e3d613e4e565b9050613e4982826141ef565b919050565b6000604051905090565b600067ffffffffffffffff821115613e7357613e72614351565b5b602082029050602081019050919050565b600067ffffffffffffffff821115613e9f57613e9e614351565b5b613ea882614380565b9050602081019050919050565b600067ffffffffffffffff821115613ed057613ecf614351565b5b613ed982614380565b9050602081019050919050565b600081519050919050565b600081519050919050565b600082825260208201905092915050565b600082825260208201905092915050565b600081905092915050565b6000613f3482614164565b9150613f3f83614164565b9250827fffffffffffffffffffffffffffffffffffffffffffffffffffffffffffffffff03821115613f7457613f736142c4565b5b828201905092915050565b6000613f8a8261416e565b9150613f958361416e565b92508260ff03821115613fab57613faa6142c4565b5b828201905092915050565b6000613fc182614164565b9150613fcc83614164565b925082613fdc57613fdb6142f3565b5b828204905092915050565b6000613ff282614136565b9150613ffd83614136565b92508161ffff0483118215151615614018576140176142c4565b5b828202905092915050565b600061402e82614164565b915061403983614164565b9250817fffffffffffffffffffffffffffffffffffffffffffffffffffffffffffffffff0483118215151615614072576140716142c4565b5b828202905092915050565b60006140888261416e565b91506140938361416e565b92508160ff04831182151516156140ad576140ac6142c4565b5b828202905092915050565b60006140c382614164565b91506140ce83614164565b9250828210156140e1576140e06142c4565b5b828203905092915050565b60006140f782614144565b9050919050565b60008115159050919050565b60007fffffffff0000000000000000000000000000000000000000000000000000000082169050919050565b600061ffff82169050919050565b600073ffffffffffffffffffffffffffffffffffffffff82169050919050565b6000819050919050565b600060ff82169050919050565b82818337600083830152505050565b60005b838110156141a857808201518184015260208101905061418d565b838111156141b7576000848401525b50505050565b600060028204905060018216806141d557607f821691505b602082108114156141e9576141e8614322565b5b50919050565b6141f882614380565b810181811067ffffffffffffffff8211171561421757614216614351565b5b80604052505050565b600061422b82614164565b91507fffffffffffffffffffffffffffffffffffffffffffffffffffffffffffffffff82141561425e5761425d6142c4565b5b600182019050919050565b60006142748261416e565b915060ff821415614288576142876142c4565b5b600182019050919050565b600061429e82614164565b91506142a983614164565b9250826142b9576142b86142f3565b5b828206905092915050565b7f4e487b7100000000000000000000000000000000000000000000000000000000600052601160045260246000fd5b7f4e487b7100000000000000000000000000000000000000000000000000000000600052601260045260246000fd5b7f4e487b7100000000000000000000000000000000000000000000000000000000600052602260045260246000fd5b7f4e487b7100000000000000000000000000000000000000000000000000000000600052604160045260246000fd5b6000601f19601f8301169050919050565b7f4d4454503a20696e76616c696420746f6b656e49640000000000000000000000600082015250565b7f4552433732313a207472616e7366657220746f206e6f6e20455243373231526560008201527f63656976657220696d706c656d656e7465720000000000000000000000000000602082015250565b7f4f776e61626c653a206e6577206f776e657220697320746865207a65726f206160008201527f6464726573730000000000000000000000000000000000000000000000000000602082015250565b7f4d4454503a206c656e677468206f66206d6574616461746155524973206d757360008201527f74206265207468652073616d65206173207769647468202a2068656967687400602082015250565b7f4552433732313a20746f6b656e20616c7265616479206d696e74656400000000600082015250565b7f4d4454503a2063616c6c6572206973206e6f742074686520746f6b656e4f776e60008201527f6572206f6620616c6c20746f6b656e7320696e2067726f757000000000000000602082015250565b7f4552433732313a207472616e7366657220746f20746865207a65726f2061646460008201527f7265737300000000000000000000000000000000000000000000000000000000602082015250565b7f4552433732313a20617070726f766520746f2063616c6c657200000000000000600082015250565b7f4552433732313a206f70657261746f7220717565727920666f72206e6f6e657860008201527f697374656e7420746f6b656e0000000000000000000000000000000000000000602082015250565b7f4552433732313a20617070726f76652063616c6c6572206973206e6f74206f7760008201527f6e6572206e6f7220617070726f76656420666f7220616c6c0000000000000000602082015250565b7f4552433732313a2062616c616e636520717565727920666f7220746865207a6560008201527f726f206164647265737300000000000000000000000000000000000000000000602082015250565b7f4552433732313a206f776e657220717565727920666f72206e6f6e657869737460008201527f656e7420746f6b656e0000000000000000000000000000000000000000000000602082015250565b7f4d4454503a20686569676874206d757374206265203e20300000000000000000600082015250565b7f4552433732313a206d696e7420746f20746865207a65726f2061646472657373600082015250565b7f4d4454503a20726561636865642063757272656e74206d696e74696e67206c6960008201527f6d69740000000000000000000000000000000000000000000000000000000000602082015250565b7f4552433732313a20617070726f76656420717565727920666f72206e6f6e657860008201527f697374656e7420746f6b656e0000000000000000000000000000000000000000602082015250565b7f4d4454503a2063616c6c6572206973206e6f742074686520746f6b656e4f776e60008201527f6572000000000000000000000000000000000000000000000000000000000000602082015250565b7f4f776e61626c653a2063616c6c6572206973206e6f7420746865206f776e6572600082015250565b7f4552433732313a207472616e73666572206f6620746f6b656e2074686174206960008201527f73206e6f74206f776e0000000000000000000000000000000000000000000000602082015250565b7f4d4454503a2072657175657374656420746f6b656e20636f756e74206973206f60008201527f7665722073696e676c654d696e744c696d697400000000000000000000000000602082015250565b7f4552433732313a20617070726f76616c20746f2063757272656e74206f776e6560008201527f7200000000000000000000000000000000000000000000000000000000000000602082015250565b7f41646d696e3a2063616c6c6572206973206e6f7420616e2061646d696e000000600082015250565b7f4d4454503a207769647468206d757374206265203e2030000000000000000000600082015250565b7f4d4454503a20496e73756666696369656e74207061796d656e74000000000000600082015250565b7f4552433732313a207472616e736665722063616c6c6572206973206e6f74206f60008201527f776e6572206e6f7220617070726f766564000000000000000000000000000000602082015250565b7f4d4454503a20696e76616c696420696e64657800000000000000000000000000600082015250565b614a24816140ec565b8114614a2f57600080fd5b50565b614a3b816140fe565b8114614a4657600080fd5b50565b614a528161410a565b8114614a5d57600080fd5b50565b614a6981614136565b8114614a7457600080fd5b50565b614a8081614164565b8114614a8b57600080fd5b50565b614a978161416e565b8114614aa257600080fd5b5056fe68747470733a2f2f6170692e6d6474702e636f2f746f6b656e2d6d65746164617461732f68747470733a2f2f6170692e6d6474702e636f2f746f6b656e2d64656661756c742d636f6e74656e74732fa26469706673582212207e607eaa600f83db4277da9239a5d76f337a9dbeaf8f56c75823413f5869a32164736f6c63430008040033",
  "linkReferences": {},
  "deployedLinkReferences": {}
}