{
  "_format": "hh-sol-artifact-1",
  "contractName": "MillionDollarTokenPageV2",
  "sourceName": "contracts/MillionDollarTokenPage-v2.sol",
  "abi": [
    {
      "anonymous": false,
      "inputs": [
        {
          "indexed": false,
          "internalType": "address",
          "name": "previousAdmin",
          "type": "address"
        },
        {
          "indexed": false,
          "internalType": "address",
          "name": "newAdmin",
          "type": "address"
        }
      ],
      "name": "AdminChanged",
      "type": "event"
    },
    {
      "anonymous": false,
      "inputs": [
        {
          "indexed": true,
          "internalType": "address",
          "name": "owner",
          "type": "address"
        },
        {
          "indexed": true,
          "internalType": "address",
          "name": "approved",
          "type": "address"
        },
        {
          "indexed": true,
          "internalType": "uint256",
          "name": "tokenId",
          "type": "uint256"
        }
      ],
      "name": "Approval",
      "type": "event"
    },
    {
      "anonymous": false,
      "inputs": [
        {
          "indexed": true,
          "internalType": "address",
          "name": "owner",
          "type": "address"
        },
        {
          "indexed": true,
          "internalType": "address",
          "name": "operator",
          "type": "address"
        },
        {
          "indexed": false,
          "internalType": "bool",
          "name": "approved",
          "type": "bool"
        }
      ],
      "name": "ApprovalForAll",
      "type": "event"
    },
    {
      "anonymous": false,
      "inputs": [
        {
          "indexed": true,
          "internalType": "address",
          "name": "beacon",
          "type": "address"
        }
      ],
      "name": "BeaconUpgraded",
      "type": "event"
    },
    {
      "anonymous": false,
      "inputs": [
        {
          "indexed": true,
          "internalType": "address",
          "name": "previousOwner",
          "type": "address"
        },
        {
          "indexed": true,
          "internalType": "address",
          "name": "newOwner",
          "type": "address"
        }
      ],
      "name": "OwnershipTransferred",
      "type": "event"
    },
    {
      "anonymous": false,
      "inputs": [
        {
          "indexed": false,
          "internalType": "address",
          "name": "account",
          "type": "address"
        }
      ],
      "name": "Paused",
      "type": "event"
    },
    {
      "anonymous": false,
      "inputs": [
        {
          "indexed": true,
          "internalType": "uint256",
          "name": "tokenId",
          "type": "uint256"
        }
      ],
      "name": "TokenContentURIChanged",
      "type": "event"
    },
    {
      "anonymous": false,
      "inputs": [
        {
          "indexed": true,
          "internalType": "address",
          "name": "from",
          "type": "address"
        },
        {
          "indexed": true,
          "internalType": "address",
          "name": "to",
          "type": "address"
        },
        {
          "indexed": true,
          "internalType": "uint256",
          "name": "tokenId",
          "type": "uint256"
        }
      ],
      "name": "Transfer",
      "type": "event"
    },
    {
      "anonymous": false,
      "inputs": [
        {
          "indexed": false,
          "internalType": "address",
          "name": "account",
          "type": "address"
        }
      ],
      "name": "Unpaused",
      "type": "event"
    },
    {
      "anonymous": false,
      "inputs": [
        {
          "indexed": true,
          "internalType": "address",
          "name": "implementation",
          "type": "address"
        }
      ],
      "name": "Upgraded",
      "type": "event"
    },
    {
      "inputs": [],
      "name": "COLUMN_COUNT",
      "outputs": [
        {
          "internalType": "uint16",
          "name": "",
          "type": "uint16"
        }
      ],
      "stateMutability": "view",
      "type": "function"
    },
    {
      "inputs": [],
      "name": "ROW_COUNT",
      "outputs": [
        {
          "internalType": "uint16",
          "name": "",
          "type": "uint16"
        }
      ],
      "stateMutability": "view",
      "type": "function"
    },
    {
      "inputs": [],
      "name": "SUPPLY_LIMIT",
      "outputs": [
        {
          "internalType": "uint16",
          "name": "",
          "type": "uint16"
        }
      ],
      "stateMutability": "view",
      "type": "function"
    },
    {
      "inputs": [
        {
          "internalType": "uint16",
          "name": "_totalMintLimit",
          "type": "uint16"
        },
        {
          "internalType": "uint16",
          "name": "_singleMintLimit",
          "type": "uint16"
        },
        {
          "internalType": "uint16",
          "name": "_userMintLimit",
          "type": "uint16"
        },
        {
          "internalType": "uint256",
          "name": "_mintPrice",
          "type": "uint256"
        },
        {
          "internalType": "string",
          "name": "_metadataBaseURI",
          "type": "string"
        },
        {
          "internalType": "string",
          "name": "_defaultContentBaseURI",
          "type": "string"
        },
        {
          "internalType": "address",
          "name": "_original",
          "type": "address"
        }
      ],
      "name": "__MillionDollarTokenPageV2_init",
      "outputs": [],
      "stateMutability": "nonpayable",
      "type": "function"
    },
    {
      "inputs": [
        {
          "internalType": "uint16",
          "name": "_totalMintLimit",
          "type": "uint16"
        },
        {
          "internalType": "uint16",
          "name": "_singleMintLimit",
          "type": "uint16"
        },
        {
          "internalType": "uint16",
          "name": "_userMintLimit",
          "type": "uint16"
        },
        {
          "internalType": "uint256",
          "name": "_mintPrice",
          "type": "uint256"
        },
        {
          "internalType": "string",
          "name": "_metadataBaseURI",
          "type": "string"
        },
        {
          "internalType": "string",
          "name": "_defaultContentBaseURI",
          "type": "string"
        },
        {
          "internalType": "address",
          "name": "_original",
          "type": "address"
        }
      ],
      "name": "__MillionDollarTokenPageV2_init_unchained",
      "outputs": [],
      "stateMutability": "nonpayable",
      "type": "function"
    },
    {
      "inputs": [
        {
          "internalType": "uint256[]",
          "name": "_tokenIdsToMigrate",
          "type": "uint256[]"
        }
      ],
      "name": "addTokensToMigrate",
      "outputs": [],
      "stateMutability": "nonpayable",
      "type": "function"
    },
    {
      "inputs": [
        {
          "internalType": "address",
          "name": "to",
          "type": "address"
        },
        {
          "internalType": "uint256",
          "name": "tokenId",
          "type": "uint256"
        }
      ],
      "name": "approve",
      "outputs": [],
      "stateMutability": "nonpayable",
      "type": "function"
    },
    {
      "inputs": [
        {
          "internalType": "address",
          "name": "owner",
          "type": "address"
        }
      ],
      "name": "balanceOf",
      "outputs": [
        {
          "internalType": "uint256",
          "name": "",
          "type": "uint256"
        }
      ],
      "stateMutability": "view",
      "type": "function"
    },
    {
      "inputs": [],
      "name": "completeMigration",
      "outputs": [],
      "stateMutability": "nonpayable",
      "type": "function"
    },
    {
      "inputs": [],
      "name": "defaultContentBaseURI",
      "outputs": [
        {
          "internalType": "string",
          "name": "",
          "type": "string"
        }
      ],
      "stateMutability": "view",
      "type": "function"
    },
    {
      "inputs": [
        {
          "internalType": "uint256",
          "name": "tokenId",
          "type": "uint256"
        }
      ],
      "name": "getApproved",
      "outputs": [
        {
          "internalType": "address",
          "name": "",
          "type": "address"
        }
      ],
      "stateMutability": "view",
      "type": "function"
    },
    {
      "inputs": [
        {
          "internalType": "uint16",
          "name": "_totalMintLimit",
          "type": "uint16"
        },
        {
          "internalType": "uint16",
          "name": "_singleMintLimit",
          "type": "uint16"
        },
        {
          "internalType": "uint16",
          "name": "_userMintLimit",
          "type": "uint16"
        },
        {
          "internalType": "uint256",
          "name": "_mintPrice",
          "type": "uint256"
        },
        {
          "internalType": "string",
          "name": "_metadataBaseURI",
          "type": "string"
        },
        {
          "internalType": "string",
          "name": "_defaultContentBaseURI",
          "type": "string"
        },
        {
          "internalType": "address",
          "name": "_original",
          "type": "address"
        }
      ],
      "name": "initialize",
      "outputs": [],
      "stateMutability": "nonpayable",
      "type": "function"
    },
    {
      "inputs": [
        {
          "internalType": "address",
          "name": "owner",
          "type": "address"
        },
        {
          "internalType": "address",
          "name": "operator",
          "type": "address"
        }
      ],
      "name": "isApprovedForAll",
      "outputs": [
        {
          "internalType": "bool",
          "name": "",
          "type": "bool"
        }
      ],
      "stateMutability": "view",
      "type": "function"
    },
    {
      "inputs": [],
      "name": "isCenterSaleActive",
      "outputs": [
        {
          "internalType": "bool",
          "name": "",
          "type": "bool"
        }
      ],
      "stateMutability": "view",
      "type": "function"
    },
    {
      "inputs": [],
      "name": "isMigrationComplete",
      "outputs": [
        {
          "internalType": "bool",
          "name": "",
          "type": "bool"
        }
      ],
      "stateMutability": "view",
      "type": "function"
    },
    {
      "inputs": [],
      "name": "isSaleActive",
      "outputs": [
        {
          "internalType": "bool",
          "name": "",
          "type": "bool"
        }
      ],
      "stateMutability": "view",
      "type": "function"
    },
    {
      "inputs": [],
      "name": "metadataBaseURI",
      "outputs": [
        {
          "internalType": "string",
          "name": "",
          "type": "string"
        }
      ],
      "stateMutability": "view",
      "type": "function"
    },
    {
      "inputs": [],
      "name": "mintPrice",
      "outputs": [
        {
          "internalType": "uint256",
          "name": "",
          "type": "uint256"
        }
      ],
      "stateMutability": "view",
      "type": "function"
    },
    {
      "inputs": [
        {
          "internalType": "uint256",
          "name": "tokenId",
          "type": "uint256"
        }
      ],
      "name": "mintToken",
      "outputs": [],
      "stateMutability": "payable",
      "type": "function"
    },
    {
      "inputs": [
        {
          "internalType": "uint256",
          "name": "tokenId",
          "type": "uint256"
        },
        {
          "internalType": "uint8",
          "name": "width",
          "type": "uint8"
        },
        {
          "internalType": "uint8",
          "name": "height",
          "type": "uint8"
        }
      ],
      "name": "mintTokenGroup",
      "outputs": [],
      "stateMutability": "payable",
      "type": "function"
    },
    {
      "inputs": [
        {
          "internalType": "address",
          "name": "receiver",
          "type": "address"
        },
        {
          "internalType": "uint256",
          "name": "tokenId",
          "type": "uint256"
        },
        {
          "internalType": "uint8",
          "name": "width",
          "type": "uint8"
        },
        {
          "internalType": "uint8",
          "name": "height",
          "type": "uint8"
        }
      ],
      "name": "mintTokenGroupTo",
      "outputs": [],
      "stateMutability": "payable",
      "type": "function"
    },
    {
      "inputs": [
        {
          "internalType": "address",
          "name": "receiver",
          "type": "address"
        },
        {
          "internalType": "uint256",
          "name": "tokenId",
          "type": "uint256"
        }
      ],
      "name": "mintTokenTo",
      "outputs": [],
      "stateMutability": "payable",
      "type": "function"
    },
    {
      "inputs": [],
      "name": "mintedCount",
      "outputs": [
        {
          "internalType": "uint256",
          "name": "",
          "type": "uint256"
        }
      ],
      "stateMutability": "view",
      "type": "function"
    },
    {
      "inputs": [],
      "name": "name",
      "outputs": [
        {
          "internalType": "string",
          "name": "",
          "type": "string"
        }
      ],
      "stateMutability": "view",
      "type": "function"
    },
    {
      "inputs": [
        {
          "internalType": "address",
          "name": "",
          "type": "address"
        },
        {
          "internalType": "address",
          "name": "from",
          "type": "address"
        },
        {
          "internalType": "uint256",
          "name": "tokenId",
          "type": "uint256"
        },
        {
          "internalType": "bytes",
          "name": "",
          "type": "bytes"
        }
      ],
      "name": "onERC721Received",
      "outputs": [
        {
          "internalType": "bytes4",
          "name": "",
          "type": "bytes4"
        }
      ],
      "stateMutability": "nonpayable",
      "type": "function"
    },
    {
      "inputs": [],
      "name": "original",
      "outputs": [
        {
          "internalType": "contract MillionDollarTokenPageV1",
          "name": "",
          "type": "address"
        }
      ],
      "stateMutability": "view",
      "type": "function"
    },
    {
      "inputs": [],
      "name": "owner",
      "outputs": [
        {
          "internalType": "address",
          "name": "",
          "type": "address"
        }
      ],
      "stateMutability": "view",
      "type": "function"
    },
    {
      "inputs": [
        {
          "internalType": "uint256",
          "name": "tokenId",
          "type": "uint256"
        }
      ],
      "name": "ownerOf",
      "outputs": [
        {
          "internalType": "address",
          "name": "",
          "type": "address"
        }
      ],
      "stateMutability": "view",
      "type": "function"
    },
    {
      "inputs": [],
      "name": "pause",
      "outputs": [],
      "stateMutability": "nonpayable",
      "type": "function"
    },
    {
      "inputs": [],
      "name": "paused",
      "outputs": [
        {
          "internalType": "bool",
          "name": "",
          "type": "bool"
        }
      ],
      "stateMutability": "view",
      "type": "function"
    },
    {
      "inputs": [
        {
          "internalType": "uint256",
          "name": "tokenId",
          "type": "uint256"
        }
      ],
      "name": "proxiedOwnerOf",
      "outputs": [
        {
          "internalType": "address",
          "name": "",
          "type": "address"
        }
      ],
      "stateMutability": "view",
      "type": "function"
    },
    {
      "inputs": [],
      "name": "renounceOwnership",
      "outputs": [],
      "stateMutability": "nonpayable",
      "type": "function"
    },
    {
      "inputs": [
        {
          "internalType": "address",
          "name": "from",
          "type": "address"
        },
        {
          "internalType": "address",
          "name": "to",
          "type": "address"
        },
        {
          "internalType": "uint256",
          "name": "tokenId",
          "type": "uint256"
        }
      ],
      "name": "safeTransferFrom",
      "outputs": [],
      "stateMutability": "nonpayable",
      "type": "function"
    },
    {
      "inputs": [
        {
          "internalType": "address",
          "name": "from",
          "type": "address"
        },
        {
          "internalType": "address",
          "name": "to",
          "type": "address"
        },
        {
          "internalType": "uint256",
          "name": "tokenId",
          "type": "uint256"
        },
        {
          "internalType": "bytes",
          "name": "_data",
          "type": "bytes"
        }
      ],
      "name": "safeTransferFrom",
      "outputs": [],
      "stateMutability": "nonpayable",
      "type": "function"
    },
    {
      "inputs": [
        {
          "internalType": "address",
          "name": "operator",
          "type": "address"
        },
        {
          "internalType": "bool",
          "name": "approved",
          "type": "bool"
        }
      ],
      "name": "setApprovalForAll",
      "outputs": [],
      "stateMutability": "nonpayable",
      "type": "function"
    },
    {
      "inputs": [
        {
          "internalType": "string",
          "name": "newDefaultContentBaseURI",
          "type": "string"
        }
      ],
      "name": "setDefaultContentBaseURI",
      "outputs": [],
      "stateMutability": "nonpayable",
      "type": "function"
    },
    {
      "inputs": [
        {
          "internalType": "bool",
          "name": "newIsCenterSaleActive",
          "type": "bool"
        }
      ],
      "name": "setIsCenterSaleActive",
      "outputs": [],
      "stateMutability": "nonpayable",
      "type": "function"
    },
    {
      "inputs": [
        {
          "internalType": "bool",
          "name": "newisSaleActive",
          "type": "bool"
        }
      ],
      "name": "setIsSaleActive",
      "outputs": [],
      "stateMutability": "nonpayable",
      "type": "function"
    },
    {
      "inputs": [
        {
          "internalType": "string",
          "name": "newMetadataBaseURI",
          "type": "string"
        }
      ],
      "name": "setMetadataBaseURI",
      "outputs": [],
      "stateMutability": "nonpayable",
      "type": "function"
    },
    {
      "inputs": [
        {
          "internalType": "uint256",
          "name": "newMintPrice",
          "type": "uint256"
        }
      ],
      "name": "setMintPrice",
      "outputs": [],
      "stateMutability": "nonpayable",
      "type": "function"
    },
    {
      "inputs": [
        {
          "internalType": "uint16",
          "name": "newSingleMintLimit",
          "type": "uint16"
        }
      ],
      "name": "setSingleMintLimit",
      "outputs": [],
      "stateMutability": "nonpayable",
      "type": "function"
    },
    {
      "inputs": [
        {
          "internalType": "uint256",
          "name": "tokenId",
          "type": "uint256"
        },
        {
          "internalType": "string",
          "name": "contentURI",
          "type": "string"
        }
      ],
      "name": "setTokenContentURI",
      "outputs": [],
      "stateMutability": "nonpayable",
      "type": "function"
    },
    {
      "inputs": [
        {
          "internalType": "uint256",
          "name": "tokenId",
          "type": "uint256"
        },
        {
          "internalType": "uint8",
          "name": "width",
          "type": "uint8"
        },
        {
          "internalType": "uint8",
          "name": "height",
          "type": "uint8"
        },
        {
          "internalType": "string[]",
          "name": "contentURIs",
          "type": "string[]"
        }
      ],
      "name": "setTokenGroupContentURIs",
      "outputs": [],
      "stateMutability": "nonpayable",
      "type": "function"
    },
    {
      "inputs": [
        {
          "internalType": "uint16",
          "name": "newTotalMintLimit",
          "type": "uint16"
        }
      ],
      "name": "setTotalMintLimit",
      "outputs": [],
      "stateMutability": "nonpayable",
      "type": "function"
    },
    {
      "inputs": [
        {
          "internalType": "uint16",
          "name": "newUserMintLimit",
          "type": "uint16"
        }
      ],
      "name": "setUserMintLimit",
      "outputs": [],
      "stateMutability": "nonpayable",
      "type": "function"
    },
    {
      "inputs": [],
      "name": "singleMintLimit",
      "outputs": [
        {
          "internalType": "uint16",
          "name": "",
          "type": "uint16"
        }
      ],
      "stateMutability": "view",
      "type": "function"
    },
    {
      "inputs": [
        {
          "internalType": "bytes4",
          "name": "interfaceId",
          "type": "bytes4"
        }
      ],
      "name": "supportsInterface",
      "outputs": [
        {
          "internalType": "bool",
          "name": "",
          "type": "bool"
        }
      ],
      "stateMutability": "view",
      "type": "function"
    },
    {
      "inputs": [],
      "name": "symbol",
      "outputs": [
        {
          "internalType": "string",
          "name": "",
          "type": "string"
        }
      ],
      "stateMutability": "view",
      "type": "function"
    },
    {
      "inputs": [
        {
          "internalType": "uint256",
          "name": "tokenId",
          "type": "uint256"
        }
      ],
      "name": "tokenContentURI",
      "outputs": [
        {
          "internalType": "string",
          "name": "",
          "type": "string"
        }
      ],
      "stateMutability": "view",
      "type": "function"
    },
    {
      "inputs": [],
      "name": "tokenIdsMigratedCount",
      "outputs": [
        {
          "internalType": "uint256",
          "name": "",
          "type": "uint256"
        }
      ],
      "stateMutability": "view",
      "type": "function"
    },
    {
      "inputs": [],
      "name": "tokenIdsToMigrateCount",
      "outputs": [
        {
          "internalType": "uint256",
          "name": "",
          "type": "uint256"
        }
      ],
      "stateMutability": "view",
      "type": "function"
    },
    {
      "inputs": [
        {
          "internalType": "uint256",
          "name": "tokenId",
          "type": "uint256"
        }
      ],
      "name": "tokenURI",
      "outputs": [
        {
          "internalType": "string",
          "name": "",
          "type": "string"
        }
      ],
      "stateMutability": "view",
      "type": "function"
    },
    {
      "inputs": [],
      "name": "totalMintLimit",
      "outputs": [
        {
          "internalType": "uint16",
          "name": "",
          "type": "uint16"
        }
      ],
      "stateMutability": "view",
      "type": "function"
    },
    {
      "inputs": [
        {
          "internalType": "address",
          "name": "from",
          "type": "address"
        },
        {
          "internalType": "address",
          "name": "to",
          "type": "address"
        },
        {
          "internalType": "uint256",
          "name": "tokenId",
          "type": "uint256"
        }
      ],
      "name": "transferFrom",
      "outputs": [],
      "stateMutability": "nonpayable",
      "type": "function"
    },
    {
      "inputs": [
        {
          "internalType": "address",
          "name": "newOwner",
          "type": "address"
        }
      ],
      "name": "transferOwnership",
      "outputs": [],
      "stateMutability": "nonpayable",
      "type": "function"
    },
    {
      "inputs": [],
      "name": "unpause",
      "outputs": [],
      "stateMutability": "nonpayable",
      "type": "function"
    },
    {
      "inputs": [
        {
          "internalType": "address",
          "name": "newImplementation",
          "type": "address"
        }
      ],
      "name": "upgradeTo",
      "outputs": [],
      "stateMutability": "nonpayable",
      "type": "function"
    },
    {
      "inputs": [
        {
          "internalType": "address",
          "name": "newImplementation",
          "type": "address"
        },
        {
          "internalType": "bytes",
          "name": "data",
          "type": "bytes"
        }
      ],
      "name": "upgradeToAndCall",
      "outputs": [],
      "stateMutability": "payable",
      "type": "function"
    },
    {
      "inputs": [],
      "name": "userMintLimit",
      "outputs": [
        {
          "internalType": "uint16",
          "name": "",
          "type": "uint16"
        }
      ],
      "stateMutability": "view",
      "type": "function"
    },
    {
      "inputs": [],
      "name": "withdraw",
      "outputs": [],
      "stateMutability": "nonpayable",
      "type": "function"
    }
  ],
  "bytecode": "0x60a06040523060601b60805234801561001757600080fd5b5060805160601c614ba661004b600039600081816112b70152818161133c0152818161196001526119e50152614ba66000f3fe6080604052600436106103975760003560e01c8063715018a6116101dc578063c634d03211610102578063e04a8eaf116100a0578063f2fde38b1161006f578063f2fde38b14610a3a578063f4a0a52814610a5a578063fb94bd8a14610a7a578063fcf5440c14610a9a57600080fd5b8063e04a8eaf146105f4578063e8d44caf146109b1578063e985e9c5146109d1578063eb3391a914610a1a57600080fd5b8063cf721b15116100dc578063cf721b151461093c578063d2d65ff514610951578063d2f45ca914610971578063d71280841461099157600080fd5b8063c634d032146108e6578063c7428566146108f9578063c87b56dd1461091c57600080fd5b806395d89b411161017a578063a22cb46511610149578063a22cb4651461086b578063a82106ee1461088b578063b46a8165146108ab578063b88d4fde146108c657600080fd5b806395d89b411461080a5780639ba62f281461081f5780639f3d1a2a14610836578063a1ae82e51461084b57600080fd5b80638456cb59116101b65780638456cb59146107975780638d50645a146107ac5780638da5cb5b146107cc57806394209775146107ea57600080fd5b8063715018a61461074157806376dd1f86146107565780637d45bb9e1461077757600080fd5b806345e832df116102c15780635935e01a1161025f5780636817c76c1161022e5780636817c76c146106b757806368447020146106dc5780636bc1ef23146106fc57806370a082311461072157600080fd5b80635935e01a1461064c5780635c975abb1461066c5780636352211e14610684578063669a1f69146106a457600080fd5b80634a0218d61161029b5780634a0218d6146105f45780634f1ef2861461060957806351cc5d661461061c578063564566a81461063157600080fd5b806345e832df146105ab57806346c715fa146105be5780634886f62c146105df57600080fd5b806323b872dd116103395780633be9a9e1116103085780633be9a9e1146105415780633ccfd60b146105615780633f4ba83a1461057657806342842e0e1461058b57600080fd5b806323b872dd146104b95780632c0a6055146104d95780633659cfe6146104f95780633906f5601461051957600080fd5b8063095ea7b311610375578063095ea7b31461042b5780630c0a9d261461044d578063150b7a021461046d5780631f5e7978146104a657600080fd5b806301ffc9a71461039c57806306fdde03146103d1578063081812fc146103f3575b600080fd5b3480156103a857600080fd5b506103bc6103b7366004614407565b610ab1565b60405190151581526020015b60405180910390f35b3480156103dd57600080fd5b506103e6610b4e565b6040516103c89190614886565b3480156103ff57600080fd5b5061041361040e3660046145b3565b610be0565b6040516001600160a01b0390911681526020016103c8565b34801561043757600080fd5b5061044b6104463660046142d9565b610c7a565b005b34801561045957600080fd5b506103e66104683660046145b3565b610dac565b34801561047957600080fd5b5061048d610488366004614149565b610f71565b6040516001600160e01b031990911681526020016103c8565b61044b6104b43660046145fd565b6110ee565b3480156104c557600080fd5b5061044b6104d4366004614108565b6110fa565b3480156104e557600080fd5b506104136104f43660046145b3565b611181565b34801561050557600080fd5b5061044b610514366004614095565b6112ac565b34801561052557600080fd5b5061052e611428565b60405161ffff90911681526020016103c8565b34801561054d57600080fd5b5061044b61055c366004614354565b611436565b34801561056d57600080fd5b5061044b611650565b34801561058257600080fd5b5061044b6116e7565b34801561059757600080fd5b5061044b6105a6366004614108565b611739565b61044b6105b9366004614305565b611754565b3480156105ca57600080fd5b5061016654610413906001600160a01b031681565b3480156105eb57600080fd5b5061044b6118fb565b34801561060057600080fd5b5061052e606481565b61044b610617366004614289565b611955565b34801561062857600080fd5b506103e6611abe565b34801561063d57600080fd5b50610163546103bc9060ff1681565b34801561065857600080fd5b5061044b610667366004614639565b611b4d565b34801561067857600080fd5b5060975460ff166103bc565b34801561069057600080fd5b5061041361069f3660046145b3565b611e45565b61044b6106b23660046142d9565b611ebc565b3480156106c357600080fd5b506106ce6101625481565b6040519081526020016103c8565b3480156106e857600080fd5b5061044b6106f73660046144e4565b611f19565b34801561070857600080fd5b506101615461052e9065010000000000900461ffff1681565b34801561072d57600080fd5b506106ce61073c366004614095565b611f88565b34801561074d57600080fd5b5061044b612022565b34801561076257600080fd5b506101615461052e90610100900461ffff1681565b34801561078357600080fd5b5061044b6107923660046144ff565b612074565b3480156107a357600080fd5b5061044b612198565b3480156107b857600080fd5b5061044b6107c73660046145cc565b6121e8565b3480156107d857600080fd5b5060c9546001600160a01b0316610413565b3480156107f657600080fd5b5061044b6108053660046144ff565b612279565b34801561081657600080fd5b506103e6612388565b34801561082b57600080fd5b506106ce6101685481565b34801561084257600080fd5b506103e6612397565b34801561085757600080fd5b5061044b6108663660046144e4565b6123a5565b34801561087757600080fd5b5061044b610886366004614254565b61240c565b34801561089757600080fd5b5061044b6108a63660046143ec565b612417565b3480156108b757600080fd5b50610161546103bc9060ff1681565b3480156108d257600080fd5b5061044b6108e13660046141e8565b612473565b61044b6108f43660046145b3565b612501565b34801561090557600080fd5b506101615461052e906301000000900461ffff1681565b34801561092857600080fd5b506103e66109373660046145b3565b61250b565b34801561094857600080fd5b506106ce612540565b34801561095d57600080fd5b5061044b61096c3660046143ec565b612567565b34801561097d57600080fd5b5061044b61098c3660046144ff565b6125c3565b34801561099d57600080fd5b50610163546103bc90610100900460ff1681565b3480156109bd57600080fd5b5061044b6109cc3660046144e4565b6126a1565b3480156109dd57600080fd5b506103bc6109ec3660046140cf565b6001600160a01b039182166000908152606a6020908152604080832093909416825291909152205460ff1690565b348015610a2657600080fd5b5061044b610a35366004614441565b61270c565b348015610a4657600080fd5b5061044b610a55366004614095565b612768565b348015610a6657600080fd5b5061044b610a753660046145b3565b612835565b348015610a8657600080fd5b5061044b610a95366004614441565b612883565b348015610aa657600080fd5b506106ce6101675481565b60006001600160e01b031982167f80ac58cd000000000000000000000000000000000000000000000000000000001480610b1457506001600160e01b031982167f5b5e139f00000000000000000000000000000000000000000000000000000000145b80610b4857507f01ffc9a7000000000000000000000000000000000000000000000000000000006001600160e01b03198316145b92915050565b606060658054610b5d90614a1c565b80601f0160208091040260200160405190810160405280929190818152602001828054610b8990614a1c565b8015610bd65780601f10610bab57610100808354040283529160200191610bd6565b820191906000526020600020905b815481529060010190602001808311610bb957829003601f168201915b5050505050905090565b6000818152606760205260408120546001600160a01b0316610c5e5760405162461bcd60e51b815260206004820152602c60248201527f4552433732313a20617070726f76656420717565727920666f72206e6f6e657860448201526b34b9ba32b73a103a37b5b2b760a11b60648201526084015b60405180910390fd5b506000908152606960205260409020546001600160a01b031690565b6000610c8582611e45565b9050806001600160a01b0316836001600160a01b03161415610d0f5760405162461bcd60e51b815260206004820152602160248201527f4552433732313a20617070726f76616c20746f2063757272656e74206f776e6560448201527f72000000000000000000000000000000000000000000000000000000000000006064820152608401610c55565b336001600160a01b0382161480610d2b5750610d2b81336109ec565b610d9d5760405162461bcd60e51b815260206004820152603860248201527f4552433732313a20617070726f76652063616c6c6572206973206e6f74206f7760448201527f6e6572206e6f7220617070726f76656420666f7220616c6c00000000000000006064820152608401610c55565b610da783836128df565b505050565b600081815261015f6020526040812080546060929190610dcb90614a1c565b80601f0160208091040260200160405190810160405280929190818152602001828054610df790614a1c565b8015610e445780601f10610e1957610100808354040283529160200191610e44565b820191906000526020600020905b815481529060010190602001808311610e2757829003601f168201915b50505050509050600081511115610e5b5792915050565b600083815260676020526040902054610166546001600160a01b039182169116811415610f2457610166546040517f0c0a9d26000000000000000000000000000000000000000000000000000000008152600481018690526001600160a01b0390911690630c0a9d269060240160006040518083038186803b158015610ee057600080fd5b505afa158015610ef4573d6000803e3d6000fd5b505050506040513d6000823e601f3d908101601f19168201604052610f1c9190810190614476565b949350505050565b6001600160a01b03811615610f3c57610f1c8461250b565b610165610f488561294d565b604051602001610f59929190614780565b60405160208183030381529060405292505050919050565b610166546000906001600160a01b0316336001600160a01b031614610ffe5760405162461bcd60e51b815260206004820152602760248201527f4d4454503a2063616e6e6f742061636365707420746f6b656e2066726f6d206360448201527f6f6e7472616374000000000000000000000000000000000000000000000000006064820152608401610c55565b610166546001600160a01b031661101485611e45565b6001600160a01b0316146110905760405162461bcd60e51b815260206004820152602f60248201527f4d4454503a2063616e6e6f742061636365707420746f6b656e206e6f7420736560448201527f7420666f72206d6967726174696f6e00000000000000000000000000000000006064820152608401610c55565b610166546110a8906001600160a01b03168686612a7f565b600161016860008282546110bc9190614916565b92505081905550600161016060008282546110d79190614916565b90915550630a85bd0160e11b979650505050505050565b610da733848484611754565b6111043382612c57565b6111765760405162461bcd60e51b815260206004820152603160248201527f4552433732313a207472616e736665722063616c6c6572206973206e6f74206f60448201527f776e6572206e6f7220617070726f7665640000000000000000000000000000006064820152608401610c55565b610da7838383612a7f565b6000818152606760205260408120546001600160a01b0316806111f85760405162461bcd60e51b815260206004820152602960248201527f4552433732313a206f776e657220717565727920666f72206e6f6e657869737460448201526832b73a103a37b5b2b760b91b6064820152608401610c55565b610166546001600160a01b0382811691161415610b4857610166546040517f6352211e000000000000000000000000000000000000000000000000000000008152600481018590526001600160a01b0390911690636352211e9060240160206040518083038186803b15801561126d57600080fd5b505afa158015611281573d6000803e3d6000fd5b505050506040513d601f19601f820116820180604052508101906112a591906140b2565b9392505050565b306001600160a01b037f000000000000000000000000000000000000000000000000000000000000000016141561133a5760405162461bcd60e51b815260206004820152602c60248201527f46756e6374696f6e206d7573742062652063616c6c6564207468726f7567682060448201526b19195b1959d85d1958d85b1b60a21b6064820152608401610c55565b7f00000000000000000000000000000000000000000000000000000000000000006001600160a01b03166113957f360894a13ba1a3210667c828492db98dca3e2076cc3735a920a3ca505d382bbc546001600160a01b031690565b6001600160a01b0316146114005760405162461bcd60e51b815260206004820152602c60248201527f46756e6374696f6e206d7573742062652063616c6c6564207468726f7567682060448201526b6163746976652070726f787960a01b6064820152608401610c55565b61140981612d4a565b6040805160008082526020820190925261142591839190612d92565b50565b611433606480614967565b81565b60c9546001600160a01b0316331461147e5760405162461bcd60e51b81526020600482018190526024820152600080516020614b2a8339815191526044820152606401610c55565b61016354610100900460ff16156114fd5760405162461bcd60e51b815260206004820152602560248201527f4d4454503a206d6967726174696f6e2068617320616c7265616479206861707060448201527f656e6564210000000000000000000000000000000000000000000000000000006064820152608401610c55565b60005b81518160ff161015611600576000828260ff168151811061152357611523614ad2565b602090810291909101810151600081815260679092526040909120549091506001600160a01b0316156115be5760405162461bcd60e51b815260206004820152602360248201527f4d4454503a2063616e6e6f74206d69677261746520616e206f776e656420746f60448201527f6b656e00000000000000000000000000000000000000000000000000000000006064820152608401610c55565b6101665460009182526067602052604090912080546001600160a01b0319166001600160a01b03909216919091179055806115f881614a72565b915050611500565b508051610166546001600160a01b03166000908152606860205260408120805490919061162e908490614916565b909155505080516101678054600090611648908490614916565b909155505050565b60c9546001600160a01b031633146116985760405162461bcd60e51b81526020600482018190526024820152600080516020614b2a8339815191526044820152606401610c55565b476116ab60c9546001600160a01b031690565b6001600160a01b03166108fc829081150290604051600060405180830381858888f193505050501580156116e3573d6000803e3d6000fd5b5050565b60c9546001600160a01b0316331461172f5760405162461bcd60e51b81526020600482018190526024820152600080516020614b2a8339815191526044820152606401610c55565b611737612f56565b565b610da783838360405180602001604052806000815250612473565b600061176082846149b0565b60ff169050600081116117b55760405162461bcd60e51b815260206004820152601b60248201527f4d4454503a20696e73756666696369656e74207175616e7469747900000000006044820152606401610c55565b80610162546117c49190614991565b3410156118135760405162461bcd60e51b815260206004820152601a60248201527f4d4454503a20696e73756666696369656e74207061796d656e740000000000006044820152606401610c55565b610161546301000000900461ffff168111156118715760405162461bcd60e51b815260206004820152601a60248201527f4d4454503a206f7665722073696e676c654d696e744c696d69740000000000006044820152606401610c55565b60005b8260ff168160ff1610156118f35760005b8460ff168160ff1610156118e05760008160ff168360ff1660646118a99190614967565b6118b79061ffff1689614916565b6118c19190614916565b90506118cd8882612ff2565b50806118d881614a72565b915050611885565b50806118eb81614a72565b915050611874565b505050505050565b60c9546001600160a01b031633146119435760405162461bcd60e51b81526020600482018190526024820152600080516020614b2a8339815191526044820152606401610c55565b610163805461ff001916610100179055565b306001600160a01b037f00000000000000000000000000000000000000000000000000000000000000001614156119e35760405162461bcd60e51b815260206004820152602c60248201527f46756e6374696f6e206d7573742062652063616c6c6564207468726f7567682060448201526b19195b1959d85d1958d85b1b60a21b6064820152608401610c55565b7f00000000000000000000000000000000000000000000000000000000000000006001600160a01b0316611a3e7f360894a13ba1a3210667c828492db98dca3e2076cc3735a920a3ca505d382bbc546001600160a01b031690565b6001600160a01b031614611aa95760405162461bcd60e51b815260206004820152602c60248201527f46756e6374696f6e206d7573742062652063616c6c6564207468726f7567682060448201526b6163746976652070726f787960a01b6064820152608401610c55565b611ab282612d4a565b6116e382826001612d92565b6101658054611acc90614a1c565b80601f0160208091040260200160405190810160405280929190818152602001828054611af890614a1c565b8015611b455780601f10611b1a57610100808354040283529160200191611b45565b820191906000526020600020905b815481529060010190602001808311611b2857829003601f168201915b505050505081565b83838360005b8160ff168160ff161015611c4e5760005b8360ff168160ff161015611c3b5760008160ff168360ff166064611b889190614967565b611b969061ffff1688614916565b611ba09190614916565b905033611bac82611e45565b6001600160a01b031614611c285760405162461bcd60e51b815260206004820152603960248201527f4d4454503a2063616c6c6572206973206e6f742074686520746f6b656e4f776e60448201527f6572206f6620616c6c20746f6b656e7320696e2067726f7570000000000000006064820152608401610c55565b5080611c3381614a72565b915050611b64565b5080611c4681614a72565b915050611b53565b5086868660008260ff1611611ca55760405162461bcd60e51b815260206004820152601760248201527f4d4454503a207769647468206d757374206265203e20300000000000000000006044820152606401610c55565b60008160ff1611611cf85760405162461bcd60e51b815260206004820152601860248201527f4d4454503a20686569676874206d757374206265203e203000000000000000006044820152606401610c55565b8651611d04898b6149b0565b60ff1614611d7a5760405162461bcd60e51b815260206004820152603e60248201527f4d4454503a206c656e677468206f6620636f6e74656e7455524973206d75737460448201527f206265207468652073616d65206173207769647468202a2068656967687400006064820152608401610c55565b60005b8860ff168160ff161015611e385760005b8a60ff168160ff161015611e2557600081611da9848e6149b0565b611db3919061492e565b60ff16905060008260ff168460ff166064611dce9190614967565b61ffff168f611ddd9190614916565b611de79190614916565b9050611e10818c8461ffff1681518110611e0357611e03614ad2565b6020026020010151613224565b50508080611e1d90614a72565b915050611d8e565b5080611e3081614a72565b915050611d7d565b5050505050505050505050565b6000818152606760205260408120546001600160a01b031680610b485760405162461bcd60e51b815260206004820152602960248201527f4552433732313a206f776e657220717565727920666f72206e6f6e657869737460448201526832b73a103a37b5b2b760b91b6064820152608401610c55565b61016254341015611f0f5760405162461bcd60e51b815260206004820152601a60248201527f4d4454503a20696e73756666696369656e74207061796d656e740000000000006044820152606401610c55565b6116e38282612ff2565b60c9546001600160a01b03163314611f615760405162461bcd60e51b81526020600482018190526024820152600080516020614b2a8339815191526044820152606401610c55565b610161805461ffff909216650100000000000266ffff000000000019909216919091179055565b60006001600160a01b0382166120065760405162461bcd60e51b815260206004820152602a60248201527f4552433732313a2062616c616e636520717565727920666f7220746865207a6560448201527f726f2061646472657373000000000000000000000000000000000000000000006064820152608401610c55565b506001600160a01b031660009081526068602052604090205490565b60c9546001600160a01b0316331461206a5760405162461bcd60e51b81526020600482018190526024820152600080516020614b2a8339815191526044820152606401610c55565b61173760006132ed565b600054610100900460ff166120df5760405162461bcd60e51b815260206004820152602b60248201527f496e697469616c697a61626c653a20636f6e7472616374206973206e6f74206960448201526a6e697469616c697a696e6760a81b6064820152608401610c55565b610161805460ff19169055610163805461ffff19169055825161210a90610164906020860190613f6e565b50815161211f90610165906020850190613f6e565b50610161805464ffffffff00191661010061ffff998a160264ffff0000001916176301000000978916979097029690961766ffff00000000001916650100000000009590971694909402959095179093556101625561016680546001600160a01b0319166001600160a01b039092169190911790555050565b60c9546001600160a01b031633146121e05760405162461bcd60e51b81526020600482018190526024820152600080516020614b2a8339815191526044820152606401610c55565b61173761333f565b81336121f382611e45565b6001600160a01b03161461226f5760405162461bcd60e51b815260206004820152602260248201527f4d4454503a2063616c6c6572206973206e6f742074686520746f6b656e4f776e60448201527f65720000000000000000000000000000000000000000000000000000000000006064820152608401610c55565b610da78383613224565b600054610100900460ff166122e45760405162461bcd60e51b815260206004820152602b60248201527f496e697469616c697a61626c653a20636f6e7472616374206973206e6f74206960448201526a6e697469616c697a696e6760a81b6064820152608401610c55565b6123586040518060400160405280601681526020017f4d696c6c696f6e446f6c6c6172546f6b656e50616765000000000000000000008152506040518060400160405280600381526020017fe28aa100000000000000000000000000000000000000000000000000000000008152506133c7565b61236061344c565b6123686134c7565b612370613542565b61237f87878787878787612074565b50505050505050565b606060668054610b5d90614a1c565b6101648054611acc90614a1c565b60c9546001600160a01b031633146123ed5760405162461bcd60e51b81526020600482018190526024820152600080516020614b2a8339815191526044820152606401610c55565b610161805461ffff9092166101000262ffff0019909216919091179055565b6116e33383836135bd565b60c9546001600160a01b0316331461245f5760405162461bcd60e51b81526020600482018190526024820152600080516020614b2a8339815191526044820152606401610c55565b610161805460ff1916911515919091179055565b61247d3383612c57565b6124ef5760405162461bcd60e51b815260206004820152603160248201527f4552433732313a207472616e736665722063616c6c6572206973206e6f74206f60448201527f776e6572206e6f7220617070726f7665640000000000000000000000000000006064820152608401610c55565b6124fb8484848461368c565b50505050565b6114253382611ebc565b60606101646125198361294d565b60405160200161252a929190614780565b6040516020818303038152906040529050919050565b60006101685461016754610160546125589190614916565b61256291906149d9565b905090565b60c9546001600160a01b031633146125af5760405162461bcd60e51b81526020600482018190526024820152600080516020614b2a8339815191526044820152606401610c55565b610163805460ff1916911515919091179055565b600054610100900460ff166125de5760005460ff16156125e2565b303b155b6126545760405162461bcd60e51b815260206004820152602e60248201527f496e697469616c697a61626c653a20636f6e747261637420697320616c72656160448201527f647920696e697469616c697a65640000000000000000000000000000000000006064820152608401610c55565b600054610100900460ff16158015612676576000805461ffff19166101011790555b61268588888888888888612279565b8015612697576000805461ff00191690555b5050505050505050565b60c9546001600160a01b031633146126e95760405162461bcd60e51b81526020600482018190526024820152600080516020614b2a8339815191526044820152606401610c55565b610161805461ffff90921663010000000264ffff00000019909216919091179055565b60c9546001600160a01b031633146127545760405162461bcd60e51b81526020600482018190526024820152600080516020614b2a8339815191526044820152606401610c55565b80516116e390610165906020840190613f6e565b60c9546001600160a01b031633146127b05760405162461bcd60e51b81526020600482018190526024820152600080516020614b2a8339815191526044820152606401610c55565b6001600160a01b03811661282c5760405162461bcd60e51b815260206004820152602660248201527f4f776e61626c653a206e6577206f776e657220697320746865207a65726f206160448201527f64647265737300000000000000000000000000000000000000000000000000006064820152608401610c55565b611425816132ed565b60c9546001600160a01b0316331461287d5760405162461bcd60e51b81526020600482018190526024820152600080516020614b2a8339815191526044820152606401610c55565b61016255565b60c9546001600160a01b031633146128cb5760405162461bcd60e51b81526020600482018190526024820152600080516020614b2a8339815191526044820152606401610c55565b80516116e390610164906020840190613f6e565b600081815260696020526040902080546001600160a01b0319166001600160a01b038416908117909155819061291482611e45565b6001600160a01b03167f8c5be1e5ebec7d5bd14f71427d1e84f3dd0314c0f7b2291e5b200ac8c7c3b92560405160405180910390a45050565b60608161298d57505060408051808201909152600181527f3000000000000000000000000000000000000000000000000000000000000000602082015290565b8160005b81156129b757806129a181614a57565b91506129b09050600a83614953565b9150612991565b60008167ffffffffffffffff8111156129d2576129d2614ae8565b6040519080825280601f01601f1916602001820160405280156129fc576020820181803683370190505b5090505b8415610f1c57612a116001836149d9565b9150612a1e600a86614a92565b612a29906030614916565b60f81b818381518110612a3e57612a3e614ad2565b60200101907effffffffffffffffffffffffffffffffffffffffffffffffffffffffffffff1916908160001a905350612a78600a86614953565b9450612a00565b826001600160a01b0316612a9282611e45565b6001600160a01b031614612b0e5760405162461bcd60e51b815260206004820152602960248201527f4552433732313a207472616e73666572206f6620746f6b656e2074686174206960448201527f73206e6f74206f776e00000000000000000000000000000000000000000000006064820152608401610c55565b6001600160a01b038216612b895760405162461bcd60e51b8152602060048201526024808201527f4552433732313a207472616e7366657220746f20746865207a65726f2061646460448201527f72657373000000000000000000000000000000000000000000000000000000006064820152608401610c55565b612b9483838361370a565b612b9f6000826128df565b6001600160a01b0383166000908152606860205260408120805460019290612bc89084906149d9565b90915550506001600160a01b0382166000908152606860205260408120805460019290612bf6908490614916565b909155505060008181526067602052604080822080546001600160a01b0319166001600160a01b0386811691821790925591518493918716917fddf252ad1be2c89b69c2b068fc378daa952ba7f163c4a11628f55a4df523b3ef91a4505050565b6000818152606760205260408120546001600160a01b0316612cd05760405162461bcd60e51b815260206004820152602c60248201527f4552433732313a206f70657261746f7220717565727920666f72206e6f6e657860448201526b34b9ba32b73a103a37b5b2b760a11b6064820152608401610c55565b6000612cdb83611e45565b9050806001600160a01b0316846001600160a01b03161480612d165750836001600160a01b0316612d0b84610be0565b6001600160a01b0316145b80610f1c57506001600160a01b038082166000908152606a602090815260408083209388168352929052205460ff16610f1c565b60c9546001600160a01b031633146114255760405162461bcd60e51b81526020600482018190526024820152600080516020614b2a8339815191526044820152606401610c55565b6000612dc57f360894a13ba1a3210667c828492db98dca3e2076cc3735a920a3ca505d382bbc546001600160a01b031690565b9050612dd0846137c8565b600083511180612ddd5750815b15612dee57612dec848461387d565b505b7f4910fdfa16fed3260ed0e7147f7cc6da11a60208b5b9406d12a635614ffd9143805460ff16612f4f57805460ff191660011781556040516001600160a01b0383166024820152612e9b90869060440160408051601f198184030181529190526020810180517bffffffffffffffffffffffffffffffffffffffffffffffffffffffff167f3659cfe60000000000000000000000000000000000000000000000000000000017905261387d565b50805460ff191681557f360894a13ba1a3210667c828492db98dca3e2076cc3735a920a3ca505d382bbc546001600160a01b03838116911614612f465760405162461bcd60e51b815260206004820152602f60248201527f45524331393637557067726164653a207570677261646520627265616b73206660448201527f75727468657220757067726164657300000000000000000000000000000000006064820152608401610c55565b612f4f8561397f565b5050505050565b60975460ff16612fa85760405162461bcd60e51b815260206004820152601460248201527f5061757361626c653a206e6f74207061757365640000000000000000000000006044820152606401610c55565b6097805460ff191690557f5db9ee0a495bf2e6ff9c91a7834c1ba4fdd244a5e8aa4e537bd38aeae4b073aa335b6040516001600160a01b03909116815260200160405180910390a1565b6101635460ff166130455760405162461bcd60e51b815260206004820152601a60248201527f4d4454503a2073616c6520686173206e6f7420737461727465640000000000006044820152606401610c55565b61016154610100900461ffff1661305a612540565b613065906001614916565b11156130b35760405162461bcd60e51b815260206004820152601c60248201527f4d4454503a207265616368656420746f74616c4d696e744c696d6974000000006044820152606401610c55565b6101615465010000000000900461ffff166130cd83611f88565b6130d8906001614916565b11156131265760405162461bcd60e51b815260206004820152601b60248201527f4d4454503a207265616368656420757365724d696e744c696d697400000000006044820152606401610c55565b600081118015613144575061313c606480614967565b61ffff168111155b6131905760405162461bcd60e51b815260206004820152601560248201527f4d4454503a20696e76616c696420746f6b656e496400000000000000000000006044820152606401610c55565b6101615460ff16806131a857506131a6816139bf565b155b61321a5760405162461bcd60e51b815260206004820152603860248201527f4d4454503a206d696e74696e6720746865206d6964646c652035303020746f6b60448201527f656e73206973206e6f74207065726d69747465642079657400000000000000006064820152608401610c55565b6116e38282613a0f565b60975460ff161561329d5760405162461bcd60e51b815260206004820152602960248201527f4d4454503a2063616e6e6f742073657420636f6e74656e74205552492077686960448201527f6c652070617573656400000000000000000000000000000000000000000000006064820152608401610c55565b600082815261015f6020908152604090912082516132bd92840190613f6e565b5060405182907fd26ab77304eac64a04df2018c66716ad9c938c7b11429b56a46c017768172d1b90600090a25050565b60c980546001600160a01b038381166001600160a01b0319831681179093556040519116919082907f8be0079c531659141344cd1fd0a4f28419497f9722a3daafe3b4186f6b6457e090600090a35050565b60975460ff16156133925760405162461bcd60e51b815260206004820152601060248201527f5061757361626c653a20706175736564000000000000000000000000000000006044820152606401610c55565b6097805460ff191660011790557f62e78cea01bee320cd4e420270b5ea74000d11b0c9f74754ebdbfc544b05a258612fd53390565b600054610100900460ff166134325760405162461bcd60e51b815260206004820152602b60248201527f496e697469616c697a61626c653a20636f6e7472616374206973206e6f74206960448201526a6e697469616c697a696e6760a81b6064820152608401610c55565b61343a613a29565b613442613a29565b6116e38282613a94565b600054610100900460ff166134b75760405162461bcd60e51b815260206004820152602b60248201527f496e697469616c697a61626c653a20636f6e7472616374206973206e6f74206960448201526a6e697469616c697a696e6760a81b6064820152608401610c55565b6134bf613a29565b611737613b26565b600054610100900460ff166135325760405162461bcd60e51b815260206004820152602b60248201527f496e697469616c697a61626c653a20636f6e7472616374206973206e6f74206960448201526a6e697469616c697a696e6760a81b6064820152608401610c55565b61353a613a29565b611737613b9d565b600054610100900460ff166135ad5760405162461bcd60e51b815260206004820152602b60248201527f496e697469616c697a61626c653a20636f6e7472616374206973206e6f74206960448201526a6e697469616c697a696e6760a81b6064820152608401610c55565b6135b5613a29565b611737613a29565b816001600160a01b0316836001600160a01b0316141561361f5760405162461bcd60e51b815260206004820152601960248201527f4552433732313a20617070726f766520746f2063616c6c6572000000000000006044820152606401610c55565b6001600160a01b038381166000818152606a6020908152604080832094871680845294825291829020805460ff191686151590811790915591519182527f17307eab39ab6107e8899845ad3d59bd9653f200f220920489ca2b5937696c31910160405180910390a3505050565b613697848484612a7f565b6136a384848484613c11565b6124fb5760405162461bcd60e51b815260206004820152603260248201527f4552433732313a207472616e7366657220746f206e6f6e20455243373231526560448201527131b2b4bb32b91034b6b83632b6b2b73a32b960711b6064820152608401610c55565b60975460ff16156137835760405162461bcd60e51b815260206004820152602260248201527f4d4454503a2063616e6e6f74207472616e73666572207768696c65207061757360448201527f65640000000000000000000000000000000000000000000000000000000000006064820152608401610c55565b826001600160a01b0316826001600160a01b031614610da7576001600160a01b038316610da757600161016060008282546137be9190614916565b9091555050505050565b803b61383c5760405162461bcd60e51b815260206004820152602d60248201527f455243313936373a206e657720696d706c656d656e746174696f6e206973206e60448201527f6f74206120636f6e7472616374000000000000000000000000000000000000006064820152608401610c55565b7f360894a13ba1a3210667c828492db98dca3e2076cc3735a920a3ca505d382bbc80546001600160a01b0319166001600160a01b0392909216919091179055565b6060823b6138f35760405162461bcd60e51b815260206004820152602660248201527f416464726573733a2064656c65676174652063616c6c20746f206e6f6e2d636f60448201527f6e747261637400000000000000000000000000000000000000000000000000006064820152608401610c55565b600080846001600160a01b03168460405161390e9190614764565b600060405180830381855af49150503d8060008114613949576040519150601f19603f3d011682016040523d82523d6000602084013e61394e565b606091505b50915091506139768282604051806060016040528060278152602001614b4a60279139613d69565b95945050505050565b613988816137c8565b6040516001600160a01b038216907fbc7cd75a20ee27fd9adebab32041f755214dbc6bffa90cc0225b39da2e5c2d3b90600090a250565b6000806139cd606484614a92565b905060006139dc606485614953565b9050602682101580156139f05750603e8211155b80156139fd575060288110155b8015610f1c5750603b10159392505050565b6116e3828260405180602001604052806000815250613da2565b600054610100900460ff166117375760405162461bcd60e51b815260206004820152602b60248201527f496e697469616c697a61626c653a20636f6e7472616374206973206e6f74206960448201526a6e697469616c697a696e6760a81b6064820152608401610c55565b600054610100900460ff16613aff5760405162461bcd60e51b815260206004820152602b60248201527f496e697469616c697a61626c653a20636f6e7472616374206973206e6f74206960448201526a6e697469616c697a696e6760a81b6064820152608401610c55565b8151613b12906065906020850190613f6e565b508051610da7906066906020840190613f6e565b600054610100900460ff16613b915760405162461bcd60e51b815260206004820152602b60248201527f496e697469616c697a61626c653a20636f6e7472616374206973206e6f74206960448201526a6e697469616c697a696e6760a81b6064820152608401610c55565b6097805460ff19169055565b600054610100900460ff16613c085760405162461bcd60e51b815260206004820152602b60248201527f496e697469616c697a61626c653a20636f6e7472616374206973206e6f74206960448201526a6e697469616c697a696e6760a81b6064820152608401610c55565b611737336132ed565b60006001600160a01b0384163b15613d5e57604051630a85bd0160e11b81526001600160a01b0385169063150b7a0290613c5590339089908890889060040161484a565b602060405180830381600087803b158015613c6f57600080fd5b505af1925050508015613c9f575060408051601f3d908101601f19168201909252613c9c91810190614424565b60015b613d44573d808015613ccd576040519150601f19603f3d011682016040523d82523d6000602084013e613cd2565b606091505b508051613d3c5760405162461bcd60e51b815260206004820152603260248201527f4552433732313a207472616e7366657220746f206e6f6e20455243373231526560448201527131b2b4bb32b91034b6b83632b6b2b73a32b960711b6064820152608401610c55565b805181602001fd5b6001600160e01b031916630a85bd0160e11b149050610f1c565b506001949350505050565b60608315613d785750816112a5565b825115613d885782518084602001fd5b8160405162461bcd60e51b8152600401610c559190614886565b613dac8383613e20565b613db96000848484613c11565b610da75760405162461bcd60e51b815260206004820152603260248201527f4552433732313a207472616e7366657220746f206e6f6e20455243373231526560448201527131b2b4bb32b91034b6b83632b6b2b73a32b960711b6064820152608401610c55565b6001600160a01b038216613e765760405162461bcd60e51b815260206004820181905260248201527f4552433732313a206d696e7420746f20746865207a65726f20616464726573736044820152606401610c55565b6000818152606760205260409020546001600160a01b031615613edb5760405162461bcd60e51b815260206004820152601c60248201527f4552433732313a20746f6b656e20616c7265616479206d696e746564000000006044820152606401610c55565b613ee76000838361370a565b6001600160a01b0382166000908152606860205260408120805460019290613f10908490614916565b909155505060008181526067602052604080822080546001600160a01b0319166001600160a01b03861690811790915590518392907fddf252ad1be2c89b69c2b068fc378daa952ba7f163c4a11628f55a4df523b3ef908290a45050565b828054613f7a90614a1c565b90600052602060002090601f016020900481019282613f9c5760008555613fe2565b82601f10613fb557805160ff1916838001178555613fe2565b82800160010185558215613fe2579182015b82811115613fe2578251825591602001919060010190613fc7565b50613fee929150613ff2565b5090565b5b80821115613fee5760008155600101613ff3565b8035801515811461401757600080fd5b919050565b600082601f83011261402d57600080fd5b813561404061403b826148ee565b614899565b81815284602083860101111561405557600080fd5b816020850160208301376000918101602001919091529392505050565b803561ffff8116811461401757600080fd5b803560ff8116811461401757600080fd5b6000602082840312156140a757600080fd5b81356112a581614afe565b6000602082840312156140c457600080fd5b81516112a581614afe565b600080604083850312156140e257600080fd5b82356140ed81614afe565b915060208301356140fd81614afe565b809150509250929050565b60008060006060848603121561411d57600080fd5b833561412881614afe565b9250602084013561413881614afe565b929592945050506040919091013590565b60008060008060006080868803121561416157600080fd5b853561416c81614afe565b9450602086013561417c81614afe565b935060408601359250606086013567ffffffffffffffff808211156141a057600080fd5b818801915088601f8301126141b457600080fd5b8135818111156141c357600080fd5b8960208285010111156141d557600080fd5b9699959850939650602001949392505050565b600080600080608085870312156141fe57600080fd5b843561420981614afe565b9350602085013561421981614afe565b925060408501359150606085013567ffffffffffffffff81111561423c57600080fd5b6142488782880161401c565b91505092959194509250565b6000806040838503121561426757600080fd5b823561427281614afe565b915061428060208401614007565b90509250929050565b6000806040838503121561429c57600080fd5b82356142a781614afe565b9150602083013567ffffffffffffffff8111156142c357600080fd5b6142cf8582860161401c565b9150509250929050565b600080604083850312156142ec57600080fd5b82356142f781614afe565b946020939093013593505050565b6000806000806080858703121561431b57600080fd5b843561432681614afe565b93506020850135925061433b60408601614084565b915061434960608601614084565b905092959194509250565b6000602080838503121561436757600080fd5b823567ffffffffffffffff81111561437e57600080fd5b8301601f8101851361438f57600080fd5b803561439d61403b826148ca565b80828252848201915084840188868560051b87010111156143bd57600080fd5b600094505b838510156143e05780358352600194909401939185019185016143c2565b50979650505050505050565b6000602082840312156143fe57600080fd5b6112a582614007565b60006020828403121561441957600080fd5b81356112a581614b13565b60006020828403121561443657600080fd5b81516112a581614b13565b60006020828403121561445357600080fd5b813567ffffffffffffffff81111561446a57600080fd5b610f1c8482850161401c565b60006020828403121561448857600080fd5b815167ffffffffffffffff81111561449f57600080fd5b8201601f810184136144b057600080fd5b80516144be61403b826148ee565b8181528560208385010111156144d357600080fd5b6139768260208301602086016149f0565b6000602082840312156144f657600080fd5b6112a582614072565b600080600080600080600060e0888a03121561451a57600080fd5b61452388614072565b965061453160208901614072565b955061453f60408901614072565b945060608801359350608088013567ffffffffffffffff8082111561456357600080fd5b61456f8b838c0161401c565b945060a08a013591508082111561458557600080fd5b506145928a828b0161401c565b92505060c08801356145a381614afe565b8091505092959891949750929550565b6000602082840312156145c557600080fd5b5035919050565b600080604083850312156145df57600080fd5b82359150602083013567ffffffffffffffff8111156142c357600080fd5b60008060006060848603121561461257600080fd5b8335925061462260208501614084565b915061463060408501614084565b90509250925092565b6000806000806080858703121561464f57600080fd5b843593506020614660818701614084565b935061466e60408701614084565b9250606086013567ffffffffffffffff8082111561468b57600080fd5b818801915088601f83011261469f57600080fd5b81356146ad61403b826148ca565b8082825285820191508585018c878560051b88010111156146cd57600080fd5b60005b84811015614708578135868111156146e757600080fd5b6146f58f8a838b010161401c565b85525092870192908701906001016146d0565b505080965050505050505092959194509250565b600081518084526147348160208601602086016149f0565b601f01601f19169290920160200192915050565b6000815161475a8185602086016149f0565b9290920192915050565b600082516147768184602087016149f0565b9190910192915050565b600080845481600182811c91508083168061479c57607f831692505b60208084108214156147bc57634e487b7160e01b86526022600452602486fd5b8180156147d057600181146147e15761480e565b60ff1986168952848901965061480e565b60008b81526020902060005b868110156148065781548b8201529085019083016147ed565b505084890196505b5050505050506139766148218286614748565b7f2e6a736f6e000000000000000000000000000000000000000000000000000000815260050190565b60006001600160a01b0380871683528086166020840152508360408301526080606083015261487c608083018461471c565b9695505050505050565b6020815260006112a5602083018461471c565b604051601f8201601f1916810167ffffffffffffffff811182821017156148c2576148c2614ae8565b604052919050565b600067ffffffffffffffff8211156148e4576148e4614ae8565b5060051b60200190565b600067ffffffffffffffff82111561490857614908614ae8565b50601f01601f191660200190565b6000821982111561492957614929614aa6565b500190565b600060ff821660ff84168060ff0382111561494b5761494b614aa6565b019392505050565b60008261496257614962614abc565b500490565b600061ffff8083168185168183048111821515161561498857614988614aa6565b02949350505050565b60008160001904831182151516156149ab576149ab614aa6565b500290565b600060ff821660ff84168160ff04811182151516156149d1576149d1614aa6565b029392505050565b6000828210156149eb576149eb614aa6565b500390565b60005b83811015614a0b5781810151838201526020016149f3565b838111156124fb5750506000910152565b600181811c90821680614a3057607f821691505b60208210811415614a5157634e487b7160e01b600052602260045260246000fd5b50919050565b6000600019821415614a6b57614a6b614aa6565b5060010190565b600060ff821660ff811415614a8957614a89614aa6565b60010192915050565b600082614aa157614aa1614abc565b500690565b634e487b7160e01b600052601160045260246000fd5b634e487b7160e01b600052601260045260246000fd5b634e487b7160e01b600052603260045260246000fd5b634e487b7160e01b600052604160045260246000fd5b6001600160a01b038116811461142557600080fd5b6001600160e01b03198116811461142557600080fdfe4f776e61626c653a2063616c6c6572206973206e6f7420746865206f776e6572416464726573733a206c6f772d6c6576656c2064656c65676174652063616c6c206661696c6564a264697066735822122056f182faf83f658c0972cfe3adc3fb5fd2d8a0b0ba7bb66905c4a9bd33ca406164736f6c63430008070033",
  "linkReferences": {},
  "deployedLinkReferences": {}
}