{
  "_format": "hh-sol-artifact-1",
  "contractName": "MillionDollarTokenPageV2",
  "sourceName": "contracts/MillionDollarTokenPage-v2.sol",
  "abi": [
    {
      "inputs": [
        {
          "internalType": "uint16",
          "name": "_totalMintLimit",
          "type": "uint16"
        },
        {
          "internalType": "uint16",
          "name": "_singleMintLimit",
          "type": "uint16"
        },
        {
          "internalType": "uint16",
          "name": "_userMintLimit",
          "type": "uint16"
        },
        {
          "internalType": "uint256",
          "name": "_mintPrice",
          "type": "uint256"
        },
        {
          "internalType": "string",
          "name": "_metadataBaseURI",
          "type": "string"
        },
        {
          "internalType": "string",
          "name": "_defaultContentBaseURI",
          "type": "string"
        },
        {
          "internalType": "string",
          "name": "_collectionURI",
          "type": "string"
        },
        {
          "internalType": "uint8",
          "name": "_royaltyPercentage",
          "type": "uint8"
        },
        {
          "internalType": "address",
          "name": "_original",
          "type": "address"
        }
      ],
      "stateMutability": "nonpayable",
      "type": "constructor"
    },
    {
      "anonymous": false,
      "inputs": [
        {
          "indexed": true,
          "internalType": "address",
          "name": "owner",
          "type": "address"
        },
        {
          "indexed": true,
          "internalType": "address",
          "name": "approved",
          "type": "address"
        },
        {
          "indexed": true,
          "internalType": "uint256",
          "name": "tokenId",
          "type": "uint256"
        }
      ],
      "name": "Approval",
      "type": "event"
    },
    {
      "anonymous": false,
      "inputs": [
        {
          "indexed": true,
          "internalType": "address",
          "name": "owner",
          "type": "address"
        },
        {
          "indexed": true,
          "internalType": "address",
          "name": "operator",
          "type": "address"
        },
        {
          "indexed": false,
          "internalType": "bool",
          "name": "approved",
          "type": "bool"
        }
      ],
      "name": "ApprovalForAll",
      "type": "event"
    },
    {
      "anonymous": false,
      "inputs": [
        {
          "indexed": true,
          "internalType": "address",
          "name": "previousOwner",
          "type": "address"
        },
        {
          "indexed": true,
          "internalType": "address",
          "name": "newOwner",
          "type": "address"
        }
      ],
      "name": "OwnershipTransferred",
      "type": "event"
    },
    {
      "anonymous": false,
      "inputs": [
        {
          "indexed": false,
          "internalType": "address",
          "name": "account",
          "type": "address"
        }
      ],
      "name": "Paused",
      "type": "event"
    },
    {
      "anonymous": false,
      "inputs": [
        {
          "indexed": true,
          "internalType": "uint256",
          "name": "tokenId",
          "type": "uint256"
        }
      ],
      "name": "TokenContentURIChanged",
      "type": "event"
    },
    {
      "anonymous": false,
      "inputs": [
        {
          "indexed": true,
          "internalType": "address",
          "name": "from",
          "type": "address"
        },
        {
          "indexed": true,
          "internalType": "address",
          "name": "to",
          "type": "address"
        },
        {
          "indexed": true,
          "internalType": "uint256",
          "name": "tokenId",
          "type": "uint256"
        }
      ],
      "name": "Transfer",
      "type": "event"
    },
    {
      "anonymous": false,
      "inputs": [
        {
          "indexed": false,
          "internalType": "address",
          "name": "account",
          "type": "address"
        }
      ],
      "name": "Unpaused",
      "type": "event"
    },
    {
      "inputs": [],
      "name": "COLUMN_COUNT",
      "outputs": [
        {
          "internalType": "uint16",
          "name": "",
          "type": "uint16"
        }
      ],
      "stateMutability": "view",
      "type": "function"
    },
    {
      "inputs": [],
      "name": "ROW_COUNT",
      "outputs": [
        {
          "internalType": "uint16",
          "name": "",
          "type": "uint16"
        }
      ],
      "stateMutability": "view",
      "type": "function"
    },
    {
      "inputs": [],
      "name": "SUPPLY_LIMIT",
      "outputs": [
        {
          "internalType": "uint16",
          "name": "",
          "type": "uint16"
        }
      ],
      "stateMutability": "view",
      "type": "function"
    },
    {
      "inputs": [
        {
          "internalType": "uint256[]",
          "name": "_tokenIdsToMigrate",
          "type": "uint256[]"
        }
      ],
      "name": "addTokensToMigrate",
      "outputs": [],
      "stateMutability": "nonpayable",
      "type": "function"
    },
    {
      "inputs": [
        {
          "internalType": "address",
          "name": "to",
          "type": "address"
        },
        {
          "internalType": "uint256",
          "name": "tokenId",
          "type": "uint256"
        }
      ],
      "name": "approve",
      "outputs": [],
      "stateMutability": "nonpayable",
      "type": "function"
    },
    {
      "inputs": [
        {
          "internalType": "address",
          "name": "owner",
          "type": "address"
        }
      ],
      "name": "balanceOf",
      "outputs": [
        {
          "internalType": "uint256",
          "name": "",
          "type": "uint256"
        }
      ],
      "stateMutability": "view",
      "type": "function"
    },
    {
      "inputs": [],
      "name": "canAddTokenIdsToMigrate",
      "outputs": [
        {
          "internalType": "bool",
          "name": "",
          "type": "bool"
        }
      ],
      "stateMutability": "view",
      "type": "function"
    },
    {
      "inputs": [],
      "name": "collectionURI",
      "outputs": [
        {
          "internalType": "string",
          "name": "",
          "type": "string"
        }
      ],
      "stateMutability": "view",
      "type": "function"
    },
    {
      "inputs": [],
      "name": "completeMigration",
      "outputs": [],
      "stateMutability": "nonpayable",
      "type": "function"
    },
    {
      "inputs": [],
      "name": "defaultContentBaseURI",
      "outputs": [
        {
          "internalType": "string",
          "name": "",
          "type": "string"
        }
      ],
      "stateMutability": "view",
      "type": "function"
    },
    {
      "inputs": [
        {
          "internalType": "uint256",
          "name": "tokenId",
          "type": "uint256"
        }
      ],
      "name": "getApproved",
      "outputs": [
        {
          "internalType": "address",
          "name": "",
          "type": "address"
        }
      ],
      "stateMutability": "view",
      "type": "function"
    },
    {
      "inputs": [
        {
          "internalType": "address",
          "name": "owner",
          "type": "address"
        },
        {
          "internalType": "address",
          "name": "operator",
          "type": "address"
        }
      ],
      "name": "isApprovedForAll",
      "outputs": [
        {
          "internalType": "bool",
          "name": "",
          "type": "bool"
        }
      ],
      "stateMutability": "view",
      "type": "function"
    },
    {
      "inputs": [],
      "name": "isCenterSaleActive",
      "outputs": [
        {
          "internalType": "bool",
          "name": "",
          "type": "bool"
        }
      ],
      "stateMutability": "view",
      "type": "function"
    },
    {
      "inputs": [],
      "name": "isSaleActive",
      "outputs": [
        {
          "internalType": "bool",
          "name": "",
          "type": "bool"
        }
      ],
      "stateMutability": "view",
      "type": "function"
    },
    {
      "inputs": [
        {
          "internalType": "uint256",
          "name": "tokenId",
          "type": "uint256"
        }
      ],
      "name": "isTokenSetForMigration",
      "outputs": [
        {
          "internalType": "bool",
          "name": "",
          "type": "bool"
        }
      ],
      "stateMutability": "view",
      "type": "function"
    },
    {
      "inputs": [],
      "name": "metadataBaseURI",
      "outputs": [
        {
          "internalType": "string",
          "name": "",
          "type": "string"
        }
      ],
      "stateMutability": "view",
      "type": "function"
    },
    {
      "inputs": [],
      "name": "mintPrice",
      "outputs": [
        {
          "internalType": "uint256",
          "name": "",
          "type": "uint256"
        }
      ],
      "stateMutability": "view",
      "type": "function"
    },
    {
      "inputs": [
        {
          "internalType": "uint256",
          "name": "tokenId",
          "type": "uint256"
        }
      ],
      "name": "mintToken",
      "outputs": [],
      "stateMutability": "payable",
      "type": "function"
    },
    {
      "inputs": [
        {
          "internalType": "uint256",
          "name": "tokenId",
          "type": "uint256"
        },
        {
          "internalType": "uint8",
          "name": "width",
          "type": "uint8"
        },
        {
          "internalType": "uint8",
          "name": "height",
          "type": "uint8"
        }
      ],
      "name": "mintTokenGroup",
      "outputs": [],
      "stateMutability": "payable",
      "type": "function"
    },
    {
      "inputs": [
        {
          "internalType": "address",
          "name": "receiver",
          "type": "address"
        },
        {
          "internalType": "uint256",
          "name": "tokenId",
          "type": "uint256"
        },
        {
          "internalType": "uint8",
          "name": "width",
          "type": "uint8"
        },
        {
          "internalType": "uint8",
          "name": "height",
          "type": "uint8"
        }
      ],
      "name": "mintTokenGroupTo",
      "outputs": [],
      "stateMutability": "payable",
      "type": "function"
    },
    {
      "inputs": [
        {
          "internalType": "address",
          "name": "receiver",
          "type": "address"
        },
        {
          "internalType": "uint256",
          "name": "tokenId",
          "type": "uint256"
        }
      ],
      "name": "mintTokenTo",
      "outputs": [],
      "stateMutability": "payable",
      "type": "function"
    },
    {
      "inputs": [],
      "name": "mintedCount",
      "outputs": [
        {
          "internalType": "uint256",
          "name": "",
          "type": "uint256"
        }
      ],
      "stateMutability": "view",
      "type": "function"
    },
    {
      "inputs": [],
      "name": "name",
      "outputs": [
        {
          "internalType": "string",
          "name": "",
          "type": "string"
        }
      ],
      "stateMutability": "view",
      "type": "function"
    },
    {
      "inputs": [
        {
          "internalType": "address",
          "name": "",
          "type": "address"
        },
        {
          "internalType": "address",
          "name": "from",
          "type": "address"
        },
        {
          "internalType": "uint256",
          "name": "tokenId",
          "type": "uint256"
        },
        {
          "internalType": "bytes",
          "name": "",
          "type": "bytes"
        }
      ],
      "name": "onERC721Received",
      "outputs": [
        {
          "internalType": "bytes4",
          "name": "",
          "type": "bytes4"
        }
      ],
      "stateMutability": "nonpayable",
      "type": "function"
    },
    {
      "inputs": [],
      "name": "original",
      "outputs": [
        {
          "internalType": "contract MillionDollarTokenPageV1",
          "name": "",
          "type": "address"
        }
      ],
      "stateMutability": "view",
      "type": "function"
    },
    {
      "inputs": [],
      "name": "owner",
      "outputs": [
        {
          "internalType": "address",
          "name": "",
          "type": "address"
        }
      ],
      "stateMutability": "view",
      "type": "function"
    },
    {
      "inputs": [
        {
          "internalType": "uint256",
          "name": "tokenId",
          "type": "uint256"
        }
      ],
      "name": "ownerOf",
      "outputs": [
        {
          "internalType": "address",
          "name": "",
          "type": "address"
        }
      ],
      "stateMutability": "view",
      "type": "function"
    },
    {
      "inputs": [],
      "name": "pause",
      "outputs": [],
      "stateMutability": "nonpayable",
      "type": "function"
    },
    {
      "inputs": [],
      "name": "paused",
      "outputs": [
        {
          "internalType": "bool",
          "name": "",
          "type": "bool"
        }
      ],
      "stateMutability": "view",
      "type": "function"
    },
    {
      "inputs": [
        {
          "internalType": "uint256",
          "name": "tokenId",
          "type": "uint256"
        }
      ],
      "name": "proxiedOwnerOf",
      "outputs": [
        {
          "internalType": "address",
          "name": "",
          "type": "address"
        }
      ],
      "stateMutability": "view",
      "type": "function"
    },
    {
      "inputs": [],
      "name": "renounceOwnership",
      "outputs": [],
      "stateMutability": "nonpayable",
      "type": "function"
    },
    {
      "inputs": [
        {
          "internalType": "uint256",
          "name": "",
          "type": "uint256"
        },
        {
          "internalType": "uint256",
          "name": "salePrice",
          "type": "uint256"
        }
      ],
      "name": "royaltyInfo",
      "outputs": [
        {
          "internalType": "address",
          "name": "",
          "type": "address"
        },
        {
          "internalType": "uint256",
          "name": "",
          "type": "uint256"
        }
      ],
      "stateMutability": "view",
      "type": "function"
    },
    {
      "inputs": [],
      "name": "royaltyPercentage",
      "outputs": [
        {
          "internalType": "uint8",
          "name": "",
          "type": "uint8"
        }
      ],
      "stateMutability": "view",
      "type": "function"
    },
    {
      "inputs": [
        {
          "internalType": "address",
          "name": "from",
          "type": "address"
        },
        {
          "internalType": "address",
          "name": "to",
          "type": "address"
        },
        {
          "internalType": "uint256",
          "name": "tokenId",
          "type": "uint256"
        }
      ],
      "name": "safeTransferFrom",
      "outputs": [],
      "stateMutability": "nonpayable",
      "type": "function"
    },
    {
      "inputs": [
        {
          "internalType": "address",
          "name": "from",
          "type": "address"
        },
        {
          "internalType": "address",
          "name": "to",
          "type": "address"
        },
        {
          "internalType": "uint256",
          "name": "tokenId",
          "type": "uint256"
        },
        {
          "internalType": "bytes",
          "name": "_data",
          "type": "bytes"
        }
      ],
      "name": "safeTransferFrom",
      "outputs": [],
      "stateMutability": "nonpayable",
      "type": "function"
    },
    {
      "inputs": [
        {
          "internalType": "address",
          "name": "sender",
          "type": "address"
        },
        {
          "internalType": "address",
          "name": "receiver",
          "type": "address"
        },
        {
          "internalType": "uint256",
          "name": "tokenId",
          "type": "uint256"
        },
        {
          "internalType": "uint8",
          "name": "width",
          "type": "uint8"
        },
        {
          "internalType": "uint8",
          "name": "height",
          "type": "uint8"
        }
      ],
      "name": "safeTransferGroupFrom",
      "outputs": [],
      "stateMutability": "nonpayable",
      "type": "function"
    },
    {
      "inputs": [
        {
          "internalType": "address",
          "name": "operator",
          "type": "address"
        },
        {
          "internalType": "bool",
          "name": "approved",
          "type": "bool"
        }
      ],
      "name": "setApprovalForAll",
      "outputs": [],
      "stateMutability": "nonpayable",
      "type": "function"
    },
    {
      "inputs": [
        {
          "internalType": "string",
          "name": "newCollectionURI",
          "type": "string"
        }
      ],
      "name": "setCollectionURI",
      "outputs": [],
      "stateMutability": "nonpayable",
      "type": "function"
    },
    {
      "inputs": [
        {
          "internalType": "string",
          "name": "newDefaultContentBaseURI",
          "type": "string"
        }
      ],
      "name": "setDefaultContentBaseURI",
      "outputs": [],
      "stateMutability": "nonpayable",
      "type": "function"
    },
    {
      "inputs": [
        {
          "internalType": "bool",
          "name": "newIsCenterSaleActive",
          "type": "bool"
        }
      ],
      "name": "setIsCenterSaleActive",
      "outputs": [],
      "stateMutability": "nonpayable",
      "type": "function"
    },
    {
      "inputs": [
        {
          "internalType": "bool",
          "name": "newisSaleActive",
          "type": "bool"
        }
      ],
      "name": "setIsSaleActive",
      "outputs": [],
      "stateMutability": "nonpayable",
      "type": "function"
    },
    {
      "inputs": [
        {
          "internalType": "string",
          "name": "newMetadataBaseURI",
          "type": "string"
        }
      ],
      "name": "setMetadataBaseURI",
      "outputs": [],
      "stateMutability": "nonpayable",
      "type": "function"
    },
    {
      "inputs": [
        {
          "internalType": "uint256",
          "name": "newMintPrice",
          "type": "uint256"
        }
      ],
      "name": "setMintPrice",
      "outputs": [],
      "stateMutability": "nonpayable",
      "type": "function"
    },
    {
      "inputs": [
        {
          "internalType": "uint8",
          "name": "newRoyaltyPercentage",
          "type": "uint8"
        }
      ],
      "name": "setRoyaltyPercentage",
      "outputs": [],
      "stateMutability": "nonpayable",
      "type": "function"
    },
    {
      "inputs": [
        {
          "internalType": "uint16",
          "name": "newSingleMintLimit",
          "type": "uint16"
        }
      ],
      "name": "setSingleMintLimit",
      "outputs": [],
      "stateMutability": "nonpayable",
      "type": "function"
    },
    {
      "inputs": [
        {
          "internalType": "uint256",
          "name": "tokenId",
          "type": "uint256"
        },
        {
          "internalType": "string",
          "name": "contentURI",
          "type": "string"
        }
      ],
      "name": "setTokenContentURI",
      "outputs": [],
      "stateMutability": "nonpayable",
      "type": "function"
    },
    {
      "inputs": [
        {
          "internalType": "uint256",
          "name": "tokenId",
          "type": "uint256"
        },
        {
          "internalType": "uint8",
          "name": "width",
          "type": "uint8"
        },
        {
          "internalType": "uint8",
          "name": "height",
          "type": "uint8"
        },
        {
          "internalType": "string[]",
          "name": "contentURIs",
          "type": "string[]"
        }
      ],
      "name": "setTokenGroupContentURIs",
      "outputs": [],
      "stateMutability": "nonpayable",
      "type": "function"
    },
    {
      "inputs": [
        {
          "internalType": "uint16",
          "name": "newTotalMintLimit",
          "type": "uint16"
        }
      ],
      "name": "setTotalMintLimit",
      "outputs": [],
      "stateMutability": "nonpayable",
      "type": "function"
    },
    {
      "inputs": [
        {
          "internalType": "uint16",
          "name": "newUserMintLimit",
          "type": "uint16"
        }
      ],
      "name": "setUserMintLimit",
      "outputs": [],
      "stateMutability": "nonpayable",
      "type": "function"
    },
    {
      "inputs": [],
      "name": "singleMintLimit",
      "outputs": [
        {
          "internalType": "uint16",
          "name": "",
          "type": "uint16"
        }
      ],
      "stateMutability": "view",
      "type": "function"
    },
    {
      "inputs": [
        {
          "internalType": "bytes4",
          "name": "interfaceId",
          "type": "bytes4"
        }
      ],
      "name": "supportsInterface",
      "outputs": [
        {
          "internalType": "bool",
          "name": "",
          "type": "bool"
        }
      ],
      "stateMutability": "view",
      "type": "function"
    },
    {
      "inputs": [],
      "name": "symbol",
      "outputs": [
        {
          "internalType": "string",
          "name": "",
          "type": "string"
        }
      ],
      "stateMutability": "view",
      "type": "function"
    },
    {
      "inputs": [
        {
          "internalType": "uint256",
          "name": "index",
          "type": "uint256"
        }
      ],
      "name": "tokenByIndex",
      "outputs": [
        {
          "internalType": "uint256",
          "name": "",
          "type": "uint256"
        }
      ],
      "stateMutability": "pure",
      "type": "function"
    },
    {
      "inputs": [
        {
          "internalType": "uint256",
          "name": "tokenId",
          "type": "uint256"
        }
      ],
      "name": "tokenContentURI",
      "outputs": [
        {
          "internalType": "string",
          "name": "",
          "type": "string"
        }
      ],
      "stateMutability": "view",
      "type": "function"
    },
    {
      "inputs": [
        {
          "internalType": "address",
          "name": "owner",
          "type": "address"
        },
        {
          "internalType": "uint256",
          "name": "index",
          "type": "uint256"
        }
      ],
      "name": "tokenOfOwnerByIndex",
      "outputs": [
        {
          "internalType": "uint256",
          "name": "",
          "type": "uint256"
        }
      ],
      "stateMutability": "view",
      "type": "function"
    },
    {
      "inputs": [
        {
          "internalType": "uint256",
          "name": "tokenId",
          "type": "uint256"
        }
      ],
      "name": "tokenURI",
      "outputs": [
        {
          "internalType": "string",
          "name": "",
          "type": "string"
        }
      ],
      "stateMutability": "view",
      "type": "function"
    },
    {
      "inputs": [],
      "name": "totalMintLimit",
      "outputs": [
        {
          "internalType": "uint16",
          "name": "",
          "type": "uint16"
        }
      ],
      "stateMutability": "view",
      "type": "function"
    },
    {
      "inputs": [],
      "name": "totalSupply",
      "outputs": [
        {
          "internalType": "uint256",
          "name": "",
          "type": "uint256"
        }
      ],
      "stateMutability": "pure",
      "type": "function"
    },
    {
      "inputs": [
        {
          "internalType": "address",
          "name": "from",
          "type": "address"
        },
        {
          "internalType": "address",
          "name": "to",
          "type": "address"
        },
        {
          "internalType": "uint256",
          "name": "tokenId",
          "type": "uint256"
        }
      ],
      "name": "transferFrom",
      "outputs": [],
      "stateMutability": "nonpayable",
      "type": "function"
    },
    {
      "inputs": [
        {
          "internalType": "address",
          "name": "sender",
          "type": "address"
        },
        {
          "internalType": "address",
          "name": "receiver",
          "type": "address"
        },
        {
          "internalType": "uint256",
          "name": "tokenId",
          "type": "uint256"
        },
        {
          "internalType": "uint8",
          "name": "width",
          "type": "uint8"
        },
        {
          "internalType": "uint8",
          "name": "height",
          "type": "uint8"
        }
      ],
      "name": "transferGroupFrom",
      "outputs": [],
      "stateMutability": "nonpayable",
      "type": "function"
    },
    {
      "inputs": [
        {
          "internalType": "address",
          "name": "newOwner",
          "type": "address"
        }
      ],
      "name": "transferOwnership",
      "outputs": [],
      "stateMutability": "nonpayable",
      "type": "function"
    },
    {
      "inputs": [],
      "name": "unpause",
      "outputs": [],
      "stateMutability": "nonpayable",
      "type": "function"
    },
    {
      "inputs": [],
      "name": "userMintLimit",
      "outputs": [
        {
          "internalType": "uint16",
          "name": "",
          "type": "uint16"
        }
      ],
      "stateMutability": "view",
      "type": "function"
    },
    {
      "inputs": [],
      "name": "withdraw",
      "outputs": [],
      "stateMutability": "nonpayable",
      "type": "function"
    }
  ],
  "bytecode": "0x60806040523480156200001157600080fd5b5060405162004cc938038062004cc98339810160408190526200003491620003a2565b604080518082018252601681527f4d696c6c696f6e446f6c6c6172546f6b656e5061676500000000000000000000602080830191825283518085019094526003845262e28aa160e81b908401528151919291620000949160009162000203565b508051620000aa90600190602084019062000203565b50506006805460ff1916905550620000c233620001a9565b600b805461ffff19169055600f805460ff60a01b191690558451620000ef90600c90602088019062000203565b5083516200010590600d90602087019062000203565b5082516200011b90600e90602086019062000203565b5060098054600a9790975564ffffffff001990961661010061ffff9a8b160264ffff0000001916176301000000988a16989098029790971766ffff00000000ff191665010000000000969098169590950260ff19169690961760ff94909416939093179091555050600f80546001600160a01b0319166001600160a01b0390921691909117905550620004ef565b600680546001600160a01b03838116610100818102610100600160a81b031985161790945560405193909204169182907f8be0079c531659141344cd1fd0a4f28419497f9722a3daafe3b4186f6b6457e090600090a35050565b82805462000211906200049c565b90600052602060002090601f01602090048101928262000235576000855562000280565b82601f106200025057805160ff191683800117855562000280565b8280016001018555821562000280579182015b828111156200028057825182559160200191906001019062000263565b506200028e92915062000292565b5090565b5b808211156200028e576000815560010162000293565b80516001600160a01b0381168114620002c157600080fd5b919050565b600082601f830112620002d857600080fd5b81516001600160401b0380821115620002f557620002f5620004d9565b604051601f8301601f19908116603f01168101908282118183101715620003205762000320620004d9565b816040528381526020925086838588010111156200033d57600080fd5b600091505b8382101562000361578582018301518183018401529082019062000342565b83821115620003735760008385830101525b9695505050505050565b805161ffff81168114620002c157600080fd5b805160ff81168114620002c157600080fd5b60008060008060008060008060006101208a8c031215620003c257600080fd5b620003cd8a6200037d565b9850620003dd60208b016200037d565b9750620003ed60408b016200037d565b60608b015160808c015191985096506001600160401b03808211156200041257600080fd5b620004208d838e01620002c6565b965060a08c01519150808211156200043757600080fd5b620004458d838e01620002c6565b955060c08c01519150808211156200045c57600080fd5b506200046b8c828d01620002c6565b9350506200047c60e08b0162000390565b91506200048d6101008b01620002a9565b90509295985092959850929598565b600181811c90821680620004b157607f821691505b60208210811415620004d357634e487b7160e01b600052602260045260246000fd5b50919050565b634e487b7160e01b600052604160045260246000fd5b6147ca80620004ff6000396000f3fe6080604052600436106103c35760003560e01c80636817c76c116101f2578063a82106ee1161010d578063e04a8eaf116100a0578063f2fde38b1161006f578063f2fde38b14610b14578063f4a0a52814610b34578063f994589a14610b54578063fb94bd8a14610b7557600080fd5b8063e04a8eaf14610701578063e8d44caf14610a8b578063e985e9c514610aab578063eb3391a914610af457600080fd5b8063c7428566116100dc578063c742856614610a14578063c87b56dd14610a36578063cf721b1514610a56578063d2d65ff514610a6b57600080fd5b8063a82106ee146109a2578063b46a8165146109c2578063b88d4fde146109e1578063c634d03214610a0157600080fd5b80638d50645a116101855780639f3d1a2a116101545780639f3d1a2a14610938578063a1ae82e51461094d578063a22cb4651461096d578063a5097ebf1461098d57600080fd5b80638d50645a146108c05780638da5cb5b146108e057806395d89b41146109035780639a6dee7f1461091857600080fd5b8063715018a6116101c1578063715018a61461084a57806376dd1f861461085f5780638456cb591461087f5780638a71bb2d1461089457600080fd5b80636817c76c146107d057806368447020146107e65780636bc1ef231461080657806370a082311461082a57600080fd5b80633bd4803c116102e25780634a0218d6116102755780635935e01a116102445780635935e01a146107655780635c975abb146107855780636352211e1461079d578063669a1f69146107bd57600080fd5b80634a0218d6146107015780634f6ccce71461071657806351cc5d6614610736578063564566a81461074b57600080fd5b806342842e0e116102b157806342842e0e1461069957806345e832df146106b957806346c715fa146106cc5780634886f62c146106ec57600080fd5b80633bd4803c1461062f5780633be9a9e11461064f5780633ccfd60b1461066f5780633f4ba83a1461068457600080fd5b80632222cda01161035a5780632a55205a116103295780632a55205a146105885780632c0a6055146105c75780632f745c59146105e75780633906f5601461060757600080fd5b80632222cda01461050857806323b872dd146105285780632639f460146105485780632a1b707a1461056857600080fd5b80630c0a9d26116103965780630c0a9d2614610479578063150b7a021461049957806318160ddd146104d25780631f5e7978146104f557600080fd5b806301ffc9a7146103c857806306fdde03146103fd578063081812fc1461041f578063095ea7b314610457575b600080fd5b3480156103d457600080fd5b506103e86103e33660046140a8565b610b95565b60405190151581526020015b60405180910390f35b34801561040957600080fd5b50610412610c28565b6040516103f491906144d9565b34801561042b57600080fd5b5061043f61043a3660046141bf565b610cba565b6040516001600160a01b0390911681526020016103f4565b34801561046357600080fd5b50610477610472366004613f9d565b610d47565b005b34801561048557600080fd5b506104126104943660046141bf565b610e79565b3480156104a557600080fd5b506104b96104b4366004613e13565b61109c565b6040516001600160e01b031990911681526020016103f4565b3480156104de57600080fd5b506104e761136d565b6040519081526020016103f4565b610477610503366004614241565b611383565b34801561051457600080fd5b50610477610523366004613f06565b6113fd565b34801561053457600080fd5b50610477610543366004613dd2565b611488565b34801561055457600080fd5b506104776105633660046140e2565b61150f565b34801561057457600080fd5b506103e86105833660046141bf565b611569565b34801561059457600080fd5b506105a86105a336600461421f565b6115b4565b604080516001600160a01b0390931683526020830191909152016103f4565b3480156105d357600080fd5b5061043f6105e23660046141bf565b6115e2565b3480156105f357600080fd5b506104e7610602366004613f9d565b611677565b34801561061357600080fd5b5061061c611748565b60405161ffff90911681526020016103f4565b34801561063b57600080fd5b5061047761064a366004613f06565b611756565b34801561065b57600080fd5b5061047761066a366004614018565b6117d9565b34801561067b57600080fd5b50610477611afe565b34801561069057600080fd5b50610477611c0b565b3480156106a557600080fd5b506104776106b4366004613dd2565b611c63565b6104776106c7366004613fc9565b611c7e565b3480156106d857600080fd5b50600f5461043f906001600160a01b031681565b3480156106f857600080fd5b50610477611cfe565b34801561070d57600080fd5b5061061c606481565b34801561072257600080fd5b506104e76107313660046141bf565b611d7c565b34801561074257600080fd5b50610412611de6565b34801561075757600080fd5b50600b546103e89060ff1681565b34801561077157600080fd5b5061047761078036600461427d565b611e74565b34801561079157600080fd5b5060065460ff166103e8565b3480156107a957600080fd5b5061043f6107b83660046141bf565b61216c565b6104776107cb366004613f9d565b612218565b3480156107dc57600080fd5b506104e7600a5481565b3480156107f257600080fd5b5061047761080136600461419b565b612277565b34801561081257600080fd5b5060095461061c9065010000000000900461ffff1681565b34801561083657600080fd5b506104e7610845366004613d5f565b6122eb565b34801561085657600080fd5b50610477612385565b34801561086b57600080fd5b5060095461061c90610100900461ffff1681565b34801561088b57600080fd5b506104776123dd565b3480156108a057600080fd5b506009546108ae9060ff1681565b60405160ff90911681526020016103f4565b3480156108cc57600080fd5b506104776108db3660046141d8565b612433565b3480156108ec57600080fd5b5060065461010090046001600160a01b031661043f565b34801561090f57600080fd5b5061041261249e565b34801561092457600080fd5b50610477610933366004614370565b6124ad565b34801561094457600080fd5b50610412612511565b34801561095957600080fd5b5061047761096836600461419b565b61251e565b34801561097957600080fd5b50610477610988366004613f68565b61258a565b34801561099957600080fd5b50610412612595565b3480156109ae57600080fd5b506104776109bd36600461408d565b6125a2565b3480156109ce57600080fd5b50600b546103e890610100900460ff1681565b3480156109ed57600080fd5b506104776109fc366004613e86565b61260a565b610477610a0f3660046141bf565b612692565b348015610a2057600080fd5b5060095461061c906301000000900461ffff1681565b348015610a4257600080fd5b50610412610a513660046141bf565b6126f4565b348015610a6257600080fd5b506104e761278c565b348015610a7757600080fd5b50610477610a8636600461408d565b6127a3565b348015610a9757600080fd5b50610477610aa636600461419b565b612804565b348015610ab757600080fd5b506103e8610ac6366004613d99565b6001600160a01b03918216600090815260056020908152604080832093909416825291909152205460ff1690565b348015610b0057600080fd5b50610477610b0f3660046140e2565b612874565b348015610b2057600080fd5b50610477610b2f366004613d5f565b6128ce565b348015610b4057600080fd5b50610477610b4f3660046141bf565b6129a1565b348015610b6057600080fd5b50600f546103e890600160a01b900460ff1681565b348015610b8157600080fd5b50610477610b903660046140e2565b6129f4565b60006001600160e01b03198216630a85bd0160e11b1480610bdf57506001600160e01b031982167f780e9d6300000000000000000000000000000000000000000000000000000000145b80610c1357506001600160e01b031982167f2a55205a00000000000000000000000000000000000000000000000000000000145b80610c225750610c2282612a4e565b92915050565b606060008054610c379061464b565b80601f0160208091040260200160405190810160405280929190818152602001828054610c639061464b565b8015610cb05780601f10610c8557610100808354040283529160200191610cb0565b820191906000526020600020905b815481529060010190602001808311610c9357829003601f168201915b5050505050905090565b6000610cc582612ae9565b610d2b5760405162461bcd60e51b815260206004820152602c60248201527f4552433732313a20617070726f76656420717565727920666f72206e6f6e657860448201526b34b9ba32b73a103a37b5b2b760a11b60648201526084015b60405180910390fd5b506000908152600460205260409020546001600160a01b031690565b6000610d528261216c565b9050806001600160a01b0316836001600160a01b03161415610ddc5760405162461bcd60e51b815260206004820152602160248201527f4552433732313a20617070726f76616c20746f2063757272656e74206f776e6560448201527f72000000000000000000000000000000000000000000000000000000000000006064820152608401610d22565b336001600160a01b0382161480610df85750610df88133610ac6565b610e6a5760405162461bcd60e51b815260206004820152603860248201527f4552433732313a20617070726f76652063616c6c6572206973206e6f74206f7760448201527f6e6572206e6f7220617070726f76656420666f7220616c6c00000000000000006064820152608401610d22565b610e748383612b1f565b505050565b606081600081118015610e9a5750610e92606480614596565b61ffff168111155b610ede5760405162461bcd60e51b8152602060048201526015602482015274135115140e881a5b9d985b1a59081d1bdad95b9259605a1b6044820152606401610d22565b610ee783611569565b15610f8c57600f546040517f0c0a9d26000000000000000000000000000000000000000000000000000000008152600481018590526001600160a01b0390911690630c0a9d269060240160006040518083038186803b158015610f4957600080fd5b505afa158015610f5d573d6000803e3d6000fd5b505050506040513d6000823e601f3d908101601f19168201604052610f859190810190614124565b9150611096565b60008381526008602052604081208054610fa59061464b565b80601f0160208091040260200160405190810160405280929190818152602001828054610fd19061464b565b801561101e5780601f10610ff35761010080835404028352916020019161101e565b820191906000526020600020905b81548152906001019060200180831161100157829003601f168201915b50505050509050600081511115611036579150611096565b6000848152600260205260409020546001600160a01b031680156110665761105d856126f4565b93505050611096565b600d61107186612b9a565b6040516020016110829291906143d3565b604051602081830303815290604052935050505b50919050565b600f546000906001600160a01b0316336001600160a01b0316146111285760405162461bcd60e51b815260206004820152602f60248201527f4d4454503a2063616e6e6f742061636365707420746f6b656e2066726f6d207560448201527f6e6b6e6f776e20636f6e747261637400000000000000000000000000000000006064820152608401610d22565b600f546040516331a9108f60e11b81526004810186905230916001600160a01b031690636352211e9060240160206040518083038186803b15801561116c57600080fd5b505afa158015611180573d6000803e3d6000fd5b505050506040513d601f19601f820116820180604052508101906111a49190613d7c565b6001600160a01b0316146112205760405162461bcd60e51b815260206004820152602a60248201527f4d4454503a20746f6b656e206e6f7420796574206f776e65642062792074686960448201527f7320636f6e7472616374000000000000000000000000000000000000000000006064820152608401610d22565b600f546001600160a01b03166112358561216c565b6001600160a01b0316146112b15760405162461bcd60e51b815260206004820152602f60248201527f4d4454503a2063616e6e6f742061636365707420746f6b656e206e6f7420736560448201527f7420666f72206d6967726174696f6e00000000000000000000000000000000006064820152608401610d22565b600f546112c8906001600160a01b03168686612cd4565b6113066112d7610100866146dd565b60116112e561010088614582565b602881106112f5576112f561471d565b015490600160ff919091161b191690565b601161131461010087614582565b602881106113245761132461471d565b018190555060016010600082825461133c9190614608565b925050819055506001600760008282546113569190614545565b90915550630a85bd0160e11b979650505050505050565b600061137a606480614596565b61ffff16905090565b8060ff168260ff16600a5461139891906145c0565b6113a291906145c0565b3410156113f15760405162461bcd60e51b815260206004820152601a60248201527f4d4454503a20696e73756666696369656e74207061796d656e740000000000006044820152606401610d22565b610e7433848484612eb9565b60005b8160ff168160ff1610156114805760005b8360ff168160ff16101561146d5760008160ff168360ff1660646114359190614596565b6114439061ffff1688614545565b61144d9190614545565b905061145a888883611c63565b5080611465816146bd565b915050611411565b5080611478816146bd565b915050611400565b505050505050565b6114923382612ed5565b6115045760405162461bcd60e51b815260206004820152603160248201527f4552433732313a207472616e736665722063616c6c6572206973206e6f74206f60448201527f776e6572206e6f7220617070726f7665640000000000000000000000000000006064820152608401610d22565b610e74838383612cd4565b6006546001600160a01b0361010090910416331461155d5760405162461bcd60e51b815260206004820181905260248201526000805160206147758339815191526044820152606401610d22565b610e74600e8383613b85565b600080601054118015610c225750610c22611586610100846146dd565b601161159461010086614582565b602881106115a4576115a461471d565b01549060ff161c60019081161490565b6009546000908190309060ff166115cc8560646145c0565b6115d69190614582565b915091505b9250929050565b60006115ed82611569565b1561166e57600f546040516331a9108f60e11b8152600481018490526001600160a01b0390911690636352211e9060240160206040518083038186803b15801561163657600080fd5b505afa15801561164a573d6000803e3d6000fd5b505050506040513d601f19601f82011682018060405250810190610c229190613d7c565b610c228261216c565b6000611682836122eb565b82106116d05760405162461bcd60e51b815260206004820152601f60248201527f4d4454503a206f776e657220696e646578206f7574206f6620626f756e6473006044820152606401610d22565b600060015b6116e0606480614596565b61ffff16811161173d576000818152600260205260409020546001600160a01b038681169116141561172b578382141561171d579150610c229050565b81611727816146a2565b9250505b80611735816146a2565b9150506116d5565b506000949350505050565b611753606480614596565b81565b60005b8160ff168160ff1610156114805760005b8360ff168160ff1610156117c65760008160ff168360ff16606461178e9190614596565b61179c9061ffff1688614545565b6117a69190614545565b90506117b3888883611488565b50806117be816146bd565b91505061176a565b50806117d1816146bd565b915050611759565b6006546001600160a01b036101009091041633146118275760405162461bcd60e51b815260206004820181905260248201526000805160206147758339815191526044820152606401610d22565b600f54600160a01b900460ff16156118a75760405162461bcd60e51b815260206004820152602560248201527f4d4454503a206d6967726174696f6e2068617320616c7265616479206861707060448201527f656e6564210000000000000000000000000000000000000000000000000000006064820152608401610d22565b60005b61ffff8116821115611ab057600083838361ffff168181106118ce576118ce61471d565b9050602002013590506000811180156118f557506118ed606480614596565b61ffff168111155b6119395760405162461bcd60e51b8152602060048201526015602482015274135115140e881a5b9d985b1a59081d1bdad95b9259605a1b6044820152606401610d22565b6000818152600260205260409020546001600160a01b0316156119c45760405162461bcd60e51b815260206004820152602360248201527f4d4454503a2063616e6e6f74206d69677261746520616e206f776e656420746f60448201527f6b656e00000000000000000000000000000000000000000000000000000000006064820152608401610d22565b6119cd81611569565b15611a405760405162461bcd60e51b815260206004820152602560248201527f4d4454503a20746f6b656e20616c72656164792073657420666f72206d69677260448201527f6174696f6e0000000000000000000000000000000000000000000000000000006064820152608401610d22565b611a7d611a4f610100836146dd565b6011611a5d61010085614582565b60288110611a6d57611a6d61471d565b015490600160ff919091161b1790565b6011611a8b61010084614582565b60288110611a9b57611a9b61471d565b01555080611aa881614680565b9150506118aa565b50600f546001600160a01b031660009081526003602052604081208054839290611adb908490614545565b909155505060108054829190600090611af5908490614545565b90915550505050565b6006546001600160a01b03610100909104163314611b4c5760405162461bcd60e51b815260206004820181905260248201526000805160206147758339815191526044820152606401610d22565b476000611b676006546001600160a01b036101009091041690565b6001600160a01b03168260405160006040518083038185875af1925050503d8060008114611bb1576040519150601f19603f3d011682016040523d82523d6000602084013e611bb6565b606091505b5050905080611c075760405162461bcd60e51b815260206004820152601060248201527f5472616e73666572206661696c65642e000000000000000000000000000000006044820152606401610d22565b5050565b6006546001600160a01b03610100909104163314611c595760405162461bcd60e51b815260206004820181905260248201526000805160206147758339815191526044820152606401610d22565b611c61612fbb565b565b610e748383836040518060200160405280600081525061260a565b8060ff168260ff16600a54611c9391906145c0565b611c9d91906145c0565b341015611cec5760405162461bcd60e51b815260206004820152601a60248201527f4d4454503a20696e73756666696369656e74207061796d656e740000000000006044820152606401610d22565b611cf884848484612eb9565b50505050565b6006546001600160a01b03610100909104163314611d4c5760405162461bcd60e51b815260206004820181905260248201526000805160206147758339815191526044820152606401610d22565b600f80547fffffffffffffffffffffff00ffffffffffffffffffffffffffffffffffffffff16600160a01b179055565b6000611d89606480614596565b61ffff168210611ddb5760405162461bcd60e51b815260206004820152601360248201527f4d4454503a20696e76616c696420696e646578000000000000000000000000006044820152606401610d22565b610c22826001614545565b600d8054611df39061464b565b80601f0160208091040260200160405190810160405280929190818152602001828054611e1f9061464b565b8015611e6c5780601f10611e4157610100808354040283529160200191611e6c565b820191906000526020600020905b815481529060010190602001808311611e4f57829003601f168201915b505050505081565b83838360005b8160ff168160ff161015611f755760005b8360ff168160ff161015611f625760008160ff168360ff166064611eaf9190614596565b611ebd9061ffff1688614545565b611ec79190614545565b905033611ed38261216c565b6001600160a01b031614611f4f5760405162461bcd60e51b815260206004820152603960248201527f4d4454503a2063616c6c6572206973206e6f742074686520746f6b656e4f776e60448201527f6572206f6620616c6c20746f6b656e7320696e2067726f7570000000000000006064820152608401610d22565b5080611f5a816146bd565b915050611e8b565b5080611f6d816146bd565b915050611e7a565b5086868660008260ff1611611fcc5760405162461bcd60e51b815260206004820152601760248201527f4d4454503a207769647468206d757374206265203e20300000000000000000006044820152606401610d22565b60008160ff161161201f5760405162461bcd60e51b815260206004820152601860248201527f4d4454503a20686569676874206d757374206265203e203000000000000000006044820152606401610d22565b865161202b898b6145df565b60ff16146120a15760405162461bcd60e51b815260206004820152602560248201527f4d4454503a206c656e677468206f6620636f6e74656e745552497320696e636f60448201527f72726563740000000000000000000000000000000000000000000000000000006064820152608401610d22565b60005b8860ff168160ff16101561215f5760005b8a60ff168160ff16101561214c576000816120d0848e6145df565b6120da919061455d565b60ff16905060008260ff168460ff1660646120f59190614596565b61ffff168f6121049190614545565b61210e9190614545565b9050612137818c8461ffff168151811061212a5761212a61471d565b6020026020010151613057565b50508080612144906146bd565b9150506120b5565b5080612157816146bd565b9150506120a4565b5050505050505050505050565b600061217782611569565b1561218d575050600f546001600160a01b031690565b6000828152600260205260409020546001600160a01b031680610c225760405162461bcd60e51b815260206004820152602960248201527f4552433732313a206f776e657220717565727920666f72206e6f6e657869737460448201527f656e7420746f6b656e00000000000000000000000000000000000000000000006064820152608401610d22565b600a5434101561226a5760405162461bcd60e51b815260206004820152601a60248201527f4d4454503a20696e73756666696369656e74207061796d656e740000000000006044820152606401610d22565b611c078282600180612eb9565b6006546001600160a01b036101009091041633146122c55760405162461bcd60e51b815260206004820181905260248201526000805160206147758339815191526044820152606401610d22565b6009805461ffff909216650100000000000266ffff000000000019909216919091179055565b60006001600160a01b0382166123695760405162461bcd60e51b815260206004820152602a60248201527f4552433732313a2062616c616e636520717565727920666f7220746865207a6560448201527f726f2061646472657373000000000000000000000000000000000000000000006064820152608401610d22565b506001600160a01b031660009081526003602052604090205490565b6006546001600160a01b036101009091041633146123d35760405162461bcd60e51b815260206004820181905260248201526000805160206147758339815191526044820152606401610d22565b611c6160006130ec565b6006546001600160a01b0361010090910416331461242b5760405162461bcd60e51b815260206004820181905260248201526000805160206147758339815191526044820152606401610d22565b611c6161315d565b813361243e8261216c565b6001600160a01b0316146124945760405162461bcd60e51b815260206004820152601f60248201527f4d4454503a2063616c6c6572206973206e6f7420746f6b656e206f776e6572006044820152606401610d22565b610e748383613057565b606060018054610c379061464b565b6006546001600160a01b036101009091041633146124fb5760405162461bcd60e51b815260206004820181905260248201526000805160206147758339815191526044820152606401610d22565b6009805460ff191660ff92909216919091179055565b600c8054611df39061464b565b6006546001600160a01b0361010090910416331461256c5760405162461bcd60e51b815260206004820181905260248201526000805160206147758339815191526044820152606401610d22565b6009805461ffff9092166101000262ffff0019909216919091179055565b611c073383836131d8565b600e8054611df39061464b565b6006546001600160a01b036101009091041633146125f05760405162461bcd60e51b815260206004820181905260248201526000805160206147758339815191526044820152606401610d22565b600b80549115156101000261ff0019909216919091179055565b6126143383612ed5565b6126865760405162461bcd60e51b815260206004820152603160248201527f4552433732313a207472616e736665722063616c6c6572206973206e6f74206f60448201527f776e6572206e6f7220617070726f7665640000000000000000000000000000006064820152608401610d22565b611cf8848484846132a7565b600a543410156126e45760405162461bcd60e51b815260206004820152601a60248201527f4d4454503a20696e73756666696369656e74207061796d656e740000000000006044820152606401610d22565b6126f13382600180612eb9565b50565b606081600081118015612715575061270d606480614596565b61ffff168111155b6127595760405162461bcd60e51b8152602060048201526015602482015274135115140e881a5b9d985b1a59081d1bdad95b9259605a1b6044820152606401610d22565b600c61276484612b9a565b6040516020016127759291906143d3565b604051602081830303815290604052915050919050565b600060105460075461279e9190614545565b905090565b6006546001600160a01b036101009091041633146127f15760405162461bcd60e51b815260206004820181905260248201526000805160206147758339815191526044820152606401610d22565b600b805460ff1916911515919091179055565b6006546001600160a01b036101009091041633146128525760405162461bcd60e51b815260206004820181905260248201526000805160206147758339815191526044820152606401610d22565b6009805461ffff90921663010000000264ffff00000019909216919091179055565b6006546001600160a01b036101009091041633146128c25760405162461bcd60e51b815260206004820181905260248201526000805160206147758339815191526044820152606401610d22565b610e74600d8383613b85565b6006546001600160a01b0361010090910416331461291c5760405162461bcd60e51b815260206004820181905260248201526000805160206147758339815191526044820152606401610d22565b6001600160a01b0381166129985760405162461bcd60e51b815260206004820152602660248201527f4f776e61626c653a206e6577206f776e657220697320746865207a65726f206160448201527f64647265737300000000000000000000000000000000000000000000000000006064820152608401610d22565b6126f1816130ec565b6006546001600160a01b036101009091041633146129ef5760405162461bcd60e51b815260206004820181905260248201526000805160206147758339815191526044820152606401610d22565b600a55565b6006546001600160a01b03610100909104163314612a425760405162461bcd60e51b815260206004820181905260248201526000805160206147758339815191526044820152606401610d22565b610e74600c8383613b85565b60006001600160e01b031982167f80ac58cd000000000000000000000000000000000000000000000000000000001480612ab157506001600160e01b031982167f5b5e139f00000000000000000000000000000000000000000000000000000000145b80610c2257507f01ffc9a7000000000000000000000000000000000000000000000000000000006001600160e01b0319831614610c22565b6000612af482611569565b15612b0157506001919050565b506000908152600260205260409020546001600160a01b0316151590565b6000818152600460205260409020805473ffffffffffffffffffffffffffffffffffffffff19166001600160a01b0384169081179091558190612b618261216c565b6001600160a01b03167f8c5be1e5ebec7d5bd14f71427d1e84f3dd0314c0f7b2291e5b200ac8c7c3b92560405160405180910390a45050565b606081612bda57505060408051808201909152600181527f3000000000000000000000000000000000000000000000000000000000000000602082015290565b8160005b8115612c045780612bee816146a2565b9150612bfd9050600a83614582565b9150612bde565b60008167ffffffffffffffff811115612c1f57612c1f614733565b6040519080825280601f01601f191660200182016040528015612c49576020820181803683370190505b5090505b8415612ccc57612c5e600183614608565b9150612c6b600a866146dd565b612c76906030614545565b60f81b818381518110612c8b57612c8b61471d565b60200101907effffffffffffffffffffffffffffffffffffffffffffffffffffffffffffff1916908160001a905350612cc5600a86614582565b9450612c4d565b949350505050565b826001600160a01b0316612ce78261216c565b6001600160a01b031614612d635760405162461bcd60e51b815260206004820152602960248201527f4552433732313a207472616e73666572206f6620746f6b656e2074686174206960448201527f73206e6f74206f776e00000000000000000000000000000000000000000000006064820152608401610d22565b6001600160a01b038216612dde5760405162461bcd60e51b8152602060048201526024808201527f4552433732313a207472616e7366657220746f20746865207a65726f2061646460448201527f72657373000000000000000000000000000000000000000000000000000000006064820152608401610d22565b612de9838383613325565b612df4600082612b1f565b6001600160a01b0383166000908152600360205260408120805460019290612e1d908490614608565b90915550506001600160a01b0382166000908152600360205260408120805460019290612e4b908490614545565b9091555050600081815260026020526040808220805473ffffffffffffffffffffffffffffffffffffffff19166001600160a01b0386811691821790925591518493918716917fddf252ad1be2c89b69c2b068fc378daa952ba7f163c4a11628f55a4df523b3ef91a4505050565b611cf88484848460405180602001604052806000815250613333565b6000612ee082612ae9565b612f415760405162461bcd60e51b815260206004820152602c60248201527f4552433732313a206f70657261746f7220717565727920666f72206e6f6e657860448201526b34b9ba32b73a103a37b5b2b760a11b6064820152608401610d22565b6000612f4c8361216c565b9050806001600160a01b0316846001600160a01b03161480612f875750836001600160a01b0316612f7c84610cba565b6001600160a01b0316145b80612ccc57506001600160a01b0380821660009081526005602090815260408083209388168352929052205460ff16612ccc565b60065460ff1661300d5760405162461bcd60e51b815260206004820152601460248201527f5061757361626c653a206e6f74207061757365640000000000000000000000006044820152606401610d22565b6006805460ff191690557f5db9ee0a495bf2e6ff9c91a7834c1ba4fdd244a5e8aa4e537bd38aeae4b073aa335b6040516001600160a01b03909116815260200160405180910390a1565b60065460ff161561309d5760405162461bcd60e51b815260206004820152601060248201526f14185d5cd8589b194e881c185d5cd95960821b6044820152606401610d22565b600082815260086020908152604090912082516130bc92840190613c09565b5060405182907fd26ab77304eac64a04df2018c66716ad9c938c7b11429b56a46c017768172d1b90600090a25050565b600680546001600160a01b038381166101008181027fffffffffffffffffffffff0000000000000000000000000000000000000000ff85161790945560405193909204169182907f8be0079c531659141344cd1fd0a4f28419497f9722a3daafe3b4186f6b6457e090600090a35050565b60065460ff16156131a35760405162461bcd60e51b815260206004820152601060248201526f14185d5cd8589b194e881c185d5cd95960821b6044820152606401610d22565b6006805460ff191660011790557f62e78cea01bee320cd4e420270b5ea74000d11b0c9f74754ebdbfc544b05a25861303a3390565b816001600160a01b0316836001600160a01b0316141561323a5760405162461bcd60e51b815260206004820152601960248201527f4552433732313a20617070726f766520746f2063616c6c6572000000000000006044820152606401610d22565b6001600160a01b03838116600081815260056020908152604080832094871680845294825291829020805460ff191686151590811790915591519182527f17307eab39ab6107e8899845ad3d59bd9653f200f220920489ca2b5937696c31910160405180910390a3505050565b6132b2848484612cd4565b6132be84848484613945565b611cf85760405162461bcd60e51b815260206004820152603260248201527f4552433732313a207472616e7366657220746f206e6f6e20455243373231526560448201527131b2b4bb32b91034b6b83632b6b2b73a32b960711b6064820152608401610d22565b610e74838383600180613a9d565b83838360008260ff16116133895760405162461bcd60e51b815260206004820152601760248201527f4d4454503a207769647468206d757374206265203e20300000000000000000006044820152606401610d22565b60008160ff16116133dc5760405162461bcd60e51b815260206004820152601860248201527f4d4454503a20686569676874206d757374206265203e203000000000000000006044820152606401610d22565b60006133e886886145df565b60ff169050600088116134355760405162461bcd60e51b8152602060048201526015602482015274135115140e881a5b9d985b1a59081d1bdad95b9259605a1b6044820152606401610d22565b613440606480614596565b61ffff168760ff168760ff1660646134589190614596565b6134669061ffff168b614545565b6134709190614545565b106134b55760405162461bcd60e51b8152602060048201526015602482015274135115140e881a5b9d985b1a59081d1bdad95b9259605a1b6044820152606401610d22565b600081116135055760405162461bcd60e51b815260206004820152601b60248201527f4d4454503a20696e73756666696369656e74207175616e7469747900000000006044820152606401610d22565b6009546301000000900461ffff168111156135625760405162461bcd60e51b815260206004820152601a60248201527f4d4454503a206f7665722073696e676c654d696e744c696d69740000000000006044820152606401610d22565b600b5460ff166135b45760405162461bcd60e51b815260206004820152601560248201527f4d4454503a2073616c65206e6f742061637469766500000000000000000000006044820152606401610d22565b600954610100900461ffff16816135c961278c565b6135d39190614545565b11156136215760405162461bcd60e51b815260206004820152601c60248201527f4d4454503a207265616368656420746f74616c4d696e744c696d6974000000006044820152606401610d22565b60095465010000000000900461ffff168161363b8b6122eb565b6136459190614545565b11156136935760405162461bcd60e51b815260206004820152601b60248201527f4d4454503a207265616368656420757365724d696e744c696d697400000000006044820152606401610d22565b6001600160a01b0389166136e95760405162461bcd60e51b815260206004820152601e60248201527f4d4454503a206d696e7420746f20746865207a65726f206164647265737300006044820152606401610d22565b6136f760008a8a8a8a613a9d565b60005b8660ff168160ff16101561390c5760005b8860ff168160ff1610156138f95760008160ff168360ff16606461372f9190614596565b61373d9061ffff168d614545565b6137479190614545565b905061375281612ae9565b1561379f5760405162461bcd60e51b815260206004820152601a60248201527f4d4454503a20746f6b656e20616c7265616479206d696e7465640000000000006044820152606401610d22565b600b54610100900460ff16806137bb57506137b981613b35565b155b6138075760405162461bcd60e51b815260206004820152601f60248201527f4d4454503a206d696e74696e672063656e746572206e6f7420616374697665006044820152606401610d22565b6000818152600260205260408120805473ffffffffffffffffffffffffffffffffffffffff19166001600160a01b038f16179055613847908d838b613945565b6138ae5760405162461bcd60e51b815260206004820152603260248201527f4552433732313a207472616e7366657220746f206e6f6e20455243373231526560448201527131b2b4bb32b91034b6b83632b6b2b73a32b960711b6064820152608401610d22565b60405181906001600160a01b038e16906000907fddf252ad1be2c89b69c2b068fc378daa952ba7f163c4a11628f55a4df523b3ef908290a450806138f1816146bd565b91505061370b565b5080613904816146bd565b9150506136fa565b506001600160a01b03891660009081526003602052604081208054839290613935908490614545565b9091555050505050505050505050565b60006001600160a01b0384163b15613a9257604051630a85bd0160e11b81526001600160a01b0385169063150b7a029061398990339089908890889060040161449d565b602060405180830381600087803b1580156139a357600080fd5b505af19250505080156139d3575060408051601f3d908101601f191682019092526139d0918101906140c5565b60015b613a78573d808015613a01576040519150601f19603f3d011682016040523d82523d6000602084013e613a06565b606091505b508051613a705760405162461bcd60e51b815260206004820152603260248201527f4552433732313a207472616e7366657220746f206e6f6e20455243373231526560448201527131b2b4bb32b91034b6b83632b6b2b73a32b960711b6064820152608401610d22565b805181602001fd5b6001600160e01b031916630a85bd0160e11b149050612ccc565b506001949350505050565b60065460ff1615613ae35760405162461bcd60e51b815260206004820152601060248201526f14185d5cd8589b194e881c185d5cd95960821b6044820152606401610d22565b836001600160a01b0316856001600160a01b031614613b2e576001600160a01b038516613b2e57613b1481836145df565b60ff1660076000828254613b289190614545565b90915550505b5050505050565b600080613b436064846146dd565b90506000613b52606485614582565b905060268210158015613b665750603e8211155b8015613b73575060288110155b8015612ccc5750603b10159392505050565b828054613b919061464b565b90600052602060002090601f016020900481019282613bb35760008555613bf9565b82601f10613bcc5782800160ff19823516178555613bf9565b82800160010185558215613bf9579182015b82811115613bf9578235825591602001919060010190613bde565b50613c05929150613c7d565b5090565b828054613c159061464b565b90600052602060002090601f016020900481019282613c375760008555613bf9565b82601f10613c5057805160ff1916838001178555613bf9565b82800160010185558215613bf9579182015b82811115613bf9578251825591602001919060010190613c62565b5b80821115613c055760008155600101613c7e565b6000613ca5613ca08461451d565b6144ec565b9050828152838383011115613cb957600080fd5b828260208301376000602084830101529392505050565b80358015158114613ce057600080fd5b919050565b60008083601f840112613cf757600080fd5b50813567ffffffffffffffff811115613d0f57600080fd5b6020830191508360208285010111156115db57600080fd5b600082601f830112613d3857600080fd5b613d4783833560208501613c92565b9392505050565b803560ff81168114613ce057600080fd5b600060208284031215613d7157600080fd5b8135613d4781614749565b600060208284031215613d8e57600080fd5b8151613d4781614749565b60008060408385031215613dac57600080fd5b8235613db781614749565b91506020830135613dc781614749565b809150509250929050565b600080600060608486031215613de757600080fd5b8335613df281614749565b92506020840135613e0281614749565b929592945050506040919091013590565b600080600080600060808688031215613e2b57600080fd5b8535613e3681614749565b94506020860135613e4681614749565b935060408601359250606086013567ffffffffffffffff811115613e6957600080fd5b613e7588828901613ce5565b969995985093965092949392505050565b60008060008060808587031215613e9c57600080fd5b8435613ea781614749565b93506020850135613eb781614749565b925060408501359150606085013567ffffffffffffffff811115613eda57600080fd5b8501601f81018713613eeb57600080fd5b613efa87823560208401613c92565b91505092959194509250565b600080600080600060a08688031215613f1e57600080fd5b8535613f2981614749565b94506020860135613f3981614749565b935060408601359250613f4e60608701613d4e565b9150613f5c60808701613d4e565b90509295509295909350565b60008060408385031215613f7b57600080fd5b8235613f8681614749565b9150613f9460208401613cd0565b90509250929050565b60008060408385031215613fb057600080fd5b8235613fbb81614749565b946020939093013593505050565b60008060008060808587031215613fdf57600080fd5b8435613fea81614749565b935060208501359250613fff60408601613d4e565b915061400d60608601613d4e565b905092959194509250565b6000806020838503121561402b57600080fd5b823567ffffffffffffffff8082111561404357600080fd5b818501915085601f83011261405757600080fd5b81358181111561406657600080fd5b8660208260051b850101111561407b57600080fd5b60209290920196919550909350505050565b60006020828403121561409f57600080fd5b613d4782613cd0565b6000602082840312156140ba57600080fd5b8135613d478161475e565b6000602082840312156140d757600080fd5b8151613d478161475e565b600080602083850312156140f557600080fd5b823567ffffffffffffffff81111561410c57600080fd5b61411885828601613ce5565b90969095509350505050565b60006020828403121561413657600080fd5b815167ffffffffffffffff81111561414d57600080fd5b8201601f8101841361415e57600080fd5b805161416c613ca08261451d565b81815285602083850101111561418157600080fd5b61419282602083016020860161461f565b95945050505050565b6000602082840312156141ad57600080fd5b813561ffff81168114613d4757600080fd5b6000602082840312156141d157600080fd5b5035919050565b600080604083850312156141eb57600080fd5b82359150602083013567ffffffffffffffff81111561420957600080fd5b61421585828601613d27565b9150509250929050565b6000806040838503121561423257600080fd5b50508035926020909101359150565b60008060006060848603121561425657600080fd5b8335925061426660208501613d4e565b915061427460408501613d4e565b90509250925092565b6000806000806080858703121561429357600080fd5b8435935060206142a4818701613d4e565b93506142b260408701613d4e565b9250606086013567ffffffffffffffff808211156142cf57600080fd5b818801915088601f8301126142e357600080fd5b8135818111156142f5576142f5614733565b8060051b6143048582016144ec565b8281528581019085870183870188018e101561431f57600080fd5b600093505b8484101561435e5780358681111561433b57600080fd5b6143498f8a838b0101613d27565b84525060019390930192918701918701614324565b50999c989b5096995050505050505050565b60006020828403121561438257600080fd5b613d4782613d4e565b600081518084526143a381602086016020860161461f565b601f01601f19169290920160200192915050565b600081516143c981856020860161461f565b9290920192915050565b600080845481600182811c9150808316806143ef57607f831692505b602080841082141561440f57634e487b7160e01b86526022600452602486fd5b818015614423576001811461443457614461565b60ff19861689528489019650614461565b60008b81526020902060005b868110156144595781548b820152908501908301614440565b505084890196505b50505050505061419261447482866143b7565b7f2e6a736f6e000000000000000000000000000000000000000000000000000000815260050190565b60006001600160a01b038087168352808616602084015250836040830152608060608301526144cf608083018461438b565b9695505050505050565b602081526000613d47602083018461438b565b604051601f8201601f1916810167ffffffffffffffff8111828210171561451557614515614733565b604052919050565b600067ffffffffffffffff82111561453757614537614733565b50601f01601f191660200190565b60008219821115614558576145586146f1565b500190565b600060ff821660ff84168060ff0382111561457a5761457a6146f1565b019392505050565b60008261459157614591614707565b500490565b600061ffff808316818516818304811182151516156145b7576145b76146f1565b02949350505050565b60008160001904831182151516156145da576145da6146f1565b500290565b600060ff821660ff84168160ff0481118215151615614600576146006146f1565b029392505050565b60008282101561461a5761461a6146f1565b500390565b60005b8381101561463a578181015183820152602001614622565b83811115611cf85750506000910152565b600181811c9082168061465f57607f821691505b6020821081141561109657634e487b7160e01b600052602260045260246000fd5b600061ffff80831681811415614698576146986146f1565b6001019392505050565b60006000198214156146b6576146b66146f1565b5060010190565b600060ff821660ff8114156146d4576146d46146f1565b60010192915050565b6000826146ec576146ec614707565b500690565b634e487b7160e01b600052601160045260246000fd5b634e487b7160e01b600052601260045260246000fd5b634e487b7160e01b600052603260045260246000fd5b634e487b7160e01b600052604160045260246000fd5b6001600160a01b03811681146126f157600080fd5b6001600160e01b0319811681146126f157600080fdfe4f776e61626c653a2063616c6c6572206973206e6f7420746865206f776e6572a26469706673582212205b3aedcba984dae170ed7782dbc80f6282d90dad4d28e6b0a26409cc1e6d33fb64736f6c63430008070033",
  "linkReferences": {},
  "deployedLinkReferences": {}
}