{
  "_format": "hh-sol-artifact-1",
  "contractName": "MillionDollarTokenPageV2",
  "sourceName": "contracts/MillionDollarTokenPage-v2.sol",
  "abi": [
    {
      "inputs": [
        {
          "internalType": "uint16",
          "name": "_totalMintLimit",
          "type": "uint16"
        },
        {
          "internalType": "uint16",
          "name": "_singleMintLimit",
          "type": "uint16"
        },
        {
          "internalType": "uint16",
          "name": "_ownershipMintLimit",
          "type": "uint16"
        },
        {
          "internalType": "uint256",
          "name": "_mintPrice",
          "type": "uint256"
        },
        {
          "internalType": "string",
          "name": "_metadataBaseURI",
          "type": "string"
        },
        {
          "internalType": "string",
          "name": "_defaultContentBaseURI",
          "type": "string"
        },
        {
          "internalType": "string",
          "name": "_collectionURI",
          "type": "string"
        },
        {
          "internalType": "uint16",
          "name": "_royaltyBasisPoints",
          "type": "uint16"
        },
        {
          "internalType": "address",
          "name": "_original",
          "type": "address"
        }
      ],
      "stateMutability": "nonpayable",
      "type": "constructor"
    },
    {
      "anonymous": false,
      "inputs": [
        {
          "indexed": true,
          "internalType": "address",
          "name": "owner",
          "type": "address"
        },
        {
          "indexed": true,
          "internalType": "address",
          "name": "approved",
          "type": "address"
        },
        {
          "indexed": true,
          "internalType": "uint256",
          "name": "tokenId",
          "type": "uint256"
        }
      ],
      "name": "Approval",
      "type": "event"
    },
    {
      "anonymous": false,
      "inputs": [
        {
          "indexed": true,
          "internalType": "address",
          "name": "owner",
          "type": "address"
        },
        {
          "indexed": true,
          "internalType": "address",
          "name": "operator",
          "type": "address"
        },
        {
          "indexed": false,
          "internalType": "bool",
          "name": "approved",
          "type": "bool"
        }
      ],
      "name": "ApprovalForAll",
      "type": "event"
    },
    {
      "anonymous": false,
      "inputs": [
        {
          "indexed": true,
          "internalType": "address",
          "name": "previousOwner",
          "type": "address"
        },
        {
          "indexed": true,
          "internalType": "address",
          "name": "newOwner",
          "type": "address"
        }
      ],
      "name": "OwnershipTransferred",
      "type": "event"
    },
    {
      "anonymous": false,
      "inputs": [
        {
          "indexed": false,
          "internalType": "address",
          "name": "account",
          "type": "address"
        }
      ],
      "name": "Paused",
      "type": "event"
    },
    {
      "anonymous": false,
      "inputs": [
        {
          "indexed": true,
          "internalType": "uint256",
          "name": "tokenId",
          "type": "uint256"
        }
      ],
      "name": "TokenContentURIChanged",
      "type": "event"
    },
    {
      "anonymous": false,
      "inputs": [
        {
          "indexed": true,
          "internalType": "uint256",
          "name": "tokenId",
          "type": "uint256"
        }
      ],
      "name": "TokenMigrated",
      "type": "event"
    },
    {
      "anonymous": false,
      "inputs": [
        {
          "indexed": true,
          "internalType": "address",
          "name": "from",
          "type": "address"
        },
        {
          "indexed": true,
          "internalType": "address",
          "name": "to",
          "type": "address"
        },
        {
          "indexed": true,
          "internalType": "uint256",
          "name": "tokenId",
          "type": "uint256"
        }
      ],
      "name": "Transfer",
      "type": "event"
    },
    {
      "anonymous": false,
      "inputs": [
        {
          "indexed": false,
          "internalType": "address",
          "name": "account",
          "type": "address"
        }
      ],
      "name": "Unpaused",
      "type": "event"
    },
    {
      "inputs": [],
      "name": "COLUMN_COUNT",
      "outputs": [
        {
          "internalType": "uint16",
          "name": "",
          "type": "uint16"
        }
      ],
      "stateMutability": "view",
      "type": "function"
    },
    {
      "inputs": [],
      "name": "ROW_COUNT",
      "outputs": [
        {
          "internalType": "uint16",
          "name": "",
          "type": "uint16"
        }
      ],
      "stateMutability": "view",
      "type": "function"
    },
    {
      "inputs": [],
      "name": "SUPPLY_LIMIT",
      "outputs": [
        {
          "internalType": "uint16",
          "name": "",
          "type": "uint16"
        }
      ],
      "stateMutability": "view",
      "type": "function"
    },
    {
      "inputs": [
        {
          "internalType": "uint256[]",
          "name": "_tokenIdsToMigrate",
          "type": "uint256[]"
        }
      ],
      "name": "addTokensToMigrate",
      "outputs": [],
      "stateMutability": "nonpayable",
      "type": "function"
    },
    {
      "inputs": [
        {
          "internalType": "address",
          "name": "to",
          "type": "address"
        },
        {
          "internalType": "uint256",
          "name": "tokenId",
          "type": "uint256"
        }
      ],
      "name": "approve",
      "outputs": [],
      "stateMutability": "nonpayable",
      "type": "function"
    },
    {
      "inputs": [
        {
          "internalType": "address",
          "name": "owner",
          "type": "address"
        }
      ],
      "name": "balanceOf",
      "outputs": [
        {
          "internalType": "uint256",
          "name": "",
          "type": "uint256"
        }
      ],
      "stateMutability": "view",
      "type": "function"
    },
    {
      "inputs": [],
      "name": "canAddTokenIdsToMigrate",
      "outputs": [
        {
          "internalType": "bool",
          "name": "",
          "type": "bool"
        }
      ],
      "stateMutability": "view",
      "type": "function"
    },
    {
      "inputs": [],
      "name": "collectionURI",
      "outputs": [
        {
          "internalType": "string",
          "name": "",
          "type": "string"
        }
      ],
      "stateMutability": "view",
      "type": "function"
    },
    {
      "inputs": [],
      "name": "completeMigration",
      "outputs": [],
      "stateMutability": "nonpayable",
      "type": "function"
    },
    {
      "inputs": [],
      "name": "contractURI",
      "outputs": [
        {
          "internalType": "string",
          "name": "",
          "type": "string"
        }
      ],
      "stateMutability": "view",
      "type": "function"
    },
    {
      "inputs": [],
      "name": "defaultContentBaseURI",
      "outputs": [
        {
          "internalType": "string",
          "name": "",
          "type": "string"
        }
      ],
      "stateMutability": "view",
      "type": "function"
    },
    {
      "inputs": [
        {
          "internalType": "uint256",
          "name": "tokenId",
          "type": "uint256"
        }
      ],
      "name": "getApproved",
      "outputs": [
        {
          "internalType": "address",
          "name": "",
          "type": "address"
        }
      ],
      "stateMutability": "view",
      "type": "function"
    },
    {
      "inputs": [
        {
          "internalType": "address",
          "name": "owner",
          "type": "address"
        },
        {
          "internalType": "address",
          "name": "operator",
          "type": "address"
        }
      ],
      "name": "isApprovedForAll",
      "outputs": [
        {
          "internalType": "bool",
          "name": "",
          "type": "bool"
        }
      ],
      "stateMutability": "view",
      "type": "function"
    },
    {
      "inputs": [],
      "name": "isCenterSaleActive",
      "outputs": [
        {
          "internalType": "bool",
          "name": "",
          "type": "bool"
        }
      ],
      "stateMutability": "view",
      "type": "function"
    },
    {
      "inputs": [],
      "name": "isMetadataFinalized",
      "outputs": [
        {
          "internalType": "bool",
          "name": "",
          "type": "bool"
        }
      ],
      "stateMutability": "view",
      "type": "function"
    },
    {
      "inputs": [],
      "name": "isSaleActive",
      "outputs": [
        {
          "internalType": "bool",
          "name": "",
          "type": "bool"
        }
      ],
      "stateMutability": "view",
      "type": "function"
    },
    {
      "inputs": [
        {
          "internalType": "uint256",
          "name": "tokenId",
          "type": "uint256"
        }
      ],
      "name": "isTokenMigrated",
      "outputs": [
        {
          "internalType": "bool",
          "name": "",
          "type": "bool"
        }
      ],
      "stateMutability": "view",
      "type": "function"
    },
    {
      "inputs": [
        {
          "internalType": "uint256",
          "name": "tokenId",
          "type": "uint256"
        }
      ],
      "name": "isTokenSetForMigration",
      "outputs": [
        {
          "internalType": "bool",
          "name": "",
          "type": "bool"
        }
      ],
      "stateMutability": "view",
      "type": "function"
    },
    {
      "inputs": [],
      "name": "metadataBaseURI",
      "outputs": [
        {
          "internalType": "string",
          "name": "",
          "type": "string"
        }
      ],
      "stateMutability": "view",
      "type": "function"
    },
    {
      "inputs": [
        {
          "internalType": "uint256",
          "name": "tokenId",
          "type": "uint256"
        },
        {
          "internalType": "uint8",
          "name": "width",
          "type": "uint8"
        },
        {
          "internalType": "uint8",
          "name": "height",
          "type": "uint8"
        }
      ],
      "name": "migrateTokens",
      "outputs": [],
      "stateMutability": "nonpayable",
      "type": "function"
    },
    {
      "inputs": [],
      "name": "mintPrice",
      "outputs": [
        {
          "internalType": "uint256",
          "name": "",
          "type": "uint256"
        }
      ],
      "stateMutability": "view",
      "type": "function"
    },
    {
      "inputs": [
        {
          "internalType": "uint256",
          "name": "tokenId",
          "type": "uint256"
        }
      ],
      "name": "mintToken",
      "outputs": [],
      "stateMutability": "payable",
      "type": "function"
    },
    {
      "inputs": [
        {
          "internalType": "uint256",
          "name": "tokenId",
          "type": "uint256"
        },
        {
          "internalType": "uint8",
          "name": "width",
          "type": "uint8"
        },
        {
          "internalType": "uint8",
          "name": "height",
          "type": "uint8"
        }
      ],
      "name": "mintTokenGroup",
      "outputs": [],
      "stateMutability": "payable",
      "type": "function"
    },
    {
      "inputs": [
        {
          "internalType": "address",
          "name": "receiver",
          "type": "address"
        },
        {
          "internalType": "uint256",
          "name": "tokenId",
          "type": "uint256"
        },
        {
          "internalType": "uint8",
          "name": "width",
          "type": "uint8"
        },
        {
          "internalType": "uint8",
          "name": "height",
          "type": "uint8"
        }
      ],
      "name": "mintTokenGroupTo",
      "outputs": [],
      "stateMutability": "payable",
      "type": "function"
    },
    {
      "inputs": [
        {
          "internalType": "address",
          "name": "receiver",
          "type": "address"
        },
        {
          "internalType": "uint256",
          "name": "tokenId",
          "type": "uint256"
        }
      ],
      "name": "mintTokenTo",
      "outputs": [],
      "stateMutability": "payable",
      "type": "function"
    },
    {
      "inputs": [],
      "name": "mintedCount",
      "outputs": [
        {
          "internalType": "uint256",
          "name": "",
          "type": "uint256"
        }
      ],
      "stateMutability": "view",
      "type": "function"
    },
    {
      "inputs": [],
      "name": "name",
      "outputs": [
        {
          "internalType": "string",
          "name": "",
          "type": "string"
        }
      ],
      "stateMutability": "view",
      "type": "function"
    },
    {
      "inputs": [
        {
          "internalType": "address",
          "name": "",
          "type": "address"
        },
        {
          "internalType": "address",
          "name": "from",
          "type": "address"
        },
        {
          "internalType": "uint256",
          "name": "tokenId",
          "type": "uint256"
        },
        {
          "internalType": "bytes",
          "name": "",
          "type": "bytes"
        }
      ],
      "name": "onERC721Received",
      "outputs": [
        {
          "internalType": "bytes4",
          "name": "",
          "type": "bytes4"
        }
      ],
      "stateMutability": "nonpayable",
      "type": "function"
    },
    {
      "inputs": [],
      "name": "original",
      "outputs": [
        {
          "internalType": "contract MillionDollarTokenPageV1",
          "name": "",
          "type": "address"
        }
      ],
      "stateMutability": "view",
      "type": "function"
    },
    {
      "inputs": [],
      "name": "owner",
      "outputs": [
        {
          "internalType": "address",
          "name": "",
          "type": "address"
        }
      ],
      "stateMutability": "view",
      "type": "function"
    },
    {
      "inputs": [
        {
          "internalType": "address",
          "name": "receiver",
          "type": "address"
        },
        {
          "internalType": "uint256",
          "name": "tokenId",
          "type": "uint256"
        },
        {
          "internalType": "uint8",
          "name": "width",
          "type": "uint8"
        },
        {
          "internalType": "uint8",
          "name": "height",
          "type": "uint8"
        }
      ],
      "name": "ownerMintTokenGroupTo",
      "outputs": [],
      "stateMutability": "nonpayable",
      "type": "function"
    },
    {
      "inputs": [
        {
          "internalType": "uint256",
          "name": "tokenId",
          "type": "uint256"
        }
      ],
      "name": "ownerOf",
      "outputs": [
        {
          "internalType": "address",
          "name": "",
          "type": "address"
        }
      ],
      "stateMutability": "view",
      "type": "function"
    },
    {
      "inputs": [],
      "name": "ownershipMintLimit",
      "outputs": [
        {
          "internalType": "uint16",
          "name": "",
          "type": "uint16"
        }
      ],
      "stateMutability": "view",
      "type": "function"
    },
    {
      "inputs": [],
      "name": "pause",
      "outputs": [],
      "stateMutability": "nonpayable",
      "type": "function"
    },
    {
      "inputs": [],
      "name": "paused",
      "outputs": [
        {
          "internalType": "bool",
          "name": "",
          "type": "bool"
        }
      ],
      "stateMutability": "view",
      "type": "function"
    },
    {
      "inputs": [
        {
          "internalType": "uint256",
          "name": "tokenId",
          "type": "uint256"
        }
      ],
      "name": "proxiedOwnerOf",
      "outputs": [
        {
          "internalType": "address",
          "name": "",
          "type": "address"
        }
      ],
      "stateMutability": "view",
      "type": "function"
    },
    {
      "inputs": [],
      "name": "renounceOwnership",
      "outputs": [],
      "stateMutability": "nonpayable",
      "type": "function"
    },
    {
      "inputs": [],
      "name": "royaltyBasisPoints",
      "outputs": [
        {
          "internalType": "uint16",
          "name": "",
          "type": "uint16"
        }
      ],
      "stateMutability": "view",
      "type": "function"
    },
    {
      "inputs": [
        {
          "internalType": "uint256",
          "name": "",
          "type": "uint256"
        },
        {
          "internalType": "uint256",
          "name": "salePrice",
          "type": "uint256"
        }
      ],
      "name": "royaltyInfo",
      "outputs": [
        {
          "internalType": "address",
          "name": "",
          "type": "address"
        },
        {
          "internalType": "uint256",
          "name": "",
          "type": "uint256"
        }
      ],
      "stateMutability": "view",
      "type": "function"
    },
    {
      "inputs": [
        {
          "internalType": "address",
          "name": "from",
          "type": "address"
        },
        {
          "internalType": "address",
          "name": "to",
          "type": "address"
        },
        {
          "internalType": "uint256",
          "name": "tokenId",
          "type": "uint256"
        }
      ],
      "name": "safeTransferFrom",
      "outputs": [],
      "stateMutability": "nonpayable",
      "type": "function"
    },
    {
      "inputs": [
        {
          "internalType": "address",
          "name": "from",
          "type": "address"
        },
        {
          "internalType": "address",
          "name": "to",
          "type": "address"
        },
        {
          "internalType": "uint256",
          "name": "tokenId",
          "type": "uint256"
        },
        {
          "internalType": "bytes",
          "name": "_data",
          "type": "bytes"
        }
      ],
      "name": "safeTransferFrom",
      "outputs": [],
      "stateMutability": "nonpayable",
      "type": "function"
    },
    {
      "inputs": [
        {
          "internalType": "address",
          "name": "sender",
          "type": "address"
        },
        {
          "internalType": "address",
          "name": "receiver",
          "type": "address"
        },
        {
          "internalType": "uint256",
          "name": "tokenId",
          "type": "uint256"
        },
        {
          "internalType": "uint8",
          "name": "width",
          "type": "uint8"
        },
        {
          "internalType": "uint8",
          "name": "height",
          "type": "uint8"
        }
      ],
      "name": "safeTransferGroupFrom",
      "outputs": [],
      "stateMutability": "nonpayable",
      "type": "function"
    },
    {
      "inputs": [
        {
          "internalType": "address",
          "name": "operator",
          "type": "address"
        },
        {
          "internalType": "bool",
          "name": "approved",
          "type": "bool"
        }
      ],
      "name": "setApprovalForAll",
      "outputs": [],
      "stateMutability": "nonpayable",
      "type": "function"
    },
    {
      "inputs": [
        {
          "internalType": "string",
          "name": "newCollectionURI",
          "type": "string"
        }
      ],
      "name": "setCollectionURI",
      "outputs": [],
      "stateMutability": "nonpayable",
      "type": "function"
    },
    {
      "inputs": [
        {
          "internalType": "string",
          "name": "newDefaultContentBaseURI",
          "type": "string"
        }
      ],
      "name": "setDefaultContentBaseURI",
      "outputs": [],
      "stateMutability": "nonpayable",
      "type": "function"
    },
    {
      "inputs": [
        {
          "internalType": "bool",
          "name": "newIsCenterSaleActive",
          "type": "bool"
        }
      ],
      "name": "setIsCenterSaleActive",
      "outputs": [],
      "stateMutability": "nonpayable",
      "type": "function"
    },
    {
      "inputs": [
        {
          "internalType": "bool",
          "name": "newIsSaleActive",
          "type": "bool"
        }
      ],
      "name": "setIsSaleActive",
      "outputs": [],
      "stateMutability": "nonpayable",
      "type": "function"
    },
    {
      "inputs": [
        {
          "internalType": "string",
          "name": "newMetadataBaseURI",
          "type": "string"
        }
      ],
      "name": "setMetadataBaseURI",
      "outputs": [],
      "stateMutability": "nonpayable",
      "type": "function"
    },
    {
      "inputs": [],
      "name": "setMetadataFinalized",
      "outputs": [],
      "stateMutability": "nonpayable",
      "type": "function"
    },
    {
      "inputs": [
        {
          "internalType": "uint256",
          "name": "newMintPrice",
          "type": "uint256"
        }
      ],
      "name": "setMintPrice",
      "outputs": [],
      "stateMutability": "nonpayable",
      "type": "function"
    },
    {
      "inputs": [
        {
          "internalType": "uint16",
          "name": "newOwnershipMintLimit",
          "type": "uint16"
        }
      ],
      "name": "setOwnershipMintLimit",
      "outputs": [],
      "stateMutability": "nonpayable",
      "type": "function"
    },
    {
      "inputs": [
        {
          "internalType": "uint16",
          "name": "newRoyaltyBasisPoints",
          "type": "uint16"
        }
      ],
      "name": "setRoyaltyBasisPoints",
      "outputs": [],
      "stateMutability": "nonpayable",
      "type": "function"
    },
    {
      "inputs": [
        {
          "internalType": "uint16",
          "name": "newSingleMintLimit",
          "type": "uint16"
        }
      ],
      "name": "setSingleMintLimit",
      "outputs": [],
      "stateMutability": "nonpayable",
      "type": "function"
    },
    {
      "inputs": [
        {
          "internalType": "uint256",
          "name": "tokenId",
          "type": "uint256"
        },
        {
          "internalType": "string",
          "name": "contentURI",
          "type": "string"
        }
      ],
      "name": "setTokenContentURI",
      "outputs": [],
      "stateMutability": "nonpayable",
      "type": "function"
    },
    {
      "inputs": [
        {
          "internalType": "uint256",
          "name": "tokenId",
          "type": "uint256"
        },
        {
          "internalType": "uint8",
          "name": "width",
          "type": "uint8"
        },
        {
          "internalType": "uint8",
          "name": "height",
          "type": "uint8"
        },
        {
          "internalType": "string[]",
          "name": "contentURIs",
          "type": "string[]"
        }
      ],
      "name": "setTokenGroupContentURIs",
      "outputs": [],
      "stateMutability": "nonpayable",
      "type": "function"
    },
    {
      "inputs": [
        {
          "internalType": "uint16",
          "name": "newTotalMintLimit",
          "type": "uint16"
        }
      ],
      "name": "setTotalMintLimit",
      "outputs": [],
      "stateMutability": "nonpayable",
      "type": "function"
    },
    {
      "inputs": [],
      "name": "singleMintLimit",
      "outputs": [
        {
          "internalType": "uint16",
          "name": "",
          "type": "uint16"
        }
      ],
      "stateMutability": "view",
      "type": "function"
    },
    {
      "inputs": [
        {
          "internalType": "bytes4",
          "name": "interfaceId",
          "type": "bytes4"
        }
      ],
      "name": "supportsInterface",
      "outputs": [
        {
          "internalType": "bool",
          "name": "",
          "type": "bool"
        }
      ],
      "stateMutability": "view",
      "type": "function"
    },
    {
      "inputs": [],
      "name": "symbol",
      "outputs": [
        {
          "internalType": "string",
          "name": "",
          "type": "string"
        }
      ],
      "stateMutability": "view",
      "type": "function"
    },
    {
      "inputs": [
        {
          "internalType": "uint256",
          "name": "index",
          "type": "uint256"
        }
      ],
      "name": "tokenByIndex",
      "outputs": [
        {
          "internalType": "uint256",
          "name": "",
          "type": "uint256"
        }
      ],
      "stateMutability": "pure",
      "type": "function"
    },
    {
      "inputs": [
        {
          "internalType": "uint256",
          "name": "tokenId",
          "type": "uint256"
        }
      ],
      "name": "tokenContentURI",
      "outputs": [
        {
          "internalType": "string",
          "name": "",
          "type": "string"
        }
      ],
      "stateMutability": "view",
      "type": "function"
    },
    {
      "inputs": [
        {
          "internalType": "address",
          "name": "owner",
          "type": "address"
        },
        {
          "internalType": "uint256",
          "name": "index",
          "type": "uint256"
        }
      ],
      "name": "tokenOfOwnerByIndex",
      "outputs": [
        {
          "internalType": "uint256",
          "name": "",
          "type": "uint256"
        }
      ],
      "stateMutability": "view",
      "type": "function"
    },
    {
      "inputs": [
        {
          "internalType": "uint256",
          "name": "tokenId",
          "type": "uint256"
        }
      ],
      "name": "tokenURI",
      "outputs": [
        {
          "internalType": "string",
          "name": "",
          "type": "string"
        }
      ],
      "stateMutability": "view",
      "type": "function"
    },
    {
      "inputs": [],
      "name": "totalMintLimit",
      "outputs": [
        {
          "internalType": "uint16",
          "name": "",
          "type": "uint16"
        }
      ],
      "stateMutability": "view",
      "type": "function"
    },
    {
      "inputs": [],
      "name": "totalSupply",
      "outputs": [
        {
          "internalType": "uint256",
          "name": "",
          "type": "uint256"
        }
      ],
      "stateMutability": "pure",
      "type": "function"
    },
    {
      "inputs": [
        {
          "internalType": "address",
          "name": "from",
          "type": "address"
        },
        {
          "internalType": "address",
          "name": "to",
          "type": "address"
        },
        {
          "internalType": "uint256",
          "name": "tokenId",
          "type": "uint256"
        }
      ],
      "name": "transferFrom",
      "outputs": [],
      "stateMutability": "nonpayable",
      "type": "function"
    },
    {
      "inputs": [
        {
          "internalType": "address",
          "name": "sender",
          "type": "address"
        },
        {
          "internalType": "address",
          "name": "receiver",
          "type": "address"
        },
        {
          "internalType": "uint256",
          "name": "tokenId",
          "type": "uint256"
        },
        {
          "internalType": "uint8",
          "name": "width",
          "type": "uint8"
        },
        {
          "internalType": "uint8",
          "name": "height",
          "type": "uint8"
        }
      ],
      "name": "transferGroupFrom",
      "outputs": [],
      "stateMutability": "nonpayable",
      "type": "function"
    },
    {
      "inputs": [
        {
          "internalType": "address",
          "name": "newOwner",
          "type": "address"
        }
      ],
      "name": "transferOwnership",
      "outputs": [],
      "stateMutability": "nonpayable",
      "type": "function"
    },
    {
      "inputs": [],
      "name": "unpause",
      "outputs": [],
      "stateMutability": "nonpayable",
      "type": "function"
    },
    {
      "inputs": [],
      "name": "withdraw",
      "outputs": [],
      "stateMutability": "nonpayable",
      "type": "function"
    }
  ],
  "bytecode": "0x60806040523480156200001157600080fd5b5060405162005053380380620050538339810160408190526200003491620003a1565b604080518082018252601681527f4d696c6c696f6e446f6c6c6172546f6b656e5061676500000000000000000000602080830191825283518085019094526003845262e28aa160e81b908401528151919291620000949160009162000214565b508051620000aa90600190602084019062000214565b50506006805460ff1916905550620000c233620001ba565b600b805461ffff19169055600f805460ff60a81b1916600160a81b1790558451620000f590600d90602088019062000214565b5083516200010b90600e90602087019062000214565b5082516200012190600c90602086019062000214565b5060098054600a9790975565ffffffff0000199096166201000061ffff9a8b160261ffff60201b191617640100000000988a16989098029790971767ffff00000000ffff191666010000000000009689169690960261ffff19169590951794909616939093179091555050600f8054610100600160a81b0319166101006001600160a01b039093169290920291909117905550620004ee565b600680546001600160a01b03838116610100818102610100600160a81b031985161790945560405193909204169182907f8be0079c531659141344cd1fd0a4f28419497f9722a3daafe3b4186f6b6457e090600090a35050565b82805462000222906200049b565b90600052602060002090601f01602090048101928262000246576000855562000291565b82601f106200026157805160ff191683800117855562000291565b8280016001018555821562000291579182015b828111156200029157825182559160200191906001019062000274565b506200029f929150620002a3565b5090565b5b808211156200029f5760008155600101620002a4565b80516001600160a01b0381168114620002d257600080fd5b919050565b600082601f830112620002e957600080fd5b81516001600160401b0380821115620003065762000306620004d8565b604051601f8301601f19908116603f01168101908282118183101715620003315762000331620004d8565b816040528381526020925086838588010111156200034e57600080fd5b600091505b8382101562000372578582018301518183018401529082019062000353565b83821115620003845760008385830101525b9695505050505050565b805161ffff81168114620002d257600080fd5b60008060008060008060008060006101208a8c031215620003c157600080fd5b620003cc8a6200038e565b9850620003dc60208b016200038e565b9750620003ec60408b016200038e565b60608b015160808c015191985096506001600160401b03808211156200041157600080fd5b6200041f8d838e01620002d7565b965060a08c01519150808211156200043657600080fd5b620004448d838e01620002d7565b955060c08c01519150808211156200045b57600080fd5b506200046a8c828d01620002d7565b9350506200047b60e08b016200038e565b91506200048c6101008b01620002ba565b90509295985092959850929598565b600181811c90821680620004b057607f821691505b60208210811415620004d257634e487b7160e01b600052602260045260246000fd5b50919050565b634e487b7160e01b600052604160045260246000fd5b614b5580620004fe6000396000f3fe6080604052600436106104655760003560e01c8063676c7e5e11610243578063b88d4fde11610143578063e8a3d485116100bb578063f2fde38b1161008a578063f994589a1161006f578063f994589a14610c71578063fb94bd8a14610c92578063fd3ec9f514610cb257600080fd5b8063f2fde38b14610c31578063f4a0a52814610c5157600080fd5b8063e8a3d48514610b93578063e8d44caf14610ba8578063e985e9c514610bc8578063eb3391a914610c1157600080fd5b8063c742856611610112578063cf721b15116100f7578063cf721b1514610b5e578063d2d65ff514610b73578063e04a8eaf1461080357600080fd5b8063c742856614610b1b578063c87b56dd14610b3e57600080fd5b8063b88d4fde14610aae578063be52a67514610ace578063c01f2f7614610aee578063c634d03214610b0857600080fd5b806390a34ac3116101d6578063a22cb465116101a5578063a5dee0021161018a578063a5dee00214610a4a578063a82106ee14610a6f578063b46a816514610a8f57600080fd5b8063a22cb46514610a15578063a5097ebf14610a3557600080fd5b806390a34ac3146109b657806395d89b41146109cb5780639f3d1a2a146109e0578063a1ae82e5146109f557600080fd5b806376dd1f861161021257806376dd1f861461093d5780638456cb591461095e5780638d50645a146109735780638da5cb5b1461099357600080fd5b8063676c7e5e146108d25780636817c76c146108f257806370a0823114610908578063715018a61461092857600080fd5b80633906f560116103695780634886f62c116102e1578063564566a8116102b05780635c975abb116102955780635c975abb146108875780636352211e1461089f578063669a1f69146108bf57600080fd5b8063564566a81461084d5780635935e01a1461086757600080fd5b80634886f62c146107ee5780634a0218d6146108035780634f6ccce71461081857806351cc5d661461083857600080fd5b80633f4ba83a1161033857806342842e0e1161031d57806342842e0e1461079657806345e832df146107b657806346c715fa146107c957600080fd5b80633f4ba83a1461076657806342260b5d1461077b57600080fd5b80633906f560146106e95780633bd4803c146107115780633be9a9e1146107315780633ccfd60b1461075157600080fd5b80631f5e7978116103fc5780632935279f116103cb5780632a55205a116103b05780632a55205a1461066a5780632c0a6055146106a95780632f745c59146106c957600080fd5b80632935279f1461062a5780632a1b707a1461064a57600080fd5b80631f5e7978146105b75780632222cda0146105ca57806323b872dd146105ea5780632639f4601461060a57600080fd5b8063095ea7b311610438578063095ea7b31461051b5780630c0a9d261461053b578063150b7a021461055b57806318160ddd1461059457600080fd5b80630170163a1461046a57806301ffc9a71461048c57806306fdde03146104c1578063081812fc146104e3575b600080fd5b34801561047657600080fd5b5061048a61048536600461451e565b610cd2565b005b34801561049857600080fd5b506104ac6104a736600461442b565b610d4d565b60405190151581526020015b60405180910390f35b3480156104cd57600080fd5b506104d6610e14565b6040516104b89190614841565b3480156104ef57600080fd5b506105036104fe366004614542565b610ea6565b6040516001600160a01b0390911681526020016104b8565b34801561052757600080fd5b5061048a610536366004614320565b610f2e565b34801561054757600080fd5b506104d6610556366004614542565b611060565b34801561056757600080fd5b5061057b610576366004614196565b611287565b6040516001600160e01b031990911681526020016104b8565b3480156105a057600080fd5b506105a96115f4565b6040519081526020016104b8565b61048a6105c53660046145c4565b61160a565b3480156105d657600080fd5b5061048a6105e5366004614289565b611684565b3480156105f657600080fd5b5061048a610605366004614155565b61170f565b34801561061657600080fd5b5061048a610625366004614465565b611796565b34801561063657600080fd5b506104ac610645366004614542565b6117f0565b34801561065657600080fd5b506104ac610665366004614542565b61182f565b34801561067657600080fd5b5061068a6106853660046145a2565b611870565b604080516001600160a01b0390931683526020830191909152016104b8565b3480156106b557600080fd5b506105036106c4366004614542565b6118a2565b3480156106d557600080fd5b506105a96106e4366004614320565b61193b565b3480156106f557600080fd5b506106fe611a70565b60405161ffff90911681526020016104b8565b34801561071d57600080fd5b5061048a61072c366004614289565b611a7e565b34801561073d57600080fd5b5061048a61074c36600461439b565b611b01565b34801561075d57600080fd5b5061048a611e0a565b34801561077257600080fd5b5061048a611e9b565b34801561078757600080fd5b506009546106fe9061ffff1681565b3480156107a257600080fd5b5061048a6107b1366004614155565b611ef3565b61048a6107c436600461434c565b611f0e565b3480156107d557600080fd5b50600f546105039061010090046001600160a01b031681565b3480156107fa57600080fd5b5061048a611f8e565b34801561080f57600080fd5b506106fe606481565b34801561082457600080fd5b506105a9610833366004614542565b612006565b34801561084457600080fd5b506104d6612070565b34801561085957600080fd5b50600b546104ac9060ff1681565b34801561087357600080fd5b5061048a610882366004614600565b6120fe565b34801561089357600080fd5b5060065460ff166104ac565b3480156108ab57600080fd5b506105036108ba366004614542565b612244565b61048a6108cd366004614320565b6122f5565b3480156108de57600080fd5b5061048a6108ed36600461451e565b612354565b3480156108fe57600080fd5b506105a9600a5481565b34801561091457600080fd5b506105a96109233660046140e2565b612435565b34801561093457600080fd5b5061048a6124cf565b34801561094957600080fd5b506009546106fe9062010000900461ffff1681565b34801561096a57600080fd5b5061048a612527565b34801561097f57600080fd5b5061048a61098e36600461455b565b61257d565b34801561099f57600080fd5b5060065461010090046001600160a01b0316610503565b3480156109c257600080fd5b5061048a612587565b3480156109d757600080fd5b506104d6612637565b3480156109ec57600080fd5b506104d6612646565b348015610a0157600080fd5b5061048a610a1036600461451e565b612653565b348015610a2157600080fd5b5061048a610a303660046142eb565b6126c1565b348015610a4157600080fd5b506104d66126cc565b348015610a5657600080fd5b506009546106fe906601000000000000900461ffff1681565b348015610a7b57600080fd5b5061048a610a8a366004614410565b6126d9565b348015610a9b57600080fd5b50600b546104ac90610100900460ff1681565b348015610aba57600080fd5b5061048a610ac9366004614209565b612741565b348015610ada57600080fd5b5061048a610ae936600461434c565b6127c9565b348015610afa57600080fd5b50600f546104ac9060ff1681565b61048a610b16366004614542565b612835565b348015610b2757600080fd5b506009546106fe90640100000000900461ffff1681565b348015610b4a57600080fd5b506104d6610b59366004614542565b612897565b348015610b6a57600080fd5b506105a961292f565b348015610b7f57600080fd5b5061048a610b8e366004614410565b612946565b348015610b9f57600080fd5b506104d66129a7565b348015610bb457600080fd5b5061048a610bc336600461451e565b6129b6565b348015610bd457600080fd5b506104ac610be336600461411c565b6001600160a01b03918216600090815260056020908152604080832093909416825291909152205460ff1690565b348015610c1d57600080fd5b5061048a610c2c366004614465565b612a28565b348015610c3d57600080fd5b5061048a610c4c3660046140e2565b612a82565b348015610c5d57600080fd5b5061048a610c6c366004614542565b612b55565b348015610c7d57600080fd5b50600f546104ac90600160a81b900460ff1681565b348015610c9e57600080fd5b5061048a610cad366004614465565b612ba8565b348015610cbe57600080fd5b5061048a610ccd3660046145c4565b612c55565b6006546001600160a01b03610100909104163314610d255760405162461bcd60e51b81526020600482018190526024820152600080516020614b0083398151915260448201526064015b60405180910390fd5b6009805461ffff90921666010000000000000267ffff00000000000019909216919091179055565b60006001600160e01b03198216630a85bd0160e11b1480610d9757506001600160e01b031982167f780e9d6300000000000000000000000000000000000000000000000000000000145b80610dcb57506001600160e01b031982167f2a55205a00000000000000000000000000000000000000000000000000000000145b80610dff57506001600160e01b031982167fe8a3d48500000000000000000000000000000000000000000000000000000000145b80610e0e5750610e0e82612d4c565b92915050565b606060008054610e23906149d6565b80601f0160208091040260200160405190810160405280929190818152602001828054610e4f906149d6565b8015610e9c5780601f10610e7157610100808354040283529160200191610e9c565b820191906000526020600020905b815481529060010190602001808311610e7f57829003601f168201915b5050505050905090565b6000610eb182612de7565b610f125760405162461bcd60e51b815260206004820152602c60248201527f4552433732313a20617070726f76656420717565727920666f72206e6f6e657860448201526b34b9ba32b73a103a37b5b2b760a11b6064820152608401610d1c565b506000908152600460205260409020546001600160a01b031690565b6000610f3982612244565b9050806001600160a01b0316836001600160a01b03161415610fc35760405162461bcd60e51b815260206004820152602160248201527f4552433732313a20617070726f76616c20746f2063757272656e74206f776e6560448201527f72000000000000000000000000000000000000000000000000000000000000006064820152608401610d1c565b336001600160a01b0382161480610fdf5750610fdf8133610be3565b6110515760405162461bcd60e51b815260206004820152603860248201527f4552433732313a20617070726f76652063616c6c6572206973206e6f74206f7760448201527f6e6572206e6f7220617070726f76656420666f7220616c6c00000000000000006064820152608401610d1c565b61105b8383612e1d565b505050565b60608160008111801561108157506110796064806148fe565b61ffff168111155b6110c55760405162461bcd60e51b8152602060048201526015602482015274135115140e881a5b9d985b1a59081d1bdad95b9259605a1b6044820152606401610d1c565b6110ce8361182f565b1561117757600f546040517f0c0a9d26000000000000000000000000000000000000000000000000000000008152600481018590526101009091046001600160a01b031690630c0a9d269060240160006040518083038186803b15801561113457600080fd5b505afa158015611148573d6000803e3d6000fd5b505050506040513d6000823e601f3d908101601f1916820160405261117091908101906144a7565b9150611281565b60008381526008602052604081208054611190906149d6565b80601f01602080910402602001604051908101604052809291908181526020018280546111bc906149d6565b80156112095780601f106111de57610100808354040283529160200191611209565b820191906000526020600020905b8154815290600101906020018083116111ec57829003601f168201915b50505050509050600081511115611221579150611281565b6000848152600260205260409020546001600160a01b031680156112515761124885612897565b93505050611281565b600e61125c86612e98565b60405160200161126d92919061473b565b604051602081830303815290604052935050505b50919050565b600f5460009061010090046001600160a01b0316336001600160a01b0316146113185760405162461bcd60e51b815260206004820152602f60248201527f4d4454503a2063616e6e6f742061636365707420746f6b656e2066726f6d207560448201527f6e6b6e6f776e20636f6e747261637400000000000000000000000000000000006064820152608401610d1c565b600f546040516331a9108f60e11b815260048101869052309161010090046001600160a01b031690636352211e9060240160206040518083038186803b15801561136157600080fd5b505afa158015611375573d6000803e3d6000fd5b505050506040513d601f19601f8201168201806040525081019061139991906140ff565b6001600160a01b0316146114155760405162461bcd60e51b815260206004820152602a60248201527f4d4454503a20746f6b656e206e6f7420796574206f776e65642062792074686960448201527f7320636f6e7472616374000000000000000000000000000000000000000000006064820152608401610d1c565b600f5461010090046001600160a01b031661142f85612244565b6001600160a01b0316146114ab5760405162461bcd60e51b815260206004820152602f60248201527f4d4454503a2063616e6e6f742061636365707420746f6b656e206e6f7420736560448201527f7420666f72206d6967726174696f6e00000000000000000000000000000000006064820152608401610d1c565b600f546114c79061010090046001600160a01b03168686612fd2565b6115056114d661010086614a68565b60116114e4610100886148ea565b602881106114f4576114f4614aa8565b015490600160ff919091161b191690565b6011611513610100876148ea565b6028811061152357611523614aa8565b015561156261153461010086614a68565b6039611542610100886148ea565b6028811061155257611552614aa8565b015490600160ff919091161b1790565b6039611570610100876148ea565b6028811061158057611580614aa8565b01819055506001601060008282546115989190614970565b925050819055506001600760008282546115b291906148ad565b909155505060405184907fcb81cc0672f8611568f0de539e3a44de3e2f070f6726e417c97b906bf0c8d16190600090a250630a85bd0160e11b95945050505050565b60006116016064806148fe565b61ffff16905090565b8060ff168260ff16600a5461161f9190614928565b6116299190614928565b3410156116785760405162461bcd60e51b815260206004820152601a60248201527f4d4454503a20696e73756666696369656e74207061796d656e740000000000006044820152606401610d1c565b61105b338484846131b7565b60005b8160ff168160ff1610156117075760005b8360ff168160ff1610156116f45760008160ff168360ff1660646116bc91906148fe565b6116ca9061ffff16886148ad565b6116d491906148ad565b90506116e1888883611ef3565b50806116ec81614a48565b915050611698565b50806116ff81614a48565b915050611687565b505050505050565b61171933826131d5565b61178b5760405162461bcd60e51b815260206004820152603160248201527f4552433732313a207472616e736665722063616c6c6572206973206e6f74206f60448201527f776e6572206e6f7220617070726f7665640000000000000000000000000000006064820152608401610d1c565b61105b838383612fd2565b6006546001600160a01b036101009091041633146117e45760405162461bcd60e51b81526020600482018190526024820152600080516020614b008339815191526044820152606401610d1c565b61105b600c8383613f08565b6000610e0e61180161010084614a68565b603961180f610100866148ea565b6028811061181f5761181f614aa8565b01549060ff161c60019081161490565b6000601054600014806118465750611846826117f0565b1561185357506000919050565b610e0e61186261010084614a68565b601161180f610100866148ea565b600954600090819030906127109061188c9061ffff1686614928565b61189691906148ea565b915091505b9250929050565b60006118ad8261182f565b1561193257600f546040516331a9108f60e11b8152600481018490526101009091046001600160a01b031690636352211e9060240160206040518083038186803b1580156118fa57600080fd5b505afa15801561190e573d6000803e3d6000fd5b505050506040513d601f19601f82011682018060405250810190610e0e91906140ff565b610e0e82612244565b600061194683612435565b82106119945760405162461bcd60e51b815260206004820152601f60248201527f4d4454503a206f776e657220696e646578206f7574206f6620626f756e6473006044820152606401610d1c565b600060015b6119a46064806148fe565b61ffff168111611a01576000818152600260205260409020546001600160a01b03868116911614156119ef57838214156119e1579150610e0e9050565b816119eb81614a2d565b9250505b806119f981614a2d565b915050611999565b5060405162461bcd60e51b815260206004820152602b60248201527f4d4454503a20756e61626c6520746f2067657420746f6b656e206f66206f776e60448201527f657220627920696e6465780000000000000000000000000000000000000000006064820152608401610d1c565b611a7b6064806148fe565b81565b60005b8160ff168160ff1610156117075760005b8360ff168160ff161015611aee5760008160ff168360ff166064611ab691906148fe565b611ac49061ffff16886148ad565b611ace91906148ad565b9050611adb88888361170f565b5080611ae681614a48565b915050611a92565b5080611af981614a48565b915050611a81565b6006546001600160a01b03610100909104163314611b4f5760405162461bcd60e51b81526020600482018190526024820152600080516020614b008339815191526044820152606401610d1c565b600f54600160a81b900460ff16611bce5760405162461bcd60e51b815260206004820152602560248201527f4d4454503a206d6967726174696f6e2068617320616c7265616479206861707060448201527f656e6564210000000000000000000000000000000000000000000000000000006064820152608401610d1c565b60005b61ffff8116821115611db757600083838361ffff16818110611bf557611bf5614aa8565b905060200201359050600081118015611c1c5750611c146064806148fe565b61ffff168111155b611c605760405162461bcd60e51b8152602060048201526015602482015274135115140e881a5b9d985b1a59081d1bdad95b9259605a1b6044820152606401610d1c565b6000818152600260205260409020546001600160a01b031615611ceb5760405162461bcd60e51b815260206004820152602360248201527f4d4454503a2063616e6e6f74206d69677261746520616e206f776e656420746f60448201527f6b656e00000000000000000000000000000000000000000000000000000000006064820152608401610d1c565b611cf48161182f565b15611d675760405162461bcd60e51b815260206004820152602560248201527f4d4454503a20746f6b656e20616c72656164792073657420666f72206d69677260448201527f6174696f6e0000000000000000000000000000000000000000000000000000006064820152608401610d1c565b611d84611d7661010083614a68565b6011611542610100856148ea565b6011611d92610100846148ea565b60288110611da257611da2614aa8565b01555080611daf81614a0b565b915050611bd1565b50600f5461010090046001600160a01b031660009081526003602052604081208054839290611de79084906148ad565b909155505060108054829190600090611e019084906148ad565b90915550505050565b6006546001600160a01b03610100909104163314611e585760405162461bcd60e51b81526020600482018190526024820152600080516020614b008339815191526044820152606401610d1c565b600654604051479161010090046001600160a01b0316906108fc8315029083906000818181858888f19350505050158015611e97573d6000803e3d6000fd5b5050565b6006546001600160a01b03610100909104163314611ee95760405162461bcd60e51b81526020600482018190526024820152600080516020614b008339815191526044820152606401610d1c565b611ef16132bb565b565b61105b83838360405180602001604052806000815250612741565b8060ff168260ff16600a54611f239190614928565b611f2d9190614928565b341015611f7c5760405162461bcd60e51b815260206004820152601a60248201527f4d4454503a20696e73756666696369656e74207061796d656e740000000000006044820152606401610d1c565b611f88848484846131b7565b50505050565b6006546001600160a01b03610100909104163314611fdc5760405162461bcd60e51b81526020600482018190526024820152600080516020614b008339815191526044820152606401610d1c565b600f80547fffffffffffffffffffff00ffffffffffffffffffffffffffffffffffffffffff169055565b60006120136064806148fe565b61ffff1682106120655760405162461bcd60e51b815260206004820152601360248201527f4d4454503a20696e76616c696420696e646578000000000000000000000000006044820152606401610d1c565b610e0e8260016148ad565b600e805461207d906149d6565b80601f01602080910402602001604051908101604052809291908181526020018280546120a9906149d6565b80156120f65780601f106120cb576101008083540402835291602001916120f6565b820191906000526020600020905b8154815290600101906020018083116120d957829003601f168201915b505050505081565b805161210a8385614947565b60ff16146121805760405162461bcd60e51b815260206004820152602560248201527f4d4454503a206c656e677468206f6620636f6e74656e745552497320696e636f60448201527f72726563740000000000000000000000000000000000000000000000000000006064820152608401610d1c565b60005b8260ff168160ff16101561223d5760005b8460ff168160ff16101561222a576000816121af8488614947565b6121b991906148c5565b60ff16905060008260ff168460ff1660646121d491906148fe565b6121e29061ffff168a6148ad565b6121ec91906148ad565b905061221581868461ffff168151811061220857612208614aa8565b6020026020010151613357565b5050808061222290614a48565b915050612194565b508061223581614a48565b915050612183565b5050505050565b600061224f8261182f565b1561226a575050600f5461010090046001600160a01b031690565b6000828152600260205260409020546001600160a01b031680610e0e5760405162461bcd60e51b815260206004820152602760248201527f4d4454503a206f776e657220717565727920666f72206e6f6e6578697374656e60448201527f7420746f6b656e000000000000000000000000000000000000000000000000006064820152608401610d1c565b600a543410156123475760405162461bcd60e51b815260206004820152601a60248201527f4d4454503a20696e73756666696369656e74207061796d656e740000000000006044820152606401610d1c565b611e9782826001806131b7565b6006546001600160a01b036101009091041633146123a25760405162461bcd60e51b81526020600482018190526024820152600080516020614b008339815191526044820152606401610d1c565b6113888161ffff161061241d5760405162461bcd60e51b815260206004820152602d60248201527f4d4454503a20726f79616c74794261736973506f696e7473206d75737420626560448201527f203c2035303030202835302529000000000000000000000000000000000000006064820152608401610d1c565b6009805461ffff191661ffff92909216919091179055565b60006001600160a01b0382166124b35760405162461bcd60e51b815260206004820152602a60248201527f4552433732313a2062616c616e636520717565727920666f7220746865207a6560448201527f726f2061646472657373000000000000000000000000000000000000000000006064820152608401610d1c565b506001600160a01b031660009081526003602052604090205490565b6006546001600160a01b0361010090910416331461251d5760405162461bcd60e51b81526020600482018190526024820152600080516020614b008339815191526044820152606401610d1c565b611ef1600061344e565b6006546001600160a01b036101009091041633146125755760405162461bcd60e51b81526020600482018190526024820152600080516020614b008339815191526044820152606401610d1c565b611ef16134bf565b611e978282613357565b6006546001600160a01b036101009091041633146125d55760405162461bcd60e51b81526020600482018190526024820152600080516020614b008339815191526044820152606401610d1c565b600f5460ff16156126285760405162461bcd60e51b815260206004820152601b60248201527f4d4454503a206d65746164617461206973206e6f772066696e616c00000000006044820152606401610d1c565b600f805460ff19166001179055565b606060018054610e23906149d6565b600d805461207d906149d6565b6006546001600160a01b036101009091041633146126a15760405162461bcd60e51b81526020600482018190526024820152600080516020614b008339815191526044820152606401610d1c565b6009805461ffff909216620100000263ffff000019909216919091179055565b611e9733838361353a565b600c805461207d906149d6565b6006546001600160a01b036101009091041633146127275760405162461bcd60e51b81526020600482018190526024820152600080516020614b008339815191526044820152606401610d1c565b600b80549115156101000261ff0019909216919091179055565b61274b33836131d5565b6127bd5760405162461bcd60e51b815260206004820152603160248201527f4552433732313a207472616e736665722063616c6c6572206973206e6f74206f60448201527f776e6572206e6f7220617070726f7665640000000000000000000000000000006064820152608401610d1c565b611f8884848484613609565b6006546001600160a01b036101009091041633146128175760405162461bcd60e51b81526020600482018190526024820152600080516020614b008339815191526044820152606401610d1c565b611f8884848484600160405180602001604052806000815250613687565b600a543410156128875760405162461bcd60e51b815260206004820152601a60248201527f4d4454503a20696e73756666696369656e74207061796d656e740000000000006044820152606401610d1c565b61289433826001806131b7565b50565b6060816000811180156128b857506128b06064806148fe565b61ffff168111155b6128fc5760405162461bcd60e51b8152602060048201526015602482015274135115140e881a5b9d985b1a59081d1bdad95b9259605a1b6044820152606401610d1c565b600d61290784612e98565b60405160200161291892919061473b565b604051602081830303815290604052915050919050565b600060105460075461294191906148ad565b905090565b6006546001600160a01b036101009091041633146129945760405162461bcd60e51b81526020600482018190526024820152600080516020614b008339815191526044820152606401610d1c565b600b805460ff1916911515919091179055565b6060600c8054610e23906149d6565b6006546001600160a01b03610100909104163314612a045760405162461bcd60e51b81526020600482018190526024820152600080516020614b008339815191526044820152606401610d1c565b6009805461ffff9092166401000000000265ffff0000000019909216919091179055565b6006546001600160a01b03610100909104163314612a765760405162461bcd60e51b81526020600482018190526024820152600080516020614b008339815191526044820152606401610d1c565b61105b600e8383613f08565b6006546001600160a01b03610100909104163314612ad05760405162461bcd60e51b81526020600482018190526024820152600080516020614b008339815191526044820152606401610d1c565b6001600160a01b038116612b4c5760405162461bcd60e51b815260206004820152602660248201527f4f776e61626c653a206e6577206f776e657220697320746865207a65726f206160448201527f64647265737300000000000000000000000000000000000000000000000000006064820152608401610d1c565b6128948161344e565b6006546001600160a01b03610100909104163314612ba35760405162461bcd60e51b81526020600482018190526024820152600080516020614b008339815191526044820152606401610d1c565b600a55565b6006546001600160a01b03610100909104163314612bf65760405162461bcd60e51b81526020600482018190526024820152600080516020614b008339815191526044820152606401610d1c565b600f5460ff1615612c495760405162461bcd60e51b815260206004820152601b60248201527f4d4454503a206d65746164617461206973206e6f772066696e616c00000000006044820152606401610d1c565b61105b600d8383613f08565b60005b8160ff168160ff161015611f885760005b8360ff168160ff161015612d395760008160ff168360ff166064612c8d91906148fe565b612c9b9061ffff16886148ad565b612ca591906148ad565b600f5490915061010090046001600160a01b03166342842e0e336040516001600160e01b031960e084901b1681526001600160a01b03909116600482015230602482015260448101849052606401600060405180830381600087803b158015612d0d57600080fd5b505af1158015612d21573d6000803e3d6000fd5b50505050508080612d3190614a48565b915050612c69565b5080612d4481614a48565b915050612c58565b60006001600160e01b031982167f80ac58cd000000000000000000000000000000000000000000000000000000001480612daf57506001600160e01b031982167f5b5e139f00000000000000000000000000000000000000000000000000000000145b80610e0e57507f01ffc9a7000000000000000000000000000000000000000000000000000000006001600160e01b0319831614610e0e565b6000612df28261182f565b15612dff57506001919050565b506000908152600260205260409020546001600160a01b0316151590565b6000818152600460205260409020805473ffffffffffffffffffffffffffffffffffffffff19166001600160a01b0384169081179091558190612e5f82612244565b6001600160a01b03167f8c5be1e5ebec7d5bd14f71427d1e84f3dd0314c0f7b2291e5b200ac8c7c3b92560405160405180910390a45050565b606081612ed857505060408051808201909152600181527f3000000000000000000000000000000000000000000000000000000000000000602082015290565b8160005b8115612f025780612eec81614a2d565b9150612efb9050600a836148ea565b9150612edc565b60008167ffffffffffffffff811115612f1d57612f1d614abe565b6040519080825280601f01601f191660200182016040528015612f47576020820181803683370190505b5090505b8415612fca57612f5c600183614970565b9150612f69600a86614a68565b612f749060306148ad565b60f81b818381518110612f8957612f89614aa8565b60200101907effffffffffffffffffffffffffffffffffffffffffffffffffffffffffffff1916908160001a905350612fc3600a866148ea565b9450612f4b565b949350505050565b826001600160a01b0316612fe582612244565b6001600160a01b0316146130615760405162461bcd60e51b815260206004820152602960248201527f4552433732313a207472616e73666572206f6620746f6b656e2074686174206960448201527f73206e6f74206f776e00000000000000000000000000000000000000000000006064820152608401610d1c565b6001600160a01b0382166130dc5760405162461bcd60e51b8152602060048201526024808201527f4552433732313a207472616e7366657220746f20746865207a65726f2061646460448201527f72657373000000000000000000000000000000000000000000000000000000006064820152608401610d1c565b6130e7838383613cbb565b6130f2600082612e1d565b6001600160a01b038316600090815260036020526040812080546001929061311b908490614970565b90915550506001600160a01b03821660009081526003602052604081208054600192906131499084906148ad565b9091555050600081815260026020526040808220805473ffffffffffffffffffffffffffffffffffffffff19166001600160a01b0386811691821790925591518493918716917fddf252ad1be2c89b69c2b068fc378daa952ba7f163c4a11628f55a4df523b3ef91a4505050565b611f8884848484600060405180602001604052806000815250613687565b60006131e082612de7565b6132415760405162461bcd60e51b815260206004820152602c60248201527f4552433732313a206f70657261746f7220717565727920666f72206e6f6e657860448201526b34b9ba32b73a103a37b5b2b760a11b6064820152608401610d1c565b600061324c83612244565b9050806001600160a01b0316846001600160a01b031614806132875750836001600160a01b031661327c84610ea6565b6001600160a01b0316145b80612fca57506001600160a01b0380821660009081526005602090815260408083209388168352929052205460ff16612fca565b60065460ff1661330d5760405162461bcd60e51b815260206004820152601460248201527f5061757361626c653a206e6f74207061757365640000000000000000000000006044820152606401610d1c565b6006805460ff191690557f5db9ee0a495bf2e6ff9c91a7834c1ba4fdd244a5e8aa4e537bd38aeae4b073aa335b6040516001600160a01b03909116815260200160405180910390a1565b813361336282612244565b6001600160a01b0316146133b85760405162461bcd60e51b815260206004820152601f60248201527f4d4454503a2063616c6c6572206973206e6f7420746f6b656e206f776e6572006044820152606401610d1c565b60065460ff16156133fe5760405162461bcd60e51b815260206004820152601060248201526f14185d5cd8589b194e881c185d5cd95960821b6044820152606401610d1c565b6000838152600860209081526040909120835161341d92850190613f8c565b5060405183907fd26ab77304eac64a04df2018c66716ad9c938c7b11429b56a46c017768172d1b90600090a2505050565b600680546001600160a01b038381166101008181027fffffffffffffffffffffff0000000000000000000000000000000000000000ff85161790945560405193909204169182907f8be0079c531659141344cd1fd0a4f28419497f9722a3daafe3b4186f6b6457e090600090a35050565b60065460ff16156135055760405162461bcd60e51b815260206004820152601060248201526f14185d5cd8589b194e881c185d5cd95960821b6044820152606401610d1c565b6006805460ff191660011790557f62e78cea01bee320cd4e420270b5ea74000d11b0c9f74754ebdbfc544b05a25861333a3390565b816001600160a01b0316836001600160a01b0316141561359c5760405162461bcd60e51b815260206004820152601960248201527f4552433732313a20617070726f766520746f2063616c6c6572000000000000006044820152606401610d1c565b6001600160a01b03838116600081815260056020908152604080832094871680845294825291829020805460ff191686151590811790915591519182527f17307eab39ab6107e8899845ad3d59bd9653f200f220920489ca2b5937696c31910160405180910390a3505050565b613614848484612fd2565b61362084848484613cc9565b611f885760405162461bcd60e51b815260206004820152603260248201527f4552433732313a207472616e7366657220746f206e6f6e20455243373231526560448201527131b2b4bb32b91034b6b83632b6b2b73a32b960711b6064820152608401610d1c565b84848460008260ff16116136dd5760405162461bcd60e51b815260206004820152601760248201527f4d4454503a207769647468206d757374206265203e20300000000000000000006044820152606401610d1c565b60008160ff16116137305760405162461bcd60e51b815260206004820152601860248201527f4d4454503a20686569676874206d757374206265203e203000000000000000006044820152606401610d1c565b6001600160a01b0389166137865760405162461bcd60e51b815260206004820152601560248201527f4d4454503a20696e76616c6964206164647265737300000000000000000000006044820152606401610d1c565b600088116137ce5760405162461bcd60e51b8152602060048201526015602482015274135115140e881a5b9d985b1a59081d1bdad95b9259605a1b6044820152606401610d1c565b6137d96064806148fe565b61ffff166137e8600189614987565b60ff166137f6600189614987565b6138049060ff1660646148fe565b6138129061ffff168b6148ad565b61381c91906148ad565b11156138625760405162461bcd60e51b8152602060048201526015602482015274135115140e881a5b9d985b1a59081d1bdad95b9259605a1b6044820152606401610d1c565b600061386e8789614947565b60ff169050600081116138c35760405162461bcd60e51b815260206004820152601b60248201527f4d4454503a20696e73756666696369656e74207175616e7469747900000000006044820152606401610d1c565b85613a5957600b5460ff1661391a5760405162461bcd60e51b815260206004820152601560248201527f4d4454503a2073616c65206e6f742061637469766500000000000000000000006044820152606401610d1c565b6009546601000000000000900461ffff16816139358c612435565b61393f91906148ad565b111561398d5760405162461bcd60e51b815260206004820152601d60248201527f4d4454503a206f766572206f776e6572736869704d696e744c696d69740000006044820152606401610d1c565b600954640100000000900461ffff168111156139eb5760405162461bcd60e51b815260206004820152601a60248201527f4d4454503a206f7665722073696e676c654d696e744c696d69740000000000006044820152606401610d1c565b60095462010000900461ffff1681613a0161292f565b613a0b91906148ad565b1115613a595760405162461bcd60e51b815260206004820152601960248201527f4d4454503a206f76657220746f74616c4d696e744c696d6974000000000000006044820152606401610d1c565b613a6760008b8b8b8b613e21565b60005b8760ff168160ff161015613c815760005b8960ff168160ff161015613c6e5760008160ff168360ff166064613a9f91906148fe565b613aad9061ffff168e6148ad565b613ab791906148ad565b9050613ac281612de7565b15613b0f5760405162461bcd60e51b815260206004820152601a60248201527f4d4454503a20746f6b656e20616c7265616479206d696e7465640000000000006044820152606401610d1c565b600b54610100900460ff1680613b2b5750613b2981613eb8565b155b613b775760405162461bcd60e51b815260206004820152601f60248201527f4d4454503a206d696e74696e672063656e746572206e6f7420616374697665006044820152606401610d1c565b8c6002600083815260200190815260200160002060006101000a8154816001600160a01b0302191690836001600160a01b03160217905550613bbc60008e838b613cc9565b613c235760405162461bcd60e51b815260206004820152603260248201527f4552433732313a207472616e7366657220746f206e6f6e20455243373231526560448201527131b2b4bb32b91034b6b83632b6b2b73a32b960711b6064820152608401610d1c565b60405181906001600160a01b038f16906000907fddf252ad1be2c89b69c2b068fc378daa952ba7f163c4a11628f55a4df523b3ef908290a45080613c6681614a48565b915050613a7b565b5080613c7981614a48565b915050613a6a565b506001600160a01b038a1660009081526003602052604081208054839290613caa9084906148ad565b909155505050505050505050505050565b61105b838383600180613e21565b60006001600160a01b0384163b15613e1657604051630a85bd0160e11b81526001600160a01b0385169063150b7a0290613d0d903390899088908890600401614805565b602060405180830381600087803b158015613d2757600080fd5b505af1925050508015613d57575060408051601f3d908101601f19168201909252613d5491810190614448565b60015b613dfc573d808015613d85576040519150601f19603f3d011682016040523d82523d6000602084013e613d8a565b606091505b508051613df45760405162461bcd60e51b815260206004820152603260248201527f4552433732313a207472616e7366657220746f206e6f6e20455243373231526560448201527131b2b4bb32b91034b6b83632b6b2b73a32b960711b6064820152608401610d1c565b805181602001fd5b6001600160e01b031916630a85bd0160e11b149050612fca565b506001949350505050565b60065460ff1615613e675760405162461bcd60e51b815260206004820152601060248201526f14185d5cd8589b194e881c185d5cd95960821b6044820152606401610d1c565b836001600160a01b0316856001600160a01b03161461223d576001600160a01b03851661223d57613e988183614947565b60ff1660076000828254613eac91906148ad565b90915550505050505050565b600080613ec6606484614a68565b90506000613ed56064856148ea565b905060268210158015613ee95750603e8211155b8015613ef6575060288110155b8015612fca5750603b10159392505050565b828054613f14906149d6565b90600052602060002090601f016020900481019282613f365760008555613f7c565b82601f10613f4f5782800160ff19823516178555613f7c565b82800160010185558215613f7c579182015b82811115613f7c578235825591602001919060010190613f61565b50613f88929150614000565b5090565b828054613f98906149d6565b90600052602060002090601f016020900481019282613fba5760008555613f7c565b82601f10613fd357805160ff1916838001178555613f7c565b82800160010185558215613f7c579182015b82811115613f7c578251825591602001919060010190613fe5565b5b80821115613f885760008155600101614001565b600061402861402384614885565b614854565b905082815283838301111561403c57600080fd5b828260208301376000602084830101529392505050565b8035801515811461406357600080fd5b919050565b60008083601f84011261407a57600080fd5b50813567ffffffffffffffff81111561409257600080fd5b60208301915083602082850101111561189b57600080fd5b600082601f8301126140bb57600080fd5b6140ca83833560208501614015565b9392505050565b803560ff8116811461406357600080fd5b6000602082840312156140f457600080fd5b81356140ca81614ad4565b60006020828403121561411157600080fd5b81516140ca81614ad4565b6000806040838503121561412f57600080fd5b823561413a81614ad4565b9150602083013561414a81614ad4565b809150509250929050565b60008060006060848603121561416a57600080fd5b833561417581614ad4565b9250602084013561418581614ad4565b929592945050506040919091013590565b6000806000806000608086880312156141ae57600080fd5b85356141b981614ad4565b945060208601356141c981614ad4565b935060408601359250606086013567ffffffffffffffff8111156141ec57600080fd5b6141f888828901614068565b969995985093965092949392505050565b6000806000806080858703121561421f57600080fd5b843561422a81614ad4565b9350602085013561423a81614ad4565b925060408501359150606085013567ffffffffffffffff81111561425d57600080fd5b8501601f8101871361426e57600080fd5b61427d87823560208401614015565b91505092959194509250565b600080600080600060a086880312156142a157600080fd5b85356142ac81614ad4565b945060208601356142bc81614ad4565b9350604086013592506142d1606087016140d1565b91506142df608087016140d1565b90509295509295909350565b600080604083850312156142fe57600080fd5b823561430981614ad4565b915061431760208401614053565b90509250929050565b6000806040838503121561433357600080fd5b823561433e81614ad4565b946020939093013593505050565b6000806000806080858703121561436257600080fd5b843561436d81614ad4565b935060208501359250614382604086016140d1565b9150614390606086016140d1565b905092959194509250565b600080602083850312156143ae57600080fd5b823567ffffffffffffffff808211156143c657600080fd5b818501915085601f8301126143da57600080fd5b8135818111156143e957600080fd5b8660208260051b85010111156143fe57600080fd5b60209290920196919550909350505050565b60006020828403121561442257600080fd5b6140ca82614053565b60006020828403121561443d57600080fd5b81356140ca81614ae9565b60006020828403121561445a57600080fd5b81516140ca81614ae9565b6000806020838503121561447857600080fd5b823567ffffffffffffffff81111561448f57600080fd5b61449b85828601614068565b90969095509350505050565b6000602082840312156144b957600080fd5b815167ffffffffffffffff8111156144d057600080fd5b8201601f810184136144e157600080fd5b80516144ef61402382614885565b81815285602083850101111561450457600080fd5b6145158260208301602086016149aa565b95945050505050565b60006020828403121561453057600080fd5b813561ffff811681146140ca57600080fd5b60006020828403121561455457600080fd5b5035919050565b6000806040838503121561456e57600080fd5b82359150602083013567ffffffffffffffff81111561458c57600080fd5b614598858286016140aa565b9150509250929050565b600080604083850312156145b557600080fd5b50508035926020909101359150565b6000806000606084860312156145d957600080fd5b833592506145e9602085016140d1565b91506145f7604085016140d1565b90509250925092565b6000806000806080858703121561461657600080fd5b8435935060206146278187016140d1565b9350614635604087016140d1565b9250606086013567ffffffffffffffff8082111561465257600080fd5b818801915088601f83011261466657600080fd5b81358181111561467857614678614abe565b8060051b614687858201614854565b8281528581019085870183870188018e10156146a257600080fd5b600093505b848410156146e1578035868111156146be57600080fd5b6146cc8f8a838b01016140aa565b845250600193909301929187019187016146a7565b50999c989b5096995050505050505050565b6000815180845261470b8160208601602086016149aa565b601f01601f19169290920160200192915050565b600081516147318185602086016149aa565b9290920192915050565b600080845481600182811c91508083168061475757607f831692505b602080841082141561477757634e487b7160e01b86526022600452602486fd5b81801561478b576001811461479c576147c9565b60ff198616895284890196506147c9565b60008b81526020902060005b868110156147c15781548b8201529085019083016147a8565b505084890196505b5050505050506145156147dc828661471f565b7f2e6a736f6e000000000000000000000000000000000000000000000000000000815260050190565b60006001600160a01b0380871683528086166020840152508360408301526080606083015261483760808301846146f3565b9695505050505050565b6020815260006140ca60208301846146f3565b604051601f8201601f1916810167ffffffffffffffff8111828210171561487d5761487d614abe565b604052919050565b600067ffffffffffffffff82111561489f5761489f614abe565b50601f01601f191660200190565b600082198211156148c0576148c0614a7c565b500190565b600060ff821660ff84168060ff038211156148e2576148e2614a7c565b019392505050565b6000826148f9576148f9614a92565b500490565b600061ffff8083168185168183048111821515161561491f5761491f614a7c565b02949350505050565b600081600019048311821515161561494257614942614a7c565b500290565b600060ff821660ff84168160ff048111821515161561496857614968614a7c565b029392505050565b60008282101561498257614982614a7c565b500390565b600060ff821660ff8416808210156149a1576149a1614a7c565b90039392505050565b60005b838110156149c55781810151838201526020016149ad565b83811115611f885750506000910152565b600181811c908216806149ea57607f821691505b6020821081141561128157634e487b7160e01b600052602260045260246000fd5b600061ffff80831681811415614a2357614a23614a7c565b6001019392505050565b6000600019821415614a4157614a41614a7c565b5060010190565b600060ff821660ff811415614a5f57614a5f614a7c565b60010192915050565b600082614a7757614a77614a92565b500690565b634e487b7160e01b600052601160045260246000fd5b634e487b7160e01b600052601260045260246000fd5b634e487b7160e01b600052603260045260246000fd5b634e487b7160e01b600052604160045260246000fd5b6001600160a01b038116811461289457600080fd5b6001600160e01b03198116811461289457600080fdfe4f776e61626c653a2063616c6c6572206973206e6f7420746865206f776e6572a26469706673582212201850ee087238c301cc59d61b37013bf853eebea12dfcf260597e8ea6119becb764736f6c63430008070033",
  "linkReferences": {},
  "deployedLinkReferences": {}
}