{
  "_format": "hh-sol-artifact-1",
  "contractName": "MyNFT",
  "sourceName": "contracts/MyNFT.sol",
  "abi": [
    {
      "inputs": [],
      "stateMutability": "nonpayable",
      "type": "constructor"
    },
    {
      "anonymous": false,
      "inputs": [
        {
          "indexed": true,
          "internalType": "address",
          "name": "owner",
          "type": "address"
        },
        {
          "indexed": true,
          "internalType": "address",
          "name": "approved",
          "type": "address"
        },
        {
          "indexed": true,
          "internalType": "uint256",
          "name": "tokenId",
          "type": "uint256"
        }
      ],
      "name": "Approval",
      "type": "event"
    },
    {
      "anonymous": false,
      "inputs": [
        {
          "indexed": true,
          "internalType": "address",
          "name": "owner",
          "type": "address"
        },
        {
          "indexed": true,
          "internalType": "address",
          "name": "operator",
          "type": "address"
        },
        {
          "indexed": false,
          "internalType": "bool",
          "name": "approved",
          "type": "bool"
        }
      ],
      "name": "ApprovalForAll",
      "type": "event"
    },
    {
      "anonymous": false,
      "inputs": [
        {
          "indexed": true,
          "internalType": "address",
          "name": "previousOwner",
          "type": "address"
        },
        {
          "indexed": true,
          "internalType": "address",
          "name": "newOwner",
          "type": "address"
        }
      ],
      "name": "OwnershipTransferred",
      "type": "event"
    },
    {
      "anonymous": false,
      "inputs": [
        {
          "indexed": true,
          "internalType": "address",
          "name": "from",
          "type": "address"
        },
        {
          "indexed": true,
          "internalType": "address",
          "name": "to",
          "type": "address"
        },
        {
          "indexed": true,
          "internalType": "uint256",
          "name": "tokenId",
          "type": "uint256"
        }
      ],
      "name": "Transfer",
      "type": "event"
    },
    {
      "inputs": [
        {
          "internalType": "address",
          "name": "to",
          "type": "address"
        },
        {
          "internalType": "uint256",
          "name": "tokenId",
          "type": "uint256"
        }
      ],
      "name": "approve",
      "outputs": [],
      "stateMutability": "nonpayable",
      "type": "function"
    },
    {
      "inputs": [
        {
          "internalType": "address",
          "name": "owner",
          "type": "address"
        }
      ],
      "name": "balanceOf",
      "outputs": [
        {
          "internalType": "uint256",
          "name": "",
          "type": "uint256"
        }
      ],
      "stateMutability": "view",
      "type": "function"
    },
    {
      "inputs": [],
      "name": "baseURI",
      "outputs": [
        {
          "internalType": "string",
          "name": "",
          "type": "string"
        }
      ],
      "stateMutability": "view",
      "type": "function"
    },
    {
      "inputs": [
        {
          "internalType": "uint256",
          "name": "tokenId",
          "type": "uint256"
        }
      ],
      "name": "getApproved",
      "outputs": [
        {
          "internalType": "address",
          "name": "",
          "type": "address"
        }
      ],
      "stateMutability": "view",
      "type": "function"
    },
    {
      "inputs": [
        {
          "internalType": "address",
          "name": "owner",
          "type": "address"
        },
        {
          "internalType": "address",
          "name": "operator",
          "type": "address"
        }
      ],
      "name": "isApprovedForAll",
      "outputs": [
        {
          "internalType": "bool",
          "name": "",
          "type": "bool"
        }
      ],
      "stateMutability": "view",
      "type": "function"
    },
    {
      "inputs": [
        {
          "internalType": "address",
          "name": "recipient",
          "type": "address"
        },
        {
          "internalType": "string",
          "name": "tokenURI",
          "type": "string"
        }
      ],
      "name": "mintNFT",
      "outputs": [
        {
          "internalType": "uint256",
          "name": "",
          "type": "uint256"
        }
      ],
      "stateMutability": "nonpayable",
      "type": "function"
    },
    {
      "inputs": [],
      "name": "name",
      "outputs": [
        {
          "internalType": "string",
          "name": "",
          "type": "string"
        }
      ],
      "stateMutability": "view",
      "type": "function"
    },
    {
      "inputs": [],
      "name": "owner",
      "outputs": [
        {
          "internalType": "address",
          "name": "",
          "type": "address"
        }
      ],
      "stateMutability": "view",
      "type": "function"
    },
    {
      "inputs": [
        {
          "internalType": "uint256",
          "name": "tokenId",
          "type": "uint256"
        }
      ],
      "name": "ownerOf",
      "outputs": [
        {
          "internalType": "address",
          "name": "",
          "type": "address"
        }
      ],
      "stateMutability": "view",
      "type": "function"
    },
    {
      "inputs": [],
      "name": "renounceOwnership",
      "outputs": [],
      "stateMutability": "nonpayable",
      "type": "function"
    },
    {
      "inputs": [
        {
          "internalType": "address",
          "name": "from",
          "type": "address"
        },
        {
          "internalType": "address",
          "name": "to",
          "type": "address"
        },
        {
          "internalType": "uint256",
          "name": "tokenId",
          "type": "uint256"
        }
      ],
      "name": "safeTransferFrom",
      "outputs": [],
      "stateMutability": "nonpayable",
      "type": "function"
    },
    {
      "inputs": [
        {
          "internalType": "address",
          "name": "from",
          "type": "address"
        },
        {
          "internalType": "address",
          "name": "to",
          "type": "address"
        },
        {
          "internalType": "uint256",
          "name": "tokenId",
          "type": "uint256"
        },
        {
          "internalType": "bytes",
          "name": "_data",
          "type": "bytes"
        }
      ],
      "name": "safeTransferFrom",
      "outputs": [],
      "stateMutability": "nonpayable",
      "type": "function"
    },
    {
      "inputs": [
        {
          "internalType": "address",
          "name": "operator",
          "type": "address"
        },
        {
          "internalType": "bool",
          "name": "approved",
          "type": "bool"
        }
      ],
      "name": "setApprovalForAll",
      "outputs": [],
      "stateMutability": "nonpayable",
      "type": "function"
    },
    {
      "inputs": [
        {
          "internalType": "uint256",
          "name": "tokenId",
          "type": "uint256"
        },
        {
          "internalType": "string",
          "name": "tokenURI",
          "type": "string"
        }
      ],
      "name": "setTokenURI",
      "outputs": [],
      "stateMutability": "nonpayable",
      "type": "function"
    },
    {
      "inputs": [
        {
          "internalType": "bytes4",
          "name": "interfaceId",
          "type": "bytes4"
        }
      ],
      "name": "supportsInterface",
      "outputs": [
        {
          "internalType": "bool",
          "name": "",
          "type": "bool"
        }
      ],
      "stateMutability": "view",
      "type": "function"
    },
    {
      "inputs": [],
      "name": "symbol",
      "outputs": [
        {
          "internalType": "string",
          "name": "",
          "type": "string"
        }
      ],
      "stateMutability": "view",
      "type": "function"
    },
    {
      "inputs": [
        {
          "internalType": "uint256",
          "name": "index",
          "type": "uint256"
        }
      ],
      "name": "tokenByIndex",
      "outputs": [
        {
          "internalType": "uint256",
          "name": "",
          "type": "uint256"
        }
      ],
      "stateMutability": "view",
      "type": "function"
    },
    {
      "inputs": [
        {
          "internalType": "address",
          "name": "owner",
          "type": "address"
        },
        {
          "internalType": "uint256",
          "name": "index",
          "type": "uint256"
        }
      ],
      "name": "tokenOfOwnerByIndex",
      "outputs": [
        {
          "internalType": "uint256",
          "name": "",
          "type": "uint256"
        }
      ],
      "stateMutability": "view",
      "type": "function"
    },
    {
      "inputs": [
        {
          "internalType": "uint256",
          "name": "tokenId",
          "type": "uint256"
        }
      ],
      "name": "tokenURI",
      "outputs": [
        {
          "internalType": "string",
          "name": "",
          "type": "string"
        }
      ],
      "stateMutability": "view",
      "type": "function"
    },
    {
      "inputs": [],
      "name": "totalSupply",
      "outputs": [
        {
          "internalType": "uint256",
          "name": "",
          "type": "uint256"
        }
      ],
      "stateMutability": "view",
      "type": "function"
    },
    {
      "inputs": [
        {
          "internalType": "address",
          "name": "from",
          "type": "address"
        },
        {
          "internalType": "address",
          "name": "to",
          "type": "address"
        },
        {
          "internalType": "uint256",
          "name": "tokenId",
          "type": "uint256"
        }
      ],
      "name": "transferFrom",
      "outputs": [],
      "stateMutability": "nonpayable",
      "type": "function"
    },
    {
      "inputs": [
        {
          "internalType": "address",
          "name": "newOwner",
          "type": "address"
        }
      ],
      "name": "transferOwnership",
      "outputs": [],
      "stateMutability": "nonpayable",
      "type": "function"
    }
  ],
  "bytecode": "0x60806040523480156200001157600080fd5b506040518060400160405280600581526020017f4d794e46540000000000000000000000000000000000000000000000000000008152506040518060400160405280600381526020017f4e46540000000000000000000000000000000000000000000000000000000000815250620000966301ffc9a760e01b620001c960201b60201c565b8160069080519060200190620000ae929190620002da565b508060079080519060200190620000c7929190620002da565b50620000e06380ac58cd60e01b620001c960201b60201c565b620000f8635b5e139f60e01b620001c960201b60201c565b6200011063780e9d6360e01b620001c960201b60201c565b5050600062000124620002d260201b60201c565b905080600a60006101000a81548173ffffffffffffffffffffffffffffffffffffffff021916908373ffffffffffffffffffffffffffffffffffffffff1602179055508073ffffffffffffffffffffffffffffffffffffffff16600073ffffffffffffffffffffffffffffffffffffffff167f8be0079c531659141344cd1fd0a4f28419497f9722a3daafe3b4186f6b6457e060405160405180910390a35062000380565b63ffffffff60e01b817bffffffffffffffffffffffffffffffffffffffffffffffffffffffff1916141562000266576040517f08c379a000000000000000000000000000000000000000000000000000000000815260040180806020018281038252601c8152602001807f4552433136353a20696e76616c696420696e746572666163652069640000000081525060200191505060405180910390fd5b6001600080837bffffffffffffffffffffffffffffffffffffffffffffffffffffffff19167bffffffffffffffffffffffffffffffffffffffffffffffffffffffff1916815260200190815260200160002060006101000a81548160ff02191690831515021790555050565b600033905090565b828054600181600116156101000203166002900490600052602060002090601f016020900481019282601f106200031d57805160ff19168380011785556200034e565b828001600101855582156200034e579182015b828111156200034d57825182559160200191906001019062000330565b5b5090506200035d919062000361565b5090565b5b808211156200037c57600081600090555060010162000362565b5090565b61326180620003906000396000f3fe608060405234801561001057600080fd5b50600436106101425760003560e01c80636c0360eb116100b8578063a22cb4651161007c578063a22cb4651461072a578063b88d4fde1461077a578063c87b56dd1461087f578063e985e9c514610926578063eacabe14146109a0578063f2fde38b14610a8f57610142565b80636c0360eb1461058e57806370a0823114610611578063715018a6146106695780638da5cb5b1461067357806395d89b41146106a757610142565b806318160ddd1161010a57806318160ddd1461039857806323b872dd146103b65780632f745c591461042457806342842e0e146104865780634f6ccce7146104f45780636352211e1461053657610142565b806301ffc9a71461014757806306fdde03146101aa578063081812fc1461022d578063095ea7b314610285578063162094c4146102d3575b600080fd5b6101926004803603602081101561015d57600080fd5b8101908080357bffffffffffffffffffffffffffffffffffffffffffffffffffffffff19169060200190929190505050610ad3565b60405180821515815260200191505060405180910390f35b6101b2610b3a565b6040518080602001828103825283818151815260200191508051906020019080838360005b838110156101f25780820151818401526020810190506101d7565b50505050905090810190601f16801561021f5780820380516001836020036101000a031916815260200191505b509250505060405180910390f35b6102596004803603602081101561024357600080fd5b8101908080359060200190929190505050610bdc565b604051808273ffffffffffffffffffffffffffffffffffffffff16815260200191505060405180910390f35b6102d16004803603604081101561029b57600080fd5b81019080803573ffffffffffffffffffffffffffffffffffffffff16906020019092919080359060200190929190505050610c77565b005b610396600480360360408110156102e957600080fd5b81019080803590602001909291908035906020019064010000000081111561031057600080fd5b82018360208201111561032257600080fd5b8035906020019184600183028401116401000000008311171561034457600080fd5b91908080601f016020809104026020016040519081016040528093929190818152602001838380828437600081840152601f19601f820116905080830192505050505050509192919290505050610dbb565b005b6103a0610e5e565b6040518082815260200191505060405180910390f35b610422600480360360608110156103cc57600080fd5b81019080803573ffffffffffffffffffffffffffffffffffffffff169060200190929190803573ffffffffffffffffffffffffffffffffffffffff16906020019092919080359060200190929190505050610e6f565b005b6104706004803603604081101561043a57600080fd5b81019080803573ffffffffffffffffffffffffffffffffffffffff16906020019092919080359060200190929190505050610ee5565b6040518082815260200191505060405180910390f35b6104f26004803603606081101561049c57600080fd5b81019080803573ffffffffffffffffffffffffffffffffffffffff169060200190929190803573ffffffffffffffffffffffffffffffffffffffff16906020019092919080359060200190929190505050610f40565b005b6105206004803603602081101561050a57600080fd5b8101908080359060200190929190505050610f60565b6040518082815260200191505060405180910390f35b6105626004803603602081101561054c57600080fd5b8101908080359060200190929190505050610f83565b604051808273ffffffffffffffffffffffffffffffffffffffff16815260200191505060405180910390f35b610596610fba565b6040518080602001828103825283818151815260200191508051906020019080838360005b838110156105d65780820151818401526020810190506105bb565b50505050905090810190601f1680156106035780820380516001836020036101000a031916815260200191505b509250505060405180910390f35b6106536004803603602081101561062757600080fd5b81019080803573ffffffffffffffffffffffffffffffffffffffff16906020019092919050505061105c565b6040518082815260200191505060405180910390f35b610671611131565b005b61067b6112a1565b604051808273ffffffffffffffffffffffffffffffffffffffff16815260200191505060405180910390f35b6106af6112cb565b6040518080602001828103825283818151815260200191508051906020019080838360005b838110156106ef5780820151818401526020810190506106d4565b50505050905090810190601f16801561071c5780820380516001836020036101000a031916815260200191505b509250505060405180910390f35b6107786004803603604081101561074057600080fd5b81019080803573ffffffffffffffffffffffffffffffffffffffff16906020019092919080351515906020019092919050505061136d565b005b61087d6004803603608081101561079057600080fd5b81019080803573ffffffffffffffffffffffffffffffffffffffff169060200190929190803573ffffffffffffffffffffffffffffffffffffffff16906020019092919080359060200190929190803590602001906401000000008111156107f757600080fd5b82018360208201111561080957600080fd5b8035906020019184600183028401116401000000008311171561082b57600080fd5b91908080601f016020809104026020016040519081016040528093929190818152602001838380828437600081840152601f19601f820116905080830192505050505050509192919290505050611523565b005b6108ab6004803603602081101561089557600080fd5b810190808035906020019092919050505061159b565b6040518080602001828103825283818151815260200191508051906020019080838360005b838110156108eb5780820151818401526020810190506108d0565b50505050905090810190601f1680156109185780820380516001836020036101000a031916815260200191505b509250505060405180910390f35b6109886004803603604081101561093c57600080fd5b81019080803573ffffffffffffffffffffffffffffffffffffffff169060200190929190803573ffffffffffffffffffffffffffffffffffffffff16906020019092919050505061186c565b60405180821515815260200191505060405180910390f35b610a79600480360360408110156109b657600080fd5b81019080803573ffffffffffffffffffffffffffffffffffffffff169060200190929190803590602001906401000000008111156109f357600080fd5b820183602082011115610a0557600080fd5b80359060200191846001830284011164010000000083111715610a2757600080fd5b91908080601f016020809104026020016040519081016040528093929190818152602001838380828437600081840152601f19601f820116905080830192505050505050509192919290505050611900565b6040518082815260200191505060405180910390f35b610ad160048036036020811015610aa557600080fd5b81019080803573ffffffffffffffffffffffffffffffffffffffff1690602001909291905050506119e7565b005b6000806000837bffffffffffffffffffffffffffffffffffffffffffffffffffffffff19167bffffffffffffffffffffffffffffffffffffffffffffffffffffffff1916815260200190815260200160002060009054906101000a900460ff169050919050565b606060068054600181600116156101000203166002900480601f016020809104026020016040519081016040528092919081815260200182805460018160011615610100020316600290048015610bd25780601f10610ba757610100808354040283529160200191610bd2565b820191906000526020600020905b815481529060010190602001808311610bb557829003601f168201915b5050505050905090565b6000610be782611bdc565b610c3c576040517f08c379a000000000000000000000000000000000000000000000000000000000815260040180806020018281038252602c81526020018061312a602c913960400191505060405180910390fd5b6004600083815260200190815260200160002060009054906101000a900473ffffffffffffffffffffffffffffffffffffffff169050919050565b6000610c8282610f83565b90508073ffffffffffffffffffffffffffffffffffffffff168373ffffffffffffffffffffffffffffffffffffffff161415610d09576040517f08c379a00000000000000000000000000000000000000000000000000000000081526004018080602001828103825260218152602001806131da6021913960400191505060405180910390fd5b8073ffffffffffffffffffffffffffffffffffffffff16610d28611bf9565b73ffffffffffffffffffffffffffffffffffffffff161480610d575750610d5681610d51611bf9565b61186c565b5b610dac576040517f08c379a00000000000000000000000000000000000000000000000000000000081526004018080602001828103825260388152602001806130586038913960400191505060405180910390fd5b610db68383611c01565b505050565b81610dc4611bf9565b73ffffffffffffffffffffffffffffffffffffffff16610de382610f83565b73ffffffffffffffffffffffffffffffffffffffff1614610e4f576040517f08c379a00000000000000000000000000000000000000000000000000000000081526004018080602001828103825260258152602001806130906025913960400191505060405180910390fd5b610e598383611cba565b505050565b6000610e6a6002611d44565b905090565b610e80610e7a611bf9565b82611d59565b610ed5576040517f08c379a00000000000000000000000000000000000000000000000000000000081526004018080602001828103825260318152602001806131fb6031913960400191505060405180910390fd5b610ee0838383611e4d565b505050565b6000610f3882600160008673ffffffffffffffffffffffffffffffffffffffff1673ffffffffffffffffffffffffffffffffffffffff16815260200190815260200160002061209090919063ffffffff16565b905092915050565b610f5b83838360405180602001604052806000815250611523565b505050565b600080610f778360026120aa90919063ffffffff16565b50905080915050919050565b6000610fb3826040518060600160405280602981526020016130df6029913960026120d69092919063ffffffff16565b9050919050565b606060098054600181600116156101000203166002900480601f0160208091040260200160405190810160405280929190818152602001828054600181600116156101000203166002900480156110525780601f1061102757610100808354040283529160200191611052565b820191906000526020600020905b81548152906001019060200180831161103557829003601f168201915b5050505050905090565b60008073ffffffffffffffffffffffffffffffffffffffff168273ffffffffffffffffffffffffffffffffffffffff1614156110e3576040517f08c379a000000000000000000000000000000000000000000000000000000000815260040180806020018281038252602a8152602001806130b5602a913960400191505060405180910390fd5b61112a600160008473ffffffffffffffffffffffffffffffffffffffff1673ffffffffffffffffffffffffffffffffffffffff1681526020019081526020016000206120f5565b9050919050565b611139611bf9565b73ffffffffffffffffffffffffffffffffffffffff166111576112a1565b73ffffffffffffffffffffffffffffffffffffffff16146111e0576040517f08c379a00000000000000000000000000000000000000000000000000000000081526004018080602001828103825260208152602001807f4f776e61626c653a2063616c6c6572206973206e6f7420746865206f776e657281525060200191505060405180910390fd5b600073ffffffffffffffffffffffffffffffffffffffff16600a60009054906101000a900473ffffffffffffffffffffffffffffffffffffffff1673ffffffffffffffffffffffffffffffffffffffff167f8be0079c531659141344cd1fd0a4f28419497f9722a3daafe3b4186f6b6457e060405160405180910390a36000600a60006101000a81548173ffffffffffffffffffffffffffffffffffffffff021916908373ffffffffffffffffffffffffffffffffffffffff160217905550565b6000600a60009054906101000a900473ffffffffffffffffffffffffffffffffffffffff16905090565b606060078054600181600116156101000203166002900480601f0160208091040260200160405190810160405280929190818152602001828054600181600116156101000203166002900480156113635780601f1061133857610100808354040283529160200191611363565b820191906000526020600020905b81548152906001019060200180831161134657829003601f168201915b5050505050905090565b611375611bf9565b73ffffffffffffffffffffffffffffffffffffffff168273ffffffffffffffffffffffffffffffffffffffff161415611416576040517f08c379a00000000000000000000000000000000000000000000000000000000081526004018080602001828103825260198152602001807f4552433732313a20617070726f766520746f2063616c6c65720000000000000081525060200191505060405180910390fd5b8060056000611423611bf9565b73ffffffffffffffffffffffffffffffffffffffff1673ffffffffffffffffffffffffffffffffffffffff16815260200190815260200160002060008473ffffffffffffffffffffffffffffffffffffffff1673ffffffffffffffffffffffffffffffffffffffff16815260200190815260200160002060006101000a81548160ff0219169083151502179055508173ffffffffffffffffffffffffffffffffffffffff166114d0611bf9565b73ffffffffffffffffffffffffffffffffffffffff167f17307eab39ab6107e8899845ad3d59bd9653f200f220920489ca2b5937696c318360405180821515815260200191505060405180910390a35050565b61153461152e611bf9565b83611d59565b611589576040517f08c379a00000000000000000000000000000000000000000000000000000000081526004018080602001828103825260318152602001806131fb6031913960400191505060405180910390fd5b6115958484848461210a565b50505050565b60606115a682611bdc565b6115fb576040517f08c379a000000000000000000000000000000000000000000000000000000000815260040180806020018281038252602f8152602001806131ab602f913960400191505060405180910390fd5b6060600860008481526020019081526020016000208054600181600116156101000203166002900480601f0160208091040260200160405190810160405280929190818152602001828054600181600116156101000203166002900480156116a45780601f10611679576101008083540402835291602001916116a4565b820191906000526020600020905b81548152906001019060200180831161168757829003601f168201915b5050505050905060606116b5610fba565b90506000815114156116cb578192505050611867565b60008251111561179c5780826040516020018083805190602001908083835b6020831061170d57805182526020820191506020810190506020830392506116ea565b6001836020036101000a03801982511681845116808217855250505050505090500182805190602001908083835b6020831061175e578051825260208201915060208101905060208303925061173b565b6001836020036101000a0380198251168184511680821785525050505050509050019250505060405160208183030381529060405292505050611867565b806117a68561217c565b6040516020018083805190602001908083835b602083106117dc57805182526020820191506020810190506020830392506117b9565b6001836020036101000a03801982511681845116808217855250505050505090500182805190602001908083835b6020831061182d578051825260208201915060208101905060208303925061180a565b6001836020036101000a03801982511681845116808217855250505050505090500192505050604051602081830303815290604052925050505b919050565b6000600560008473ffffffffffffffffffffffffffffffffffffffff1673ffffffffffffffffffffffffffffffffffffffff16815260200190815260200160002060008373ffffffffffffffffffffffffffffffffffffffff1673ffffffffffffffffffffffffffffffffffffffff16815260200190815260200160002060009054906101000a900460ff16905092915050565b600061190a611bf9565b73ffffffffffffffffffffffffffffffffffffffff166119286112a1565b73ffffffffffffffffffffffffffffffffffffffff16146119b1576040517f08c379a00000000000000000000000000000000000000000000000000000000081526004018080602001828103825260208152602001807f4f776e61626c653a2063616c6c6572206973206e6f7420746865206f776e657281525060200191505060405180910390fd5b6119bb600b6122c3565b60006119c7600b6122d9565b90506119d384826122e7565b6119dd8184611cba565b8091505092915050565b6119ef611bf9565b73ffffffffffffffffffffffffffffffffffffffff16611a0d6112a1565b73ffffffffffffffffffffffffffffffffffffffff1614611a96576040517f08c379a00000000000000000000000000000000000000000000000000000000081526004018080602001828103825260208152602001807f4f776e61626c653a2063616c6c6572206973206e6f7420746865206f776e657281525060200191505060405180910390fd5b600073ffffffffffffffffffffffffffffffffffffffff168173ffffffffffffffffffffffffffffffffffffffff161415611b1c576040517f08c379a0000000000000000000000000000000000000000000000000000000008152600401808060200182810382526026815260200180612fbc6026913960400191505060405180910390fd5b8073ffffffffffffffffffffffffffffffffffffffff16600a60009054906101000a900473ffffffffffffffffffffffffffffffffffffffff1673ffffffffffffffffffffffffffffffffffffffff167f8be0079c531659141344cd1fd0a4f28419497f9722a3daafe3b4186f6b6457e060405160405180910390a380600a60006101000a81548173ffffffffffffffffffffffffffffffffffffffff021916908373ffffffffffffffffffffffffffffffffffffffff16021790555050565b6000611bf28260026124db90919063ffffffff16565b9050919050565b600033905090565b816004600083815260200190815260200160002060006101000a81548173ffffffffffffffffffffffffffffffffffffffff021916908373ffffffffffffffffffffffffffffffffffffffff160217905550808273ffffffffffffffffffffffffffffffffffffffff16611c7483610f83565b73ffffffffffffffffffffffffffffffffffffffff167f8c5be1e5ebec7d5bd14f71427d1e84f3dd0314c0f7b2291e5b200ac8c7c3b92560405160405180910390a45050565b611cc382611bdc565b611d18576040517f08c379a000000000000000000000000000000000000000000000000000000000815260040180806020018281038252602c815260200180613156602c913960400191505060405180910390fd5b80600860008481526020019081526020016000209080519060200190611d3f929190612eca565b505050565b6000611d52826000016124f5565b9050919050565b6000611d6482611bdc565b611db9576040517f08c379a000000000000000000000000000000000000000000000000000000000815260040180806020018281038252602c81526020018061302c602c913960400191505060405180910390fd5b6000611dc483610f83565b90508073ffffffffffffffffffffffffffffffffffffffff168473ffffffffffffffffffffffffffffffffffffffff161480611e3357508373ffffffffffffffffffffffffffffffffffffffff16611e1b84610bdc565b73ffffffffffffffffffffffffffffffffffffffff16145b80611e445750611e43818561186c565b5b91505092915050565b8273ffffffffffffffffffffffffffffffffffffffff16611e6d82610f83565b73ffffffffffffffffffffffffffffffffffffffff1614611ed9576040517f08c379a00000000000000000000000000000000000000000000000000000000081526004018080602001828103825260298152602001806131826029913960400191505060405180910390fd5b600073ffffffffffffffffffffffffffffffffffffffff168273ffffffffffffffffffffffffffffffffffffffff161415611f5f576040517f08c379a0000000000000000000000000000000000000000000000000000000008152600401808060200182810382526024815260200180612fe26024913960400191505060405180910390fd5b611f6a838383612506565b611f75600082611c01565b611fc681600160008673ffffffffffffffffffffffffffffffffffffffff1673ffffffffffffffffffffffffffffffffffffffff16815260200190815260200160002061250b90919063ffffffff16565b5061201881600160008573ffffffffffffffffffffffffffffffffffffffff1673ffffffffffffffffffffffffffffffffffffffff16815260200190815260200160002061252590919063ffffffff16565b5061202f8183600261253f9092919063ffffffff16565b50808273ffffffffffffffffffffffffffffffffffffffff168473ffffffffffffffffffffffffffffffffffffffff167fddf252ad1be2c89b69c2b068fc378daa952ba7f163c4a11628f55a4df523b3ef60405160405180910390a4505050565b600061209f8360000183612574565b60001c905092915050565b6000806000806120bd86600001866125f7565b915091508160001c8160001c9350935050509250929050565b60006120e9846000018460001b84612690565b60001c90509392505050565b600061210382600001612786565b9050919050565b612115848484611e4d565b61212184848484612797565b612176576040517f08c379a0000000000000000000000000000000000000000000000000000000008152600401808060200182810382526032815260200180612f8a6032913960400191505060405180910390fd5b50505050565b606060008214156121c4576040518060400160405280600181526020017f300000000000000000000000000000000000000000000000000000000000000081525090506122be565b600082905060005b600082146121ee578080600101915050600a82816121e657fe5b0491506121cc565b60608167ffffffffffffffff8111801561220757600080fd5b506040519080825280601f01601f19166020018201604052801561223a5781602001600182028036833780820191505090505b50905060006001830390508593505b600084146122b657600a848161225b57fe5b0660300160f81b8282806001900393508151811061227557fe5b60200101907effffffffffffffffffffffffffffffffffffffffffffffffffffffffffffff1916908160001a905350600a84816122ae57fe5b049350612249565b819450505050505b919050565b6001816000016000828254019250508190555050565b600081600001549050919050565b600073ffffffffffffffffffffffffffffffffffffffff168273ffffffffffffffffffffffffffffffffffffffff16141561238a576040517f08c379a00000000000000000000000000000000000000000000000000000000081526004018080602001828103825260208152602001807f4552433732313a206d696e7420746f20746865207a65726f206164647265737381525060200191505060405180910390fd5b61239381611bdc565b15612406576040517f08c379a000000000000000000000000000000000000000000000000000000000815260040180806020018281038252601c8152602001807f4552433732313a20746f6b656e20616c7265616479206d696e7465640000000081525060200191505060405180910390fd5b61241260008383612506565b61246381600160008573ffffffffffffffffffffffffffffffffffffffff1673ffffffffffffffffffffffffffffffffffffffff16815260200190815260200160002061252590919063ffffffff16565b5061247a8183600261253f9092919063ffffffff16565b50808273ffffffffffffffffffffffffffffffffffffffff16600073ffffffffffffffffffffffffffffffffffffffff167fddf252ad1be2c89b69c2b068fc378daa952ba7f163c4a11628f55a4df523b3ef60405160405180910390a45050565b60006124ed836000018360001b6129b0565b905092915050565b600081600001805490509050919050565b505050565b600061251d836000018360001b6129d3565b905092915050565b6000612537836000018360001b612abb565b905092915050565b600061256b846000018460001b8473ffffffffffffffffffffffffffffffffffffffff1660001b612b2b565b90509392505050565b6000818360000180549050116125d5576040517f08c379a0000000000000000000000000000000000000000000000000000000008152600401808060200182810382526022815260200180612f686022913960400191505060405180910390fd5b8260000182815481106125e457fe5b9060005260206000200154905092915050565b60008082846000018054905011612659576040517f08c379a00000000000000000000000000000000000000000000000000000000081526004018080602001828103825260228152602001806131086022913960400191505060405180910390fd5b600084600001848154811061266a57fe5b906000526020600020906002020190508060000154816001015492509250509250929050565b60008084600101600085815260200190815260200160002054905060008114158390612757576040517f08c379a00000000000000000000000000000000000000000000000000000000081526004018080602001828103825283818151815260200191508051906020019080838360005b8381101561271c578082015181840152602081019050612701565b50505050905090810190601f1680156127495780820380516001836020036101000a031916815260200191505b509250505060405180910390fd5b5084600001600182038154811061276a57fe5b9060005260206000209060020201600101549150509392505050565b600081600001805490509050919050565b60006127b88473ffffffffffffffffffffffffffffffffffffffff16612c07565b6127c557600190506129a8565b606061292f63150b7a0260e01b6127da611bf9565b888787604051602401808573ffffffffffffffffffffffffffffffffffffffff1681526020018473ffffffffffffffffffffffffffffffffffffffff16815260200183815260200180602001828103825283818151815260200191508051906020019080838360005b8381101561285e578082015181840152602081019050612843565b50505050905090810190601f16801561288b5780820380516001836020036101000a031916815260200191505b5095505050505050604051602081830303815290604052907bffffffffffffffffffffffffffffffffffffffffffffffffffffffff19166020820180517bffffffffffffffffffffffffffffffffffffffffffffffffffffffff8381831617835250505050604051806060016040528060328152602001612f8a603291398773ffffffffffffffffffffffffffffffffffffffff16612c1a9092919063ffffffff16565b9050600081806020019051602081101561294857600080fd5b8101908080519060200190929190505050905063150b7a0260e01b7bffffffffffffffffffffffffffffffffffffffffffffffffffffffff1916817bffffffffffffffffffffffffffffffffffffffffffffffffffffffff191614925050505b949350505050565b600080836001016000848152602001908152602001600020541415905092915050565b60008083600101600084815260200190815260200160002054905060008114612aaf5760006001820390506000600186600001805490500390506000866000018281548110612a1e57fe5b9060005260206000200154905080876000018481548110612a3b57fe5b9060005260206000200181905550600183018760010160008381526020019081526020016000208190555086600001805480612a7357fe5b60019003818190600052602060002001600090559055866001016000878152602001908152602001600020600090556001945050505050612ab5565b60009150505b92915050565b6000612ac78383612c32565b612b20578260000182908060018154018082558091505060019003906000526020600020016000909190919091505582600001805490508360010160008481526020019081526020016000208190555060019050612b25565b600090505b92915050565b6000808460010160008581526020019081526020016000205490506000811415612bd257846000016040518060400160405280868152602001858152509080600181540180825580915050600190039060005260206000209060020201600090919091909150600082015181600001556020820151816001015550508460000180549050856001016000868152602001908152602001600020819055506001915050612c00565b82856000016001830381548110612be557fe5b90600052602060002090600202016001018190555060009150505b9392505050565b600080823b905060008111915050919050565b6060612c298484600085612c55565b90509392505050565b600080836001016000848152602001908152602001600020541415905092915050565b606082471015612cb0576040517f08c379a00000000000000000000000000000000000000000000000000000000081526004018080602001828103825260268152602001806130066026913960400191505060405180910390fd5b612cb985612c07565b612d2b576040517f08c379a000000000000000000000000000000000000000000000000000000000815260040180806020018281038252601d8152602001807f416464726573733a2063616c6c20746f206e6f6e2d636f6e747261637400000081525060200191505060405180910390fd5b600060608673ffffffffffffffffffffffffffffffffffffffff1685876040518082805190602001908083835b60208310612d7b5780518252602082019150602081019050602083039250612d58565b6001836020036101000a03801982511681845116808217855250505050505090500191505060006040518083038185875af1925050503d8060008114612ddd576040519150601f19603f3d011682016040523d82523d6000602084013e612de2565b606091505b5091509150612df2828286612dfe565b92505050949350505050565b60608315612e0e57829050612ec3565b600083511115612e215782518084602001fd5b816040517f08c379a00000000000000000000000000000000000000000000000000000000081526004018080602001828103825283818151815260200191508051906020019080838360005b83811015612e88578082015181840152602081019050612e6d565b50505050905090810190601f168015612eb55780820380516001836020036101000a031916815260200191505b509250505060405180910390fd5b9392505050565b828054600181600116156101000203166002900490600052602060002090601f016020900481019282601f10612f0b57805160ff1916838001178555612f39565b82800160010185558215612f39579182015b82811115612f38578251825591602001919060010190612f1d565b5b509050612f469190612f4a565b5090565b5b80821115612f63576000816000905550600101612f4b565b509056fe456e756d657261626c655365743a20696e646578206f7574206f6620626f756e64734552433732313a207472616e7366657220746f206e6f6e20455243373231526563656976657220696d706c656d656e7465724f776e61626c653a206e6577206f776e657220697320746865207a65726f20616464726573734552433732313a207472616e7366657220746f20746865207a65726f2061646472657373416464726573733a20696e73756666696369656e742062616c616e636520666f722063616c6c4552433732313a206f70657261746f7220717565727920666f72206e6f6e6578697374656e7420746f6b656e4552433732313a20617070726f76652063616c6c6572206973206e6f74206f776e6572206e6f7220617070726f76656420666f7220616c6c4f776e61626c653a2063616c6c6572206973206e6f742074686520746f6b656e4f776e65724552433732313a2062616c616e636520717565727920666f7220746865207a65726f20616464726573734552433732313a206f776e657220717565727920666f72206e6f6e6578697374656e7420746f6b656e456e756d657261626c654d61703a20696e646578206f7574206f6620626f756e64734552433732313a20617070726f76656420717565727920666f72206e6f6e6578697374656e7420746f6b656e4552433732314d657461646174613a2055524920736574206f66206e6f6e6578697374656e7420746f6b656e4552433732313a207472616e73666572206f6620746f6b656e2074686174206973206e6f74206f776e4552433732314d657461646174613a2055524920717565727920666f72206e6f6e6578697374656e7420746f6b656e4552433732313a20617070726f76616c20746f2063757272656e74206f776e65724552433732313a207472616e736665722063616c6c6572206973206e6f74206f776e6572206e6f7220617070726f766564a2646970667358221220ab4882356273be044b4352684e5be5872649f0ac2282d96936a9815934cec08464736f6c63430007030033",
  "linkReferences": {},
  "deployedLinkReferences": {}
}