{
  "_format": "hh-sol-artifact-1",
  "contractName": "NftStakingWallet",
  "sourceName": "contracts/StakingWallet.sol",
  "abi": [
    {
      "inputs": [
        {
          "internalType": "address",
          "name": "tokenCollectionContract",
          "type": "address"
        },
        {
          "internalType": "address",
          "name": "_cTokenAddress",
          "type": "address"
        },
        {
          "internalType": "address",
          "name": "_underlying",
          "type": "address"
        },
        {
          "internalType": "address",
          "name": "_compErc20Address",
          "type": "address"
        }
      ],
      "stateMutability": "nonpayable",
      "type": "constructor"
    },
    {
      "anonymous": false,
      "inputs": [
        {
          "indexed": false,
          "internalType": "uint256",
          "name": "tokenId",
          "type": "uint256"
        },
        {
          "indexed": true,
          "internalType": "address",
          "name": "payer",
          "type": "address"
        },
        {
          "indexed": false,
          "internalType": "uint256",
          "name": "weiAmount",
          "type": "uint256"
        }
      ],
      "name": "Deposited",
      "type": "event"
    },
    {
      "anonymous": false,
      "inputs": [
        {
          "indexed": true,
          "internalType": "address",
          "name": "payee",
          "type": "address"
        },
        {
          "indexed": false,
          "internalType": "uint256",
          "name": "weiAmount",
          "type": "uint256"
        }
      ],
      "name": "InterestClaimed",
      "type": "event"
    },
    {
      "anonymous": false,
      "inputs": [
        {
          "indexed": true,
          "internalType": "address",
          "name": "previousOwner",
          "type": "address"
        },
        {
          "indexed": true,
          "internalType": "address",
          "name": "newOwner",
          "type": "address"
        }
      ],
      "name": "OwnershipTransferred",
      "type": "event"
    },
    {
      "anonymous": false,
      "inputs": [
        {
          "indexed": false,
          "internalType": "uint256",
          "name": "tokenId",
          "type": "uint256"
        },
        {
          "indexed": true,
          "internalType": "address",
          "name": "payee",
          "type": "address"
        },
        {
          "indexed": false,
          "internalType": "uint256",
          "name": "weiAmount",
          "type": "uint256"
        }
      ],
      "name": "Withdrawn",
      "type": "event"
    },
    {
      "inputs": [],
      "name": "claimComp",
      "outputs": [],
      "stateMutability": "nonpayable",
      "type": "function"
    },
    {
      "inputs": [
        {
          "internalType": "address payable",
          "name": "payee",
          "type": "address"
        }
      ],
      "name": "claimPrize",
      "outputs": [],
      "stateMutability": "nonpayable",
      "type": "function"
    },
    {
      "inputs": [
        {
          "internalType": "uint256",
          "name": "tokenId",
          "type": "uint256"
        },
        {
          "internalType": "uint256",
          "name": "amount",
          "type": "uint256"
        }
      ],
      "name": "deposit",
      "outputs": [],
      "stateMutability": "payable",
      "type": "function"
    },
    {
      "inputs": [
        {
          "internalType": "uint256",
          "name": "tokenId",
          "type": "uint256"
        }
      ],
      "name": "depositsOf",
      "outputs": [
        {
          "internalType": "uint256",
          "name": "",
          "type": "uint256"
        }
      ],
      "stateMutability": "view",
      "type": "function"
    },
    {
      "inputs": [],
      "name": "getInterestEarned",
      "outputs": [
        {
          "internalType": "uint256",
          "name": "",
          "type": "uint256"
        }
      ],
      "stateMutability": "view",
      "type": "function"
    },
    {
      "inputs": [],
      "name": "owner",
      "outputs": [
        {
          "internalType": "address",
          "name": "",
          "type": "address"
        }
      ],
      "stateMutability": "view",
      "type": "function"
    },
    {
      "inputs": [],
      "name": "renounceOwnership",
      "outputs": [],
      "stateMutability": "nonpayable",
      "type": "function"
    },
    {
      "inputs": [
        {
          "internalType": "address payable",
          "name": "payee",
          "type": "address"
        }
      ],
      "name": "sendComp",
      "outputs": [],
      "stateMutability": "nonpayable",
      "type": "function"
    },
    {
      "inputs": [],
      "name": "totalDeposits",
      "outputs": [
        {
          "internalType": "uint256",
          "name": "",
          "type": "uint256"
        }
      ],
      "stateMutability": "view",
      "type": "function"
    },
    {
      "inputs": [
        {
          "internalType": "address",
          "name": "newOwner",
          "type": "address"
        }
      ],
      "name": "transferOwnership",
      "outputs": [],
      "stateMutability": "nonpayable",
      "type": "function"
    },
    {
      "inputs": [
        {
          "internalType": "address payable",
          "name": "payee",
          "type": "address"
        },
        {
          "internalType": "uint256",
          "name": "tokenId",
          "type": "uint256"
        }
      ],
      "name": "withdraw",
      "outputs": [],
      "stateMutability": "nonpayable",
      "type": "function"
    }
  ],
  "bytecode": "0x608060405260006006553480156200001657600080fd5b5060405162001c1238038062001c1283398181016040528101906200003c91906200024d565b6200005c620000506200016a60201b60201c565b6200017260201b60201c565b83600160006101000a81548173ffffffffffffffffffffffffffffffffffffffff021916908373ffffffffffffffffffffffffffffffffffffffff16021790555081600360006101000a81548173ffffffffffffffffffffffffffffffffffffffff021916908373ffffffffffffffffffffffffffffffffffffffff16021790555082600260006101000a81548173ffffffffffffffffffffffffffffffffffffffff021916908373ffffffffffffffffffffffffffffffffffffffff16021790555080600460006101000a81548173ffffffffffffffffffffffffffffffffffffffff021916908373ffffffffffffffffffffffffffffffffffffffff1602179055505050505062000307565b600033905090565b60008060009054906101000a900473ffffffffffffffffffffffffffffffffffffffff169050816000806101000a81548173ffffffffffffffffffffffffffffffffffffffff021916908373ffffffffffffffffffffffffffffffffffffffff1602179055508173ffffffffffffffffffffffffffffffffffffffff168173ffffffffffffffffffffffffffffffffffffffff167f8be0079c531659141344cd1fd0a4f28419497f9722a3daafe3b4186f6b6457e060405160405180910390a35050565b6000815190506200024781620002ed565b92915050565b600080600080608085870312156200026457600080fd5b6000620002748782880162000236565b9450506020620002878782880162000236565b93505060406200029a8782880162000236565b9250506060620002ad8782880162000236565b91505092959194509250565b6000620002c682620002cd565b9050919050565b600073ffffffffffffffffffffffffffffffffffffffff82169050919050565b620002f881620002b9565b81146200030457600080fd5b50565b6118fb80620003176000396000f3fe60806040526004361061009c5760003560e01c80638da5cb5b116100645780638da5cb5b146101605780639a939c5f1461018b578063e2bbb158146101b6578063e5e9b661146101d2578063f2fde38b146101fb578063f3fef3a3146102245761009c565b80631bd85bdb146100a1578063582a1d9a146100b8578063715018a6146100e15780637cf850f2146100f85780637d88209714610135575b600080fd5b3480156100ad57600080fd5b506100b661024d565b005b3480156100c457600080fd5b506100df60048036038101906100da91906113cf565b610358565b005b3480156100ed57600080fd5b506100f66105e7565b005b34801561010457600080fd5b5061011f600480360381019061011a919061145d565b61066f565b60405161012c919061166b565b60405180910390f35b34801561014157600080fd5b5061014a61068c565b604051610157919061166b565b60405180910390f35b34801561016c57600080fd5b50610175610696565b60405161018291906115be565b60405180910390f35b34801561019757600080fd5b506101a06106bf565b6040516101ad919061166b565b60405180910390f35b6101d060048036038101906101cb91906114af565b61077e565b005b3480156101de57600080fd5b506101f960048036038101906101f491906113cf565b61097e565b005b34801561020757600080fd5b50610222600480360381019061021d919061137d565b610b47565b005b34801561023057600080fd5b5061024b600480360381019061024691906113f8565b610c3f565b005b610255610ef7565b73ffffffffffffffffffffffffffffffffffffffff16610273610696565b73ffffffffffffffffffffffffffffffffffffffff16146102c9576040517f08c379a00000000000000000000000000000000000000000000000000000000081526004016102c09061164b565b60405180910390fd5b600460009054906101000a900473ffffffffffffffffffffffffffffffffffffffff1673ffffffffffffffffffffffffffffffffffffffff1663e9af0292306040518263ffffffff1660e01b815260040161032491906115be565b600060405180830381600087803b15801561033e57600080fd5b505af1158015610352573d6000803e3d6000fd5b50505050565b610360610ef7565b73ffffffffffffffffffffffffffffffffffffffff1661037e610696565b73ffffffffffffffffffffffffffffffffffffffff16146103d4576040517f08c379a00000000000000000000000000000000000000000000000000000000081526004016103cb9061164b565b60405180910390fd5b6000600460009054906101000a900473ffffffffffffffffffffffffffffffffffffffff1673ffffffffffffffffffffffffffffffffffffffff166370a08231306040518263ffffffff1660e01b815260040161043191906115be565b60206040518083038186803b15801561044957600080fd5b505afa15801561045d573d6000803e3d6000fd5b505050506040513d601f19601f820116820180604052508101906104819190611486565b9050600460009054906101000a900473ffffffffffffffffffffffffffffffffffffffff1673ffffffffffffffffffffffffffffffffffffffff1663095ea7b383836040518363ffffffff1660e01b81526004016104e09291906115d9565b602060405180830381600087803b1580156104fa57600080fd5b505af115801561050e573d6000803e3d6000fd5b505050506040513d601f19601f820116820180604052508101906105329190611434565b50600460009054906101000a900473ffffffffffffffffffffffffffffffffffffffff1673ffffffffffffffffffffffffffffffffffffffff1663a9059cbb83836040518363ffffffff1660e01b81526004016105909291906115d9565b602060405180830381600087803b1580156105aa57600080fd5b505af11580156105be573d6000803e3d6000fd5b505050506040513d601f19601f820116820180604052508101906105e29190611434565b505050565b6105ef610ef7565b73ffffffffffffffffffffffffffffffffffffffff1661060d610696565b73ffffffffffffffffffffffffffffffffffffffff1614610663576040517f08c379a000000000000000000000000000000000000000000000000000000000815260040161065a9061164b565b60405180910390fd5b61066d6000610eff565b565b600060056000838152602001908152602001600020549050919050565b6000600654905090565b60008060009054906101000a900473ffffffffffffffffffffffffffffffffffffffff16905090565b600080600260009054906101000a900473ffffffffffffffffffffffffffffffffffffffff1673ffffffffffffffffffffffffffffffffffffffff1663bd6d894d6040518163ffffffff1660e01b815260040160206040518083038186803b15801561072a57600080fd5b505afa15801561073e573d6000803e3d6000fd5b505050506040513d601f19601f820116820180604052508101906107629190611486565b90506000816006546107749190611716565b9050809250505090565b610786610ef7565b73ffffffffffffffffffffffffffffffffffffffff166107a4610696565b73ffffffffffffffffffffffffffffffffffffffff16146107fa576040517f08c379a00000000000000000000000000000000000000000000000000000000081526004016107f19061164b565b60405180910390fd5b81600160009054906101000a900473ffffffffffffffffffffffffffffffffffffffff1673ffffffffffffffffffffffffffffffffffffffff16636352211e826040518263ffffffff1660e01b8152600401610856919061166b565b60206040518083038186803b15801561086e57600080fd5b505afa158015610882573d6000803e3d6000fd5b505050506040513d601f19601f820116820180604052508101906108a691906113a6565b50816005600085815260200190815260200160002060008282546108ca91906116c0565b9250508190555081600660008282546108e391906116c0565b9250508190555060006108f583610fc3565b14610929577f4e487b7100000000000000000000000000000000000000000000000000000000600052600160045260246000fd5b3273ffffffffffffffffffffffffffffffffffffffff167f1599c0fcf897af5babc2bfcf707f5dc050f841b044d97c3251ecec35b9abf80b8484604051610971929190611686565b60405180910390a2505050565b610986610ef7565b73ffffffffffffffffffffffffffffffffffffffff166109a4610696565b73ffffffffffffffffffffffffffffffffffffffff16146109fa576040517f08c379a00000000000000000000000000000000000000000000000000000000081526004016109f19061164b565b60405180910390fd5b6000610a046106bf565b90506000610a11826111cd565b14610a45577f4e487b7100000000000000000000000000000000000000000000000000000000600052600160045260246000fd5b600360009054906101000a900473ffffffffffffffffffffffffffffffffffffffff1673ffffffffffffffffffffffffffffffffffffffff1663095ea7b383836040518363ffffffff1660e01b8152600401610aa29291906115d9565b602060405180830381600087803b158015610abc57600080fd5b505af1158015610ad0573d6000803e3d6000fd5b505050506040513d601f19601f82011682018060405250810190610af49190611434565b508173ffffffffffffffffffffffffffffffffffffffff167ff9984c8173c4b4ff9cc454f76ed19c053f4490ccb224fd9ddffeb4ef4bea353082604051610b3b919061166b565b60405180910390a25050565b610b4f610ef7565b73ffffffffffffffffffffffffffffffffffffffff16610b6d610696565b73ffffffffffffffffffffffffffffffffffffffff1614610bc3576040517f08c379a0000000000000000000000000000000000000000000000000000000008152600401610bba9061164b565b60405180910390fd5b600073ffffffffffffffffffffffffffffffffffffffff168173ffffffffffffffffffffffffffffffffffffffff161415610c33576040517f08c379a0000000000000000000000000000000000000000000000000000000008152600401610c2a9061162b565b60405180910390fd5b610c3c81610eff565b50565b610c47610ef7565b73ffffffffffffffffffffffffffffffffffffffff16610c65610696565b73ffffffffffffffffffffffffffffffffffffffff1614610cbb576040517f08c379a0000000000000000000000000000000000000000000000000000000008152600401610cb29061164b565b60405180910390fd5b80600160009054906101000a900473ffffffffffffffffffffffffffffffffffffffff1673ffffffffffffffffffffffffffffffffffffffff16636352211e826040518263ffffffff1660e01b8152600401610d17919061166b565b60206040518083038186803b158015610d2f57600080fd5b505afa158015610d43573d6000803e3d6000fd5b505050506040513d601f19601f82011682018060405250810190610d6791906113a6565b50600060056000848152602001908152602001600020549050600060056000858152602001908152602001600020819055508060066000828254610dab9190611747565b925050819055506000610dbd826111cd565b14610df1577f4e487b7100000000000000000000000000000000000000000000000000000000600052600160045260246000fd5b600360009054906101000a900473ffffffffffffffffffffffffffffffffffffffff1673ffffffffffffffffffffffffffffffffffffffff1663095ea7b385836040518363ffffffff1660e01b8152600401610e4e9291906115d9565b602060405180830381600087803b158015610e6857600080fd5b505af1158015610e7c573d6000803e3d6000fd5b505050506040513d601f19601f82011682018060405250810190610ea09190611434565b508373ffffffffffffffffffffffffffffffffffffffff167fcf7d23a3cbe4e8b36ff82fd1b05b1b17373dc7804b4ebbd6e2356716ef2023728483604051610ee9929190611686565b60405180910390a250505050565b600033905090565b60008060009054906101000a900473ffffffffffffffffffffffffffffffffffffffff169050816000806101000a81548173ffffffffffffffffffffffffffffffffffffffff021916908373ffffffffffffffffffffffffffffffffffffffff1602179055508173ffffffffffffffffffffffffffffffffffffffff168173ffffffffffffffffffffffffffffffffffffffff167f8be0079c531659141344cd1fd0a4f28419497f9722a3daafe3b4186f6b6457e060405160405180910390a35050565b6000610fcd610ef7565b73ffffffffffffffffffffffffffffffffffffffff16610feb610696565b73ffffffffffffffffffffffffffffffffffffffff1614611041576040517f08c379a00000000000000000000000000000000000000000000000000000000081526004016110389061164b565b60405180910390fd5b600360009054906101000a900473ffffffffffffffffffffffffffffffffffffffff1673ffffffffffffffffffffffffffffffffffffffff1663095ea7b3600260009054906101000a900473ffffffffffffffffffffffffffffffffffffffff16846040518363ffffffff1660e01b81526004016110c0929190611602565b602060405180830381600087803b1580156110da57600080fd5b505af11580156110ee573d6000803e3d6000fd5b505050506040513d601f19601f820116820180604052508101906111129190611434565b506000600260009054906101000a900473ffffffffffffffffffffffffffffffffffffffff1673ffffffffffffffffffffffffffffffffffffffff1663a0712d68846040518263ffffffff1660e01b8152600401611170919061166b565b602060405180830381600087803b15801561118a57600080fd5b505af115801561119e573d6000803e3d6000fd5b505050506040513d601f19601f820116820180604052508101906111c29190611486565b905080915050919050565b60006111d7610ef7565b73ffffffffffffffffffffffffffffffffffffffff166111f5610696565b73ffffffffffffffffffffffffffffffffffffffff161461124b576040517f08c379a00000000000000000000000000000000000000000000000000000000081526004016112429061164b565b60405180910390fd5b600260009054906101000a900473ffffffffffffffffffffffffffffffffffffffff1673ffffffffffffffffffffffffffffffffffffffff1663852a12e3836040518263ffffffff1660e01b81526004016112a6919061166b565b602060405180830381600087803b1580156112c057600080fd5b505af11580156112d4573d6000803e3d6000fd5b505050506040513d601f19601f820116820180604052508101906112f89190611486565b9050919050565b60008135905061130e81611869565b92915050565b60008151905061132381611869565b92915050565b60008135905061133881611880565b92915050565b60008151905061134d81611897565b92915050565b600081359050611362816118ae565b92915050565b600081519050611377816118ae565b92915050565b60006020828403121561138f57600080fd5b600061139d848285016112ff565b91505092915050565b6000602082840312156113b857600080fd5b60006113c684828501611314565b91505092915050565b6000602082840312156113e157600080fd5b60006113ef84828501611329565b91505092915050565b6000806040838503121561140b57600080fd5b600061141985828601611329565b925050602061142a85828601611353565b9150509250929050565b60006020828403121561144657600080fd5b60006114548482850161133e565b91505092915050565b60006020828403121561146f57600080fd5b600061147d84828501611353565b91505092915050565b60006020828403121561149857600080fd5b60006114a684828501611368565b91505092915050565b600080604083850312156114c257600080fd5b60006114d085828601611353565b92505060206114e185828601611353565b9150509250929050565b6114f4816117d5565b82525050565b6115038161177b565b82525050565b60006115166026836116af565b91507f4f776e61626c653a206e6577206f776e657220697320746865207a65726f206160008301527f64647265737300000000000000000000000000000000000000000000000000006020830152604082019050919050565b600061157c6020836116af565b91507f4f776e61626c653a2063616c6c6572206973206e6f7420746865206f776e65726000830152602082019050919050565b6115b8816117cb565b82525050565b60006020820190506115d360008301846114fa565b92915050565b60006040820190506115ee60008301856114eb565b6115fb60208301846115af565b9392505050565b600060408201905061161760008301856114fa565b61162460208301846115af565b9392505050565b6000602082019050818103600083015261164481611509565b9050919050565b600060208201905081810360008301526116648161156f565b9050919050565b600060208201905061168060008301846115af565b92915050565b600060408201905061169b60008301856115af565b6116a860208301846115af565b9392505050565b600082825260208201905092915050565b60006116cb826117cb565b91506116d6836117cb565b9250827fffffffffffffffffffffffffffffffffffffffffffffffffffffffffffffffff0382111561170b5761170a61180b565b5b828201905092915050565b6000611721826117cb565b915061172c836117cb565b92508261173c5761173b61183a565b5b828204905092915050565b6000611752826117cb565b915061175d836117cb565b9250828210156117705761176f61180b565b5b828203905092915050565b6000611786826117ab565b9050919050565b6000611798826117ab565b9050919050565b60008115159050919050565b600073ffffffffffffffffffffffffffffffffffffffff82169050919050565b6000819050919050565b60006117e0826117e7565b9050919050565b60006117f2826117f9565b9050919050565b6000611804826117ab565b9050919050565b7f4e487b7100000000000000000000000000000000000000000000000000000000600052601160045260246000fd5b7f4e487b7100000000000000000000000000000000000000000000000000000000600052601260045260246000fd5b6118728161177b565b811461187d57600080fd5b50565b6118898161178d565b811461189457600080fd5b50565b6118a08161179f565b81146118ab57600080fd5b50565b6118b7816117cb565b81146118c257600080fd5b5056fea26469706673582212204a1fe5c13f1a1fec40d82e0f3b73cd738620fe09cee450d63f075bd429a2370064736f6c63430008000033",
  "linkReferences": {},
  "deployedLinkReferences": {}
}