{
  "_format": "hh-sol-artifact-1",
  "contractName": "StakingWallet",
  "sourceName": "contracts/StakingWallet.sol",
  "abi": [
    {
      "inputs": [
        {
          "internalType": "address",
          "name": "_cTokenAddress",
          "type": "address"
        },
        {
          "internalType": "address",
          "name": "_underlying",
          "type": "address"
        },
        {
          "internalType": "address",
          "name": "_compErc20Address",
          "type": "address"
        }
      ],
      "stateMutability": "nonpayable",
      "type": "constructor"
    },
    {
      "anonymous": false,
      "inputs": [
        {
          "indexed": false,
          "internalType": "uint256",
          "name": "tokenId",
          "type": "uint256"
        },
        {
          "indexed": true,
          "internalType": "address",
          "name": "payer",
          "type": "address"
        },
        {
          "indexed": false,
          "internalType": "uint256",
          "name": "weiAmount",
          "type": "uint256"
        }
      ],
      "name": "Deposited",
      "type": "event"
    },
    {
      "anonymous": false,
      "inputs": [
        {
          "indexed": true,
          "internalType": "address",
          "name": "payee",
          "type": "address"
        },
        {
          "indexed": false,
          "internalType": "uint256",
          "name": "weiAmount",
          "type": "uint256"
        }
      ],
      "name": "InterestClaimed",
      "type": "event"
    },
    {
      "anonymous": false,
      "inputs": [
        {
          "indexed": true,
          "internalType": "address",
          "name": "previousOwner",
          "type": "address"
        },
        {
          "indexed": true,
          "internalType": "address",
          "name": "newOwner",
          "type": "address"
        }
      ],
      "name": "OwnershipTransferred",
      "type": "event"
    },
    {
      "anonymous": false,
      "inputs": [
        {
          "indexed": false,
          "internalType": "uint256",
          "name": "tokenId",
          "type": "uint256"
        },
        {
          "indexed": true,
          "internalType": "address",
          "name": "payee",
          "type": "address"
        },
        {
          "indexed": false,
          "internalType": "uint256",
          "name": "weiAmount",
          "type": "uint256"
        }
      ],
      "name": "Withdrawn",
      "type": "event"
    },
    {
      "inputs": [],
      "name": "claimComp",
      "outputs": [],
      "stateMutability": "nonpayable",
      "type": "function"
    },
    {
      "inputs": [
        {
          "internalType": "uint256",
          "name": "tokenId",
          "type": "uint256"
        }
      ],
      "name": "deposit",
      "outputs": [],
      "stateMutability": "payable",
      "type": "function"
    },
    {
      "inputs": [
        {
          "internalType": "uint256",
          "name": "tokenId",
          "type": "uint256"
        }
      ],
      "name": "depositsOf",
      "outputs": [
        {
          "internalType": "uint256",
          "name": "",
          "type": "uint256"
        }
      ],
      "stateMutability": "view",
      "type": "function"
    },
    {
      "inputs": [],
      "name": "getInterestEarned",
      "outputs": [
        {
          "internalType": "uint256",
          "name": "",
          "type": "uint256"
        }
      ],
      "stateMutability": "view",
      "type": "function"
    },
    {
      "inputs": [],
      "name": "owner",
      "outputs": [
        {
          "internalType": "address",
          "name": "",
          "type": "address"
        }
      ],
      "stateMutability": "view",
      "type": "function"
    },
    {
      "inputs": [],
      "name": "renounceOwnership",
      "outputs": [],
      "stateMutability": "nonpayable",
      "type": "function"
    },
    {
      "inputs": [
        {
          "internalType": "address payable",
          "name": "payee",
          "type": "address"
        }
      ],
      "name": "sendAccumulatedInterest",
      "outputs": [],
      "stateMutability": "nonpayable",
      "type": "function"
    },
    {
      "inputs": [
        {
          "internalType": "address payable",
          "name": "payee",
          "type": "address"
        }
      ],
      "name": "sendComp",
      "outputs": [],
      "stateMutability": "nonpayable",
      "type": "function"
    },
    {
      "inputs": [
        {
          "internalType": "address",
          "name": "newOwner",
          "type": "address"
        }
      ],
      "name": "transferOwnership",
      "outputs": [],
      "stateMutability": "nonpayable",
      "type": "function"
    },
    {
      "inputs": [
        {
          "internalType": "address payable",
          "name": "payee",
          "type": "address"
        },
        {
          "internalType": "uint256",
          "name": "tokenId",
          "type": "uint256"
        }
      ],
      "name": "withdraw",
      "outputs": [],
      "stateMutability": "nonpayable",
      "type": "function"
    }
  ],
  "bytecode": "0x608060405260006006553480156200001657600080fd5b5060405162001b8438038062001b8483398181016040528101906200003c91906200024c565b6200005c620000506200016960201b60201c565b6200017160201b60201c565b33600160006101000a81548173ffffffffffffffffffffffffffffffffffffffff021916908373ffffffffffffffffffffffffffffffffffffffff16021790555081600360006101000a81548173ffffffffffffffffffffffffffffffffffffffff021916908373ffffffffffffffffffffffffffffffffffffffff16021790555082600260006101000a81548173ffffffffffffffffffffffffffffffffffffffff021916908373ffffffffffffffffffffffffffffffffffffffff16021790555080600460006101000a81548173ffffffffffffffffffffffffffffffffffffffff021916908373ffffffffffffffffffffffffffffffffffffffff160217905550505050620002f0565b600033905090565b60008060009054906101000a900473ffffffffffffffffffffffffffffffffffffffff169050816000806101000a81548173ffffffffffffffffffffffffffffffffffffffff021916908373ffffffffffffffffffffffffffffffffffffffff1602179055508173ffffffffffffffffffffffffffffffffffffffff168173ffffffffffffffffffffffffffffffffffffffff167f8be0079c531659141344cd1fd0a4f28419497f9722a3daafe3b4186f6b6457e060405160405180910390a35050565b6000815190506200024681620002d6565b92915050565b6000806000606084860312156200026257600080fd5b6000620002728682870162000235565b9350506020620002858682870162000235565b9250506040620002988682870162000235565b9150509250925092565b6000620002af82620002b6565b9050919050565b600073ffffffffffffffffffffffffffffffffffffffff82169050919050565b620002e181620002a2565b8114620002ed57600080fd5b50565b61188480620003006000396000f3fe6080604052600436106100915760003560e01c80639a939c5f116100595780639a939c5f14610155578063b6b55f2514610180578063e202203f1461019c578063f2fde38b146101c5578063f3fef3a3146101ee57610091565b80631bd85bdb14610096578063582a1d9a146100ad578063715018a6146100d65780637cf850f2146100ed5780638da5cb5b1461012a575b600080fd5b3480156100a257600080fd5b506100ab610217565b005b3480156100b957600080fd5b506100d460048036038101906100cf9190611394565b610322565b005b3480156100e257600080fd5b506100eb6105b1565b005b3480156100f957600080fd5b50610114600480360381019061010f9190611422565b610639565b60405161012191906115f4565b60405180910390f35b34801561013657600080fd5b5061013f610656565b60405161014c9190611547565b60405180910390f35b34801561016157600080fd5b5061016a61067f565b60405161017791906115f4565b60405180910390f35b61019a60048036038101906101959190611422565b61073e565b005b3480156101a857600080fd5b506101c360048036038101906101be9190611394565b610943565b005b3480156101d157600080fd5b506101ec60048036038101906101e79190611342565b610b0c565b005b3480156101fa57600080fd5b50610215600480360381019061021091906113bd565b610c04565b005b61021f610ebc565b73ffffffffffffffffffffffffffffffffffffffff1661023d610656565b73ffffffffffffffffffffffffffffffffffffffff1614610293576040517f08c379a000000000000000000000000000000000000000000000000000000000815260040161028a906115d4565b60405180910390fd5b600460009054906101000a900473ffffffffffffffffffffffffffffffffffffffff1673ffffffffffffffffffffffffffffffffffffffff1663e9af0292306040518263ffffffff1660e01b81526004016102ee9190611547565b600060405180830381600087803b15801561030857600080fd5b505af115801561031c573d6000803e3d6000fd5b50505050565b61032a610ebc565b73ffffffffffffffffffffffffffffffffffffffff16610348610656565b73ffffffffffffffffffffffffffffffffffffffff161461039e576040517f08c379a0000000000000000000000000000000000000000000000000000000008152600401610395906115d4565b60405180910390fd5b6000600460009054906101000a900473ffffffffffffffffffffffffffffffffffffffff1673ffffffffffffffffffffffffffffffffffffffff166370a08231306040518263ffffffff1660e01b81526004016103fb9190611547565b60206040518083038186803b15801561041357600080fd5b505afa158015610427573d6000803e3d6000fd5b505050506040513d601f19601f8201168201806040525081019061044b919061144b565b9050600460009054906101000a900473ffffffffffffffffffffffffffffffffffffffff1673ffffffffffffffffffffffffffffffffffffffff1663095ea7b383836040518363ffffffff1660e01b81526004016104aa929190611562565b602060405180830381600087803b1580156104c457600080fd5b505af11580156104d8573d6000803e3d6000fd5b505050506040513d601f19601f820116820180604052508101906104fc91906113f9565b50600460009054906101000a900473ffffffffffffffffffffffffffffffffffffffff1673ffffffffffffffffffffffffffffffffffffffff1663a9059cbb83836040518363ffffffff1660e01b815260040161055a929190611562565b602060405180830381600087803b15801561057457600080fd5b505af1158015610588573d6000803e3d6000fd5b505050506040513d601f19601f820116820180604052508101906105ac91906113f9565b505050565b6105b9610ebc565b73ffffffffffffffffffffffffffffffffffffffff166105d7610656565b73ffffffffffffffffffffffffffffffffffffffff161461062d576040517f08c379a0000000000000000000000000000000000000000000000000000000008152600401610624906115d4565b60405180910390fd5b6106376000610ec4565b565b600060056000838152602001908152602001600020549050919050565b60008060009054906101000a900473ffffffffffffffffffffffffffffffffffffffff16905090565b600080600260009054906101000a900473ffffffffffffffffffffffffffffffffffffffff1673ffffffffffffffffffffffffffffffffffffffff1663bd6d894d6040518163ffffffff1660e01b815260040160206040518083038186803b1580156106ea57600080fd5b505afa1580156106fe573d6000803e3d6000fd5b505050506040513d601f19601f82011682018060405250810190610722919061144b565b9050600081600654610734919061169f565b9050809250505090565b610746610ebc565b73ffffffffffffffffffffffffffffffffffffffff16610764610656565b73ffffffffffffffffffffffffffffffffffffffff16146107ba576040517f08c379a00000000000000000000000000000000000000000000000000000000081526004016107b1906115d4565b60405180910390fd5b80600160009054906101000a900473ffffffffffffffffffffffffffffffffffffffff1673ffffffffffffffffffffffffffffffffffffffff16636352211e826040518263ffffffff1660e01b815260040161081691906115f4565b60206040518083038186803b15801561082e57600080fd5b505afa158015610842573d6000803e3d6000fd5b505050506040513d601f19601f82011682018060405250810190610866919061136b565b5060003490508060056000858152602001908152602001600020600082825461088f9190611649565b9250508190555080600660008282546108a89190611649565b9250508190555060006108ba82610f88565b146108ee577f4e487b7100000000000000000000000000000000000000000000000000000000600052600160045260246000fd5b3273ffffffffffffffffffffffffffffffffffffffff167f1599c0fcf897af5babc2bfcf707f5dc050f841b044d97c3251ecec35b9abf80b848360405161093692919061160f565b60405180910390a2505050565b61094b610ebc565b73ffffffffffffffffffffffffffffffffffffffff16610969610656565b73ffffffffffffffffffffffffffffffffffffffff16146109bf576040517f08c379a00000000000000000000000000000000000000000000000000000000081526004016109b6906115d4565b60405180910390fd5b60006109c961067f565b905060006109d682611192565b14610a0a577f4e487b7100000000000000000000000000000000000000000000000000000000600052600160045260246000fd5b600360009054906101000a900473ffffffffffffffffffffffffffffffffffffffff1673ffffffffffffffffffffffffffffffffffffffff1663095ea7b383836040518363ffffffff1660e01b8152600401610a67929190611562565b602060405180830381600087803b158015610a8157600080fd5b505af1158015610a95573d6000803e3d6000fd5b505050506040513d601f19601f82011682018060405250810190610ab991906113f9565b508173ffffffffffffffffffffffffffffffffffffffff167ff9984c8173c4b4ff9cc454f76ed19c053f4490ccb224fd9ddffeb4ef4bea353082604051610b0091906115f4565b60405180910390a25050565b610b14610ebc565b73ffffffffffffffffffffffffffffffffffffffff16610b32610656565b73ffffffffffffffffffffffffffffffffffffffff1614610b88576040517f08c379a0000000000000000000000000000000000000000000000000000000008152600401610b7f906115d4565b60405180910390fd5b600073ffffffffffffffffffffffffffffffffffffffff168173ffffffffffffffffffffffffffffffffffffffff161415610bf8576040517f08c379a0000000000000000000000000000000000000000000000000000000008152600401610bef906115b4565b60405180910390fd5b610c0181610ec4565b50565b610c0c610ebc565b73ffffffffffffffffffffffffffffffffffffffff16610c2a610656565b73ffffffffffffffffffffffffffffffffffffffff1614610c80576040517f08c379a0000000000000000000000000000000000000000000000000000000008152600401610c77906115d4565b60405180910390fd5b80600160009054906101000a900473ffffffffffffffffffffffffffffffffffffffff1673ffffffffffffffffffffffffffffffffffffffff16636352211e826040518263ffffffff1660e01b8152600401610cdc91906115f4565b60206040518083038186803b158015610cf457600080fd5b505afa158015610d08573d6000803e3d6000fd5b505050506040513d601f19601f82011682018060405250810190610d2c919061136b565b50600060056000848152602001908152602001600020549050600060056000858152602001908152602001600020819055508060066000828254610d7091906116d0565b925050819055506000610d8282611192565b14610db6577f4e487b7100000000000000000000000000000000000000000000000000000000600052600160045260246000fd5b600360009054906101000a900473ffffffffffffffffffffffffffffffffffffffff1673ffffffffffffffffffffffffffffffffffffffff1663095ea7b385836040518363ffffffff1660e01b8152600401610e13929190611562565b602060405180830381600087803b158015610e2d57600080fd5b505af1158015610e41573d6000803e3d6000fd5b505050506040513d601f19601f82011682018060405250810190610e6591906113f9565b508373ffffffffffffffffffffffffffffffffffffffff167fcf7d23a3cbe4e8b36ff82fd1b05b1b17373dc7804b4ebbd6e2356716ef2023728483604051610eae92919061160f565b60405180910390a250505050565b600033905090565b60008060009054906101000a900473ffffffffffffffffffffffffffffffffffffffff169050816000806101000a81548173ffffffffffffffffffffffffffffffffffffffff021916908373ffffffffffffffffffffffffffffffffffffffff1602179055508173ffffffffffffffffffffffffffffffffffffffff168173ffffffffffffffffffffffffffffffffffffffff167f8be0079c531659141344cd1fd0a4f28419497f9722a3daafe3b4186f6b6457e060405160405180910390a35050565b6000610f92610ebc565b73ffffffffffffffffffffffffffffffffffffffff16610fb0610656565b73ffffffffffffffffffffffffffffffffffffffff1614611006576040517f08c379a0000000000000000000000000000000000000000000000000000000008152600401610ffd906115d4565b60405180910390fd5b600360009054906101000a900473ffffffffffffffffffffffffffffffffffffffff1673ffffffffffffffffffffffffffffffffffffffff1663095ea7b3600260009054906101000a900473ffffffffffffffffffffffffffffffffffffffff16846040518363ffffffff1660e01b815260040161108592919061158b565b602060405180830381600087803b15801561109f57600080fd5b505af11580156110b3573d6000803e3d6000fd5b505050506040513d601f19601f820116820180604052508101906110d791906113f9565b506000600260009054906101000a900473ffffffffffffffffffffffffffffffffffffffff1673ffffffffffffffffffffffffffffffffffffffff1663a0712d68846040518263ffffffff1660e01b815260040161113591906115f4565b602060405180830381600087803b15801561114f57600080fd5b505af1158015611163573d6000803e3d6000fd5b505050506040513d601f19601f82011682018060405250810190611187919061144b565b905080915050919050565b600061119c610ebc565b73ffffffffffffffffffffffffffffffffffffffff166111ba610656565b73ffffffffffffffffffffffffffffffffffffffff1614611210576040517f08c379a0000000000000000000000000000000000000000000000000000000008152600401611207906115d4565b60405180910390fd5b600260009054906101000a900473ffffffffffffffffffffffffffffffffffffffff1673ffffffffffffffffffffffffffffffffffffffff1663852a12e3836040518263ffffffff1660e01b815260040161126b91906115f4565b602060405180830381600087803b15801561128557600080fd5b505af1158015611299573d6000803e3d6000fd5b505050506040513d601f19601f820116820180604052508101906112bd919061144b565b9050919050565b6000813590506112d3816117f2565b92915050565b6000815190506112e8816117f2565b92915050565b6000813590506112fd81611809565b92915050565b60008151905061131281611820565b92915050565b60008135905061132781611837565b92915050565b60008151905061133c81611837565b92915050565b60006020828403121561135457600080fd5b6000611362848285016112c4565b91505092915050565b60006020828403121561137d57600080fd5b600061138b848285016112d9565b91505092915050565b6000602082840312156113a657600080fd5b60006113b4848285016112ee565b91505092915050565b600080604083850312156113d057600080fd5b60006113de858286016112ee565b92505060206113ef85828601611318565b9150509250929050565b60006020828403121561140b57600080fd5b600061141984828501611303565b91505092915050565b60006020828403121561143457600080fd5b600061144284828501611318565b91505092915050565b60006020828403121561145d57600080fd5b600061146b8482850161132d565b91505092915050565b61147d8161175e565b82525050565b61148c81611704565b82525050565b600061149f602683611638565b91507f4f776e61626c653a206e6577206f776e657220697320746865207a65726f206160008301527f64647265737300000000000000000000000000000000000000000000000000006020830152604082019050919050565b6000611505602083611638565b91507f4f776e61626c653a2063616c6c6572206973206e6f7420746865206f776e65726000830152602082019050919050565b61154181611754565b82525050565b600060208201905061155c6000830184611483565b92915050565b60006040820190506115776000830185611474565b6115846020830184611538565b9392505050565b60006040820190506115a06000830185611483565b6115ad6020830184611538565b9392505050565b600060208201905081810360008301526115cd81611492565b9050919050565b600060208201905081810360008301526115ed816114f8565b9050919050565b60006020820190506116096000830184611538565b92915050565b60006040820190506116246000830185611538565b6116316020830184611538565b9392505050565b600082825260208201905092915050565b600061165482611754565b915061165f83611754565b9250827fffffffffffffffffffffffffffffffffffffffffffffffffffffffffffffffff0382111561169457611693611794565b5b828201905092915050565b60006116aa82611754565b91506116b583611754565b9250826116c5576116c46117c3565b5b828204905092915050565b60006116db82611754565b91506116e683611754565b9250828210156116f9576116f8611794565b5b828203905092915050565b600061170f82611734565b9050919050565b600061172182611734565b9050919050565b60008115159050919050565b600073ffffffffffffffffffffffffffffffffffffffff82169050919050565b6000819050919050565b600061176982611770565b9050919050565b600061177b82611782565b9050919050565b600061178d82611734565b9050919050565b7f4e487b7100000000000000000000000000000000000000000000000000000000600052601160045260246000fd5b7f4e487b7100000000000000000000000000000000000000000000000000000000600052601260045260246000fd5b6117fb81611704565b811461180657600080fd5b50565b61181281611716565b811461181d57600080fd5b50565b61182981611728565b811461183457600080fd5b50565b61184081611754565b811461184b57600080fd5b5056fea26469706673582212207a4ba0d5f47ccca52b959d87a4edd87c2c19a6381a79abdd6ba8f95332c07be864736f6c63430008000033",
  "linkReferences": {},
  "deployedLinkReferences": {}
}